{
	"contracts/ChickenRepblic.sol": {
		"IkoroduStore": {
			"abi": [
				{
					"inputs": [],
					"name": "getAllPrice",
					"outputs": [
						{
							"internalType": "uint256",
							"name": "",
							"type": "uint256"
						},
						{
							"internalType": "uint256",
							"name": "",
							"type": "uint256"
						},
						{
							"internalType": "uint256",
							"name": "",
							"type": "uint256"
						},
						{
							"internalType": "uint256",
							"name": "",
							"type": "uint256"
						}
					],
					"stateMutability": "view",
					"type": "function"
				},
				{
					"inputs": [],
					"name": "getBasePrice",
					"outputs": [
						{
							"internalType": "uint256",
							"name": "",
							"type": "uint256"
						},
						{
							"internalType": "uint256",
							"name": "",
							"type": "uint256"
						},
						{
							"internalType": "uint256",
							"name": "",
							"type": "uint256"
						},
						{
							"internalType": "uint256",
							"name": "",
							"type": "uint256"
						}
					],
					"stateMutability": "view",
					"type": "function"
				},
				{
					"inputs": [],
					"name": "priceOfBottle",
					"outputs": [
						{
							"internalType": "uint256",
							"name": "",
							"type": "uint256"
						}
					],
					"stateMutability": "view",
					"type": "function"
				},
				{
					"inputs": [],
					"name": "priceOfBurger",
					"outputs": [
						{
							"internalType": "uint256",
							"name": "",
							"type": "uint256"
						}
					],
					"stateMutability": "view",
					"type": "function"
				},
				{
					"inputs": [],
					"name": "priceOfRice",
					"outputs": [
						{
							"internalType": "uint256",
							"name": "",
							"type": "uint256"
						}
					],
					"stateMutability": "view",
					"type": "function"
				},
				{
					"inputs": [],
					"name": "priceOfShawarma",
					"outputs": [
						{
							"internalType": "uint256",
							"name": "",
							"type": "uint256"
						}
					],
					"stateMutability": "view",
					"type": "function"
				}
			],
			"devdoc": {
				"kind": "dev",
				"methods": {},
				"version": 1
			},
			"evm": {
				"assembly": "    /* \"contracts/ChickenRepblic.sol\":438:742  contract IkoroduStore is BaseStore {... */\n  mstore(0x40, 0x80)\n    /* \"contracts/ChickenRepblic.sol\":116:120  1000 */\n  0x03e8\n    /* \"contracts/ChickenRepblic.sol\":87:120  uint256 public priceOfRice = 1000 */\n  0x00\n  sstore\n    /* \"contracts/ChickenRepblic.sol\":158:161  500 */\n  0x01f4\n    /* \"contracts/ChickenRepblic.sol\":127:161  uint256 public priceOfBottle = 500 */\n  0x01\n  sstore\n    /* \"contracts/ChickenRepblic.sol\":199:203  2000 */\n  0x07d0\n    /* \"contracts/ChickenRepblic.sol\":168:203  uint256 public priceOfBurger = 2000 */\n  0x02\n  sstore\n    /* \"contracts/ChickenRepblic.sol\":243:247  3000 */\n  0x0bb8\n    /* \"contracts/ChickenRepblic.sol\":210:247  uint256 public priceOfShawarma = 3000 */\n  0x03\n  sstore\n    /* \"contracts/ChickenRepblic.sol\":438:742  contract IkoroduStore is BaseStore {... */\n  callvalue\n  dup1\n  iszero\n  tag_1\n  jumpi\n  0x00\n  dup1\n  revert\ntag_1:\n  pop\n  dataSize(sub_0)\n  dup1\n  dataOffset(sub_0)\n  0x00\n  codecopy\n  0x00\n  return\nstop\n\nsub_0: assembly {\n        /* \"contracts/ChickenRepblic.sol\":438:742  contract IkoroduStore is BaseStore {... */\n      mstore(0x40, 0x80)\n      callvalue\n      dup1\n      iszero\n      tag_1\n      jumpi\n      0x00\n      dup1\n      revert\n    tag_1:\n      pop\n      jumpi(tag_2, lt(calldatasize, 0x04))\n      shr(0xe0, calldataload(0x00))\n      dup1\n      0x76e5dbc1\n      eq\n      tag_3\n      jumpi\n      dup1\n      0x7f580220\n      eq\n      tag_4\n      jumpi\n      dup1\n      0xb49f4afd\n      eq\n      tag_5\n      jumpi\n      dup1\n      0xbf5b11ac\n      eq\n      tag_6\n      jumpi\n      dup1\n      0xbfdd4ad4\n      eq\n      tag_7\n      jumpi\n      dup1\n      0xf4854f1e\n      eq\n      tag_8\n      jumpi\n    tag_2:\n      0x00\n      dup1\n      revert\n        /* \"contracts/ChickenRepblic.sol\":127:161  uint256 public priceOfBottle = 500 */\n    tag_3:\n      tag_9\n      tag_10\n      jump\t// in\n    tag_9:\n      mload(0x40)\n      tag_11\n      swap2\n      swap1\n      tag_12\n      jump\t// in\n    tag_11:\n      mload(0x40)\n      dup1\n      swap2\n      sub\n      swap1\n      return\n        /* \"contracts/ChickenRepblic.sol\":87:120  uint256 public priceOfRice = 1000 */\n    tag_4:\n      tag_13\n      tag_14\n      jump\t// in\n    tag_13:\n      mload(0x40)\n      tag_15\n      swap2\n      swap1\n      tag_12\n      jump\t// in\n    tag_15:\n      mload(0x40)\n      dup1\n      swap2\n      sub\n      swap1\n      return\n        /* \"contracts/ChickenRepblic.sol\":256:431  function getBasePrice() public view virtual returns (uint256, uint256, uint256, uint256) {... */\n    tag_5:\n      tag_16\n      tag_17\n      jump\t// in\n    tag_16:\n      mload(0x40)\n      tag_18\n      swap5\n      swap4\n      swap3\n      swap2\n      swap1\n      tag_19\n      jump\t// in\n    tag_18:\n      mload(0x40)\n      dup1\n      swap2\n      sub\n      swap1\n      return\n        /* \"contracts/ChickenRepblic.sol\":482:739  function getAllPrice() public view virtual returns (uint256, uint256, uint256, uint256) {... */\n    tag_6:\n      tag_20\n      tag_21\n      jump\t// in\n    tag_20:\n      mload(0x40)\n      tag_22\n      swap5\n      swap4\n      swap3\n      swap2\n      swap1\n      tag_19\n      jump\t// in\n    tag_22:\n      mload(0x40)\n      dup1\n      swap2\n      sub\n      swap1\n      return\n        /* \"contracts/ChickenRepblic.sol\":168:203  uint256 public priceOfBurger = 2000 */\n    tag_7:\n      tag_23\n      tag_24\n      jump\t// in\n    tag_23:\n      mload(0x40)\n      tag_25\n      swap2\n      swap1\n      tag_12\n      jump\t// in\n    tag_25:\n      mload(0x40)\n      dup1\n      swap2\n      sub\n      swap1\n      return\n        /* \"contracts/ChickenRepblic.sol\":210:247  uint256 public priceOfShawarma = 3000 */\n    tag_8:\n      tag_26\n      tag_27\n      jump\t// in\n    tag_26:\n      mload(0x40)\n      tag_28\n      swap2\n      swap1\n      tag_12\n      jump\t// in\n    tag_28:\n      mload(0x40)\n      dup1\n      swap2\n      sub\n      swap1\n      return\n        /* \"contracts/ChickenRepblic.sol\":127:161  uint256 public priceOfBottle = 500 */\n    tag_10:\n      sload(0x01)\n      dup2\n      jump\t// out\n        /* \"contracts/ChickenRepblic.sol\":87:120  uint256 public priceOfRice = 1000 */\n    tag_14:\n      sload(0x00)\n      dup2\n      jump\t// out\n        /* \"contracts/ChickenRepblic.sol\":256:431  function getBasePrice() public view virtual returns (uint256, uint256, uint256, uint256) {... */\n    tag_17:\n        /* \"contracts/ChickenRepblic.sol\":309:316  uint256 */\n      0x00\n        /* \"contracts/ChickenRepblic.sol\":318:325  uint256 */\n      dup1\n        /* \"contracts/ChickenRepblic.sol\":327:334  uint256 */\n      0x00\n        /* \"contracts/ChickenRepblic.sol\":336:343  uint256 */\n      dup1\n        /* \"contracts/ChickenRepblic.sol\":364:375  priceOfRice */\n      sload(0x00)\n        /* \"contracts/ChickenRepblic.sol\":377:390  priceOfBottle */\n      sload(0x01)\n        /* \"contracts/ChickenRepblic.sol\":392:405  priceOfBurger */\n      sload(0x02)\n        /* \"contracts/ChickenRepblic.sol\":407:422  priceOfShawarma */\n      sload(0x03)\n        /* \"contracts/ChickenRepblic.sol\":356:423  return (priceOfRice, priceOfBottle, priceOfBurger, priceOfShawarma) */\n      swap4\n      pop\n      swap4\n      pop\n      swap4\n      pop\n      swap4\n      pop\n        /* \"contracts/ChickenRepblic.sol\":256:431  function getBasePrice() public view virtual returns (uint256, uint256, uint256, uint256) {... */\n      swap1\n      swap2\n      swap3\n      swap4\n      jump\t// out\n        /* \"contracts/ChickenRepblic.sol\":482:739  function getAllPrice() public view virtual returns (uint256, uint256, uint256, uint256) {... */\n    tag_21:\n        /* \"contracts/ChickenRepblic.sol\":534:541  uint256 */\n      0x00\n        /* \"contracts/ChickenRepblic.sol\":543:550  uint256 */\n      dup1\n        /* \"contracts/ChickenRepblic.sol\":552:559  uint256 */\n      0x00\n        /* \"contracts/ChickenRepblic.sol\":561:568  uint256 */\n      dup1\n        /* \"contracts/ChickenRepblic.sol\":617:619  10 */\n      0x0a\n        /* \"contracts/ChickenRepblic.sol\":603:614  priceOfRice */\n      sload(0x00)\n        /* \"contracts/ChickenRepblic.sol\":603:619  priceOfRice * 10 */\n      tag_31\n      swap2\n      swap1\n      tag_32\n      jump\t// in\n    tag_31:\n        /* \"contracts/ChickenRepblic.sol\":650:652  10 */\n      0x0a\n        /* \"contracts/ChickenRepblic.sol\":634:647  priceOfBottle */\n      sload(0x01)\n        /* \"contracts/ChickenRepblic.sol\":634:652  priceOfBottle * 10 */\n      tag_33\n      swap2\n      swap1\n      tag_32\n      jump\t// in\n    tag_33:\n        /* \"contracts/ChickenRepblic.sol\":683:685  10 */\n      0x0a\n        /* \"contracts/ChickenRepblic.sol\":667:680  priceOfBurger */\n      sload(0x02)\n        /* \"contracts/ChickenRepblic.sol\":667:685  priceOfBurger * 10 */\n      tag_34\n      swap2\n      swap1\n      tag_32\n      jump\t// in\n    tag_34:\n        /* \"contracts/ChickenRepblic.sol\":718:720  10 */\n      0x0a\n        /* \"contracts/ChickenRepblic.sol\":700:715  priceOfShawarma */\n      sload(0x03)\n        /* \"contracts/ChickenRepblic.sol\":700:720  priceOfShawarma * 10 */\n      tag_35\n      swap2\n      swap1\n      tag_32\n      jump\t// in\n    tag_35:\n        /* \"contracts/ChickenRepblic.sol\":581:731  return (... */\n      swap4\n      pop\n      swap4\n      pop\n      swap4\n      pop\n      swap4\n      pop\n        /* \"contracts/ChickenRepblic.sol\":482:739  function getAllPrice() public view virtual returns (uint256, uint256, uint256, uint256) {... */\n      swap1\n      swap2\n      swap3\n      swap4\n      jump\t// out\n        /* \"contracts/ChickenRepblic.sol\":168:203  uint256 public priceOfBurger = 2000 */\n    tag_24:\n      sload(0x02)\n      dup2\n      jump\t// out\n        /* \"contracts/ChickenRepblic.sol\":210:247  uint256 public priceOfShawarma = 3000 */\n    tag_27:\n      sload(0x03)\n      dup2\n      jump\t// out\n        /* \"#utility.yul\":7:84   */\n    tag_36:\n        /* \"#utility.yul\":44:51   */\n      0x00\n        /* \"#utility.yul\":73:78   */\n      dup2\n        /* \"#utility.yul\":62:78   */\n      swap1\n      pop\n        /* \"#utility.yul\":7:84   */\n      swap2\n      swap1\n      pop\n      jump\t// out\n        /* \"#utility.yul\":90:208   */\n    tag_37:\n        /* \"#utility.yul\":177:201   */\n      tag_42\n        /* \"#utility.yul\":195:200   */\n      dup2\n        /* \"#utility.yul\":177:201   */\n      tag_36\n      jump\t// in\n    tag_42:\n        /* \"#utility.yul\":172:175   */\n      dup3\n        /* \"#utility.yul\":165:202   */\n      mstore\n        /* \"#utility.yul\":90:208   */\n      pop\n      pop\n      jump\t// out\n        /* \"#utility.yul\":214:436   */\n    tag_12:\n        /* \"#utility.yul\":307:311   */\n      0x00\n        /* \"#utility.yul\":345:347   */\n      0x20\n        /* \"#utility.yul\":334:343   */\n      dup3\n        /* \"#utility.yul\":330:348   */\n      add\n        /* \"#utility.yul\":322:348   */\n      swap1\n      pop\n        /* \"#utility.yul\":358:429   */\n      tag_44\n        /* \"#utility.yul\":426:427   */\n      0x00\n        /* \"#utility.yul\":415:424   */\n      dup4\n        /* \"#utility.yul\":411:428   */\n      add\n        /* \"#utility.yul\":402:408   */\n      dup5\n        /* \"#utility.yul\":358:429   */\n      tag_37\n      jump\t// in\n    tag_44:\n        /* \"#utility.yul\":214:436   */\n      swap3\n      swap2\n      pop\n      pop\n      jump\t// out\n        /* \"#utility.yul\":442:995   */\n    tag_19:\n        /* \"#utility.yul\":619:623   */\n      0x00\n        /* \"#utility.yul\":657:660   */\n      0x80\n        /* \"#utility.yul\":646:655   */\n      dup3\n        /* \"#utility.yul\":642:661   */\n      add\n        /* \"#utility.yul\":634:661   */\n      swap1\n      pop\n        /* \"#utility.yul\":671:742   */\n      tag_46\n        /* \"#utility.yul\":739:740   */\n      0x00\n        /* \"#utility.yul\":728:737   */\n      dup4\n        /* \"#utility.yul\":724:741   */\n      add\n        /* \"#utility.yul\":715:721   */\n      dup8\n        /* \"#utility.yul\":671:742   */\n      tag_37\n      jump\t// in\n    tag_46:\n        /* \"#utility.yul\":752:824   */\n      tag_47\n        /* \"#utility.yul\":820:822   */\n      0x20\n        /* \"#utility.yul\":809:818   */\n      dup4\n        /* \"#utility.yul\":805:823   */\n      add\n        /* \"#utility.yul\":796:802   */\n      dup7\n        /* \"#utility.yul\":752:824   */\n      tag_37\n      jump\t// in\n    tag_47:\n        /* \"#utility.yul\":834:906   */\n      tag_48\n        /* \"#utility.yul\":902:904   */\n      0x40\n        /* \"#utility.yul\":891:900   */\n      dup4\n        /* \"#utility.yul\":887:905   */\n      add\n        /* \"#utility.yul\":878:884   */\n      dup6\n        /* \"#utility.yul\":834:906   */\n      tag_37\n      jump\t// in\n    tag_48:\n        /* \"#utility.yul\":916:988   */\n      tag_49\n        /* \"#utility.yul\":984:986   */\n      0x60\n        /* \"#utility.yul\":973:982   */\n      dup4\n        /* \"#utility.yul\":969:987   */\n      add\n        /* \"#utility.yul\":960:966   */\n      dup5\n        /* \"#utility.yul\":916:988   */\n      tag_37\n      jump\t// in\n    tag_49:\n        /* \"#utility.yul\":442:995   */\n      swap6\n      swap5\n      pop\n      pop\n      pop\n      pop\n      pop\n      jump\t// out\n        /* \"#utility.yul\":1001:1181   */\n    tag_38:\n        /* \"#utility.yul\":1049:1126   */\n      0x4e487b7100000000000000000000000000000000000000000000000000000000\n        /* \"#utility.yul\":1046:1047   */\n      0x00\n        /* \"#utility.yul\":1039:1127   */\n      mstore\n        /* \"#utility.yul\":1146:1150   */\n      0x11\n        /* \"#utility.yul\":1143:1144   */\n      0x04\n        /* \"#utility.yul\":1136:1151   */\n      mstore\n        /* \"#utility.yul\":1170:1174   */\n      0x24\n        /* \"#utility.yul\":1167:1168   */\n      0x00\n        /* \"#utility.yul\":1160:1175   */\n      revert\n        /* \"#utility.yul\":1187:1597   */\n    tag_32:\n        /* \"#utility.yul\":1227:1234   */\n      0x00\n        /* \"#utility.yul\":1250:1270   */\n      tag_52\n        /* \"#utility.yul\":1268:1269   */\n      dup3\n        /* \"#utility.yul\":1250:1270   */\n      tag_36\n      jump\t// in\n    tag_52:\n        /* \"#utility.yul\":1245:1270   */\n      swap2\n      pop\n        /* \"#utility.yul\":1284:1304   */\n      tag_53\n        /* \"#utility.yul\":1302:1303   */\n      dup4\n        /* \"#utility.yul\":1284:1304   */\n      tag_36\n      jump\t// in\n    tag_53:\n        /* \"#utility.yul\":1279:1304   */\n      swap3\n      pop\n        /* \"#utility.yul\":1339:1340   */\n      dup3\n        /* \"#utility.yul\":1336:1337   */\n      dup3\n        /* \"#utility.yul\":1332:1341   */\n      mul\n        /* \"#utility.yul\":1361:1391   */\n      tag_54\n        /* \"#utility.yul\":1379:1390   */\n      dup2\n        /* \"#utility.yul\":1361:1391   */\n      tag_36\n      jump\t// in\n    tag_54:\n        /* \"#utility.yul\":1350:1391   */\n      swap2\n      pop\n        /* \"#utility.yul\":1540:1541   */\n      dup3\n        /* \"#utility.yul\":1531:1538   */\n      dup3\n        /* \"#utility.yul\":1527:1542   */\n      div\n        /* \"#utility.yul\":1524:1525   */\n      dup5\n        /* \"#utility.yul\":1521:1543   */\n      eq\n        /* \"#utility.yul\":1501:1502   */\n      dup4\n        /* \"#utility.yul\":1494:1503   */\n      iszero\n        /* \"#utility.yul\":1474:1557   */\n      or\n        /* \"#utility.yul\":1451:1590   */\n      tag_55\n      jumpi\n        /* \"#utility.yul\":1570:1588   */\n      tag_56\n      tag_38\n      jump\t// in\n    tag_56:\n        /* \"#utility.yul\":1451:1590   */\n    tag_55:\n        /* \"#utility.yul\":1235:1597   */\n      pop\n        /* \"#utility.yul\":1187:1597   */\n      swap3\n      swap2\n      pop\n      pop\n      jump\t// out\n\n    auxdata: 0xa26469706673582212200f8a0c16c257e3d668a2334aa8c21c4156dba86efbee0a11bb61b30fb219d86f64736f6c634300081a0033\n}\n",
				"bytecode": {
					"linkReferences": {},
					"object": "60806040526103e85f556101f46001556107d0600255610bb86003553480156025575f80fd5b506102b7806100335f395ff3fe608060405234801561000f575f80fd5b5060043610610060575f3560e01c806376e5dbc1146100645780637f58022014610082578063b49f4afd146100a0578063bf5b11ac146100c1578063bfdd4ad4146100e2578063f4854f1e14610100575b5f80fd5b61006c61011e565b60405161007991906101b7565b60405180910390f35b61008a610124565b60405161009791906101b7565b60405180910390f35b6100a8610129565b6040516100b894939291906101d0565b60405180910390f35b6100c9610146565b6040516100d994939291906101d0565b60405180910390f35b6100ea610193565b6040516100f791906101b7565b60405180910390f35b610108610199565b60405161011591906101b7565b60405180910390f35b60015481565b5f5481565b5f805f805f54600154600254600354935093509350935090919293565b5f805f80600a5f546101589190610240565b600a6001546101679190610240565b600a6002546101769190610240565b600a6003546101859190610240565b935093509350935090919293565b60025481565b60035481565b5f819050919050565b6101b18161019f565b82525050565b5f6020820190506101ca5f8301846101a8565b92915050565b5f6080820190506101e35f8301876101a8565b6101f060208301866101a8565b6101fd60408301856101a8565b61020a60608301846101a8565b95945050505050565b7f4e487b71000000000000000000000000000000000000000000000000000000005f52601160045260245ffd5b5f61024a8261019f565b91506102558361019f565b92508282026102638161019f565b9150828204841483151761027a57610279610213565b5b509291505056fea26469706673582212200f8a0c16c257e3d668a2334aa8c21c4156dba86efbee0a11bb61b30fb219d86f64736f6c634300081a0033",
					"opcodes": "PUSH1 0x80 PUSH1 0x40 MSTORE PUSH2 0x3E8 PUSH0 SSTORE PUSH2 0x1F4 PUSH1 0x1 SSTORE PUSH2 0x7D0 PUSH1 0x2 SSTORE PUSH2 0xBB8 PUSH1 0x3 SSTORE CALLVALUE DUP1 ISZERO PUSH1 0x25 JUMPI PUSH0 DUP1 REVERT JUMPDEST POP PUSH2 0x2B7 DUP1 PUSH2 0x33 PUSH0 CODECOPY PUSH0 RETURN INVALID PUSH1 0x80 PUSH1 0x40 MSTORE CALLVALUE DUP1 ISZERO PUSH2 0xF JUMPI PUSH0 DUP1 REVERT JUMPDEST POP PUSH1 0x4 CALLDATASIZE LT PUSH2 0x60 JUMPI PUSH0 CALLDATALOAD PUSH1 0xE0 SHR DUP1 PUSH4 0x76E5DBC1 EQ PUSH2 0x64 JUMPI DUP1 PUSH4 0x7F580220 EQ PUSH2 0x82 JUMPI DUP1 PUSH4 0xB49F4AFD EQ PUSH2 0xA0 JUMPI DUP1 PUSH4 0xBF5B11AC EQ PUSH2 0xC1 JUMPI DUP1 PUSH4 0xBFDD4AD4 EQ PUSH2 0xE2 JUMPI DUP1 PUSH4 0xF4854F1E EQ PUSH2 0x100 JUMPI JUMPDEST PUSH0 DUP1 REVERT JUMPDEST PUSH2 0x6C PUSH2 0x11E JUMP JUMPDEST PUSH1 0x40 MLOAD PUSH2 0x79 SWAP2 SWAP1 PUSH2 0x1B7 JUMP JUMPDEST PUSH1 0x40 MLOAD DUP1 SWAP2 SUB SWAP1 RETURN JUMPDEST PUSH2 0x8A PUSH2 0x124 JUMP JUMPDEST PUSH1 0x40 MLOAD PUSH2 0x97 SWAP2 SWAP1 PUSH2 0x1B7 JUMP JUMPDEST PUSH1 0x40 MLOAD DUP1 SWAP2 SUB SWAP1 RETURN JUMPDEST PUSH2 0xA8 PUSH2 0x129 JUMP JUMPDEST PUSH1 0x40 MLOAD PUSH2 0xB8 SWAP5 SWAP4 SWAP3 SWAP2 SWAP1 PUSH2 0x1D0 JUMP JUMPDEST PUSH1 0x40 MLOAD DUP1 SWAP2 SUB SWAP1 RETURN JUMPDEST PUSH2 0xC9 PUSH2 0x146 JUMP JUMPDEST PUSH1 0x40 MLOAD PUSH2 0xD9 SWAP5 SWAP4 SWAP3 SWAP2 SWAP1 PUSH2 0x1D0 JUMP JUMPDEST PUSH1 0x40 MLOAD DUP1 SWAP2 SUB SWAP1 RETURN JUMPDEST PUSH2 0xEA PUSH2 0x193 JUMP JUMPDEST PUSH1 0x40 MLOAD PUSH2 0xF7 SWAP2 SWAP1 PUSH2 0x1B7 JUMP JUMPDEST PUSH1 0x40 MLOAD DUP1 SWAP2 SUB SWAP1 RETURN JUMPDEST PUSH2 0x108 PUSH2 0x199 JUMP JUMPDEST PUSH1 0x40 MLOAD PUSH2 0x115 SWAP2 SWAP1 PUSH2 0x1B7 JUMP JUMPDEST PUSH1 0x40 MLOAD DUP1 SWAP2 SUB SWAP1 RETURN JUMPDEST PUSH1 0x1 SLOAD DUP2 JUMP JUMPDEST PUSH0 SLOAD DUP2 JUMP JUMPDEST PUSH0 DUP1 PUSH0 DUP1 PUSH0 SLOAD PUSH1 0x1 SLOAD PUSH1 0x2 SLOAD PUSH1 0x3 SLOAD SWAP4 POP SWAP4 POP SWAP4 POP SWAP4 POP SWAP1 SWAP2 SWAP3 SWAP4 JUMP JUMPDEST PUSH0 DUP1 PUSH0 DUP1 PUSH1 0xA PUSH0 SLOAD PUSH2 0x158 SWAP2 SWAP1 PUSH2 0x240 JUMP JUMPDEST PUSH1 0xA PUSH1 0x1 SLOAD PUSH2 0x167 SWAP2 SWAP1 PUSH2 0x240 JUMP JUMPDEST PUSH1 0xA PUSH1 0x2 SLOAD PUSH2 0x176 SWAP2 SWAP1 PUSH2 0x240 JUMP JUMPDEST PUSH1 0xA PUSH1 0x3 SLOAD PUSH2 0x185 SWAP2 SWAP1 PUSH2 0x240 JUMP JUMPDEST SWAP4 POP SWAP4 POP SWAP4 POP SWAP4 POP SWAP1 SWAP2 SWAP3 SWAP4 JUMP JUMPDEST PUSH1 0x2 SLOAD DUP2 JUMP JUMPDEST PUSH1 0x3 SLOAD DUP2 JUMP JUMPDEST PUSH0 DUP2 SWAP1 POP SWAP2 SWAP1 POP JUMP JUMPDEST PUSH2 0x1B1 DUP2 PUSH2 0x19F JUMP JUMPDEST DUP3 MSTORE POP POP JUMP JUMPDEST PUSH0 PUSH1 0x20 DUP3 ADD SWAP1 POP PUSH2 0x1CA PUSH0 DUP4 ADD DUP5 PUSH2 0x1A8 JUMP JUMPDEST SWAP3 SWAP2 POP POP JUMP JUMPDEST PUSH0 PUSH1 0x80 DUP3 ADD SWAP1 POP PUSH2 0x1E3 PUSH0 DUP4 ADD DUP8 PUSH2 0x1A8 JUMP JUMPDEST PUSH2 0x1F0 PUSH1 0x20 DUP4 ADD DUP7 PUSH2 0x1A8 JUMP JUMPDEST PUSH2 0x1FD PUSH1 0x40 DUP4 ADD DUP6 PUSH2 0x1A8 JUMP JUMPDEST PUSH2 0x20A PUSH1 0x60 DUP4 ADD DUP5 PUSH2 0x1A8 JUMP JUMPDEST SWAP6 SWAP5 POP POP POP POP POP JUMP JUMPDEST PUSH32 0x4E487B7100000000000000000000000000000000000000000000000000000000 PUSH0 MSTORE PUSH1 0x11 PUSH1 0x4 MSTORE PUSH1 0x24 PUSH0 REVERT JUMPDEST PUSH0 PUSH2 0x24A DUP3 PUSH2 0x19F JUMP JUMPDEST SWAP2 POP PUSH2 0x255 DUP4 PUSH2 0x19F JUMP JUMPDEST SWAP3 POP DUP3 DUP3 MUL PUSH2 0x263 DUP2 PUSH2 0x19F JUMP JUMPDEST SWAP2 POP DUP3 DUP3 DIV DUP5 EQ DUP4 ISZERO OR PUSH2 0x27A JUMPI PUSH2 0x279 PUSH2 0x213 JUMP JUMPDEST JUMPDEST POP SWAP3 SWAP2 POP POP JUMP INVALID LOG2 PUSH5 0x6970667358 0x22 SLT KECCAK256 0xF DUP11 0xC AND 0xC2 JUMPI 0xE3 0xD6 PUSH9 0xA2334AA8C21C4156DB 0xA8 PUSH15 0xFBEE0A11BB61B30FB219D86F64736F PUSH13 0x634300081A0033000000000000 "
				},
				"gasEstimates": {
					"creation": {
						"codeDepositCost": "139000",
						"executionCost": "88604",
						"totalCost": "227604"
					},
					"external": {
						"getAllPrice()": "infinite",
						"getBasePrice()": "infinite",
						"priceOfBottle()": "2403",
						"priceOfBurger()": "2491",
						"priceOfRice()": "2424",
						"priceOfShawarma()": "2513"
					}
				},
				"methodIdentifiers": {
					"getAllPrice()": "bf5b11ac",
					"getBasePrice()": "b49f4afd",
					"priceOfBottle()": "76e5dbc1",
					"priceOfBurger()": "bfdd4ad4",
					"priceOfRice()": "7f580220",
					"priceOfShawarma()": "f4854f1e"
				}
			},
			"storageLayout": {
				"storage": [
					{
						"astId": 4,
						"contract": "contracts/ChickenRepblic.sol:IkoroduStore",
						"label": "priceOfRice",
						"offset": 0,
						"slot": "0",
						"type": "t_uint256"
					},
					{
						"astId": 7,
						"contract": "contracts/ChickenRepblic.sol:IkoroduStore",
						"label": "priceOfBottle",
						"offset": 0,
						"slot": "1",
						"type": "t_uint256"
					},
					{
						"astId": 10,
						"contract": "contracts/ChickenRepblic.sol:IkoroduStore",
						"label": "priceOfBurger",
						"offset": 0,
						"slot": "2",
						"type": "t_uint256"
					},
					{
						"astId": 13,
						"contract": "contracts/ChickenRepblic.sol:IkoroduStore",
						"label": "priceOfShawarma",
						"offset": 0,
						"slot": "3",
						"type": "t_uint256"
					}
				],
				"types": {
					"t_uint256": {
						"encoding": "inplace",
						"label": "uint256",
						"numberOfBytes": "32"
					}
				}
			},
			"userdoc": {
				"kind": "user",
				"methods": {},
				"version": 1
			}
		}
	}
}