{
	"contracts/ChickenRepblic.sol": {
		"VictoriaIslandStore": {
			"abi": [
				{
					"inputs": [],
					"name": "IkoroduStorePrice",
					"outputs": [
						{
							"internalType": "uint256",
							"name": "",
							"type": "uint256"
						},
						{
							"internalType": "uint256",
							"name": "",
							"type": "uint256"
						},
						{
							"internalType": "uint256",
							"name": "",
							"type": "uint256"
						},
						{
							"internalType": "uint256",
							"name": "",
							"type": "uint256"
						}
					],
					"stateMutability": "view",
					"type": "function"
				},
				{
					"inputs": [],
					"name": "getAllPrice",
					"outputs": [
						{
							"internalType": "uint256",
							"name": "",
							"type": "uint256"
						},
						{
							"internalType": "uint256",
							"name": "",
							"type": "uint256"
						},
						{
							"internalType": "uint256",
							"name": "",
							"type": "uint256"
						},
						{
							"internalType": "uint256",
							"name": "",
							"type": "uint256"
						}
					],
					"stateMutability": "view",
					"type": "function"
				},
				{
					"inputs": [],
					"name": "getBasePrice",
					"outputs": [
						{
							"internalType": "uint256",
							"name": "",
							"type": "uint256"
						},
						{
							"internalType": "uint256",
							"name": "",
							"type": "uint256"
						},
						{
							"internalType": "uint256",
							"name": "",
							"type": "uint256"
						},
						{
							"internalType": "uint256",
							"name": "",
							"type": "uint256"
						}
					],
					"stateMutability": "view",
					"type": "function"
				},
				{
					"inputs": [],
					"name": "getMainLandStorePrice",
					"outputs": [
						{
							"internalType": "uint256",
							"name": "",
							"type": "uint256"
						},
						{
							"internalType": "uint256",
							"name": "",
							"type": "uint256"
						},
						{
							"internalType": "uint256",
							"name": "",
							"type": "uint256"
						},
						{
							"internalType": "uint256",
							"name": "",
							"type": "uint256"
						}
					],
					"stateMutability": "view",
					"type": "function"
				},
				{
					"inputs": [],
					"name": "priceOfBottle",
					"outputs": [
						{
							"internalType": "uint256",
							"name": "",
							"type": "uint256"
						}
					],
					"stateMutability": "view",
					"type": "function"
				},
				{
					"inputs": [],
					"name": "priceOfBurger",
					"outputs": [
						{
							"internalType": "uint256",
							"name": "",
							"type": "uint256"
						}
					],
					"stateMutability": "view",
					"type": "function"
				},
				{
					"inputs": [],
					"name": "priceOfRice",
					"outputs": [
						{
							"internalType": "uint256",
							"name": "",
							"type": "uint256"
						}
					],
					"stateMutability": "view",
					"type": "function"
				},
				{
					"inputs": [],
					"name": "priceOfShawarma",
					"outputs": [
						{
							"internalType": "uint256",
							"name": "",
							"type": "uint256"
						}
					],
					"stateMutability": "view",
					"type": "function"
				}
			],
			"devdoc": {
				"kind": "dev",
				"methods": {},
				"version": 1
			},
			"evm": {
				"assembly": "    /* \"contracts/ChickenRepblic.sol\":1225:1746  contract VictoriaIslandStore is BaseStore, IkoroduStore, MainLandStore {... */\n  mstore(0x40, 0x80)\n    /* \"contracts/ChickenRepblic.sol\":116:120  1000 */\n  0x03e8\n    /* \"contracts/ChickenRepblic.sol\":87:120  uint256 public priceOfRice = 1000 */\n  0x00\n  sstore\n    /* \"contracts/ChickenRepblic.sol\":158:161  500 */\n  0x01f4\n    /* \"contracts/ChickenRepblic.sol\":127:161  uint256 public priceOfBottle = 500 */\n  0x01\n  sstore\n    /* \"contracts/ChickenRepblic.sol\":199:203  2000 */\n  0x07d0\n    /* \"contracts/ChickenRepblic.sol\":168:203  uint256 public priceOfBurger = 2000 */\n  0x02\n  sstore\n    /* \"contracts/ChickenRepblic.sol\":243:247  3000 */\n  0x0bb8\n    /* \"contracts/ChickenRepblic.sol\":210:247  uint256 public priceOfShawarma = 3000 */\n  0x03\n  sstore\n    /* \"contracts/ChickenRepblic.sol\":1225:1746  contract VictoriaIslandStore is BaseStore, IkoroduStore, MainLandStore {... */\n  callvalue\n  dup1\n  iszero\n  tag_1\n  jumpi\n  0x00\n  dup1\n  revert\ntag_1:\n  pop\n  dataSize(sub_0)\n  dup1\n  dataOffset(sub_0)\n  0x00\n  codecopy\n  0x00\n  return\nstop\n\nsub_0: assembly {\n        /* \"contracts/ChickenRepblic.sol\":1225:1746  contract VictoriaIslandStore is BaseStore, IkoroduStore, MainLandStore {... */\n      mstore(0x40, 0x80)\n      callvalue\n      dup1\n      iszero\n      tag_1\n      jumpi\n      0x00\n      dup1\n      revert\n    tag_1:\n      pop\n      jumpi(tag_2, lt(calldatasize, 0x04))\n      shr(0xe0, calldataload(0x00))\n      dup1\n      0xbf5b11ac\n      gt\n      tag_11\n      jumpi\n      dup1\n      0xbf5b11ac\n      eq\n      tag_7\n      jumpi\n      dup1\n      0xbfdd4ad4\n      eq\n      tag_8\n      jumpi\n      dup1\n      0xc48216d2\n      eq\n      tag_9\n      jumpi\n      dup1\n      0xf4854f1e\n      eq\n      tag_10\n      jumpi\n      jump(tag_2)\n    tag_11:\n      dup1\n      0x3beafb6b\n      eq\n      tag_3\n      jumpi\n      dup1\n      0x76e5dbc1\n      eq\n      tag_4\n      jumpi\n      dup1\n      0x7f580220\n      eq\n      tag_5\n      jumpi\n      dup1\n      0xb49f4afd\n      eq\n      tag_6\n      jumpi\n    tag_2:\n      0x00\n      dup1\n      revert\n        /* \"contracts/ChickenRepblic.sol\":1079:1218  function IkoroduStorePrice() public view virtual returns (uint256, uint256, uint256, uint256) {... */\n    tag_3:\n      tag_12\n      tag_13\n      jump\t// in\n    tag_12:\n      mload(0x40)\n      tag_14\n      swap5\n      swap4\n      swap3\n      swap2\n      swap1\n      tag_15\n      jump\t// in\n    tag_14:\n      mload(0x40)\n      dup1\n      swap2\n      sub\n      swap1\n      return\n        /* \"contracts/ChickenRepblic.sol\":127:161  uint256 public priceOfBottle = 500 */\n    tag_4:\n      tag_16\n      tag_17\n      jump\t// in\n    tag_16:\n      mload(0x40)\n      tag_18\n      swap2\n      swap1\n      tag_19\n      jump\t// in\n    tag_18:\n      mload(0x40)\n      dup1\n      swap2\n      sub\n      swap1\n      return\n        /* \"contracts/ChickenRepblic.sol\":87:120  uint256 public priceOfRice = 1000 */\n    tag_5:\n      tag_20\n      tag_21\n      jump\t// in\n    tag_20:\n      mload(0x40)\n      tag_22\n      swap2\n      swap1\n      tag_19\n      jump\t// in\n    tag_22:\n      mload(0x40)\n      dup1\n      swap2\n      sub\n      swap1\n      return\n        /* \"contracts/ChickenRepblic.sol\":256:431  function getBasePrice() public view virtual returns (uint256, uint256, uint256, uint256) {... */\n    tag_6:\n      tag_23\n      tag_24\n      jump\t// in\n    tag_23:\n      mload(0x40)\n      tag_25\n      swap5\n      swap4\n      swap3\n      swap2\n      swap1\n      tag_15\n      jump\t// in\n    tag_25:\n      mload(0x40)\n      dup1\n      swap2\n      sub\n      swap1\n      return\n        /* \"contracts/ChickenRepblic.sol\":1456:1743  function getAllPrice() public view override(IkoroduStore, MainLandStore) returns (uint256, uint256, uint256, uint256) {... */\n    tag_7:\n      tag_26\n      tag_27\n      jump\t// in\n    tag_26:\n      mload(0x40)\n      tag_28\n      swap5\n      swap4\n      swap3\n      swap2\n      swap1\n      tag_15\n      jump\t// in\n    tag_28:\n      mload(0x40)\n      dup1\n      swap2\n      sub\n      swap1\n      return\n        /* \"contracts/ChickenRepblic.sol\":168:203  uint256 public priceOfBurger = 2000 */\n    tag_8:\n      tag_29\n      tag_30\n      jump\t// in\n    tag_29:\n      mload(0x40)\n      tag_31\n      swap2\n      swap1\n      tag_19\n      jump\t// in\n    tag_31:\n      mload(0x40)\n      dup1\n      swap2\n      sub\n      swap1\n      return\n        /* \"contracts/ChickenRepblic.sol\":1305:1448  function getMainLandStorePrice() public view virtual returns (uint256, uint256, uint256, uint256) {... */\n    tag_9:\n      tag_32\n      tag_33\n      jump\t// in\n    tag_32:\n      mload(0x40)\n      tag_34\n      swap5\n      swap4\n      swap3\n      swap2\n      swap1\n      tag_15\n      jump\t// in\n    tag_34:\n      mload(0x40)\n      dup1\n      swap2\n      sub\n      swap1\n      return\n        /* \"contracts/ChickenRepblic.sol\":210:247  uint256 public priceOfShawarma = 3000 */\n    tag_10:\n      tag_35\n      tag_36\n      jump\t// in\n    tag_35:\n      mload(0x40)\n      tag_37\n      swap2\n      swap1\n      tag_19\n      jump\t// in\n    tag_37:\n      mload(0x40)\n      dup1\n      swap2\n      sub\n      swap1\n      return\n        /* \"contracts/ChickenRepblic.sol\":1079:1218  function IkoroduStorePrice() public view virtual returns (uint256, uint256, uint256, uint256) {... */\n    tag_13:\n        /* \"contracts/ChickenRepblic.sol\":1137:1144  uint256 */\n      0x00\n        /* \"contracts/ChickenRepblic.sol\":1146:1153  uint256 */\n      dup1\n        /* \"contracts/ChickenRepblic.sol\":1155:1162  uint256 */\n      0x00\n        /* \"contracts/ChickenRepblic.sol\":1164:1171  uint256 */\n      dup1\n        /* \"contracts/ChickenRepblic.sol\":1191:1210  super.getAllPrice() */\n      tag_39\n        /* \"contracts/ChickenRepblic.sol\":1191:1208  super.getAllPrice */\n      tag_40\n        /* \"contracts/ChickenRepblic.sol\":1191:1210  super.getAllPrice() */\n      jump\t// in\n    tag_39:\n        /* \"contracts/ChickenRepblic.sol\":1184:1210  return super.getAllPrice() */\n      swap4\n      pop\n      swap4\n      pop\n      swap4\n      pop\n      swap4\n      pop\n        /* \"contracts/ChickenRepblic.sol\":1079:1218  function IkoroduStorePrice() public view virtual returns (uint256, uint256, uint256, uint256) {... */\n      swap1\n      swap2\n      swap3\n      swap4\n      jump\t// out\n        /* \"contracts/ChickenRepblic.sol\":127:161  uint256 public priceOfBottle = 500 */\n    tag_17:\n      sload(0x01)\n      dup2\n      jump\t// out\n        /* \"contracts/ChickenRepblic.sol\":87:120  uint256 public priceOfRice = 1000 */\n    tag_21:\n      sload(0x00)\n      dup2\n      jump\t// out\n        /* \"contracts/ChickenRepblic.sol\":256:431  function getBasePrice() public view virtual returns (uint256, uint256, uint256, uint256) {... */\n    tag_24:\n        /* \"contracts/ChickenRepblic.sol\":309:316  uint256 */\n      0x00\n        /* \"contracts/ChickenRepblic.sol\":318:325  uint256 */\n      dup1\n        /* \"contracts/ChickenRepblic.sol\":327:334  uint256 */\n      0x00\n        /* \"contracts/ChickenRepblic.sol\":336:343  uint256 */\n      dup1\n        /* \"contracts/ChickenRepblic.sol\":364:375  priceOfRice */\n      sload(0x00)\n        /* \"contracts/ChickenRepblic.sol\":377:390  priceOfBottle */\n      sload(0x01)\n        /* \"contracts/ChickenRepblic.sol\":392:405  priceOfBurger */\n      sload(0x02)\n        /* \"contracts/ChickenRepblic.sol\":407:422  priceOfShawarma */\n      sload(0x03)\n        /* \"contracts/ChickenRepblic.sol\":356:423  return (priceOfRice, priceOfBottle, priceOfBurger, priceOfShawarma) */\n      swap4\n      pop\n      swap4\n      pop\n      swap4\n      pop\n      swap4\n      pop\n        /* \"contracts/ChickenRepblic.sol\":256:431  function getBasePrice() public view virtual returns (uint256, uint256, uint256, uint256) {... */\n      swap1\n      swap2\n      swap3\n      swap4\n      jump\t// out\n        /* \"contracts/ChickenRepblic.sol\":1456:1743  function getAllPrice() public view override(IkoroduStore, MainLandStore) returns (uint256, uint256, uint256, uint256) {... */\n    tag_27:\n        /* \"contracts/ChickenRepblic.sol\":1538:1545  uint256 */\n      0x00\n        /* \"contracts/ChickenRepblic.sol\":1547:1554  uint256 */\n      dup1\n        /* \"contracts/ChickenRepblic.sol\":1556:1563  uint256 */\n      0x00\n        /* \"contracts/ChickenRepblic.sol\":1565:1572  uint256 */\n      dup1\n        /* \"contracts/ChickenRepblic.sol\":1621:1623  25 */\n      0x19\n        /* \"contracts/ChickenRepblic.sol\":1607:1618  priceOfRice */\n      sload(0x00)\n        /* \"contracts/ChickenRepblic.sol\":1607:1623  priceOfRice * 25 */\n      tag_43\n      swap2\n      swap1\n      tag_44\n      jump\t// in\n    tag_43:\n        /* \"contracts/ChickenRepblic.sol\":1654:1656  25 */\n      0x19\n        /* \"contracts/ChickenRepblic.sol\":1638:1651  priceOfBottle */\n      sload(0x01)\n        /* \"contracts/ChickenRepblic.sol\":1638:1656  priceOfBottle * 25 */\n      tag_45\n      swap2\n      swap1\n      tag_44\n      jump\t// in\n    tag_45:\n        /* \"contracts/ChickenRepblic.sol\":1687:1689  25 */\n      0x19\n        /* \"contracts/ChickenRepblic.sol\":1671:1684  priceOfBurger */\n      sload(0x02)\n        /* \"contracts/ChickenRepblic.sol\":1671:1689  priceOfBurger * 25 */\n      tag_46\n      swap2\n      swap1\n      tag_44\n      jump\t// in\n    tag_46:\n        /* \"contracts/ChickenRepblic.sol\":1722:1724  25 */\n      0x19\n        /* \"contracts/ChickenRepblic.sol\":1704:1719  priceOfShawarma */\n      sload(0x03)\n        /* \"contracts/ChickenRepblic.sol\":1704:1724  priceOfShawarma * 25 */\n      tag_47\n      swap2\n      swap1\n      tag_44\n      jump\t// in\n    tag_47:\n        /* \"contracts/ChickenRepblic.sol\":1585:1735  return (... */\n      swap4\n      pop\n      swap4\n      pop\n      swap4\n      pop\n      swap4\n      pop\n        /* \"contracts/ChickenRepblic.sol\":1456:1743  function getAllPrice() public view override(IkoroduStore, MainLandStore) returns (uint256, uint256, uint256, uint256) {... */\n      swap1\n      swap2\n      swap3\n      swap4\n      jump\t// out\n        /* \"contracts/ChickenRepblic.sol\":168:203  uint256 public priceOfBurger = 2000 */\n    tag_30:\n      sload(0x02)\n      dup2\n      jump\t// out\n        /* \"contracts/ChickenRepblic.sol\":1305:1448  function getMainLandStorePrice() public view virtual returns (uint256, uint256, uint256, uint256) {... */\n    tag_33:\n        /* \"contracts/ChickenRepblic.sol\":1367:1374  uint256 */\n      0x00\n        /* \"contracts/ChickenRepblic.sol\":1376:1383  uint256 */\n      dup1\n        /* \"contracts/ChickenRepblic.sol\":1385:1392  uint256 */\n      0x00\n        /* \"contracts/ChickenRepblic.sol\":1394:1401  uint256 */\n      dup1\n        /* \"contracts/ChickenRepblic.sol\":1421:1440  super.getAllPrice() */\n      tag_49\n        /* \"contracts/ChickenRepblic.sol\":1421:1438  super.getAllPrice */\n      tag_50\n        /* \"contracts/ChickenRepblic.sol\":1421:1440  super.getAllPrice() */\n      jump\t// in\n    tag_49:\n        /* \"contracts/ChickenRepblic.sol\":1414:1440  return super.getAllPrice() */\n      swap4\n      pop\n      swap4\n      pop\n      swap4\n      pop\n      swap4\n      pop\n        /* \"contracts/ChickenRepblic.sol\":1305:1448  function getMainLandStorePrice() public view virtual returns (uint256, uint256, uint256, uint256) {... */\n      swap1\n      swap2\n      swap3\n      swap4\n      jump\t// out\n        /* \"contracts/ChickenRepblic.sol\":210:247  uint256 public priceOfShawarma = 3000 */\n    tag_36:\n      sload(0x03)\n      dup2\n      jump\t// out\n        /* \"contracts/ChickenRepblic.sol\":482:739  function getAllPrice() public view virtual returns (uint256, uint256, uint256, uint256) {... */\n    tag_40:\n        /* \"contracts/ChickenRepblic.sol\":534:541  uint256 */\n      0x00\n        /* \"contracts/ChickenRepblic.sol\":543:550  uint256 */\n      dup1\n        /* \"contracts/ChickenRepblic.sol\":552:559  uint256 */\n      0x00\n        /* \"contracts/ChickenRepblic.sol\":561:568  uint256 */\n      dup1\n        /* \"contracts/ChickenRepblic.sol\":617:619  10 */\n      0x0a\n        /* \"contracts/ChickenRepblic.sol\":603:614  priceOfRice */\n      sload(0x00)\n        /* \"contracts/ChickenRepblic.sol\":603:619  priceOfRice * 10 */\n      tag_52\n      swap2\n      swap1\n      tag_44\n      jump\t// in\n    tag_52:\n        /* \"contracts/ChickenRepblic.sol\":650:652  10 */\n      0x0a\n        /* \"contracts/ChickenRepblic.sol\":634:647  priceOfBottle */\n      sload(0x01)\n        /* \"contracts/ChickenRepblic.sol\":634:652  priceOfBottle * 10 */\n      tag_53\n      swap2\n      swap1\n      tag_44\n      jump\t// in\n    tag_53:\n        /* \"contracts/ChickenRepblic.sol\":683:685  10 */\n      0x0a\n        /* \"contracts/ChickenRepblic.sol\":667:680  priceOfBurger */\n      sload(0x02)\n        /* \"contracts/ChickenRepblic.sol\":667:685  priceOfBurger * 10 */\n      tag_54\n      swap2\n      swap1\n      tag_44\n      jump\t// in\n    tag_54:\n        /* \"contracts/ChickenRepblic.sol\":718:720  10 */\n      0x0a\n        /* \"contracts/ChickenRepblic.sol\":700:715  priceOfShawarma */\n      sload(0x03)\n        /* \"contracts/ChickenRepblic.sol\":700:720  priceOfShawarma * 10 */\n      tag_55\n      swap2\n      swap1\n      tag_44\n      jump\t// in\n    tag_55:\n        /* \"contracts/ChickenRepblic.sol\":581:731  return (... */\n      swap4\n      pop\n      swap4\n      pop\n      swap4\n      pop\n      swap4\n      pop\n        /* \"contracts/ChickenRepblic.sol\":482:739  function getAllPrice() public view virtual returns (uint256, uint256, uint256, uint256) {... */\n      swap1\n      swap2\n      swap3\n      swap4\n      jump\t// out\n        /* \"contracts/ChickenRepblic.sol\":805:1071  function getAllPrice() public view virtual override returns (uint256, uint256, uint256, uint256) {... */\n    tag_50:\n        /* \"contracts/ChickenRepblic.sol\":866:873  uint256 */\n      0x00\n        /* \"contracts/ChickenRepblic.sol\":875:882  uint256 */\n      dup1\n        /* \"contracts/ChickenRepblic.sol\":884:891  uint256 */\n      0x00\n        /* \"contracts/ChickenRepblic.sol\":893:900  uint256 */\n      dup1\n        /* \"contracts/ChickenRepblic.sol\":949:951  15 */\n      0x0f\n        /* \"contracts/ChickenRepblic.sol\":935:946  priceOfRice */\n      sload(0x00)\n        /* \"contracts/ChickenRepblic.sol\":935:951  priceOfRice * 15 */\n      tag_57\n      swap2\n      swap1\n      tag_44\n      jump\t// in\n    tag_57:\n        /* \"contracts/ChickenRepblic.sol\":982:984  15 */\n      0x0f\n        /* \"contracts/ChickenRepblic.sol\":966:979  priceOfBottle */\n      sload(0x01)\n        /* \"contracts/ChickenRepblic.sol\":966:984  priceOfBottle * 15 */\n      tag_58\n      swap2\n      swap1\n      tag_44\n      jump\t// in\n    tag_58:\n        /* \"contracts/ChickenRepblic.sol\":1015:1017  15 */\n      0x0f\n        /* \"contracts/ChickenRepblic.sol\":999:1012  priceOfBurger */\n      sload(0x02)\n        /* \"contracts/ChickenRepblic.sol\":999:1017  priceOfBurger * 15 */\n      tag_59\n      swap2\n      swap1\n      tag_44\n      jump\t// in\n    tag_59:\n        /* \"contracts/ChickenRepblic.sol\":1050:1052  15 */\n      0x0f\n        /* \"contracts/ChickenRepblic.sol\":1032:1047  priceOfShawarma */\n      sload(0x03)\n        /* \"contracts/ChickenRepblic.sol\":1032:1052  priceOfShawarma * 15 */\n      tag_60\n      swap2\n      swap1\n      tag_44\n      jump\t// in\n    tag_60:\n        /* \"contracts/ChickenRepblic.sol\":913:1063  return (... */\n      swap4\n      pop\n      swap4\n      pop\n      swap4\n      pop\n      swap4\n      pop\n        /* \"contracts/ChickenRepblic.sol\":805:1071  function getAllPrice() public view virtual override returns (uint256, uint256, uint256, uint256) {... */\n      swap1\n      swap2\n      swap3\n      swap4\n      jump\t// out\n        /* \"#utility.yul\":7:84   */\n    tag_61:\n        /* \"#utility.yul\":44:51   */\n      0x00\n        /* \"#utility.yul\":73:78   */\n      dup2\n        /* \"#utility.yul\":62:78   */\n      swap1\n      pop\n        /* \"#utility.yul\":7:84   */\n      swap2\n      swap1\n      pop\n      jump\t// out\n        /* \"#utility.yul\":90:208   */\n    tag_62:\n        /* \"#utility.yul\":177:201   */\n      tag_67\n        /* \"#utility.yul\":195:200   */\n      dup2\n        /* \"#utility.yul\":177:201   */\n      tag_61\n      jump\t// in\n    tag_67:\n        /* \"#utility.yul\":172:175   */\n      dup3\n        /* \"#utility.yul\":165:202   */\n      mstore\n        /* \"#utility.yul\":90:208   */\n      pop\n      pop\n      jump\t// out\n        /* \"#utility.yul\":214:767   */\n    tag_15:\n        /* \"#utility.yul\":391:395   */\n      0x00\n        /* \"#utility.yul\":429:432   */\n      0x80\n        /* \"#utility.yul\":418:427   */\n      dup3\n        /* \"#utility.yul\":414:433   */\n      add\n        /* \"#utility.yul\":406:433   */\n      swap1\n      pop\n        /* \"#utility.yul\":443:514   */\n      tag_69\n        /* \"#utility.yul\":511:512   */\n      0x00\n        /* \"#utility.yul\":500:509   */\n      dup4\n        /* \"#utility.yul\":496:513   */\n      add\n        /* \"#utility.yul\":487:493   */\n      dup8\n        /* \"#utility.yul\":443:514   */\n      tag_62\n      jump\t// in\n    tag_69:\n        /* \"#utility.yul\":524:596   */\n      tag_70\n        /* \"#utility.yul\":592:594   */\n      0x20\n        /* \"#utility.yul\":581:590   */\n      dup4\n        /* \"#utility.yul\":577:595   */\n      add\n        /* \"#utility.yul\":568:574   */\n      dup7\n        /* \"#utility.yul\":524:596   */\n      tag_62\n      jump\t// in\n    tag_70:\n        /* \"#utility.yul\":606:678   */\n      tag_71\n        /* \"#utility.yul\":674:676   */\n      0x40\n        /* \"#utility.yul\":663:672   */\n      dup4\n        /* \"#utility.yul\":659:677   */\n      add\n        /* \"#utility.yul\":650:656   */\n      dup6\n        /* \"#utility.yul\":606:678   */\n      tag_62\n      jump\t// in\n    tag_71:\n        /* \"#utility.yul\":688:760   */\n      tag_72\n        /* \"#utility.yul\":756:758   */\n      0x60\n        /* \"#utility.yul\":745:754   */\n      dup4\n        /* \"#utility.yul\":741:759   */\n      add\n        /* \"#utility.yul\":732:738   */\n      dup5\n        /* \"#utility.yul\":688:760   */\n      tag_62\n      jump\t// in\n    tag_72:\n        /* \"#utility.yul\":214:767   */\n      swap6\n      swap5\n      pop\n      pop\n      pop\n      pop\n      pop\n      jump\t// out\n        /* \"#utility.yul\":773:995   */\n    tag_19:\n        /* \"#utility.yul\":866:870   */\n      0x00\n        /* \"#utility.yul\":904:906   */\n      0x20\n        /* \"#utility.yul\":893:902   */\n      dup3\n        /* \"#utility.yul\":889:907   */\n      add\n        /* \"#utility.yul\":881:907   */\n      swap1\n      pop\n        /* \"#utility.yul\":917:988   */\n      tag_74\n        /* \"#utility.yul\":985:986   */\n      0x00\n        /* \"#utility.yul\":974:983   */\n      dup4\n        /* \"#utility.yul\":970:987   */\n      add\n        /* \"#utility.yul\":961:967   */\n      dup5\n        /* \"#utility.yul\":917:988   */\n      tag_62\n      jump\t// in\n    tag_74:\n        /* \"#utility.yul\":773:995   */\n      swap3\n      swap2\n      pop\n      pop\n      jump\t// out\n        /* \"#utility.yul\":1001:1181   */\n    tag_63:\n        /* \"#utility.yul\":1049:1126   */\n      0x4e487b7100000000000000000000000000000000000000000000000000000000\n        /* \"#utility.yul\":1046:1047   */\n      0x00\n        /* \"#utility.yul\":1039:1127   */\n      mstore\n        /* \"#utility.yul\":1146:1150   */\n      0x11\n        /* \"#utility.yul\":1143:1144   */\n      0x04\n        /* \"#utility.yul\":1136:1151   */\n      mstore\n        /* \"#utility.yul\":1170:1174   */\n      0x24\n        /* \"#utility.yul\":1167:1168   */\n      0x00\n        /* \"#utility.yul\":1160:1175   */\n      revert\n        /* \"#utility.yul\":1187:1597   */\n    tag_44:\n        /* \"#utility.yul\":1227:1234   */\n      0x00\n        /* \"#utility.yul\":1250:1270   */\n      tag_77\n        /* \"#utility.yul\":1268:1269   */\n      dup3\n        /* \"#utility.yul\":1250:1270   */\n      tag_61\n      jump\t// in\n    tag_77:\n        /* \"#utility.yul\":1245:1270   */\n      swap2\n      pop\n        /* \"#utility.yul\":1284:1304   */\n      tag_78\n        /* \"#utility.yul\":1302:1303   */\n      dup4\n        /* \"#utility.yul\":1284:1304   */\n      tag_61\n      jump\t// in\n    tag_78:\n        /* \"#utility.yul\":1279:1304   */\n      swap3\n      pop\n        /* \"#utility.yul\":1339:1340   */\n      dup3\n        /* \"#utility.yul\":1336:1337   */\n      dup3\n        /* \"#utility.yul\":1332:1341   */\n      mul\n        /* \"#utility.yul\":1361:1391   */\n      tag_79\n        /* \"#utility.yul\":1379:1390   */\n      dup2\n        /* \"#utility.yul\":1361:1391   */\n      tag_61\n      jump\t// in\n    tag_79:\n        /* \"#utility.yul\":1350:1391   */\n      swap2\n      pop\n        /* \"#utility.yul\":1540:1541   */\n      dup3\n        /* \"#utility.yul\":1531:1538   */\n      dup3\n        /* \"#utility.yul\":1527:1542   */\n      div\n        /* \"#utility.yul\":1524:1525   */\n      dup5\n        /* \"#utility.yul\":1521:1543   */\n      eq\n        /* \"#utility.yul\":1501:1502   */\n      dup4\n        /* \"#utility.yul\":1494:1503   */\n      iszero\n        /* \"#utility.yul\":1474:1557   */\n      or\n        /* \"#utility.yul\":1451:1590   */\n      tag_80\n      jumpi\n        /* \"#utility.yul\":1570:1588   */\n      tag_81\n      tag_63\n      jump\t// in\n    tag_81:\n        /* \"#utility.yul\":1451:1590   */\n    tag_80:\n        /* \"#utility.yul\":1235:1597   */\n      pop\n        /* \"#utility.yul\":1187:1597   */\n      swap3\n      swap2\n      pop\n      pop\n      jump\t// out\n\n    auxdata: 0xa26469706673582212203658fb2be8c43f75e99de91b198c8949d26755d99a349fb893e5b3f361bc8fa664736f6c634300081a0033\n}\n",
				"bytecode": {
					"linkReferences": {},
					"object": "60806040526103e85f556101f46001556107d0600255610bb86003553480156025575f80fd5b506103ed806100335f395ff3fe608060405234801561000f575f80fd5b5060043610610086575f3560e01c8063bf5b11ac11610059578063bf5b11ac14610108578063bfdd4ad414610129578063c48216d214610147578063f4854f1e1461016857610086565b80633beafb6b1461008a57806376e5dbc1146100ab5780637f580220146100c9578063b49f4afd146100e7575b5f80fd5b610092610186565b6040516100a294939291906102ed565b60405180910390f35b6100b36101a0565b6040516100c09190610330565b60405180910390f35b6100d16101a6565b6040516100de9190610330565b60405180910390f35b6100ef6101ab565b6040516100ff94939291906102ed565b60405180910390f35b6101106101c8565b60405161012094939291906102ed565b60405180910390f35b610131610215565b60405161013e9190610330565b60405180910390f35b61014f61021b565b60405161015f94939291906102ed565b60405180910390f35b610170610235565b60405161017d9190610330565b60405180910390f35b5f805f8061019261023b565b935093509350935090919293565b60015481565b5f5481565b5f805f805f54600154600254600354935093509350935090919293565b5f805f8060195f546101da9190610376565b60196001546101e99190610376565b60196002546101f89190610376565b60196003546102079190610376565b935093509350935090919293565b60025481565b5f805f80610227610288565b935093509350935090919293565b60035481565b5f805f80600a5f5461024d9190610376565b600a60015461025c9190610376565b600a60025461026b9190610376565b600a60035461027a9190610376565b935093509350935090919293565b5f805f80600f5f5461029a9190610376565b600f6001546102a99190610376565b600f6002546102b89190610376565b600f6003546102c79190610376565b935093509350935090919293565b5f819050919050565b6102e7816102d5565b82525050565b5f6080820190506103005f8301876102de565b61030d60208301866102de565b61031a60408301856102de565b61032760608301846102de565b95945050505050565b5f6020820190506103435f8301846102de565b92915050565b7f4e487b71000000000000000000000000000000000000000000000000000000005f52601160045260245ffd5b5f610380826102d5565b915061038b836102d5565b9250828202610399816102d5565b915082820484148315176103b0576103af610349565b5b509291505056fea26469706673582212203658fb2be8c43f75e99de91b198c8949d26755d99a349fb893e5b3f361bc8fa664736f6c634300081a0033",
					"opcodes": "PUSH1 0x80 PUSH1 0x40 MSTORE PUSH2 0x3E8 PUSH0 SSTORE PUSH2 0x1F4 PUSH1 0x1 SSTORE PUSH2 0x7D0 PUSH1 0x2 SSTORE PUSH2 0xBB8 PUSH1 0x3 SSTORE CALLVALUE DUP1 ISZERO PUSH1 0x25 JUMPI PUSH0 DUP1 REVERT JUMPDEST POP PUSH2 0x3ED DUP1 PUSH2 0x33 PUSH0 CODECOPY PUSH0 RETURN INVALID PUSH1 0x80 PUSH1 0x40 MSTORE CALLVALUE DUP1 ISZERO PUSH2 0xF JUMPI PUSH0 DUP1 REVERT JUMPDEST POP PUSH1 0x4 CALLDATASIZE LT PUSH2 0x86 JUMPI PUSH0 CALLDATALOAD PUSH1 0xE0 SHR DUP1 PUSH4 0xBF5B11AC GT PUSH2 0x59 JUMPI DUP1 PUSH4 0xBF5B11AC EQ PUSH2 0x108 JUMPI DUP1 PUSH4 0xBFDD4AD4 EQ PUSH2 0x129 JUMPI DUP1 PUSH4 0xC48216D2 EQ PUSH2 0x147 JUMPI DUP1 PUSH4 0xF4854F1E EQ PUSH2 0x168 JUMPI PUSH2 0x86 JUMP JUMPDEST DUP1 PUSH4 0x3BEAFB6B EQ PUSH2 0x8A JUMPI DUP1 PUSH4 0x76E5DBC1 EQ PUSH2 0xAB JUMPI DUP1 PUSH4 0x7F580220 EQ PUSH2 0xC9 JUMPI DUP1 PUSH4 0xB49F4AFD EQ PUSH2 0xE7 JUMPI JUMPDEST PUSH0 DUP1 REVERT JUMPDEST PUSH2 0x92 PUSH2 0x186 JUMP JUMPDEST PUSH1 0x40 MLOAD PUSH2 0xA2 SWAP5 SWAP4 SWAP3 SWAP2 SWAP1 PUSH2 0x2ED JUMP JUMPDEST PUSH1 0x40 MLOAD DUP1 SWAP2 SUB SWAP1 RETURN JUMPDEST PUSH2 0xB3 PUSH2 0x1A0 JUMP JUMPDEST PUSH1 0x40 MLOAD PUSH2 0xC0 SWAP2 SWAP1 PUSH2 0x330 JUMP JUMPDEST PUSH1 0x40 MLOAD DUP1 SWAP2 SUB SWAP1 RETURN JUMPDEST PUSH2 0xD1 PUSH2 0x1A6 JUMP JUMPDEST PUSH1 0x40 MLOAD PUSH2 0xDE SWAP2 SWAP1 PUSH2 0x330 JUMP JUMPDEST PUSH1 0x40 MLOAD DUP1 SWAP2 SUB SWAP1 RETURN JUMPDEST PUSH2 0xEF PUSH2 0x1AB JUMP JUMPDEST PUSH1 0x40 MLOAD PUSH2 0xFF SWAP5 SWAP4 SWAP3 SWAP2 SWAP1 PUSH2 0x2ED JUMP JUMPDEST PUSH1 0x40 MLOAD DUP1 SWAP2 SUB SWAP1 RETURN JUMPDEST PUSH2 0x110 PUSH2 0x1C8 JUMP JUMPDEST PUSH1 0x40 MLOAD PUSH2 0x120 SWAP5 SWAP4 SWAP3 SWAP2 SWAP1 PUSH2 0x2ED JUMP JUMPDEST PUSH1 0x40 MLOAD DUP1 SWAP2 SUB SWAP1 RETURN JUMPDEST PUSH2 0x131 PUSH2 0x215 JUMP JUMPDEST PUSH1 0x40 MLOAD PUSH2 0x13E SWAP2 SWAP1 PUSH2 0x330 JUMP JUMPDEST PUSH1 0x40 MLOAD DUP1 SWAP2 SUB SWAP1 RETURN JUMPDEST PUSH2 0x14F PUSH2 0x21B JUMP JUMPDEST PUSH1 0x40 MLOAD PUSH2 0x15F SWAP5 SWAP4 SWAP3 SWAP2 SWAP1 PUSH2 0x2ED JUMP JUMPDEST PUSH1 0x40 MLOAD DUP1 SWAP2 SUB SWAP1 RETURN JUMPDEST PUSH2 0x170 PUSH2 0x235 JUMP JUMPDEST PUSH1 0x40 MLOAD PUSH2 0x17D SWAP2 SWAP1 PUSH2 0x330 JUMP JUMPDEST PUSH1 0x40 MLOAD DUP1 SWAP2 SUB SWAP1 RETURN JUMPDEST PUSH0 DUP1 PUSH0 DUP1 PUSH2 0x192 PUSH2 0x23B JUMP JUMPDEST SWAP4 POP SWAP4 POP SWAP4 POP SWAP4 POP SWAP1 SWAP2 SWAP3 SWAP4 JUMP JUMPDEST PUSH1 0x1 SLOAD DUP2 JUMP JUMPDEST PUSH0 SLOAD DUP2 JUMP JUMPDEST PUSH0 DUP1 PUSH0 DUP1 PUSH0 SLOAD PUSH1 0x1 SLOAD PUSH1 0x2 SLOAD PUSH1 0x3 SLOAD SWAP4 POP SWAP4 POP SWAP4 POP SWAP4 POP SWAP1 SWAP2 SWAP3 SWAP4 JUMP JUMPDEST PUSH0 DUP1 PUSH0 DUP1 PUSH1 0x19 PUSH0 SLOAD PUSH2 0x1DA SWAP2 SWAP1 PUSH2 0x376 JUMP JUMPDEST PUSH1 0x19 PUSH1 0x1 SLOAD PUSH2 0x1E9 SWAP2 SWAP1 PUSH2 0x376 JUMP JUMPDEST PUSH1 0x19 PUSH1 0x2 SLOAD PUSH2 0x1F8 SWAP2 SWAP1 PUSH2 0x376 JUMP JUMPDEST PUSH1 0x19 PUSH1 0x3 SLOAD PUSH2 0x207 SWAP2 SWAP1 PUSH2 0x376 JUMP JUMPDEST SWAP4 POP SWAP4 POP SWAP4 POP SWAP4 POP SWAP1 SWAP2 SWAP3 SWAP4 JUMP JUMPDEST PUSH1 0x2 SLOAD DUP2 JUMP JUMPDEST PUSH0 DUP1 PUSH0 DUP1 PUSH2 0x227 PUSH2 0x288 JUMP JUMPDEST SWAP4 POP SWAP4 POP SWAP4 POP SWAP4 POP SWAP1 SWAP2 SWAP3 SWAP4 JUMP JUMPDEST PUSH1 0x3 SLOAD DUP2 JUMP JUMPDEST PUSH0 DUP1 PUSH0 DUP1 PUSH1 0xA PUSH0 SLOAD PUSH2 0x24D SWAP2 SWAP1 PUSH2 0x376 JUMP JUMPDEST PUSH1 0xA PUSH1 0x1 SLOAD PUSH2 0x25C SWAP2 SWAP1 PUSH2 0x376 JUMP JUMPDEST PUSH1 0xA PUSH1 0x2 SLOAD PUSH2 0x26B SWAP2 SWAP1 PUSH2 0x376 JUMP JUMPDEST PUSH1 0xA PUSH1 0x3 SLOAD PUSH2 0x27A SWAP2 SWAP1 PUSH2 0x376 JUMP JUMPDEST SWAP4 POP SWAP4 POP SWAP4 POP SWAP4 POP SWAP1 SWAP2 SWAP3 SWAP4 JUMP JUMPDEST PUSH0 DUP1 PUSH0 DUP1 PUSH1 0xF PUSH0 SLOAD PUSH2 0x29A SWAP2 SWAP1 PUSH2 0x376 JUMP JUMPDEST PUSH1 0xF PUSH1 0x1 SLOAD PUSH2 0x2A9 SWAP2 SWAP1 PUSH2 0x376 JUMP JUMPDEST PUSH1 0xF PUSH1 0x2 SLOAD PUSH2 0x2B8 SWAP2 SWAP1 PUSH2 0x376 JUMP JUMPDEST PUSH1 0xF PUSH1 0x3 SLOAD PUSH2 0x2C7 SWAP2 SWAP1 PUSH2 0x376 JUMP JUMPDEST SWAP4 POP SWAP4 POP SWAP4 POP SWAP4 POP SWAP1 SWAP2 SWAP3 SWAP4 JUMP JUMPDEST PUSH0 DUP2 SWAP1 POP SWAP2 SWAP1 POP JUMP JUMPDEST PUSH2 0x2E7 DUP2 PUSH2 0x2D5 JUMP JUMPDEST DUP3 MSTORE POP POP JUMP JUMPDEST PUSH0 PUSH1 0x80 DUP3 ADD SWAP1 POP PUSH2 0x300 PUSH0 DUP4 ADD DUP8 PUSH2 0x2DE JUMP JUMPDEST PUSH2 0x30D PUSH1 0x20 DUP4 ADD DUP7 PUSH2 0x2DE JUMP JUMPDEST PUSH2 0x31A PUSH1 0x40 DUP4 ADD DUP6 PUSH2 0x2DE JUMP JUMPDEST PUSH2 0x327 PUSH1 0x60 DUP4 ADD DUP5 PUSH2 0x2DE JUMP JUMPDEST SWAP6 SWAP5 POP POP POP POP POP JUMP JUMPDEST PUSH0 PUSH1 0x20 DUP3 ADD SWAP1 POP PUSH2 0x343 PUSH0 DUP4 ADD DUP5 PUSH2 0x2DE JUMP JUMPDEST SWAP3 SWAP2 POP POP JUMP JUMPDEST PUSH32 0x4E487B7100000000000000000000000000000000000000000000000000000000 PUSH0 MSTORE PUSH1 0x11 PUSH1 0x4 MSTORE PUSH1 0x24 PUSH0 REVERT JUMPDEST PUSH0 PUSH2 0x380 DUP3 PUSH2 0x2D5 JUMP JUMPDEST SWAP2 POP PUSH2 0x38B DUP4 PUSH2 0x2D5 JUMP JUMPDEST SWAP3 POP DUP3 DUP3 MUL PUSH2 0x399 DUP2 PUSH2 0x2D5 JUMP JUMPDEST SWAP2 POP DUP3 DUP3 DIV DUP5 EQ DUP4 ISZERO OR PUSH2 0x3B0 JUMPI PUSH2 0x3AF PUSH2 0x349 JUMP JUMPDEST JUMPDEST POP SWAP3 SWAP2 POP POP JUMP INVALID LOG2 PUSH5 0x6970667358 0x22 SLT KECCAK256 CALLDATASIZE PC 0xFB 0x2B 0xE8 0xC4 EXTCODEHASH PUSH22 0xE99DE91B198C8949D26755D99A349FB893E5B3F361BC DUP16 0xA6 PUSH5 0x736F6C6343 STOP ADDMOD BYTE STOP CALLER "
				},
				"gasEstimates": {
					"creation": {
						"codeDepositCost": "201000",
						"executionCost": "88666",
						"totalCost": "289666"
					},
					"external": {
						"IkoroduStorePrice()": "infinite",
						"getAllPrice()": "infinite",
						"getBasePrice()": "infinite",
						"getMainLandStorePrice()": "infinite",
						"priceOfBottle()": "2448",
						"priceOfBurger()": "2447",
						"priceOfRice()": "2469",
						"priceOfShawarma()": "2491"
					}
				},
				"methodIdentifiers": {
					"IkoroduStorePrice()": "3beafb6b",
					"getAllPrice()": "bf5b11ac",
					"getBasePrice()": "b49f4afd",
					"getMainLandStorePrice()": "c48216d2",
					"priceOfBottle()": "76e5dbc1",
					"priceOfBurger()": "bfdd4ad4",
					"priceOfRice()": "7f580220",
					"priceOfShawarma()": "f4854f1e"
				}
			},
			"storageLayout": {
				"storage": [
					{
						"astId": 4,
						"contract": "contracts/ChickenRepblic.sol:VictoriaIslandStore",
						"label": "priceOfRice",
						"offset": 0,
						"slot": "0",
						"type": "t_uint256"
					},
					{
						"astId": 7,
						"contract": "contracts/ChickenRepblic.sol:VictoriaIslandStore",
						"label": "priceOfBottle",
						"offset": 0,
						"slot": "1",
						"type": "t_uint256"
					},
					{
						"astId": 10,
						"contract": "contracts/ChickenRepblic.sol:VictoriaIslandStore",
						"label": "priceOfBurger",
						"offset": 0,
						"slot": "2",
						"type": "t_uint256"
					},
					{
						"astId": 13,
						"contract": "contracts/ChickenRepblic.sol:VictoriaIslandStore",
						"label": "priceOfShawarma",
						"offset": 0,
						"slot": "3",
						"type": "t_uint256"
					}
				],
				"types": {
					"t_uint256": {
						"encoding": "inplace",
						"label": "uint256",
						"numberOfBytes": "32"
					}
				}
			},
			"userdoc": {
				"kind": "user",
				"methods": {},
				"version": 1
			}
		}
	}
}