{
	"contracts/Todo.sol": {
		"TodoList": {
			"abi": [
				{
					"inputs": [],
					"stateMutability": "nonpayable",
					"type": "constructor"
				},
				{
					"inputs": [
						{
							"internalType": "string",
							"name": "_title",
							"type": "string"
						},
						{
							"internalType": "string",
							"name": "_desc",
							"type": "string"
						}
					],
					"name": "createTodo",
					"outputs": [
						{
							"internalType": "bool",
							"name": "",
							"type": "bool"
						}
					],
					"stateMutability": "nonpayable",
					"type": "function"
				},
				{
					"inputs": [],
					"name": "owner",
					"outputs": [
						{
							"internalType": "address",
							"name": "",
							"type": "address"
						}
					],
					"stateMutability": "view",
					"type": "function"
				},
				{
					"inputs": [
						{
							"internalType": "uint256",
							"name": "",
							"type": "uint256"
						}
					],
					"name": "todos",
					"outputs": [
						{
							"internalType": "string",
							"name": "title",
							"type": "string"
						},
						{
							"internalType": "string",
							"name": "description",
							"type": "string"
						},
						{
							"internalType": "enum TodoList.Status",
							"name": "status",
							"type": "uint8"
						}
					],
					"stateMutability": "view",
					"type": "function"
				}
			],
			"devdoc": {
				"kind": "dev",
				"methods": {},
				"version": 1
			},
			"evm": {
				"assembly": "    /* \"contracts/Todo.sol\":61:751  contract TodoList{... */\n  mstore(0x40, 0x80)\n    /* \"contracts/Todo.sol\":296:402  constructor(){... */\n  callvalue\n  dup1\n  iszero\n  tag_1\n  jumpi\n  revert(0x00, 0x00)\ntag_1:\n  pop\n    /* \"contracts/Todo.sol\":328:338  msg.sender */\n  caller\n    /* \"contracts/Todo.sol\":320:325  owner */\n  0x00\n  0x00\n    /* \"contracts/Todo.sol\":320:338  owner = msg.sender */\n  0x0100\n  exp\n  dup2\n  sload\n  dup2\n  0xffffffffffffffffffffffffffffffffffffffff\n  mul\n  not\n  and\n  swap1\n  dup4\n  0xffffffffffffffffffffffffffffffffffffffff\n  and\n  mul\n  or\n  swap1\n  sstore\n  pop\n    /* \"contracts/Todo.sol\":61:751  contract TodoList{... */\n  dataSize(sub_0)\n  dup1\n  dataOffset(sub_0)\n  0x00\n  codecopy\n  0x00\n  return\nstop\n\nsub_0: assembly {\n        /* \"contracts/Todo.sol\":61:751  contract TodoList{... */\n      mstore(0x40, 0x80)\n      callvalue\n      dup1\n      iszero\n      tag_1\n      jumpi\n      revert(0x00, 0x00)\n    tag_1:\n      pop\n      jumpi(tag_2, lt(calldatasize, 0x04))\n      shr(0xe0, calldataload(0x00))\n      dup1\n      0x3380b99f\n      eq\n      tag_3\n      jumpi\n      dup1\n      0x8da5cb5b\n      eq\n      tag_4\n      jumpi\n      dup1\n      0xbc8bc2b4\n      eq\n      tag_5\n      jumpi\n    tag_2:\n      revert(0x00, 0x00)\n        /* \"contracts/Todo.sol\":642:748  function createTodo(string memory _title, string memory _desc) external onlyOwner returns (bool){... */\n    tag_3:\n      tag_6\n      0x04\n      dup1\n      calldatasize\n      sub\n      dup2\n      add\n      swap1\n      tag_7\n      swap2\n      swap1\n      tag_8\n      jump\t// in\n    tag_7:\n      tag_9\n      jump\t// in\n    tag_6:\n      mload(0x40)\n      tag_10\n      swap2\n      swap1\n      tag_11\n      jump\t// in\n    tag_10:\n      mload(0x40)\n      dup1\n      swap2\n      sub\n      swap1\n      return\n        /* \"contracts/Todo.sol\":87:107  address public owner */\n    tag_4:\n      tag_12\n      tag_13\n      jump\t// in\n    tag_12:\n      mload(0x40)\n      tag_14\n      swap2\n      swap1\n      tag_15\n      jump\t// in\n    tag_14:\n      mload(0x40)\n      dup1\n      swap2\n      sub\n      swap1\n      return\n        /* \"contracts/Todo.sol\":268:287  Todo[] public todos */\n    tag_5:\n      tag_16\n      0x04\n      dup1\n      calldatasize\n      sub\n      dup2\n      add\n      swap1\n      tag_17\n      swap2\n      swap1\n      tag_18\n      jump\t// in\n    tag_17:\n      tag_19\n      jump\t// in\n    tag_16:\n      mload(0x40)\n      tag_20\n      swap4\n      swap3\n      swap2\n      swap1\n      tag_21\n      jump\t// in\n    tag_20:\n      mload(0x40)\n      dup1\n      swap2\n      sub\n      swap1\n      return\n        /* \"contracts/Todo.sol\":642:748  function createTodo(string memory _title, string memory _desc) external onlyOwner returns (bool){... */\n    tag_9:\n        /* \"contracts/Todo.sol\":733:737  bool */\n      0x00\n        /* \"contracts/Todo.sol\":463:468  owner */\n      0x00\n      0x00\n      swap1\n      sload\n      swap1\n      0x0100\n      exp\n      swap1\n      div\n      0xffffffffffffffffffffffffffffffffffffffff\n      and\n        /* \"contracts/Todo.sol\":449:468  msg.sender == owner */\n      0xffffffffffffffffffffffffffffffffffffffff\n      and\n        /* \"contracts/Todo.sol\":449:459  msg.sender */\n      caller\n        /* \"contracts/Todo.sol\":449:468  msg.sender == owner */\n      0xffffffffffffffffffffffffffffffffffffffff\n      and\n      eq\n        /* \"contracts/Todo.sol\":441:491  require(msg.sender == owner, \"You're not allowed\") */\n      tag_23\n      jumpi\n      mload(0x40)\n      0x08c379a000000000000000000000000000000000000000000000000000000000\n      dup2\n      mstore\n      0x04\n      add\n      tag_24\n      swap1\n      tag_25\n      jump\t// in\n    tag_24:\n      mload(0x40)\n      dup1\n      swap2\n      sub\n      swap1\n      revert\n    tag_23:\n        /* \"contracts/Todo.sol\":642:748  function createTodo(string memory _title, string memory _desc) external onlyOwner returns (bool){... */\n      swap3\n      swap2\n      pop\n      pop\n      jump\t// out\n        /* \"contracts/Todo.sol\":87:107  address public owner */\n    tag_13:\n      0x00\n      0x00\n      swap1\n      sload\n      swap1\n      0x0100\n      exp\n      swap1\n      div\n      0xffffffffffffffffffffffffffffffffffffffff\n      and\n      dup2\n      jump\t// out\n        /* \"contracts/Todo.sol\":268:287  Todo[] public todos */\n    tag_19:\n      0x01\n      dup2\n      dup2\n      sload\n      dup2\n      lt\n      tag_27\n      jumpi\n      0x00\n      dup1\n      revert\n    tag_27:\n      swap1\n      0x00\n      mstore\n      keccak256(0x00, 0x20)\n      swap1\n      0x03\n      mul\n      add\n      0x00\n      swap2\n      pop\n      swap1\n      pop\n      dup1\n      0x00\n      add\n      dup1\n      sload\n      tag_29\n      swap1\n      tag_30\n      jump\t// in\n    tag_29:\n      dup1\n      0x1f\n      add\n      0x20\n      dup1\n      swap2\n      div\n      mul\n      0x20\n      add\n      mload(0x40)\n      swap1\n      dup2\n      add\n      0x40\n      mstore\n      dup1\n      swap3\n      swap2\n      swap1\n      dup2\n      dup2\n      mstore\n      0x20\n      add\n      dup3\n      dup1\n      sload\n      tag_31\n      swap1\n      tag_30\n      jump\t// in\n    tag_31:\n      dup1\n      iszero\n      tag_32\n      jumpi\n      dup1\n      0x1f\n      lt\n      tag_33\n      jumpi\n      0x0100\n      dup1\n      dup4\n      sload\n      div\n      mul\n      dup4\n      mstore\n      swap2\n      0x20\n      add\n      swap2\n      jump(tag_32)\n    tag_33:\n      dup3\n      add\n      swap2\n      swap1\n      0x00\n      mstore\n      keccak256(0x00, 0x20)\n      swap1\n    tag_34:\n      dup2\n      sload\n      dup2\n      mstore\n      swap1\n      0x01\n      add\n      swap1\n      0x20\n      add\n      dup1\n      dup4\n      gt\n      tag_34\n      jumpi\n      dup3\n      swap1\n      sub\n      0x1f\n      and\n      dup3\n      add\n      swap2\n    tag_32:\n      pop\n      pop\n      pop\n      pop\n      pop\n      swap1\n      dup1\n      0x01\n      add\n      dup1\n      sload\n      tag_35\n      swap1\n      tag_30\n      jump\t// in\n    tag_35:\n      dup1\n      0x1f\n      add\n      0x20\n      dup1\n      swap2\n      div\n      mul\n      0x20\n      add\n      mload(0x40)\n      swap1\n      dup2\n      add\n      0x40\n      mstore\n      dup1\n      swap3\n      swap2\n      swap1\n      dup2\n      dup2\n      mstore\n      0x20\n      add\n      dup3\n      dup1\n      sload\n      tag_36\n      swap1\n      tag_30\n      jump\t// in\n    tag_36:\n      dup1\n      iszero\n      tag_37\n      jumpi\n      dup1\n      0x1f\n      lt\n      tag_38\n      jumpi\n      0x0100\n      dup1\n      dup4\n      sload\n      div\n      mul\n      dup4\n      mstore\n      swap2\n      0x20\n      add\n      swap2\n      jump(tag_37)\n    tag_38:\n      dup3\n      add\n      swap2\n      swap1\n      0x00\n      mstore\n      keccak256(0x00, 0x20)\n      swap1\n    tag_39:\n      dup2\n      sload\n      dup2\n      mstore\n      swap1\n      0x01\n      add\n      swap1\n      0x20\n      add\n      dup1\n      dup4\n      gt\n      tag_39\n      jumpi\n      dup3\n      swap1\n      sub\n      0x1f\n      and\n      dup3\n      add\n      swap2\n    tag_37:\n      pop\n      pop\n      pop\n      pop\n      pop\n      swap1\n      dup1\n      0x02\n      add\n      0x00\n      swap1\n      sload\n      swap1\n      0x0100\n      exp\n      swap1\n      div\n      0xff\n      and\n      swap1\n      pop\n      dup4\n      jump\t// out\n        /* \"#utility.yul\":7:82   */\n    tag_40:\n        /* \"#utility.yul\":40:46   */\n      0x00\n        /* \"#utility.yul\":73:75   */\n      0x40\n        /* \"#utility.yul\":67:76   */\n      mload\n        /* \"#utility.yul\":57:76   */\n      swap1\n      pop\n        /* \"#utility.yul\":7:82   */\n      swap1\n      jump\t// out\n        /* \"#utility.yul\":88:205   */\n    tag_41:\n        /* \"#utility.yul\":197:198   */\n      0x00\n        /* \"#utility.yul\":194:195   */\n      0x00\n        /* \"#utility.yul\":187:199   */\n      revert\n        /* \"#utility.yul\":211:328   */\n    tag_42:\n        /* \"#utility.yul\":320:321   */\n      0x00\n        /* \"#utility.yul\":317:318   */\n      0x00\n        /* \"#utility.yul\":310:322   */\n      revert\n        /* \"#utility.yul\":334:451   */\n    tag_43:\n        /* \"#utility.yul\":443:444   */\n      0x00\n        /* \"#utility.yul\":440:441   */\n      0x00\n        /* \"#utility.yul\":433:445   */\n      revert\n        /* \"#utility.yul\":457:574   */\n    tag_44:\n        /* \"#utility.yul\":566:567   */\n      0x00\n        /* \"#utility.yul\":563:564   */\n      0x00\n        /* \"#utility.yul\":556:568   */\n      revert\n        /* \"#utility.yul\":580:682   */\n    tag_45:\n        /* \"#utility.yul\":621:627   */\n      0x00\n        /* \"#utility.yul\":672:674   */\n      0x1f\n        /* \"#utility.yul\":668:675   */\n      not\n        /* \"#utility.yul\":663:665   */\n      0x1f\n        /* \"#utility.yul\":656:661   */\n      dup4\n        /* \"#utility.yul\":652:666   */\n      add\n        /* \"#utility.yul\":648:676   */\n      and\n        /* \"#utility.yul\":638:676   */\n      swap1\n      pop\n        /* \"#utility.yul\":580:682   */\n      swap2\n      swap1\n      pop\n      jump\t// out\n        /* \"#utility.yul\":688:868   */\n    tag_46:\n        /* \"#utility.yul\":736:813   */\n      0x4e487b7100000000000000000000000000000000000000000000000000000000\n        /* \"#utility.yul\":733:734   */\n      0x00\n        /* \"#utility.yul\":726:814   */\n      mstore\n        /* \"#utility.yul\":833:837   */\n      0x41\n        /* \"#utility.yul\":830:831   */\n      0x04\n        /* \"#utility.yul\":823:838   */\n      mstore\n        /* \"#utility.yul\":857:861   */\n      0x24\n        /* \"#utility.yul\":854:855   */\n      0x00\n        /* \"#utility.yul\":847:862   */\n      revert\n        /* \"#utility.yul\":874:1155   */\n    tag_47:\n        /* \"#utility.yul\":957:984   */\n      tag_82\n        /* \"#utility.yul\":979:983   */\n      dup3\n        /* \"#utility.yul\":957:984   */\n      tag_45\n      jump\t// in\n    tag_82:\n        /* \"#utility.yul\":949:955   */\n      dup2\n        /* \"#utility.yul\":945:985   */\n      add\n        /* \"#utility.yul\":1087:1093   */\n      dup2\n        /* \"#utility.yul\":1075:1085   */\n      dup2\n        /* \"#utility.yul\":1072:1094   */\n      lt\n        /* \"#utility.yul\":1051:1069   */\n      0xffffffffffffffff\n        /* \"#utility.yul\":1039:1049   */\n      dup3\n        /* \"#utility.yul\":1036:1070   */\n      gt\n        /* \"#utility.yul\":1033:1095   */\n      or\n        /* \"#utility.yul\":1030:1118   */\n      iszero\n      tag_83\n      jumpi\n        /* \"#utility.yul\":1098:1116   */\n      tag_84\n      tag_46\n      jump\t// in\n    tag_84:\n        /* \"#utility.yul\":1030:1118   */\n    tag_83:\n        /* \"#utility.yul\":1138:1148   */\n      dup1\n        /* \"#utility.yul\":1134:1136   */\n      0x40\n        /* \"#utility.yul\":1127:1149   */\n      mstore\n        /* \"#utility.yul\":917:1155   */\n      pop\n        /* \"#utility.yul\":874:1155   */\n      pop\n      pop\n      jump\t// out\n        /* \"#utility.yul\":1161:1290   */\n    tag_48:\n        /* \"#utility.yul\":1195:1201   */\n      0x00\n        /* \"#utility.yul\":1222:1242   */\n      tag_86\n      tag_40\n      jump\t// in\n    tag_86:\n        /* \"#utility.yul\":1212:1242   */\n      swap1\n      pop\n        /* \"#utility.yul\":1251:1284   */\n      tag_87\n        /* \"#utility.yul\":1279:1283   */\n      dup3\n        /* \"#utility.yul\":1271:1277   */\n      dup3\n        /* \"#utility.yul\":1251:1284   */\n      tag_47\n      jump\t// in\n    tag_87:\n        /* \"#utility.yul\":1161:1290   */\n      swap2\n      swap1\n      pop\n      jump\t// out\n        /* \"#utility.yul\":1296:1604   */\n    tag_49:\n        /* \"#utility.yul\":1358:1362   */\n      0x00\n        /* \"#utility.yul\":1448:1466   */\n      0xffffffffffffffff\n        /* \"#utility.yul\":1440:1446   */\n      dup3\n        /* \"#utility.yul\":1437:1467   */\n      gt\n        /* \"#utility.yul\":1434:1490   */\n      iszero\n      tag_89\n      jumpi\n        /* \"#utility.yul\":1470:1488   */\n      tag_90\n      tag_46\n      jump\t// in\n    tag_90:\n        /* \"#utility.yul\":1434:1490   */\n    tag_89:\n        /* \"#utility.yul\":1508:1537   */\n      tag_91\n        /* \"#utility.yul\":1530:1536   */\n      dup3\n        /* \"#utility.yul\":1508:1537   */\n      tag_45\n      jump\t// in\n    tag_91:\n        /* \"#utility.yul\":1500:1537   */\n      swap1\n      pop\n        /* \"#utility.yul\":1592:1596   */\n      0x20\n        /* \"#utility.yul\":1586:1590   */\n      dup2\n        /* \"#utility.yul\":1582:1597   */\n      add\n        /* \"#utility.yul\":1574:1597   */\n      swap1\n      pop\n        /* \"#utility.yul\":1296:1604   */\n      swap2\n      swap1\n      pop\n      jump\t// out\n        /* \"#utility.yul\":1610:1758   */\n    tag_50:\n        /* \"#utility.yul\":1708:1714   */\n      dup3\n        /* \"#utility.yul\":1703:1706   */\n      dup2\n        /* \"#utility.yul\":1698:1701   */\n      dup4\n        /* \"#utility.yul\":1685:1715   */\n      calldatacopy\n        /* \"#utility.yul\":1749:1750   */\n      0x00\n        /* \"#utility.yul\":1740:1746   */\n      dup4\n        /* \"#utility.yul\":1735:1738   */\n      dup4\n        /* \"#utility.yul\":1731:1747   */\n      add\n        /* \"#utility.yul\":1724:1751   */\n      mstore\n        /* \"#utility.yul\":1610:1758   */\n      pop\n      pop\n      pop\n      jump\t// out\n        /* \"#utility.yul\":1764:2189   */\n    tag_51:\n        /* \"#utility.yul\":1842:1847   */\n      0x00\n        /* \"#utility.yul\":1867:1933   */\n      tag_94\n        /* \"#utility.yul\":1883:1932   */\n      tag_95\n        /* \"#utility.yul\":1925:1931   */\n      dup5\n        /* \"#utility.yul\":1883:1932   */\n      tag_49\n      jump\t// in\n    tag_95:\n        /* \"#utility.yul\":1867:1933   */\n      tag_48\n      jump\t// in\n    tag_94:\n        /* \"#utility.yul\":1858:1933   */\n      swap1\n      pop\n        /* \"#utility.yul\":1956:1962   */\n      dup3\n        /* \"#utility.yul\":1949:1954   */\n      dup2\n        /* \"#utility.yul\":1942:1963   */\n      mstore\n        /* \"#utility.yul\":1994:1998   */\n      0x20\n        /* \"#utility.yul\":1987:1992   */\n      dup2\n        /* \"#utility.yul\":1983:1999   */\n      add\n        /* \"#utility.yul\":2032:2035   */\n      dup5\n        /* \"#utility.yul\":2023:2029   */\n      dup5\n        /* \"#utility.yul\":2018:2021   */\n      dup5\n        /* \"#utility.yul\":2014:2030   */\n      add\n        /* \"#utility.yul\":2011:2036   */\n      gt\n        /* \"#utility.yul\":2008:2120   */\n      iszero\n      tag_96\n      jumpi\n        /* \"#utility.yul\":2039:2118   */\n      tag_97\n      tag_44\n      jump\t// in\n    tag_97:\n        /* \"#utility.yul\":2008:2120   */\n    tag_96:\n        /* \"#utility.yul\":2129:2183   */\n      tag_98\n        /* \"#utility.yul\":2176:2182   */\n      dup5\n        /* \"#utility.yul\":2171:2174   */\n      dup3\n        /* \"#utility.yul\":2166:2169   */\n      dup6\n        /* \"#utility.yul\":2129:2183   */\n      tag_50\n      jump\t// in\n    tag_98:\n        /* \"#utility.yul\":1848:2189   */\n      pop\n        /* \"#utility.yul\":1764:2189   */\n      swap4\n      swap3\n      pop\n      pop\n      pop\n      jump\t// out\n        /* \"#utility.yul\":2209:2549   */\n    tag_52:\n        /* \"#utility.yul\":2265:2270   */\n      0x00\n        /* \"#utility.yul\":2314:2317   */\n      dup3\n        /* \"#utility.yul\":2307:2311   */\n      0x1f\n        /* \"#utility.yul\":2299:2305   */\n      dup4\n        /* \"#utility.yul\":2295:2312   */\n      add\n        /* \"#utility.yul\":2291:2318   */\n      slt\n        /* \"#utility.yul\":2281:2403   */\n      tag_100\n      jumpi\n        /* \"#utility.yul\":2322:2401   */\n      tag_101\n      tag_43\n      jump\t// in\n    tag_101:\n        /* \"#utility.yul\":2281:2403   */\n    tag_100:\n        /* \"#utility.yul\":2439:2445   */\n      dup2\n        /* \"#utility.yul\":2426:2446   */\n      calldataload\n        /* \"#utility.yul\":2464:2543   */\n      tag_102\n        /* \"#utility.yul\":2539:2542   */\n      dup5\n        /* \"#utility.yul\":2531:2537   */\n      dup3\n        /* \"#utility.yul\":2524:2528   */\n      0x20\n        /* \"#utility.yul\":2516:2522   */\n      dup7\n        /* \"#utility.yul\":2512:2529   */\n      add\n        /* \"#utility.yul\":2464:2543   */\n      tag_51\n      jump\t// in\n    tag_102:\n        /* \"#utility.yul\":2455:2543   */\n      swap2\n      pop\n        /* \"#utility.yul\":2271:2549   */\n      pop\n        /* \"#utility.yul\":2209:2549   */\n      swap3\n      swap2\n      pop\n      pop\n      jump\t// out\n        /* \"#utility.yul\":2555:3389   */\n    tag_8:\n        /* \"#utility.yul\":2643:2649   */\n      0x00\n        /* \"#utility.yul\":2651:2657   */\n      0x00\n        /* \"#utility.yul\":2700:2702   */\n      0x40\n        /* \"#utility.yul\":2688:2697   */\n      dup4\n        /* \"#utility.yul\":2679:2686   */\n      dup6\n        /* \"#utility.yul\":2675:2698   */\n      sub\n        /* \"#utility.yul\":2671:2703   */\n      slt\n        /* \"#utility.yul\":2668:2787   */\n      iszero\n      tag_104\n      jumpi\n        /* \"#utility.yul\":2706:2785   */\n      tag_105\n      tag_41\n      jump\t// in\n    tag_105:\n        /* \"#utility.yul\":2668:2787   */\n    tag_104:\n        /* \"#utility.yul\":2854:2855   */\n      0x00\n        /* \"#utility.yul\":2843:2852   */\n      dup4\n        /* \"#utility.yul\":2839:2856   */\n      add\n        /* \"#utility.yul\":2826:2857   */\n      calldataload\n        /* \"#utility.yul\":2884:2902   */\n      0xffffffffffffffff\n        /* \"#utility.yul\":2876:2882   */\n      dup2\n        /* \"#utility.yul\":2873:2903   */\n      gt\n        /* \"#utility.yul\":2870:2987   */\n      iszero\n      tag_106\n      jumpi\n        /* \"#utility.yul\":2906:2985   */\n      tag_107\n      tag_42\n      jump\t// in\n    tag_107:\n        /* \"#utility.yul\":2870:2987   */\n    tag_106:\n        /* \"#utility.yul\":3011:3074   */\n      tag_108\n        /* \"#utility.yul\":3066:3073   */\n      dup6\n        /* \"#utility.yul\":3057:3063   */\n      dup3\n        /* \"#utility.yul\":3046:3055   */\n      dup7\n        /* \"#utility.yul\":3042:3064   */\n      add\n        /* \"#utility.yul\":3011:3074   */\n      tag_52\n      jump\t// in\n    tag_108:\n        /* \"#utility.yul\":3001:3074   */\n      swap3\n      pop\n        /* \"#utility.yul\":2797:3084   */\n      pop\n        /* \"#utility.yul\":3151:3153   */\n      0x20\n        /* \"#utility.yul\":3140:3149   */\n      dup4\n        /* \"#utility.yul\":3136:3154   */\n      add\n        /* \"#utility.yul\":3123:3155   */\n      calldataload\n        /* \"#utility.yul\":3182:3200   */\n      0xffffffffffffffff\n        /* \"#utility.yul\":3174:3180   */\n      dup2\n        /* \"#utility.yul\":3171:3201   */\n      gt\n        /* \"#utility.yul\":3168:3285   */\n      iszero\n      tag_109\n      jumpi\n        /* \"#utility.yul\":3204:3283   */\n      tag_110\n      tag_42\n      jump\t// in\n    tag_110:\n        /* \"#utility.yul\":3168:3285   */\n    tag_109:\n        /* \"#utility.yul\":3309:3372   */\n      tag_111\n        /* \"#utility.yul\":3364:3371   */\n      dup6\n        /* \"#utility.yul\":3355:3361   */\n      dup3\n        /* \"#utility.yul\":3344:3353   */\n      dup7\n        /* \"#utility.yul\":3340:3362   */\n      add\n        /* \"#utility.yul\":3309:3372   */\n      tag_52\n      jump\t// in\n    tag_111:\n        /* \"#utility.yul\":3299:3372   */\n      swap2\n      pop\n        /* \"#utility.yul\":3094:3382   */\n      pop\n        /* \"#utility.yul\":2555:3389   */\n      swap3\n      pop\n      swap3\n      swap1\n      pop\n      jump\t// out\n        /* \"#utility.yul\":3395:3485   */\n    tag_53:\n        /* \"#utility.yul\":3429:3436   */\n      0x00\n        /* \"#utility.yul\":3472:3477   */\n      dup2\n        /* \"#utility.yul\":3465:3478   */\n      iszero\n        /* \"#utility.yul\":3458:3479   */\n      iszero\n        /* \"#utility.yul\":3447:3479   */\n      swap1\n      pop\n        /* \"#utility.yul\":3395:3485   */\n      swap2\n      swap1\n      pop\n      jump\t// out\n        /* \"#utility.yul\":3491:3600   */\n    tag_54:\n        /* \"#utility.yul\":3572:3593   */\n      tag_114\n        /* \"#utility.yul\":3587:3592   */\n      dup2\n        /* \"#utility.yul\":3572:3593   */\n      tag_53\n      jump\t// in\n    tag_114:\n        /* \"#utility.yul\":3567:3570   */\n      dup3\n        /* \"#utility.yul\":3560:3594   */\n      mstore\n        /* \"#utility.yul\":3491:3600   */\n      pop\n      pop\n      jump\t// out\n        /* \"#utility.yul\":3606:3816   */\n    tag_11:\n        /* \"#utility.yul\":3693:3697   */\n      0x00\n        /* \"#utility.yul\":3731:3733   */\n      0x20\n        /* \"#utility.yul\":3720:3729   */\n      dup3\n        /* \"#utility.yul\":3716:3734   */\n      add\n        /* \"#utility.yul\":3708:3734   */\n      swap1\n      pop\n        /* \"#utility.yul\":3744:3809   */\n      tag_116\n        /* \"#utility.yul\":3806:3807   */\n      0x00\n        /* \"#utility.yul\":3795:3804   */\n      dup4\n        /* \"#utility.yul\":3791:3808   */\n      add\n        /* \"#utility.yul\":3782:3788   */\n      dup5\n        /* \"#utility.yul\":3744:3809   */\n      tag_54\n      jump\t// in\n    tag_116:\n        /* \"#utility.yul\":3606:3816   */\n      swap3\n      swap2\n      pop\n      pop\n      jump\t// out\n        /* \"#utility.yul\":3822:3948   */\n    tag_55:\n        /* \"#utility.yul\":3859:3866   */\n      0x00\n        /* \"#utility.yul\":3899:3941   */\n      0xffffffffffffffffffffffffffffffffffffffff\n        /* \"#utility.yul\":3892:3897   */\n      dup3\n        /* \"#utility.yul\":3888:3942   */\n      and\n        /* \"#utility.yul\":3877:3942   */\n      swap1\n      pop\n        /* \"#utility.yul\":3822:3948   */\n      swap2\n      swap1\n      pop\n      jump\t// out\n        /* \"#utility.yul\":3954:4050   */\n    tag_56:\n        /* \"#utility.yul\":3991:3998   */\n      0x00\n        /* \"#utility.yul\":4020:4044   */\n      tag_119\n        /* \"#utility.yul\":4038:4043   */\n      dup3\n        /* \"#utility.yul\":4020:4044   */\n      tag_55\n      jump\t// in\n    tag_119:\n        /* \"#utility.yul\":4009:4044   */\n      swap1\n      pop\n        /* \"#utility.yul\":3954:4050   */\n      swap2\n      swap1\n      pop\n      jump\t// out\n        /* \"#utility.yul\":4056:4174   */\n    tag_57:\n        /* \"#utility.yul\":4143:4167   */\n      tag_121\n        /* \"#utility.yul\":4161:4166   */\n      dup2\n        /* \"#utility.yul\":4143:4167   */\n      tag_56\n      jump\t// in\n    tag_121:\n        /* \"#utility.yul\":4138:4141   */\n      dup3\n        /* \"#utility.yul\":4131:4168   */\n      mstore\n        /* \"#utility.yul\":4056:4174   */\n      pop\n      pop\n      jump\t// out\n        /* \"#utility.yul\":4180:4402   */\n    tag_15:\n        /* \"#utility.yul\":4273:4277   */\n      0x00\n        /* \"#utility.yul\":4311:4313   */\n      0x20\n        /* \"#utility.yul\":4300:4309   */\n      dup3\n        /* \"#utility.yul\":4296:4314   */\n      add\n        /* \"#utility.yul\":4288:4314   */\n      swap1\n      pop\n        /* \"#utility.yul\":4324:4395   */\n      tag_123\n        /* \"#utility.yul\":4392:4393   */\n      0x00\n        /* \"#utility.yul\":4381:4390   */\n      dup4\n        /* \"#utility.yul\":4377:4394   */\n      add\n        /* \"#utility.yul\":4368:4374   */\n      dup5\n        /* \"#utility.yul\":4324:4395   */\n      tag_57\n      jump\t// in\n    tag_123:\n        /* \"#utility.yul\":4180:4402   */\n      swap3\n      swap2\n      pop\n      pop\n      jump\t// out\n        /* \"#utility.yul\":4408:4485   */\n    tag_58:\n        /* \"#utility.yul\":4445:4452   */\n      0x00\n        /* \"#utility.yul\":4474:4479   */\n      dup2\n        /* \"#utility.yul\":4463:4479   */\n      swap1\n      pop\n        /* \"#utility.yul\":4408:4485   */\n      swap2\n      swap1\n      pop\n      jump\t// out\n        /* \"#utility.yul\":4491:4613   */\n    tag_59:\n        /* \"#utility.yul\":4564:4588   */\n      tag_126\n        /* \"#utility.yul\":4582:4587   */\n      dup2\n        /* \"#utility.yul\":4564:4588   */\n      tag_58\n      jump\t// in\n    tag_126:\n        /* \"#utility.yul\":4557:4562   */\n      dup2\n        /* \"#utility.yul\":4554:4589   */\n      eq\n        /* \"#utility.yul\":4544:4607   */\n      tag_127\n      jumpi\n        /* \"#utility.yul\":4603:4604   */\n      0x00\n        /* \"#utility.yul\":4600:4601   */\n      0x00\n        /* \"#utility.yul\":4593:4605   */\n      revert\n        /* \"#utility.yul\":4544:4607   */\n    tag_127:\n        /* \"#utility.yul\":4491:4613   */\n      pop\n      jump\t// out\n        /* \"#utility.yul\":4619:4758   */\n    tag_60:\n        /* \"#utility.yul\":4665:4670   */\n      0x00\n        /* \"#utility.yul\":4703:4709   */\n      dup2\n        /* \"#utility.yul\":4690:4710   */\n      calldataload\n        /* \"#utility.yul\":4681:4710   */\n      swap1\n      pop\n        /* \"#utility.yul\":4719:4752   */\n      tag_129\n        /* \"#utility.yul\":4746:4751   */\n      dup2\n        /* \"#utility.yul\":4719:4752   */\n      tag_59\n      jump\t// in\n    tag_129:\n        /* \"#utility.yul\":4619:4758   */\n      swap3\n      swap2\n      pop\n      pop\n      jump\t// out\n        /* \"#utility.yul\":4764:5093   */\n    tag_18:\n        /* \"#utility.yul\":4823:4829   */\n      0x00\n        /* \"#utility.yul\":4872:4874   */\n      0x20\n        /* \"#utility.yul\":4860:4869   */\n      dup3\n        /* \"#utility.yul\":4851:4858   */\n      dup5\n        /* \"#utility.yul\":4847:4870   */\n      sub\n        /* \"#utility.yul\":4843:4875   */\n      slt\n        /* \"#utility.yul\":4840:4959   */\n      iszero\n      tag_131\n      jumpi\n        /* \"#utility.yul\":4878:4957   */\n      tag_132\n      tag_41\n      jump\t// in\n    tag_132:\n        /* \"#utility.yul\":4840:4959   */\n    tag_131:\n        /* \"#utility.yul\":4998:4999   */\n      0x00\n        /* \"#utility.yul\":5023:5076   */\n      tag_133\n        /* \"#utility.yul\":5068:5075   */\n      dup5\n        /* \"#utility.yul\":5059:5065   */\n      dup3\n        /* \"#utility.yul\":5048:5057   */\n      dup6\n        /* \"#utility.yul\":5044:5066   */\n      add\n        /* \"#utility.yul\":5023:5076   */\n      tag_60\n      jump\t// in\n    tag_133:\n        /* \"#utility.yul\":5013:5076   */\n      swap2\n      pop\n        /* \"#utility.yul\":4969:5086   */\n      pop\n        /* \"#utility.yul\":4764:5093   */\n      swap3\n      swap2\n      pop\n      pop\n      jump\t// out\n        /* \"#utility.yul\":5099:5198   */\n    tag_61:\n        /* \"#utility.yul\":5151:5157   */\n      0x00\n        /* \"#utility.yul\":5185:5190   */\n      dup2\n        /* \"#utility.yul\":5179:5191   */\n      mload\n        /* \"#utility.yul\":5169:5191   */\n      swap1\n      pop\n        /* \"#utility.yul\":5099:5198   */\n      swap2\n      swap1\n      pop\n      jump\t// out\n        /* \"#utility.yul\":5204:5373   */\n    tag_62:\n        /* \"#utility.yul\":5288:5299   */\n      0x00\n        /* \"#utility.yul\":5322:5328   */\n      dup3\n        /* \"#utility.yul\":5317:5320   */\n      dup3\n        /* \"#utility.yul\":5310:5329   */\n      mstore\n        /* \"#utility.yul\":5362:5366   */\n      0x20\n        /* \"#utility.yul\":5357:5360   */\n      dup3\n        /* \"#utility.yul\":5353:5367   */\n      add\n        /* \"#utility.yul\":5338:5367   */\n      swap1\n      pop\n        /* \"#utility.yul\":5204:5373   */\n      swap3\n      swap2\n      pop\n      pop\n      jump\t// out\n        /* \"#utility.yul\":5379:5518   */\n    tag_63:\n        /* \"#utility.yul\":5468:5474   */\n      dup3\n        /* \"#utility.yul\":5463:5466   */\n      dup2\n        /* \"#utility.yul\":5458:5461   */\n      dup4\n        /* \"#utility.yul\":5452:5475   */\n      mcopy\n        /* \"#utility.yul\":5509:5510   */\n      0x00\n        /* \"#utility.yul\":5500:5506   */\n      dup4\n        /* \"#utility.yul\":5495:5498   */\n      dup4\n        /* \"#utility.yul\":5491:5507   */\n      add\n        /* \"#utility.yul\":5484:5511   */\n      mstore\n        /* \"#utility.yul\":5379:5518   */\n      pop\n      pop\n      pop\n      jump\t// out\n        /* \"#utility.yul\":5524:5901   */\n    tag_64:\n        /* \"#utility.yul\":5612:5615   */\n      0x00\n        /* \"#utility.yul\":5640:5679   */\n      tag_138\n        /* \"#utility.yul\":5673:5678   */\n      dup3\n        /* \"#utility.yul\":5640:5679   */\n      tag_61\n      jump\t// in\n    tag_138:\n        /* \"#utility.yul\":5695:5766   */\n      tag_139\n        /* \"#utility.yul\":5759:5765   */\n      dup2\n        /* \"#utility.yul\":5754:5757   */\n      dup6\n        /* \"#utility.yul\":5695:5766   */\n      tag_62\n      jump\t// in\n    tag_139:\n        /* \"#utility.yul\":5688:5766   */\n      swap4\n      pop\n        /* \"#utility.yul\":5775:5840   */\n      tag_140\n        /* \"#utility.yul\":5833:5839   */\n      dup2\n        /* \"#utility.yul\":5828:5831   */\n      dup6\n        /* \"#utility.yul\":5821:5825   */\n      0x20\n        /* \"#utility.yul\":5814:5819   */\n      dup7\n        /* \"#utility.yul\":5810:5826   */\n      add\n        /* \"#utility.yul\":5775:5840   */\n      tag_63\n      jump\t// in\n    tag_140:\n        /* \"#utility.yul\":5865:5894   */\n      tag_141\n        /* \"#utility.yul\":5887:5893   */\n      dup2\n        /* \"#utility.yul\":5865:5894   */\n      tag_45\n      jump\t// in\n    tag_141:\n        /* \"#utility.yul\":5860:5863   */\n      dup5\n        /* \"#utility.yul\":5856:5895   */\n      add\n        /* \"#utility.yul\":5849:5895   */\n      swap2\n      pop\n        /* \"#utility.yul\":5616:5901   */\n      pop\n        /* \"#utility.yul\":5524:5901   */\n      swap3\n      swap2\n      pop\n      pop\n      jump\t// out\n        /* \"#utility.yul\":5907:6087   */\n    tag_65:\n        /* \"#utility.yul\":5955:6032   */\n      0x4e487b7100000000000000000000000000000000000000000000000000000000\n        /* \"#utility.yul\":5952:5953   */\n      0x00\n        /* \"#utility.yul\":5945:6033   */\n      mstore\n        /* \"#utility.yul\":6052:6056   */\n      0x21\n        /* \"#utility.yul\":6049:6050   */\n      0x04\n        /* \"#utility.yul\":6042:6057   */\n      mstore\n        /* \"#utility.yul\":6076:6080   */\n      0x24\n        /* \"#utility.yul\":6073:6074   */\n      0x00\n        /* \"#utility.yul\":6066:6081   */\n      revert\n        /* \"#utility.yul\":6093:6206   */\n    tag_66:\n        /* \"#utility.yul\":6174:6175   */\n      0x04\n        /* \"#utility.yul\":6167:6172   */\n      dup2\n        /* \"#utility.yul\":6164:6176   */\n      lt\n        /* \"#utility.yul\":6154:6200   */\n      tag_144\n      jumpi\n        /* \"#utility.yul\":6180:6198   */\n      tag_145\n      tag_65\n      jump\t// in\n    tag_145:\n        /* \"#utility.yul\":6154:6200   */\n    tag_144:\n        /* \"#utility.yul\":6093:6206   */\n      pop\n      jump\t// out\n        /* \"#utility.yul\":6212:6339   */\n    tag_67:\n        /* \"#utility.yul\":6257:6264   */\n      0x00\n        /* \"#utility.yul\":6286:6291   */\n      dup2\n        /* \"#utility.yul\":6275:6291   */\n      swap1\n      pop\n        /* \"#utility.yul\":6292:6333   */\n      tag_147\n        /* \"#utility.yul\":6327:6332   */\n      dup3\n        /* \"#utility.yul\":6292:6333   */\n      tag_66\n      jump\t// in\n    tag_147:\n        /* \"#utility.yul\":6212:6339   */\n      swap2\n      swap1\n      pop\n      jump\t// out\n        /* \"#utility.yul\":6345:6472   */\n    tag_68:\n        /* \"#utility.yul\":6401:6410   */\n      0x00\n        /* \"#utility.yul\":6434:6466   */\n      tag_149\n        /* \"#utility.yul\":6460:6465   */\n      dup3\n        /* \"#utility.yul\":6434:6466   */\n      tag_67\n      jump\t// in\n    tag_149:\n        /* \"#utility.yul\":6421:6466   */\n      swap1\n      pop\n        /* \"#utility.yul\":6345:6472   */\n      swap2\n      swap1\n      pop\n      jump\t// out\n        /* \"#utility.yul\":6478:6621   */\n    tag_69:\n        /* \"#utility.yul\":6571:6614   */\n      tag_151\n        /* \"#utility.yul\":6608:6613   */\n      dup2\n        /* \"#utility.yul\":6571:6614   */\n      tag_68\n      jump\t// in\n    tag_151:\n        /* \"#utility.yul\":6566:6569   */\n      dup3\n        /* \"#utility.yul\":6559:6615   */\n      mstore\n        /* \"#utility.yul\":6478:6621   */\n      pop\n      pop\n      jump\t// out\n        /* \"#utility.yul\":6627:7263   */\n    tag_21:\n        /* \"#utility.yul\":6822:6826   */\n      0x00\n        /* \"#utility.yul\":6860:6862   */\n      0x60\n        /* \"#utility.yul\":6849:6858   */\n      dup3\n        /* \"#utility.yul\":6845:6863   */\n      add\n        /* \"#utility.yul\":6837:6863   */\n      swap1\n      pop\n        /* \"#utility.yul\":6909:6918   */\n      dup2\n        /* \"#utility.yul\":6903:6907   */\n      dup2\n        /* \"#utility.yul\":6899:6919   */\n      sub\n        /* \"#utility.yul\":6895:6896   */\n      0x00\n        /* \"#utility.yul\":6884:6893   */\n      dup4\n        /* \"#utility.yul\":6880:6897   */\n      add\n        /* \"#utility.yul\":6873:6920   */\n      mstore\n        /* \"#utility.yul\":6937:7015   */\n      tag_153\n        /* \"#utility.yul\":7010:7014   */\n      dup2\n        /* \"#utility.yul\":7001:7007   */\n      dup7\n        /* \"#utility.yul\":6937:7015   */\n      tag_64\n      jump\t// in\n    tag_153:\n        /* \"#utility.yul\":6929:7015   */\n      swap1\n      pop\n        /* \"#utility.yul\":7062:7071   */\n      dup2\n        /* \"#utility.yul\":7056:7060   */\n      dup2\n        /* \"#utility.yul\":7052:7072   */\n      sub\n        /* \"#utility.yul\":7047:7049   */\n      0x20\n        /* \"#utility.yul\":7036:7045   */\n      dup4\n        /* \"#utility.yul\":7032:7050   */\n      add\n        /* \"#utility.yul\":7025:7073   */\n      mstore\n        /* \"#utility.yul\":7090:7168   */\n      tag_154\n        /* \"#utility.yul\":7163:7167   */\n      dup2\n        /* \"#utility.yul\":7154:7160   */\n      dup6\n        /* \"#utility.yul\":7090:7168   */\n      tag_64\n      jump\t// in\n    tag_154:\n        /* \"#utility.yul\":7082:7168   */\n      swap1\n      pop\n        /* \"#utility.yul\":7178:7256   */\n      tag_155\n        /* \"#utility.yul\":7252:7254   */\n      0x40\n        /* \"#utility.yul\":7241:7250   */\n      dup4\n        /* \"#utility.yul\":7237:7255   */\n      add\n        /* \"#utility.yul\":7228:7234   */\n      dup5\n        /* \"#utility.yul\":7178:7256   */\n      tag_69\n      jump\t// in\n    tag_155:\n        /* \"#utility.yul\":6627:7263   */\n      swap5\n      swap4\n      pop\n      pop\n      pop\n      pop\n      jump\t// out\n        /* \"#utility.yul\":7269:7437   */\n    tag_70:\n        /* \"#utility.yul\":7409:7429   */\n      0x596f75277265206e6f7420616c6c6f7765640000000000000000000000000000\n        /* \"#utility.yul\":7405:7406   */\n      0x00\n        /* \"#utility.yul\":7397:7403   */\n      dup3\n        /* \"#utility.yul\":7393:7407   */\n      add\n        /* \"#utility.yul\":7386:7430   */\n      mstore\n        /* \"#utility.yul\":7269:7437   */\n      pop\n      jump\t// out\n        /* \"#utility.yul\":7443:7809   */\n    tag_71:\n        /* \"#utility.yul\":7585:7588   */\n      0x00\n        /* \"#utility.yul\":7606:7673   */\n      tag_158\n        /* \"#utility.yul\":7670:7672   */\n      0x12\n        /* \"#utility.yul\":7665:7668   */\n      dup4\n        /* \"#utility.yul\":7606:7673   */\n      tag_62\n      jump\t// in\n    tag_158:\n        /* \"#utility.yul\":7599:7673   */\n      swap2\n      pop\n        /* \"#utility.yul\":7682:7775   */\n      tag_159\n        /* \"#utility.yul\":7771:7774   */\n      dup3\n        /* \"#utility.yul\":7682:7775   */\n      tag_70\n      jump\t// in\n    tag_159:\n        /* \"#utility.yul\":7800:7802   */\n      0x20\n        /* \"#utility.yul\":7795:7798   */\n      dup3\n        /* \"#utility.yul\":7791:7803   */\n      add\n        /* \"#utility.yul\":7784:7803   */\n      swap1\n      pop\n        /* \"#utility.yul\":7443:7809   */\n      swap2\n      swap1\n      pop\n      jump\t// out\n        /* \"#utility.yul\":7815:8234   */\n    tag_25:\n        /* \"#utility.yul\":7981:7985   */\n      0x00\n        /* \"#utility.yul\":8019:8021   */\n      0x20\n        /* \"#utility.yul\":8008:8017   */\n      dup3\n        /* \"#utility.yul\":8004:8022   */\n      add\n        /* \"#utility.yul\":7996:8022   */\n      swap1\n      pop\n        /* \"#utility.yul\":8068:8077   */\n      dup2\n        /* \"#utility.yul\":8062:8066   */\n      dup2\n        /* \"#utility.yul\":8058:8078   */\n      sub\n        /* \"#utility.yul\":8054:8055   */\n      0x00\n        /* \"#utility.yul\":8043:8052   */\n      dup4\n        /* \"#utility.yul\":8039:8056   */\n      add\n        /* \"#utility.yul\":8032:8079   */\n      mstore\n        /* \"#utility.yul\":8096:8227   */\n      tag_161\n        /* \"#utility.yul\":8222:8226   */\n      dup2\n        /* \"#utility.yul\":8096:8227   */\n      tag_71\n      jump\t// in\n    tag_161:\n        /* \"#utility.yul\":8088:8227   */\n      swap1\n      pop\n        /* \"#utility.yul\":7815:8234   */\n      swap2\n      swap1\n      pop\n      jump\t// out\n        /* \"#utility.yul\":8240:8420   */\n    tag_72:\n        /* \"#utility.yul\":8288:8365   */\n      0x4e487b7100000000000000000000000000000000000000000000000000000000\n        /* \"#utility.yul\":8285:8286   */\n      0x00\n        /* \"#utility.yul\":8278:8366   */\n      mstore\n        /* \"#utility.yul\":8385:8389   */\n      0x22\n        /* \"#utility.yul\":8382:8383   */\n      0x04\n        /* \"#utility.yul\":8375:8390   */\n      mstore\n        /* \"#utility.yul\":8409:8413   */\n      0x24\n        /* \"#utility.yul\":8406:8407   */\n      0x00\n        /* \"#utility.yul\":8399:8414   */\n      revert\n        /* \"#utility.yul\":8426:8746   */\n    tag_30:\n        /* \"#utility.yul\":8470:8476   */\n      0x00\n        /* \"#utility.yul\":8507:8508   */\n      0x02\n        /* \"#utility.yul\":8501:8505   */\n      dup3\n        /* \"#utility.yul\":8497:8509   */\n      div\n        /* \"#utility.yul\":8487:8509   */\n      swap1\n      pop\n        /* \"#utility.yul\":8554:8555   */\n      0x01\n        /* \"#utility.yul\":8548:8552   */\n      dup3\n        /* \"#utility.yul\":8544:8556   */\n      and\n        /* \"#utility.yul\":8575:8593   */\n      dup1\n        /* \"#utility.yul\":8565:8646   */\n      tag_164\n      jumpi\n        /* \"#utility.yul\":8631:8635   */\n      0x7f\n        /* \"#utility.yul\":8623:8629   */\n      dup3\n        /* \"#utility.yul\":8619:8636   */\n      and\n        /* \"#utility.yul\":8609:8636   */\n      swap2\n      pop\n        /* \"#utility.yul\":8565:8646   */\n    tag_164:\n        /* \"#utility.yul\":8693:8695   */\n      0x20\n        /* \"#utility.yul\":8685:8691   */\n      dup3\n        /* \"#utility.yul\":8682:8696   */\n      lt\n        /* \"#utility.yul\":8662:8680   */\n      dup2\n        /* \"#utility.yul\":8659:8697   */\n      sub\n        /* \"#utility.yul\":8656:8740   */\n      tag_165\n      jumpi\n        /* \"#utility.yul\":8712:8730   */\n      tag_166\n      tag_72\n      jump\t// in\n    tag_166:\n        /* \"#utility.yul\":8656:8740   */\n    tag_165:\n        /* \"#utility.yul\":8477:8746   */\n      pop\n        /* \"#utility.yul\":8426:8746   */\n      swap2\n      swap1\n      pop\n      jump\t// out\n\n    auxdata: 0xa2646970667358221220bce5e55f6551018c6247fff76e9ee7d53ff68cd36514e0c4039e21990a94ee9964736f6c634300081b0033\n}\n",
				"bytecode": {
					"linkReferences": {},
					"object": "6080604052348015600e575f5ffd5b50335f5f6101000a81548173ffffffffffffffffffffffffffffffffffffffff021916908373ffffffffffffffffffffffffffffffffffffffff1602179055506107868061005b5f395ff3fe608060405234801561000f575f5ffd5b506004361061003f575f3560e01c80633380b99f146100435780638da5cb5b14610073578063bc8bc2b414610091575b5f5ffd5b61005d60048036038101906100589190610416565b6100c3565b60405161006a91906104a6565b60405180910390f35b61007b610158565b60405161008891906104fe565b60405180910390f35b6100ab60048036038101906100a6919061054a565b61017c565b6040516100ba93929190610648565b60405180910390f35b5f5f5f9054906101000a900473ffffffffffffffffffffffffffffffffffffffff1673ffffffffffffffffffffffffffffffffffffffff163373ffffffffffffffffffffffffffffffffffffffff1614610152576040517f08c379a0000000000000000000000000000000000000000000000000000000008152600401610149906106d5565b60405180910390fd5b92915050565b5f5f9054906101000a900473ffffffffffffffffffffffffffffffffffffffff1681565b6001818154811061018b575f80fd5b905f5260205f2090600302015f91509050805f0180546101aa90610720565b80601f01602080910402602001604051908101604052809291908181526020018280546101d690610720565b80156102215780601f106101f857610100808354040283529160200191610221565b820191905f5260205f20905b81548152906001019060200180831161020457829003601f168201915b50505050509080600101805461023690610720565b80601f016020809104026020016040519081016040528092919081815260200182805461026290610720565b80156102ad5780601f10610284576101008083540402835291602001916102ad565b820191905f5260205f20905b81548152906001019060200180831161029057829003601f168201915b505050505090806002015f9054906101000a900460ff16905083565b5f604051905090565b5f5ffd5b5f5ffd5b5f5ffd5b5f5ffd5b5f601f19601f8301169050919050565b7f4e487b71000000000000000000000000000000000000000000000000000000005f52604160045260245ffd5b610328826102e2565b810181811067ffffffffffffffff82111715610347576103466102f2565b5b80604052505050565b5f6103596102c9565b9050610365828261031f565b919050565b5f67ffffffffffffffff821115610384576103836102f2565b5b61038d826102e2565b9050602081019050919050565b828183375f83830152505050565b5f6103ba6103b58461036a565b610350565b9050828152602081018484840111156103d6576103d56102de565b5b6103e184828561039a565b509392505050565b5f82601f8301126103fd576103fc6102da565b5b813561040d8482602086016103a8565b91505092915050565b5f5f6040838503121561042c5761042b6102d2565b5b5f83013567ffffffffffffffff811115610449576104486102d6565b5b610455858286016103e9565b925050602083013567ffffffffffffffff811115610476576104756102d6565b5b610482858286016103e9565b9150509250929050565b5f8115159050919050565b6104a08161048c565b82525050565b5f6020820190506104b95f830184610497565b92915050565b5f73ffffffffffffffffffffffffffffffffffffffff82169050919050565b5f6104e8826104bf565b9050919050565b6104f8816104de565b82525050565b5f6020820190506105115f8301846104ef565b92915050565b5f819050919050565b61052981610517565b8114610533575f5ffd5b50565b5f8135905061054481610520565b92915050565b5f6020828403121561055f5761055e6102d2565b5b5f61056c84828501610536565b91505092915050565b5f81519050919050565b5f82825260208201905092915050565b8281835e5f83830152505050565b5f6105a782610575565b6105b1818561057f565b93506105c181856020860161058f565b6105ca816102e2565b840191505092915050565b7f4e487b71000000000000000000000000000000000000000000000000000000005f52602160045260245ffd5b60048110610613576106126105d5565b5b50565b5f81905061062382610602565b919050565b5f61063282610616565b9050919050565b61064281610628565b82525050565b5f6060820190508181035f830152610660818661059d565b90508181036020830152610674818561059d565b90506106836040830184610639565b949350505050565b7f596f75277265206e6f7420616c6c6f77656400000000000000000000000000005f82015250565b5f6106bf60128361057f565b91506106ca8261068b565b602082019050919050565b5f6020820190508181035f8301526106ec816106b3565b9050919050565b7f4e487b71000000000000000000000000000000000000000000000000000000005f52602260045260245ffd5b5f600282049050600182168061073757607f821691505b60208210810361074a576107496106f3565b5b5091905056fea2646970667358221220bce5e55f6551018c6247fff76e9ee7d53ff68cd36514e0c4039e21990a94ee9964736f6c634300081b0033",
					"opcodes": "PUSH1 0x80 PUSH1 0x40 MSTORE CALLVALUE DUP1 ISZERO PUSH1 0xE JUMPI PUSH0 PUSH0 REVERT JUMPDEST POP CALLER PUSH0 PUSH0 PUSH2 0x100 EXP DUP2 SLOAD DUP2 PUSH20 0xFFFFFFFFFFFFFFFFFFFFFFFFFFFFFFFFFFFFFFFF MUL NOT AND SWAP1 DUP4 PUSH20 0xFFFFFFFFFFFFFFFFFFFFFFFFFFFFFFFFFFFFFFFF AND MUL OR SWAP1 SSTORE POP PUSH2 0x786 DUP1 PUSH2 0x5B PUSH0 CODECOPY PUSH0 RETURN INVALID PUSH1 0x80 PUSH1 0x40 MSTORE CALLVALUE DUP1 ISZERO PUSH2 0xF JUMPI PUSH0 PUSH0 REVERT JUMPDEST POP PUSH1 0x4 CALLDATASIZE LT PUSH2 0x3F JUMPI PUSH0 CALLDATALOAD PUSH1 0xE0 SHR DUP1 PUSH4 0x3380B99F EQ PUSH2 0x43 JUMPI DUP1 PUSH4 0x8DA5CB5B EQ PUSH2 0x73 JUMPI DUP1 PUSH4 0xBC8BC2B4 EQ PUSH2 0x91 JUMPI JUMPDEST PUSH0 PUSH0 REVERT JUMPDEST PUSH2 0x5D PUSH1 0x4 DUP1 CALLDATASIZE SUB DUP2 ADD SWAP1 PUSH2 0x58 SWAP2 SWAP1 PUSH2 0x416 JUMP JUMPDEST PUSH2 0xC3 JUMP JUMPDEST PUSH1 0x40 MLOAD PUSH2 0x6A SWAP2 SWAP1 PUSH2 0x4A6 JUMP JUMPDEST PUSH1 0x40 MLOAD DUP1 SWAP2 SUB SWAP1 RETURN JUMPDEST PUSH2 0x7B PUSH2 0x158 JUMP JUMPDEST PUSH1 0x40 MLOAD PUSH2 0x88 SWAP2 SWAP1 PUSH2 0x4FE JUMP JUMPDEST PUSH1 0x40 MLOAD DUP1 SWAP2 SUB SWAP1 RETURN JUMPDEST PUSH2 0xAB PUSH1 0x4 DUP1 CALLDATASIZE SUB DUP2 ADD SWAP1 PUSH2 0xA6 SWAP2 SWAP1 PUSH2 0x54A JUMP JUMPDEST PUSH2 0x17C JUMP JUMPDEST PUSH1 0x40 MLOAD PUSH2 0xBA SWAP4 SWAP3 SWAP2 SWAP1 PUSH2 0x648 JUMP JUMPDEST PUSH1 0x40 MLOAD DUP1 SWAP2 SUB SWAP1 RETURN JUMPDEST PUSH0 PUSH0 PUSH0 SWAP1 SLOAD SWAP1 PUSH2 0x100 EXP SWAP1 DIV PUSH20 0xFFFFFFFFFFFFFFFFFFFFFFFFFFFFFFFFFFFFFFFF AND PUSH20 0xFFFFFFFFFFFFFFFFFFFFFFFFFFFFFFFFFFFFFFFF AND CALLER PUSH20 0xFFFFFFFFFFFFFFFFFFFFFFFFFFFFFFFFFFFFFFFF AND EQ PUSH2 0x152 JUMPI PUSH1 0x40 MLOAD PUSH32 0x8C379A000000000000000000000000000000000000000000000000000000000 DUP2 MSTORE PUSH1 0x4 ADD PUSH2 0x149 SWAP1 PUSH2 0x6D5 JUMP JUMPDEST PUSH1 0x40 MLOAD DUP1 SWAP2 SUB SWAP1 REVERT JUMPDEST SWAP3 SWAP2 POP POP JUMP JUMPDEST PUSH0 PUSH0 SWAP1 SLOAD SWAP1 PUSH2 0x100 EXP SWAP1 DIV PUSH20 0xFFFFFFFFFFFFFFFFFFFFFFFFFFFFFFFFFFFFFFFF AND DUP2 JUMP JUMPDEST PUSH1 0x1 DUP2 DUP2 SLOAD DUP2 LT PUSH2 0x18B JUMPI PUSH0 DUP1 REVERT JUMPDEST SWAP1 PUSH0 MSTORE PUSH1 0x20 PUSH0 KECCAK256 SWAP1 PUSH1 0x3 MUL ADD PUSH0 SWAP2 POP SWAP1 POP DUP1 PUSH0 ADD DUP1 SLOAD PUSH2 0x1AA SWAP1 PUSH2 0x720 JUMP JUMPDEST DUP1 PUSH1 0x1F ADD PUSH1 0x20 DUP1 SWAP2 DIV MUL PUSH1 0x20 ADD PUSH1 0x40 MLOAD SWAP1 DUP2 ADD PUSH1 0x40 MSTORE DUP1 SWAP3 SWAP2 SWAP1 DUP2 DUP2 MSTORE PUSH1 0x20 ADD DUP3 DUP1 SLOAD PUSH2 0x1D6 SWAP1 PUSH2 0x720 JUMP JUMPDEST DUP1 ISZERO PUSH2 0x221 JUMPI DUP1 PUSH1 0x1F LT PUSH2 0x1F8 JUMPI PUSH2 0x100 DUP1 DUP4 SLOAD DIV MUL DUP4 MSTORE SWAP2 PUSH1 0x20 ADD SWAP2 PUSH2 0x221 JUMP JUMPDEST DUP3 ADD SWAP2 SWAP1 PUSH0 MSTORE PUSH1 0x20 PUSH0 KECCAK256 SWAP1 JUMPDEST DUP2 SLOAD DUP2 MSTORE SWAP1 PUSH1 0x1 ADD SWAP1 PUSH1 0x20 ADD DUP1 DUP4 GT PUSH2 0x204 JUMPI DUP3 SWAP1 SUB PUSH1 0x1F AND DUP3 ADD SWAP2 JUMPDEST POP POP POP POP POP SWAP1 DUP1 PUSH1 0x1 ADD DUP1 SLOAD PUSH2 0x236 SWAP1 PUSH2 0x720 JUMP JUMPDEST DUP1 PUSH1 0x1F ADD PUSH1 0x20 DUP1 SWAP2 DIV MUL PUSH1 0x20 ADD PUSH1 0x40 MLOAD SWAP1 DUP2 ADD PUSH1 0x40 MSTORE DUP1 SWAP3 SWAP2 SWAP1 DUP2 DUP2 MSTORE PUSH1 0x20 ADD DUP3 DUP1 SLOAD PUSH2 0x262 SWAP1 PUSH2 0x720 JUMP JUMPDEST DUP1 ISZERO PUSH2 0x2AD JUMPI DUP1 PUSH1 0x1F LT PUSH2 0x284 JUMPI PUSH2 0x100 DUP1 DUP4 SLOAD DIV MUL DUP4 MSTORE SWAP2 PUSH1 0x20 ADD SWAP2 PUSH2 0x2AD JUMP JUMPDEST DUP3 ADD SWAP2 SWAP1 PUSH0 MSTORE PUSH1 0x20 PUSH0 KECCAK256 SWAP1 JUMPDEST DUP2 SLOAD DUP2 MSTORE SWAP1 PUSH1 0x1 ADD SWAP1 PUSH1 0x20 ADD DUP1 DUP4 GT PUSH2 0x290 JUMPI DUP3 SWAP1 SUB PUSH1 0x1F AND DUP3 ADD SWAP2 JUMPDEST POP POP POP POP POP SWAP1 DUP1 PUSH1 0x2 ADD PUSH0 SWAP1 SLOAD SWAP1 PUSH2 0x100 EXP SWAP1 DIV PUSH1 0xFF AND SWAP1 POP DUP4 JUMP JUMPDEST PUSH0 PUSH1 0x40 MLOAD SWAP1 POP SWAP1 JUMP JUMPDEST PUSH0 PUSH0 REVERT JUMPDEST PUSH0 PUSH0 REVERT JUMPDEST PUSH0 PUSH0 REVERT JUMPDEST PUSH0 PUSH0 REVERT JUMPDEST PUSH0 PUSH1 0x1F NOT PUSH1 0x1F DUP4 ADD AND SWAP1 POP SWAP2 SWAP1 POP JUMP JUMPDEST PUSH32 0x4E487B7100000000000000000000000000000000000000000000000000000000 PUSH0 MSTORE PUSH1 0x41 PUSH1 0x4 MSTORE PUSH1 0x24 PUSH0 REVERT JUMPDEST PUSH2 0x328 DUP3 PUSH2 0x2E2 JUMP JUMPDEST DUP2 ADD DUP2 DUP2 LT PUSH8 0xFFFFFFFFFFFFFFFF DUP3 GT OR ISZERO PUSH2 0x347 JUMPI PUSH2 0x346 PUSH2 0x2F2 JUMP JUMPDEST JUMPDEST DUP1 PUSH1 0x40 MSTORE POP POP POP JUMP JUMPDEST PUSH0 PUSH2 0x359 PUSH2 0x2C9 JUMP JUMPDEST SWAP1 POP PUSH2 0x365 DUP3 DUP3 PUSH2 0x31F JUMP JUMPDEST SWAP2 SWAP1 POP JUMP JUMPDEST PUSH0 PUSH8 0xFFFFFFFFFFFFFFFF DUP3 GT ISZERO PUSH2 0x384 JUMPI PUSH2 0x383 PUSH2 0x2F2 JUMP JUMPDEST JUMPDEST PUSH2 0x38D DUP3 PUSH2 0x2E2 JUMP JUMPDEST SWAP1 POP PUSH1 0x20 DUP2 ADD SWAP1 POP SWAP2 SWAP1 POP JUMP JUMPDEST DUP3 DUP2 DUP4 CALLDATACOPY PUSH0 DUP4 DUP4 ADD MSTORE POP POP POP JUMP JUMPDEST PUSH0 PUSH2 0x3BA PUSH2 0x3B5 DUP5 PUSH2 0x36A JUMP JUMPDEST PUSH2 0x350 JUMP JUMPDEST SWAP1 POP DUP3 DUP2 MSTORE PUSH1 0x20 DUP2 ADD DUP5 DUP5 DUP5 ADD GT ISZERO PUSH2 0x3D6 JUMPI PUSH2 0x3D5 PUSH2 0x2DE JUMP JUMPDEST JUMPDEST PUSH2 0x3E1 DUP5 DUP3 DUP6 PUSH2 0x39A JUMP JUMPDEST POP SWAP4 SWAP3 POP POP POP JUMP JUMPDEST PUSH0 DUP3 PUSH1 0x1F DUP4 ADD SLT PUSH2 0x3FD JUMPI PUSH2 0x3FC PUSH2 0x2DA JUMP JUMPDEST JUMPDEST DUP2 CALLDATALOAD PUSH2 0x40D DUP5 DUP3 PUSH1 0x20 DUP7 ADD PUSH2 0x3A8 JUMP JUMPDEST SWAP2 POP POP SWAP3 SWAP2 POP POP JUMP JUMPDEST PUSH0 PUSH0 PUSH1 0x40 DUP4 DUP6 SUB SLT ISZERO PUSH2 0x42C JUMPI PUSH2 0x42B PUSH2 0x2D2 JUMP JUMPDEST JUMPDEST PUSH0 DUP4 ADD CALLDATALOAD PUSH8 0xFFFFFFFFFFFFFFFF DUP2 GT ISZERO PUSH2 0x449 JUMPI PUSH2 0x448 PUSH2 0x2D6 JUMP JUMPDEST JUMPDEST PUSH2 0x455 DUP6 DUP3 DUP7 ADD PUSH2 0x3E9 JUMP JUMPDEST SWAP3 POP POP PUSH1 0x20 DUP4 ADD CALLDATALOAD PUSH8 0xFFFFFFFFFFFFFFFF DUP2 GT ISZERO PUSH2 0x476 JUMPI PUSH2 0x475 PUSH2 0x2D6 JUMP JUMPDEST JUMPDEST PUSH2 0x482 DUP6 DUP3 DUP7 ADD PUSH2 0x3E9 JUMP JUMPDEST SWAP2 POP POP SWAP3 POP SWAP3 SWAP1 POP JUMP JUMPDEST PUSH0 DUP2 ISZERO ISZERO SWAP1 POP SWAP2 SWAP1 POP JUMP JUMPDEST PUSH2 0x4A0 DUP2 PUSH2 0x48C JUMP JUMPDEST DUP3 MSTORE POP POP JUMP JUMPDEST PUSH0 PUSH1 0x20 DUP3 ADD SWAP1 POP PUSH2 0x4B9 PUSH0 DUP4 ADD DUP5 PUSH2 0x497 JUMP JUMPDEST SWAP3 SWAP2 POP POP JUMP JUMPDEST PUSH0 PUSH20 0xFFFFFFFFFFFFFFFFFFFFFFFFFFFFFFFFFFFFFFFF DUP3 AND SWAP1 POP SWAP2 SWAP1 POP JUMP JUMPDEST PUSH0 PUSH2 0x4E8 DUP3 PUSH2 0x4BF JUMP JUMPDEST SWAP1 POP SWAP2 SWAP1 POP JUMP JUMPDEST PUSH2 0x4F8 DUP2 PUSH2 0x4DE JUMP JUMPDEST DUP3 MSTORE POP POP JUMP JUMPDEST PUSH0 PUSH1 0x20 DUP3 ADD SWAP1 POP PUSH2 0x511 PUSH0 DUP4 ADD DUP5 PUSH2 0x4EF JUMP JUMPDEST SWAP3 SWAP2 POP POP JUMP JUMPDEST PUSH0 DUP2 SWAP1 POP SWAP2 SWAP1 POP JUMP JUMPDEST PUSH2 0x529 DUP2 PUSH2 0x517 JUMP JUMPDEST DUP2 EQ PUSH2 0x533 JUMPI PUSH0 PUSH0 REVERT JUMPDEST POP JUMP JUMPDEST PUSH0 DUP2 CALLDATALOAD SWAP1 POP PUSH2 0x544 DUP2 PUSH2 0x520 JUMP JUMPDEST SWAP3 SWAP2 POP POP JUMP JUMPDEST PUSH0 PUSH1 0x20 DUP3 DUP5 SUB SLT ISZERO PUSH2 0x55F JUMPI PUSH2 0x55E PUSH2 0x2D2 JUMP JUMPDEST JUMPDEST PUSH0 PUSH2 0x56C DUP5 DUP3 DUP6 ADD PUSH2 0x536 JUMP JUMPDEST SWAP2 POP POP SWAP3 SWAP2 POP POP JUMP JUMPDEST PUSH0 DUP2 MLOAD SWAP1 POP SWAP2 SWAP1 POP JUMP JUMPDEST PUSH0 DUP3 DUP3 MSTORE PUSH1 0x20 DUP3 ADD SWAP1 POP SWAP3 SWAP2 POP POP JUMP JUMPDEST DUP3 DUP2 DUP4 MCOPY PUSH0 DUP4 DUP4 ADD MSTORE POP POP POP JUMP JUMPDEST PUSH0 PUSH2 0x5A7 DUP3 PUSH2 0x575 JUMP JUMPDEST PUSH2 0x5B1 DUP2 DUP6 PUSH2 0x57F JUMP JUMPDEST SWAP4 POP PUSH2 0x5C1 DUP2 DUP6 PUSH1 0x20 DUP7 ADD PUSH2 0x58F JUMP JUMPDEST PUSH2 0x5CA DUP2 PUSH2 0x2E2 JUMP JUMPDEST DUP5 ADD SWAP2 POP POP SWAP3 SWAP2 POP POP JUMP JUMPDEST PUSH32 0x4E487B7100000000000000000000000000000000000000000000000000000000 PUSH0 MSTORE PUSH1 0x21 PUSH1 0x4 MSTORE PUSH1 0x24 PUSH0 REVERT JUMPDEST PUSH1 0x4 DUP2 LT PUSH2 0x613 JUMPI PUSH2 0x612 PUSH2 0x5D5 JUMP JUMPDEST JUMPDEST POP JUMP JUMPDEST PUSH0 DUP2 SWAP1 POP PUSH2 0x623 DUP3 PUSH2 0x602 JUMP JUMPDEST SWAP2 SWAP1 POP JUMP JUMPDEST PUSH0 PUSH2 0x632 DUP3 PUSH2 0x616 JUMP JUMPDEST SWAP1 POP SWAP2 SWAP1 POP JUMP JUMPDEST PUSH2 0x642 DUP2 PUSH2 0x628 JUMP JUMPDEST DUP3 MSTORE POP POP JUMP JUMPDEST PUSH0 PUSH1 0x60 DUP3 ADD SWAP1 POP DUP2 DUP2 SUB PUSH0 DUP4 ADD MSTORE PUSH2 0x660 DUP2 DUP7 PUSH2 0x59D JUMP JUMPDEST SWAP1 POP DUP2 DUP2 SUB PUSH1 0x20 DUP4 ADD MSTORE PUSH2 0x674 DUP2 DUP6 PUSH2 0x59D JUMP JUMPDEST SWAP1 POP PUSH2 0x683 PUSH1 0x40 DUP4 ADD DUP5 PUSH2 0x639 JUMP JUMPDEST SWAP5 SWAP4 POP POP POP POP JUMP JUMPDEST PUSH32 0x596F75277265206E6F7420616C6C6F7765640000000000000000000000000000 PUSH0 DUP3 ADD MSTORE POP JUMP JUMPDEST PUSH0 PUSH2 0x6BF PUSH1 0x12 DUP4 PUSH2 0x57F JUMP JUMPDEST SWAP2 POP PUSH2 0x6CA DUP3 PUSH2 0x68B JUMP JUMPDEST PUSH1 0x20 DUP3 ADD SWAP1 POP SWAP2 SWAP1 POP JUMP JUMPDEST PUSH0 PUSH1 0x20 DUP3 ADD SWAP1 POP DUP2 DUP2 SUB PUSH0 DUP4 ADD MSTORE PUSH2 0x6EC DUP2 PUSH2 0x6B3 JUMP JUMPDEST SWAP1 POP SWAP2 SWAP1 POP JUMP JUMPDEST PUSH32 0x4E487B7100000000000000000000000000000000000000000000000000000000 PUSH0 MSTORE PUSH1 0x22 PUSH1 0x4 MSTORE PUSH1 0x24 PUSH0 REVERT JUMPDEST PUSH0 PUSH1 0x2 DUP3 DIV SWAP1 POP PUSH1 0x1 DUP3 AND DUP1 PUSH2 0x737 JUMPI PUSH1 0x7F DUP3 AND SWAP2 POP JUMPDEST PUSH1 0x20 DUP3 LT DUP2 SUB PUSH2 0x74A JUMPI PUSH2 0x749 PUSH2 0x6F3 JUMP JUMPDEST JUMPDEST POP SWAP2 SWAP1 POP JUMP INVALID LOG2 PUSH5 0x6970667358 0x22 SLT KECCAK256 0xBC 0xE5 0xE5 PUSH0 PUSH6 0x51018C6247FF 0xF7 PUSH15 0x9EE7D53FF68CD36514E0C4039E2199 EXP SWAP5 0xEE SWAP10 PUSH5 0x736F6C6343 STOP ADDMOD SHL STOP CALLER "
				},
				"gasEstimates": {
					"creation": {
						"codeDepositCost": "385200",
						"executionCost": "24686",
						"totalCost": "409886"
					},
					"external": {
						"createTodo(string,string)": "infinite",
						"owner()": "2507",
						"todos(uint256)": "infinite"
					}
				},
				"methodIdentifiers": {
					"createTodo(string,string)": "3380b99f",
					"owner()": "8da5cb5b",
					"todos(uint256)": "bc8bc2b4"
				}
			},
			"storageLayout": {
				"storage": [
					{
						"astId": 3,
						"contract": "contracts/Todo.sol:TodoList",
						"label": "owner",
						"offset": 0,
						"slot": "0",
						"type": "t_address"
					},
					{
						"astId": 20,
						"contract": "contracts/Todo.sol:TodoList",
						"label": "todos",
						"offset": 0,
						"slot": "1",
						"type": "t_array(t_struct(Todo)16_storage)dyn_storage"
					}
				],
				"types": {
					"t_address": {
						"encoding": "inplace",
						"label": "address",
						"numberOfBytes": "20"
					},
					"t_array(t_struct(Todo)16_storage)dyn_storage": {
						"base": "t_struct(Todo)16_storage",
						"encoding": "dynamic_array",
						"label": "struct TodoList.Todo[]",
						"numberOfBytes": "32"
					},
					"t_enum(Status)8": {
						"encoding": "inplace",
						"label": "enum TodoList.Status",
						"numberOfBytes": "1"
					},
					"t_string_storage": {
						"encoding": "bytes",
						"label": "string",
						"numberOfBytes": "32"
					},
					"t_struct(Todo)16_storage": {
						"encoding": "inplace",
						"label": "struct TodoList.Todo",
						"members": [
							{
								"astId": 10,
								"contract": "contracts/Todo.sol:TodoList",
								"label": "title",
								"offset": 0,
								"slot": "0",
								"type": "t_string_storage"
							},
							{
								"astId": 12,
								"contract": "contracts/Todo.sol:TodoList",
								"label": "description",
								"offset": 0,
								"slot": "1",
								"type": "t_string_storage"
							},
							{
								"astId": 15,
								"contract": "contracts/Todo.sol:TodoList",
								"label": "status",
								"offset": 0,
								"slot": "2",
								"type": "t_enum(Status)8"
							}
						],
						"numberOfBytes": "96"
					}
				}
			},
			"userdoc": {
				"kind": "user",
				"methods": {},
				"version": 1
			}
		}
	}
}