{
	"contracts/Todo.sol": {
		"TodoList": {
			"abi": [
				{
					"inputs": [],
					"stateMutability": "nonpayable",
					"type": "constructor"
				},
				{
					"anonymous": false,
					"inputs": [
						{
							"indexed": false,
							"internalType": "string",
							"name": "title",
							"type": "string"
						},
						{
							"indexed": false,
							"internalType": "enum TodoList.Status",
							"name": "status",
							"type": "uint8"
						}
					],
					"name": "TodoCreated",
					"type": "event"
				},
				{
					"anonymous": false,
					"inputs": [
						{
							"indexed": false,
							"internalType": "string",
							"name": "title",
							"type": "string"
						},
						{
							"indexed": false,
							"internalType": "enum TodoList.Status",
							"name": "status",
							"type": "uint8"
						}
					],
					"name": "TodoUpdated",
					"type": "event"
				},
				{
					"inputs": [
						{
							"internalType": "string",
							"name": "_title",
							"type": "string"
						},
						{
							"internalType": "string",
							"name": "_desc",
							"type": "string"
						}
					],
					"name": "createTodo",
					"outputs": [
						{
							"internalType": "bool",
							"name": "",
							"type": "bool"
						}
					],
					"stateMutability": "nonpayable",
					"type": "function"
				},
				{
					"inputs": [
						{
							"internalType": "uint8",
							"name": "_index",
							"type": "uint8"
						}
					],
					"name": "deleteTodo",
					"outputs": [],
					"stateMutability": "nonpayable",
					"type": "function"
				},
				{
					"inputs": [],
					"name": "getAllTodo",
					"outputs": [
						{
							"components": [
								{
									"internalType": "string",
									"name": "title",
									"type": "string"
								},
								{
									"internalType": "string",
									"name": "description",
									"type": "string"
								},
								{
									"internalType": "enum TodoList.Status",
									"name": "status",
									"type": "uint8"
								}
							],
							"internalType": "struct TodoList.Todo[]",
							"name": "",
							"type": "tuple[]"
						}
					],
					"stateMutability": "view",
					"type": "function"
				},
				{
					"inputs": [
						{
							"internalType": "uint8",
							"name": "_index",
							"type": "uint8"
						}
					],
					"name": "getTodo",
					"outputs": [
						{
							"internalType": "string",
							"name": "",
							"type": "string"
						},
						{
							"internalType": "string",
							"name": "",
							"type": "string"
						},
						{
							"internalType": "enum TodoList.Status",
							"name": "",
							"type": "uint8"
						}
					],
					"stateMutability": "view",
					"type": "function"
				},
				{
					"inputs": [],
					"name": "owner",
					"outputs": [
						{
							"internalType": "address",
							"name": "",
							"type": "address"
						}
					],
					"stateMutability": "view",
					"type": "function"
				},
				{
					"inputs": [
						{
							"internalType": "uint8",
							"name": "_index",
							"type": "uint8"
						}
					],
					"name": "todoCompleted",
					"outputs": [
						{
							"internalType": "bool",
							"name": "",
							"type": "bool"
						}
					],
					"stateMutability": "nonpayable",
					"type": "function"
				},
				{
					"inputs": [
						{
							"internalType": "uint256",
							"name": "",
							"type": "uint256"
						}
					],
					"name": "todos",
					"outputs": [
						{
							"internalType": "string",
							"name": "title",
							"type": "string"
						},
						{
							"internalType": "string",
							"name": "description",
							"type": "string"
						},
						{
							"internalType": "enum TodoList.Status",
							"name": "status",
							"type": "uint8"
						}
					],
					"stateMutability": "view",
					"type": "function"
				},
				{
					"inputs": [
						{
							"internalType": "uint8",
							"name": "_index",
							"type": "uint8"
						},
						{
							"internalType": "string",
							"name": "_title",
							"type": "string"
						},
						{
							"internalType": "string",
							"name": "_desc",
							"type": "string"
						}
					],
					"name": "updateTodo",
					"outputs": [],
					"stateMutability": "nonpayable",
					"type": "function"
				}
			],
			"devdoc": {
				"kind": "dev",
				"methods": {},
				"version": 1
			},
			"evm": {
				"assembly": "    /* \"contracts/Todo.sol\":61:2410  contract TodoList{... */\n  mstore(0x40, 0x80)\n    /* \"contracts/Todo.sol\":296:350  constructor(){... */\n  callvalue\n  dup1\n  iszero\n  tag_1\n  jumpi\n  revert(0x00, 0x00)\ntag_1:\n  pop\n    /* \"contracts/Todo.sol\":328:338  msg.sender */\n  caller\n    /* \"contracts/Todo.sol\":320:325  owner */\n  0x00\n  0x00\n    /* \"contracts/Todo.sol\":320:338  owner = msg.sender */\n  0x0100\n  exp\n  dup2\n  sload\n  dup2\n  0xffffffffffffffffffffffffffffffffffffffff\n  mul\n  not\n  and\n  swap1\n  dup4\n  0xffffffffffffffffffffffffffffffffffffffff\n  and\n  mul\n  or\n  swap1\n  sstore\n  pop\n    /* \"contracts/Todo.sol\":61:2410  contract TodoList{... */\n  dataSize(sub_0)\n  dup1\n  dataOffset(sub_0)\n  0x00\n  codecopy\n  0x00\n  return\nstop\n\nsub_0: assembly {\n        /* \"contracts/Todo.sol\":61:2410  contract TodoList{... */\n      mstore(0x40, 0x80)\n      callvalue\n      dup1\n      iszero\n      tag_1\n      jumpi\n      revert(0x00, 0x00)\n    tag_1:\n      pop\n      jumpi(tag_2, lt(calldatasize, 0x04))\n      shr(0xe0, calldataload(0x00))\n      dup1\n      0x982abb89\n      gt\n      tag_11\n      jumpi\n      dup1\n      0x982abb89\n      eq\n      tag_7\n      jumpi\n      dup1\n      0xbc8bc2b4\n      eq\n      tag_8\n      jumpi\n      dup1\n      0xe9505164\n      eq\n      tag_9\n      jumpi\n      dup1\n      0xfb0b86fb\n      eq\n      tag_10\n      jumpi\n      jump(tag_2)\n    tag_11:\n      dup1\n      0x23388146\n      eq\n      tag_3\n      jumpi\n      dup1\n      0x3380b99f\n      eq\n      tag_4\n      jumpi\n      dup1\n      0x5607da51\n      eq\n      tag_5\n      jumpi\n      dup1\n      0x8da5cb5b\n      eq\n      tag_6\n      jumpi\n    tag_2:\n      revert(0x00, 0x00)\n        /* \"contracts/Todo.sol\":2194:2407  function deleteTodo(uint8 _index) external onlyOwner validAddress{... */\n    tag_3:\n      tag_12\n      0x04\n      dup1\n      calldatasize\n      sub\n      dup2\n      add\n      swap1\n      tag_13\n      swap2\n      swap1\n      tag_14\n      jump\t// in\n    tag_13:\n      tag_15\n      jump\t// in\n    tag_12:\n      stop\n        /* \"contracts/Todo.sol\":722:1097  function createTodo(string memory _title, string memory _desc) external onlyOwner validAddress returns (bool){... */\n    tag_4:\n      tag_16\n      0x04\n      dup1\n      calldatasize\n      sub\n      dup2\n      add\n      swap1\n      tag_17\n      swap2\n      swap1\n      tag_18\n      jump\t// in\n    tag_17:\n      tag_19\n      jump\t// in\n    tag_16:\n      mload(0x40)\n      tag_20\n      swap2\n      swap1\n      tag_21\n      jump\t// in\n    tag_20:\n      mload(0x40)\n      dup1\n      swap2\n      sub\n      swap1\n      return\n        /* \"contracts/Todo.sol\":1919:2186  function todoCompleted(uint8 _index) external onlyOwner validAddress returns (bool){... */\n    tag_5:\n      tag_22\n      0x04\n      dup1\n      calldatasize\n      sub\n      dup2\n      add\n      swap1\n      tag_23\n      swap2\n      swap1\n      tag_14\n      jump\t// in\n    tag_23:\n      tag_24\n      jump\t// in\n    tag_22:\n      mload(0x40)\n      tag_25\n      swap2\n      swap1\n      tag_21\n      jump\t// in\n    tag_25:\n      mload(0x40)\n      dup1\n      swap2\n      sub\n      swap1\n      return\n        /* \"contracts/Todo.sol\":87:107  address public owner */\n    tag_6:\n      tag_26\n      tag_27\n      jump\t// in\n    tag_26:\n      mload(0x40)\n      tag_28\n      swap2\n      swap1\n      tag_29\n      jump\t// in\n    tag_28:\n      mload(0x40)\n      dup1\n      swap2\n      sub\n      swap1\n      return\n        /* \"contracts/Todo.sol\":1808:1911  function getAllTodo() external view validAddress returns (Todo[] memory){... */\n    tag_7:\n      tag_30\n      tag_31\n      jump\t// in\n    tag_30:\n      mload(0x40)\n      tag_32\n      swap2\n      swap1\n      tag_33\n      jump\t// in\n    tag_32:\n      mload(0x40)\n      dup1\n      swap2\n      sub\n      swap1\n      return\n        /* \"contracts/Todo.sol\":268:287  Todo[] public todos */\n    tag_8:\n      tag_34\n      0x04\n      dup1\n      calldatasize\n      sub\n      dup2\n      add\n      swap1\n      tag_35\n      swap2\n      swap1\n      tag_36\n      jump\t// in\n    tag_35:\n      tag_37\n      jump\t// in\n    tag_34:\n      mload(0x40)\n      tag_38\n      swap4\n      swap3\n      swap2\n      swap1\n      tag_39\n      jump\t// in\n    tag_38:\n      mload(0x40)\n      dup1\n      swap2\n      sub\n      swap1\n      return\n        /* \"contracts/Todo.sol\":1105:1499  function updateTodo(uint8 _index, string memory _title, string memory _desc) external onlyOwner validAddress{... */\n    tag_9:\n      tag_40\n      0x04\n      dup1\n      calldatasize\n      sub\n      dup2\n      add\n      swap1\n      tag_41\n      swap2\n      swap1\n      tag_42\n      jump\t// in\n    tag_41:\n      tag_43\n      jump\t// in\n    tag_40:\n      stop\n        /* \"contracts/Todo.sol\":1507:1799  function getTodo(uint8 _index) external view validAddress returns (string memory, string memory, Status){... */\n    tag_10:\n      tag_44\n      0x04\n      dup1\n      calldatasize\n      sub\n      dup2\n      add\n      swap1\n      tag_45\n      swap2\n      swap1\n      tag_14\n      jump\t// in\n    tag_45:\n      tag_46\n      jump\t// in\n    tag_44:\n      mload(0x40)\n      tag_47\n      swap4\n      swap3\n      swap2\n      swap1\n      tag_39\n      jump\t// in\n    tag_47:\n      mload(0x40)\n      dup1\n      swap2\n      sub\n      swap1\n      return\n        /* \"contracts/Todo.sol\":2194:2407  function deleteTodo(uint8 _index) external onlyOwner validAddress{... */\n    tag_15:\n        /* \"contracts/Todo.sol\":411:416  owner */\n      0x00\n      0x00\n      swap1\n      sload\n      swap1\n      0x0100\n      exp\n      swap1\n      div\n      0xffffffffffffffffffffffffffffffffffffffff\n      and\n        /* \"contracts/Todo.sol\":397:416  msg.sender == owner */\n      0xffffffffffffffffffffffffffffffffffffffff\n      and\n        /* \"contracts/Todo.sol\":397:407  msg.sender */\n      caller\n        /* \"contracts/Todo.sol\":397:416  msg.sender == owner */\n      0xffffffffffffffffffffffffffffffffffffffff\n      and\n      eq\n        /* \"contracts/Todo.sol\":389:439  require(msg.sender == owner, \"You're not allowed\") */\n      tag_49\n      jumpi\n      mload(0x40)\n      0x08c379a000000000000000000000000000000000000000000000000000000000\n      dup2\n      mstore\n      0x04\n      add\n      tag_50\n      swap1\n      tag_51\n      jump\t// in\n    tag_50:\n      mload(0x40)\n      dup1\n      swap2\n      sub\n      swap1\n      revert\n    tag_49:\n        /* \"contracts/Todo.sol\":531:532  0 */\n      0x00\n        /* \"contracts/Todo.sol\":509:533  msg.sender != address(0) */\n      0xffffffffffffffffffffffffffffffffffffffff\n      and\n        /* \"contracts/Todo.sol\":509:519  msg.sender */\n      caller\n        /* \"contracts/Todo.sol\":509:533  msg.sender != address(0) */\n      0xffffffffffffffffffffffffffffffffffffffff\n      and\n      sub\n        /* \"contracts/Todo.sol\":501:562  require(msg.sender != address(0), \"Zeor address not allowed\") */\n      tag_53\n      jumpi\n      mload(0x40)\n      0x08c379a000000000000000000000000000000000000000000000000000000000\n      dup2\n      mstore\n      0x04\n      add\n      tag_54\n      swap1\n      tag_55\n      jump\t// in\n    tag_54:\n      mload(0x40)\n      dup1\n      swap2\n      sub\n      swap1\n      revert\n    tag_53:\n        /* \"contracts/Todo.sol\":2287:2292  todos */\n      0x01\n        /* \"contracts/Todo.sol\":2287:2299  todos.length */\n      dup1\n      sload\n      swap1\n      pop\n        /* \"contracts/Todo.sol\":2278:2284  _index */\n      dup2\n        /* \"contracts/Todo.sol\":2278:2299  _index < todos.length */\n      0xff\n      and\n      lt\n        /* \"contracts/Todo.sol\":2270:2325  require(_index < todos.length, \"Index is out-of-bound\") */\n      tag_57\n      jumpi\n      mload(0x40)\n      0x08c379a000000000000000000000000000000000000000000000000000000000\n      dup2\n      mstore\n      0x04\n      add\n      tag_58\n      swap1\n      tag_59\n      jump\t// in\n    tag_58:\n      mload(0x40)\n      dup1\n      swap2\n      sub\n      swap1\n      revert\n    tag_57:\n        /* \"contracts/Todo.sol\":2354:2359  todos */\n      0x01\n        /* \"contracts/Todo.sol\":2375:2376  1 */\n      dup1\n        /* \"contracts/Todo.sol\":2360:2365  todos */\n      dup1\n        /* \"contracts/Todo.sol\":2360:2372  todos.length */\n      dup1\n      sload\n      swap1\n      pop\n        /* \"contracts/Todo.sol\":2360:2376  todos.length - 1 */\n      tag_60\n      swap2\n      swap1\n      tag_61\n      jump\t// in\n    tag_60:\n        /* \"contracts/Todo.sol\":2354:2377  todos[todos.length - 1] */\n      dup2\n      sload\n      dup2\n      lt\n      tag_62\n      jumpi\n      tag_63\n      tag_64\n      jump\t// in\n    tag_63:\n    tag_62:\n      swap1\n      0x00\n      mstore\n      keccak256(0x00, 0x20)\n      swap1\n      0x03\n      mul\n      add\n        /* \"contracts/Todo.sol\":2338:2343  todos */\n      0x01\n        /* \"contracts/Todo.sol\":2344:2350  _index */\n      dup3\n        /* \"contracts/Todo.sol\":2338:2351  todos[_index] */\n      0xff\n      and\n      dup2\n      sload\n      dup2\n      lt\n      tag_66\n      jumpi\n      tag_67\n      tag_64\n      jump\t// in\n    tag_67:\n    tag_66:\n      swap1\n      0x00\n      mstore\n      keccak256(0x00, 0x20)\n      swap1\n      0x03\n      mul\n      add\n        /* \"contracts/Todo.sol\":2338:2377  todos[_index] = todos[todos.length - 1] */\n      0x00\n      dup3\n      add\n      dup2\n      0x00\n      add\n      swap1\n      dup2\n      tag_69\n      swap2\n      swap1\n      tag_70\n      jump\t// in\n    tag_69:\n      pop\n      0x01\n      dup3\n      add\n      dup2\n      0x01\n      add\n      swap1\n      dup2\n      tag_71\n      swap2\n      swap1\n      tag_70\n      jump\t// in\n    tag_71:\n      pop\n      0x02\n      dup3\n      add\n      0x00\n      swap1\n      sload\n      swap1\n      0x0100\n      exp\n      swap1\n      div\n      0xff\n      and\n      dup2\n      0x02\n      add\n      exp(0x0100, 0x00)\n      dup2\n      sload\n      dup2\n      0xff\n      mul\n      not\n      and\n      swap1\n      dup4\n      0x03\n      dup2\n      gt\n      iszero\n      tag_72\n      jumpi\n      tag_73\n      tag_74\n      jump\t// in\n    tag_73:\n    tag_72:\n      mul\n      or\n      swap1\n      sstore\n      pop\n      swap1\n      pop\n      pop\n        /* \"contracts/Todo.sol\":2388:2393  todos */\n      0x01\n        /* \"contracts/Todo.sol\":2388:2399  todos.pop() */\n      dup1\n      sload\n      dup1\n      tag_75\n      jumpi\n      tag_76\n      tag_77\n      jump\t// in\n    tag_76:\n    tag_75:\n      0x01\n      swap1\n      sub\n      dup2\n      dup2\n      swap1\n      0x00\n      mstore\n      keccak256(0x00, 0x20)\n      swap1\n      0x03\n      mul\n      add\n      0x00\n      0x00\n      dup3\n      add\n      0x00\n      tag_79\n      swap2\n      swap1\n      tag_80\n      jump\t// in\n    tag_79:\n      0x01\n      dup3\n      add\n      0x00\n      tag_81\n      swap2\n      swap1\n      tag_80\n      jump\t// in\n    tag_81:\n      0x02\n      dup3\n      add\n      exp(0x0100, 0x00)\n      dup2\n      sload\n      swap1\n      0xff\n      mul\n      not\n      and\n      swap1\n      sstore\n      pop\n      pop\n      swap1\n      sstore\n        /* \"contracts/Todo.sol\":2194:2407  function deleteTodo(uint8 _index) external onlyOwner validAddress{... */\n      pop\n      jump\t// out\n        /* \"contracts/Todo.sol\":722:1097  function createTodo(string memory _title, string memory _desc) external onlyOwner validAddress returns (bool){... */\n    tag_19:\n        /* \"contracts/Todo.sol\":826:830  bool */\n      0x00\n        /* \"contracts/Todo.sol\":411:416  owner */\n      0x00\n      0x00\n      swap1\n      sload\n      swap1\n      0x0100\n      exp\n      swap1\n      div\n      0xffffffffffffffffffffffffffffffffffffffff\n      and\n        /* \"contracts/Todo.sol\":397:416  msg.sender == owner */\n      0xffffffffffffffffffffffffffffffffffffffff\n      and\n        /* \"contracts/Todo.sol\":397:407  msg.sender */\n      caller\n        /* \"contracts/Todo.sol\":397:416  msg.sender == owner */\n      0xffffffffffffffffffffffffffffffffffffffff\n      and\n      eq\n        /* \"contracts/Todo.sol\":389:439  require(msg.sender == owner, \"You're not allowed\") */\n      tag_83\n      jumpi\n      mload(0x40)\n      0x08c379a000000000000000000000000000000000000000000000000000000000\n      dup2\n      mstore\n      0x04\n      add\n      tag_84\n      swap1\n      tag_51\n      jump\t// in\n    tag_84:\n      mload(0x40)\n      dup1\n      swap2\n      sub\n      swap1\n      revert\n    tag_83:\n        /* \"contracts/Todo.sol\":531:532  0 */\n      0x00\n        /* \"contracts/Todo.sol\":509:533  msg.sender != address(0) */\n      0xffffffffffffffffffffffffffffffffffffffff\n      and\n        /* \"contracts/Todo.sol\":509:519  msg.sender */\n      caller\n        /* \"contracts/Todo.sol\":509:533  msg.sender != address(0) */\n      0xffffffffffffffffffffffffffffffffffffffff\n      and\n      sub\n        /* \"contracts/Todo.sol\":501:562  require(msg.sender != address(0), \"Zeor address not allowed\") */\n      tag_86\n      jumpi\n      mload(0x40)\n      0x08c379a000000000000000000000000000000000000000000000000000000000\n      dup2\n      mstore\n      0x04\n      add\n      tag_87\n      swap1\n      tag_55\n      jump\t// in\n    tag_87:\n      mload(0x40)\n      dup1\n      swap2\n      sub\n      swap1\n      revert\n    tag_86:\n        /* \"contracts/Todo.sol\":842:860  Todo memory mytodo */\n      tag_89\n      tag_90\n      jump\t// in\n    tag_89:\n        /* \"contracts/Todo.sol\":886:892  _title */\n      dup4\n        /* \"contracts/Todo.sol\":871:877  mytodo */\n      dup2\n        /* \"contracts/Todo.sol\":871:883  mytodo.title */\n      0x00\n      add\n        /* \"contracts/Todo.sol\":871:892  mytodo.title = _title */\n      dup2\n      swap1\n      mstore\n      pop\n        /* \"contracts/Todo.sol\":924:929  _desc */\n      dup3\n        /* \"contracts/Todo.sol\":903:909  mytodo */\n      dup2\n        /* \"contracts/Todo.sol\":903:921  mytodo.description */\n      0x20\n      add\n        /* \"contracts/Todo.sol\":903:929  mytodo.description = _desc */\n      dup2\n      swap1\n      mstore\n      pop\n        /* \"contracts/Todo.sol\":956:970  Status.Created */\n      0x01\n        /* \"contracts/Todo.sol\":940:946  mytodo */\n      dup2\n        /* \"contracts/Todo.sol\":940:953  mytodo.status */\n      0x40\n      add\n        /* \"contracts/Todo.sol\":940:970  mytodo.status = Status.Created */\n      swap1\n      0x03\n      dup2\n      gt\n      iszero\n      tag_91\n      jumpi\n      tag_92\n      tag_74\n      jump\t// in\n    tag_92:\n    tag_91:\n      swap1\n      dup2\n      0x03\n      dup2\n      gt\n      iszero\n      tag_93\n      jumpi\n      tag_94\n      tag_74\n      jump\t// in\n    tag_94:\n    tag_93:\n      dup2\n      mstore\n      pop\n      pop\n        /* \"contracts/Todo.sol\":983:988  todos */\n      0x01\n        /* \"contracts/Todo.sol\":994:1000  mytodo */\n      dup2\n        /* \"contracts/Todo.sol\":983:1001  todos.push(mytodo) */\n      swap1\n      dup1\n      0x01\n      dup2\n      sload\n      add\n      dup1\n      dup3\n      sstore\n      dup1\n      swap2\n      pop\n      pop\n      0x01\n      swap1\n      sub\n      swap1\n      0x00\n      mstore\n      keccak256(0x00, 0x20)\n      swap1\n      0x03\n      mul\n      add\n      0x00\n      swap1\n      swap2\n      swap1\n      swap2\n      swap1\n      swap2\n      pop\n      0x00\n      dup3\n      add\n      mload\n      dup2\n      0x00\n      add\n      swap1\n      dup2\n      tag_96\n      swap2\n      swap1\n      tag_97\n      jump\t// in\n    tag_96:\n      pop\n      0x20\n      dup3\n      add\n      mload\n      dup2\n      0x01\n      add\n      swap1\n      dup2\n      tag_98\n      swap2\n      swap1\n      tag_97\n      jump\t// in\n    tag_98:\n      pop\n      0x40\n      dup3\n      add\n      mload\n      dup2\n      0x02\n      add\n      exp(0x0100, 0x00)\n      dup2\n      sload\n      dup2\n      0xff\n      mul\n      not\n      and\n      swap1\n      dup4\n      0x03\n      dup2\n      gt\n      iszero\n      tag_99\n      jumpi\n      tag_100\n      tag_74\n      jump\t// in\n    tag_100:\n    tag_99:\n      mul\n      or\n      swap1\n      sstore\n      pop\n      pop\n      pop\n        /* \"contracts/Todo.sol\":1028:1063  TodoCreated(_title, Status.Created) */\n      0xb24501745f85fff88cc582df1223bf671a1234ab872711ffaa7eb8bd56fe311e\n        /* \"contracts/Todo.sol\":1040:1046  _title */\n      dup5\n        /* \"contracts/Todo.sol\":1048:1062  Status.Created */\n      0x01\n        /* \"contracts/Todo.sol\":1028:1063  TodoCreated(_title, Status.Created) */\n      mload(0x40)\n      tag_101\n      swap3\n      swap2\n      swap1\n      tag_102\n      jump\t// in\n    tag_101:\n      mload(0x40)\n      dup1\n      swap2\n      sub\n      swap1\n      log1\n        /* \"contracts/Todo.sol\":1083:1087  true */\n      0x01\n        /* \"contracts/Todo.sol\":1076:1087  return true */\n      swap2\n      pop\n      pop\n        /* \"contracts/Todo.sol\":722:1097  function createTodo(string memory _title, string memory _desc) external onlyOwner validAddress returns (bool){... */\n      swap3\n      swap2\n      pop\n      pop\n      jump\t// out\n        /* \"contracts/Todo.sol\":1919:2186  function todoCompleted(uint8 _index) external onlyOwner validAddress returns (bool){... */\n    tag_24:\n        /* \"contracts/Todo.sol\":1997:2001  bool */\n      0x00\n        /* \"contracts/Todo.sol\":411:416  owner */\n      0x00\n      0x00\n      swap1\n      sload\n      swap1\n      0x0100\n      exp\n      swap1\n      div\n      0xffffffffffffffffffffffffffffffffffffffff\n      and\n        /* \"contracts/Todo.sol\":397:416  msg.sender == owner */\n      0xffffffffffffffffffffffffffffffffffffffff\n      and\n        /* \"contracts/Todo.sol\":397:407  msg.sender */\n      caller\n        /* \"contracts/Todo.sol\":397:416  msg.sender == owner */\n      0xffffffffffffffffffffffffffffffffffffffff\n      and\n      eq\n        /* \"contracts/Todo.sol\":389:439  require(msg.sender == owner, \"You're not allowed\") */\n      tag_104\n      jumpi\n      mload(0x40)\n      0x08c379a000000000000000000000000000000000000000000000000000000000\n      dup2\n      mstore\n      0x04\n      add\n      tag_105\n      swap1\n      tag_51\n      jump\t// in\n    tag_105:\n      mload(0x40)\n      dup1\n      swap2\n      sub\n      swap1\n      revert\n    tag_104:\n        /* \"contracts/Todo.sol\":531:532  0 */\n      0x00\n        /* \"contracts/Todo.sol\":509:533  msg.sender != address(0) */\n      0xffffffffffffffffffffffffffffffffffffffff\n      and\n        /* \"contracts/Todo.sol\":509:519  msg.sender */\n      caller\n        /* \"contracts/Todo.sol\":509:533  msg.sender != address(0) */\n      0xffffffffffffffffffffffffffffffffffffffff\n      and\n      sub\n        /* \"contracts/Todo.sol\":501:562  require(msg.sender != address(0), \"Zeor address not allowed\") */\n      tag_107\n      jumpi\n      mload(0x40)\n      0x08c379a000000000000000000000000000000000000000000000000000000000\n      dup2\n      mstore\n      0x04\n      add\n      tag_108\n      swap1\n      tag_55\n      jump\t// in\n    tag_108:\n      mload(0x40)\n      dup1\n      swap2\n      sub\n      swap1\n      revert\n    tag_107:\n        /* \"contracts/Todo.sol\":2030:2035  todos */\n      0x01\n        /* \"contracts/Todo.sol\":2030:2042  todos.length */\n      dup1\n      sload\n      swap1\n      pop\n        /* \"contracts/Todo.sol\":2021:2027  _index */\n      dup3\n        /* \"contracts/Todo.sol\":2021:2042  _index < todos.length */\n      0xff\n      and\n      lt\n        /* \"contracts/Todo.sol\":2013:2068  require(_index < todos.length, \"Index is our-of-bound\") */\n      tag_110\n      jumpi\n      mload(0x40)\n      0x08c379a000000000000000000000000000000000000000000000000000000000\n      dup2\n      mstore\n      0x04\n      add\n      tag_111\n      swap1\n      tag_112\n      jump\t// in\n    tag_111:\n      mload(0x40)\n      dup1\n      swap2\n      sub\n      swap1\n      revert\n    tag_110:\n        /* \"contracts/Todo.sol\":2081:2100  Todo storage mytodo */\n      0x00\n        /* \"contracts/Todo.sol\":2103:2108  todos */\n      0x01\n        /* \"contracts/Todo.sol\":2109:2115  _index */\n      dup4\n        /* \"contracts/Todo.sol\":2103:2116  todos[_index] */\n      0xff\n      and\n      dup2\n      sload\n      dup2\n      lt\n      tag_113\n      jumpi\n      tag_114\n      tag_64\n      jump\t// in\n    tag_114:\n    tag_113:\n      swap1\n      0x00\n      mstore\n      keccak256(0x00, 0x20)\n      swap1\n      0x03\n      mul\n      add\n        /* \"contracts/Todo.sol\":2081:2116  Todo storage mytodo = todos[_index] */\n      swap1\n      pop\n        /* \"contracts/Todo.sol\":2143:2154  Status.Done */\n      0x03\n        /* \"contracts/Todo.sol\":2127:2133  mytodo */\n      dup2\n        /* \"contracts/Todo.sol\":2127:2140  mytodo.status */\n      0x02\n      add\n      0x00\n        /* \"contracts/Todo.sol\":2127:2154  mytodo.status = Status.Done */\n      0x0100\n      exp\n      dup2\n      sload\n      dup2\n      0xff\n      mul\n      not\n      and\n      swap1\n      dup4\n      0x03\n      dup2\n      gt\n      iszero\n      tag_116\n      jumpi\n      tag_117\n      tag_74\n      jump\t// in\n    tag_117:\n    tag_116:\n      mul\n      or\n      swap1\n      sstore\n      pop\n        /* \"contracts/Todo.sol\":2174:2178  true */\n      0x01\n        /* \"contracts/Todo.sol\":2167:2178  return true */\n      swap2\n      pop\n      pop\n        /* \"contracts/Todo.sol\":1919:2186  function todoCompleted(uint8 _index) external onlyOwner validAddress returns (bool){... */\n      swap2\n      swap1\n      pop\n      jump\t// out\n        /* \"contracts/Todo.sol\":87:107  address public owner */\n    tag_27:\n      0x00\n      0x00\n      swap1\n      sload\n      swap1\n      0x0100\n      exp\n      swap1\n      div\n      0xffffffffffffffffffffffffffffffffffffffff\n      and\n      dup2\n      jump\t// out\n        /* \"contracts/Todo.sol\":1808:1911  function getAllTodo() external view validAddress returns (Todo[] memory){... */\n    tag_31:\n        /* \"contracts/Todo.sol\":1866:1879  Todo[] memory */\n      0x60\n        /* \"contracts/Todo.sol\":531:532  0 */\n      0x00\n        /* \"contracts/Todo.sol\":509:533  msg.sender != address(0) */\n      0xffffffffffffffffffffffffffffffffffffffff\n      and\n        /* \"contracts/Todo.sol\":509:519  msg.sender */\n      caller\n        /* \"contracts/Todo.sol\":509:533  msg.sender != address(0) */\n      0xffffffffffffffffffffffffffffffffffffffff\n      and\n      sub\n        /* \"contracts/Todo.sol\":501:562  require(msg.sender != address(0), \"Zeor address not allowed\") */\n      tag_119\n      jumpi\n      mload(0x40)\n      0x08c379a000000000000000000000000000000000000000000000000000000000\n      dup2\n      mstore\n      0x04\n      add\n      tag_120\n      swap1\n      tag_55\n      jump\t// in\n    tag_120:\n      mload(0x40)\n      dup1\n      swap2\n      sub\n      swap1\n      revert\n    tag_119:\n        /* \"contracts/Todo.sol\":1898:1903  todos */\n      0x01\n        /* \"contracts/Todo.sol\":1891:1903  return todos */\n      dup1\n      sload\n      dup1\n      0x20\n      mul\n      0x20\n      add\n      mload(0x40)\n      swap1\n      dup2\n      add\n      0x40\n      mstore\n      dup1\n      swap3\n      swap2\n      swap1\n      dup2\n      dup2\n      mstore\n      0x20\n      add\n      0x00\n      swap1\n    tag_122:\n      dup3\n      dup3\n      lt\n      iszero\n      tag_123\n      jumpi\n      dup4\n      dup3\n      swap1\n      0x00\n      mstore\n      keccak256(0x00, 0x20)\n      swap1\n      0x03\n      mul\n      add\n      mload(0x40)\n      dup1\n      0x60\n      add\n      0x40\n      mstore\n      swap1\n      dup2\n      0x00\n      dup3\n      add\n      dup1\n      sload\n      tag_125\n      swap1\n      tag_126\n      jump\t// in\n    tag_125:\n      dup1\n      0x1f\n      add\n      0x20\n      dup1\n      swap2\n      div\n      mul\n      0x20\n      add\n      mload(0x40)\n      swap1\n      dup2\n      add\n      0x40\n      mstore\n      dup1\n      swap3\n      swap2\n      swap1\n      dup2\n      dup2\n      mstore\n      0x20\n      add\n      dup3\n      dup1\n      sload\n      tag_127\n      swap1\n      tag_126\n      jump\t// in\n    tag_127:\n      dup1\n      iszero\n      tag_128\n      jumpi\n      dup1\n      0x1f\n      lt\n      tag_129\n      jumpi\n      0x0100\n      dup1\n      dup4\n      sload\n      div\n      mul\n      dup4\n      mstore\n      swap2\n      0x20\n      add\n      swap2\n      jump(tag_128)\n    tag_129:\n      dup3\n      add\n      swap2\n      swap1\n      0x00\n      mstore\n      keccak256(0x00, 0x20)\n      swap1\n    tag_130:\n      dup2\n      sload\n      dup2\n      mstore\n      swap1\n      0x01\n      add\n      swap1\n      0x20\n      add\n      dup1\n      dup4\n      gt\n      tag_130\n      jumpi\n      dup3\n      swap1\n      sub\n      0x1f\n      and\n      dup3\n      add\n      swap2\n    tag_128:\n      pop\n      pop\n      pop\n      pop\n      pop\n      dup2\n      mstore\n      0x20\n      add\n      0x01\n      dup3\n      add\n      dup1\n      sload\n      tag_131\n      swap1\n      tag_126\n      jump\t// in\n    tag_131:\n      dup1\n      0x1f\n      add\n      0x20\n      dup1\n      swap2\n      div\n      mul\n      0x20\n      add\n      mload(0x40)\n      swap1\n      dup2\n      add\n      0x40\n      mstore\n      dup1\n      swap3\n      swap2\n      swap1\n      dup2\n      dup2\n      mstore\n      0x20\n      add\n      dup3\n      dup1\n      sload\n      tag_132\n      swap1\n      tag_126\n      jump\t// in\n    tag_132:\n      dup1\n      iszero\n      tag_133\n      jumpi\n      dup1\n      0x1f\n      lt\n      tag_134\n      jumpi\n      0x0100\n      dup1\n      dup4\n      sload\n      div\n      mul\n      dup4\n      mstore\n      swap2\n      0x20\n      add\n      swap2\n      jump(tag_133)\n    tag_134:\n      dup3\n      add\n      swap2\n      swap1\n      0x00\n      mstore\n      keccak256(0x00, 0x20)\n      swap1\n    tag_135:\n      dup2\n      sload\n      dup2\n      mstore\n      swap1\n      0x01\n      add\n      swap1\n      0x20\n      add\n      dup1\n      dup4\n      gt\n      tag_135\n      jumpi\n      dup3\n      swap1\n      sub\n      0x1f\n      and\n      dup3\n      add\n      swap2\n    tag_133:\n      pop\n      pop\n      pop\n      pop\n      pop\n      dup2\n      mstore\n      0x20\n      add\n      0x02\n      dup3\n      add\n      0x00\n      swap1\n      sload\n      swap1\n      0x0100\n      exp\n      swap1\n      div\n      0xff\n      and\n      0x03\n      dup2\n      gt\n      iszero\n      tag_136\n      jumpi\n      tag_137\n      tag_74\n      jump\t// in\n    tag_137:\n    tag_136:\n      0x03\n      dup2\n      gt\n      iszero\n      tag_138\n      jumpi\n      tag_139\n      tag_74\n      jump\t// in\n    tag_139:\n    tag_138:\n      dup2\n      mstore\n      pop\n      pop\n      dup2\n      mstore\n      0x20\n      add\n      swap1\n      0x01\n      add\n      swap1\n      jump(tag_122)\n    tag_123:\n      pop\n      pop\n      pop\n      pop\n      swap1\n      pop\n        /* \"contracts/Todo.sol\":1808:1911  function getAllTodo() external view validAddress returns (Todo[] memory){... */\n      swap1\n      jump\t// out\n        /* \"contracts/Todo.sol\":268:287  Todo[] public todos */\n    tag_37:\n      0x01\n      dup2\n      dup2\n      sload\n      dup2\n      lt\n      tag_140\n      jumpi\n      0x00\n      dup1\n      revert\n    tag_140:\n      swap1\n      0x00\n      mstore\n      keccak256(0x00, 0x20)\n      swap1\n      0x03\n      mul\n      add\n      0x00\n      swap2\n      pop\n      swap1\n      pop\n      dup1\n      0x00\n      add\n      dup1\n      sload\n      tag_142\n      swap1\n      tag_126\n      jump\t// in\n    tag_142:\n      dup1\n      0x1f\n      add\n      0x20\n      dup1\n      swap2\n      div\n      mul\n      0x20\n      add\n      mload(0x40)\n      swap1\n      dup2\n      add\n      0x40\n      mstore\n      dup1\n      swap3\n      swap2\n      swap1\n      dup2\n      dup2\n      mstore\n      0x20\n      add\n      dup3\n      dup1\n      sload\n      tag_143\n      swap1\n      tag_126\n      jump\t// in\n    tag_143:\n      dup1\n      iszero\n      tag_144\n      jumpi\n      dup1\n      0x1f\n      lt\n      tag_145\n      jumpi\n      0x0100\n      dup1\n      dup4\n      sload\n      div\n      mul\n      dup4\n      mstore\n      swap2\n      0x20\n      add\n      swap2\n      jump(tag_144)\n    tag_145:\n      dup3\n      add\n      swap2\n      swap1\n      0x00\n      mstore\n      keccak256(0x00, 0x20)\n      swap1\n    tag_146:\n      dup2\n      sload\n      dup2\n      mstore\n      swap1\n      0x01\n      add\n      swap1\n      0x20\n      add\n      dup1\n      dup4\n      gt\n      tag_146\n      jumpi\n      dup3\n      swap1\n      sub\n      0x1f\n      and\n      dup3\n      add\n      swap2\n    tag_144:\n      pop\n      pop\n      pop\n      pop\n      pop\n      swap1\n      dup1\n      0x01\n      add\n      dup1\n      sload\n      tag_147\n      swap1\n      tag_126\n      jump\t// in\n    tag_147:\n      dup1\n      0x1f\n      add\n      0x20\n      dup1\n      swap2\n      div\n      mul\n      0x20\n      add\n      mload(0x40)\n      swap1\n      dup2\n      add\n      0x40\n      mstore\n      dup1\n      swap3\n      swap2\n      swap1\n      dup2\n      dup2\n      mstore\n      0x20\n      add\n      dup3\n      dup1\n      sload\n      tag_148\n      swap1\n      tag_126\n      jump\t// in\n    tag_148:\n      dup1\n      iszero\n      tag_149\n      jumpi\n      dup1\n      0x1f\n      lt\n      tag_150\n      jumpi\n      0x0100\n      dup1\n      dup4\n      sload\n      div\n      mul\n      dup4\n      mstore\n      swap2\n      0x20\n      add\n      swap2\n      jump(tag_149)\n    tag_150:\n      dup3\n      add\n      swap2\n      swap1\n      0x00\n      mstore\n      keccak256(0x00, 0x20)\n      swap1\n    tag_151:\n      dup2\n      sload\n      dup2\n      mstore\n      swap1\n      0x01\n      add\n      swap1\n      0x20\n      add\n      dup1\n      dup4\n      gt\n      tag_151\n      jumpi\n      dup3\n      swap1\n      sub\n      0x1f\n      and\n      dup3\n      add\n      swap2\n    tag_149:\n      pop\n      pop\n      pop\n      pop\n      pop\n      swap1\n      dup1\n      0x02\n      add\n      0x00\n      swap1\n      sload\n      swap1\n      0x0100\n      exp\n      swap1\n      div\n      0xff\n      and\n      swap1\n      pop\n      dup4\n      jump\t// out\n        /* \"contracts/Todo.sol\":1105:1499  function updateTodo(uint8 _index, string memory _title, string memory _desc) external onlyOwner validAddress{... */\n    tag_43:\n        /* \"contracts/Todo.sol\":411:416  owner */\n      0x00\n      0x00\n      swap1\n      sload\n      swap1\n      0x0100\n      exp\n      swap1\n      div\n      0xffffffffffffffffffffffffffffffffffffffff\n      and\n        /* \"contracts/Todo.sol\":397:416  msg.sender == owner */\n      0xffffffffffffffffffffffffffffffffffffffff\n      and\n        /* \"contracts/Todo.sol\":397:407  msg.sender */\n      caller\n        /* \"contracts/Todo.sol\":397:416  msg.sender == owner */\n      0xffffffffffffffffffffffffffffffffffffffff\n      and\n      eq\n        /* \"contracts/Todo.sol\":389:439  require(msg.sender == owner, \"You're not allowed\") */\n      tag_153\n      jumpi\n      mload(0x40)\n      0x08c379a000000000000000000000000000000000000000000000000000000000\n      dup2\n      mstore\n      0x04\n      add\n      tag_154\n      swap1\n      tag_51\n      jump\t// in\n    tag_154:\n      mload(0x40)\n      dup1\n      swap2\n      sub\n      swap1\n      revert\n    tag_153:\n        /* \"contracts/Todo.sol\":531:532  0 */\n      0x00\n        /* \"contracts/Todo.sol\":509:533  msg.sender != address(0) */\n      0xffffffffffffffffffffffffffffffffffffffff\n      and\n        /* \"contracts/Todo.sol\":509:519  msg.sender */\n      caller\n        /* \"contracts/Todo.sol\":509:533  msg.sender != address(0) */\n      0xffffffffffffffffffffffffffffffffffffffff\n      and\n      sub\n        /* \"contracts/Todo.sol\":501:562  require(msg.sender != address(0), \"Zeor address not allowed\") */\n      tag_156\n      jumpi\n      mload(0x40)\n      0x08c379a000000000000000000000000000000000000000000000000000000000\n      dup2\n      mstore\n      0x04\n      add\n      tag_157\n      swap1\n      tag_55\n      jump\t// in\n    tag_157:\n      mload(0x40)\n      dup1\n      swap2\n      sub\n      swap1\n      revert\n    tag_156:\n        /* \"contracts/Todo.sol\":1241:1246  todos */\n      0x01\n        /* \"contracts/Todo.sol\":1241:1253  todos.length */\n      dup1\n      sload\n      swap1\n      pop\n        /* \"contracts/Todo.sol\":1232:1238  _index */\n      dup4\n        /* \"contracts/Todo.sol\":1232:1253  _index < todos.length */\n      0xff\n      and\n      lt\n        /* \"contracts/Todo.sol\":1224:1279  require(_index < todos.length, \"Index is out of bound\") */\n      tag_159\n      jumpi\n      mload(0x40)\n      0x08c379a000000000000000000000000000000000000000000000000000000000\n      dup2\n      mstore\n      0x04\n      add\n      tag_160\n      swap1\n      tag_161\n      jump\t// in\n    tag_160:\n      mload(0x40)\n      dup1\n      swap2\n      sub\n      swap1\n      revert\n    tag_159:\n        /* \"contracts/Todo.sol\":1293:1312  Todo storage mytodo */\n      0x00\n        /* \"contracts/Todo.sol\":1315:1320  todos */\n      0x01\n        /* \"contracts/Todo.sol\":1321:1327  _index */\n      dup5\n        /* \"contracts/Todo.sol\":1315:1328  todos[_index] */\n      0xff\n      and\n      dup2\n      sload\n      dup2\n      lt\n      tag_162\n      jumpi\n      tag_163\n      tag_64\n      jump\t// in\n    tag_163:\n    tag_162:\n      swap1\n      0x00\n      mstore\n      keccak256(0x00, 0x20)\n      swap1\n      0x03\n      mul\n      add\n        /* \"contracts/Todo.sol\":1293:1328  Todo storage mytodo = todos[_index] */\n      swap1\n      pop\n        /* \"contracts/Todo.sol\":1354:1360  _title */\n      dup3\n        /* \"contracts/Todo.sol\":1339:1345  mytodo */\n      dup2\n        /* \"contracts/Todo.sol\":1339:1351  mytodo.title */\n      0x00\n      add\n        /* \"contracts/Todo.sol\":1339:1360  mytodo.title = _title */\n      swap1\n      dup2\n      tag_165\n      swap2\n      swap1\n      tag_97\n      jump\t// in\n    tag_165:\n      pop\n        /* \"contracts/Todo.sol\":1392:1397  _desc */\n      dup2\n        /* \"contracts/Todo.sol\":1371:1377  mytodo */\n      dup2\n        /* \"contracts/Todo.sol\":1371:1389  mytodo.description */\n      0x01\n      add\n        /* \"contracts/Todo.sol\":1371:1397  mytodo.description = _desc */\n      swap1\n      dup2\n      tag_166\n      swap2\n      swap1\n      tag_97\n      jump\t// in\n    tag_166:\n      pop\n        /* \"contracts/Todo.sol\":1424:1437  Status.Edited */\n      0x02\n        /* \"contracts/Todo.sol\":1408:1414  mytodo */\n      dup2\n        /* \"contracts/Todo.sol\":1408:1421  mytodo.status */\n      0x02\n      add\n      0x00\n        /* \"contracts/Todo.sol\":1408:1437  mytodo.status = Status.Edited */\n      0x0100\n      exp\n      dup2\n      sload\n      dup2\n      0xff\n      mul\n      not\n      and\n      swap1\n      dup4\n      0x03\n      dup2\n      gt\n      iszero\n      tag_167\n      jumpi\n      tag_168\n      tag_74\n      jump\t// in\n    tag_168:\n    tag_167:\n      mul\n      or\n      swap1\n      sstore\n      pop\n        /* \"contracts/Todo.sol\":1455:1489  TodoUpdated(_title, Status.Edited) */\n      0x3ff5b2dbb379a3765de2a11e90d91cfaf54b178f2d29590471f1fb57642fd165\n        /* \"contracts/Todo.sol\":1467:1473  _title */\n      dup4\n        /* \"contracts/Todo.sol\":1475:1488  Status.Edited */\n      0x02\n        /* \"contracts/Todo.sol\":1455:1489  TodoUpdated(_title, Status.Edited) */\n      mload(0x40)\n      tag_169\n      swap3\n      swap2\n      swap1\n      tag_102\n      jump\t// in\n    tag_169:\n      mload(0x40)\n      dup1\n      swap2\n      sub\n      swap1\n      log1\n        /* \"contracts/Todo.sol\":1213:1499  {... */\n      pop\n        /* \"contracts/Todo.sol\":1105:1499  function updateTodo(uint8 _index, string memory _title, string memory _desc) external onlyOwner validAddress{... */\n      pop\n      pop\n      pop\n      jump\t// out\n        /* \"contracts/Todo.sol\":1507:1799  function getTodo(uint8 _index) external view validAddress returns (string memory, string memory, Status){... */\n    tag_46:\n        /* \"contracts/Todo.sol\":1574:1587  string memory */\n      0x60\n        /* \"contracts/Todo.sol\":1589:1602  string memory */\n      dup1\n        /* \"contracts/Todo.sol\":1604:1610  Status */\n      0x00\n        /* \"contracts/Todo.sol\":531:532  0 */\n      0x00\n        /* \"contracts/Todo.sol\":509:533  msg.sender != address(0) */\n      0xffffffffffffffffffffffffffffffffffffffff\n      and\n        /* \"contracts/Todo.sol\":509:519  msg.sender */\n      caller\n        /* \"contracts/Todo.sol\":509:533  msg.sender != address(0) */\n      0xffffffffffffffffffffffffffffffffffffffff\n      and\n      sub\n        /* \"contracts/Todo.sol\":501:562  require(msg.sender != address(0), \"Zeor address not allowed\") */\n      tag_171\n      jumpi\n      mload(0x40)\n      0x08c379a000000000000000000000000000000000000000000000000000000000\n      dup2\n      mstore\n      0x04\n      add\n      tag_172\n      swap1\n      tag_55\n      jump\t// in\n    tag_172:\n      mload(0x40)\n      dup1\n      swap2\n      sub\n      swap1\n      revert\n    tag_171:\n        /* \"contracts/Todo.sol\":1639:1644  todos */\n      0x01\n        /* \"contracts/Todo.sol\":1639:1651  todos.length */\n      dup1\n      sload\n      swap1\n      pop\n        /* \"contracts/Todo.sol\":1630:1636  _index */\n      dup5\n        /* \"contracts/Todo.sol\":1630:1651  _index < todos.length */\n      0xff\n      and\n      lt\n        /* \"contracts/Todo.sol\":1622:1677  require(_index < todos.length, \"Index is out-of-bound\") */\n      tag_174\n      jumpi\n      mload(0x40)\n      0x08c379a000000000000000000000000000000000000000000000000000000000\n      dup2\n      mstore\n      0x04\n      add\n      tag_175\n      swap1\n      tag_59\n      jump\t// in\n    tag_175:\n      mload(0x40)\n      dup1\n      swap2\n      sub\n      swap1\n      revert\n    tag_174:\n        /* \"contracts/Todo.sol\":1690:1708  Todo memory mytodo */\n      0x00\n        /* \"contracts/Todo.sol\":1711:1716  todos */\n      0x01\n        /* \"contracts/Todo.sol\":1717:1723  _index */\n      dup6\n        /* \"contracts/Todo.sol\":1711:1724  todos[_index] */\n      0xff\n      and\n      dup2\n      sload\n      dup2\n      lt\n      tag_176\n      jumpi\n      tag_177\n      tag_64\n      jump\t// in\n    tag_177:\n    tag_176:\n      swap1\n      0x00\n      mstore\n      keccak256(0x00, 0x20)\n      swap1\n      0x03\n      mul\n      add\n        /* \"contracts/Todo.sol\":1690:1724  Todo memory mytodo = todos[_index] */\n      mload(0x40)\n      dup1\n      0x60\n      add\n      0x40\n      mstore\n      swap1\n      dup2\n      0x00\n      dup3\n      add\n      dup1\n      sload\n      tag_179\n      swap1\n      tag_126\n      jump\t// in\n    tag_179:\n      dup1\n      0x1f\n      add\n      0x20\n      dup1\n      swap2\n      div\n      mul\n      0x20\n      add\n      mload(0x40)\n      swap1\n      dup2\n      add\n      0x40\n      mstore\n      dup1\n      swap3\n      swap2\n      swap1\n      dup2\n      dup2\n      mstore\n      0x20\n      add\n      dup3\n      dup1\n      sload\n      tag_180\n      swap1\n      tag_126\n      jump\t// in\n    tag_180:\n      dup1\n      iszero\n      tag_181\n      jumpi\n      dup1\n      0x1f\n      lt\n      tag_182\n      jumpi\n      0x0100\n      dup1\n      dup4\n      sload\n      div\n      mul\n      dup4\n      mstore\n      swap2\n      0x20\n      add\n      swap2\n      jump(tag_181)\n    tag_182:\n      dup3\n      add\n      swap2\n      swap1\n      0x00\n      mstore\n      keccak256(0x00, 0x20)\n      swap1\n    tag_183:\n      dup2\n      sload\n      dup2\n      mstore\n      swap1\n      0x01\n      add\n      swap1\n      0x20\n      add\n      dup1\n      dup4\n      gt\n      tag_183\n      jumpi\n      dup3\n      swap1\n      sub\n      0x1f\n      and\n      dup3\n      add\n      swap2\n    tag_181:\n      pop\n      pop\n      pop\n      pop\n      pop\n      dup2\n      mstore\n      0x20\n      add\n      0x01\n      dup3\n      add\n      dup1\n      sload\n      tag_184\n      swap1\n      tag_126\n      jump\t// in\n    tag_184:\n      dup1\n      0x1f\n      add\n      0x20\n      dup1\n      swap2\n      div\n      mul\n      0x20\n      add\n      mload(0x40)\n      swap1\n      dup2\n      add\n      0x40\n      mstore\n      dup1\n      swap3\n      swap2\n      swap1\n      dup2\n      dup2\n      mstore\n      0x20\n      add\n      dup3\n      dup1\n      sload\n      tag_185\n      swap1\n      tag_126\n      jump\t// in\n    tag_185:\n      dup1\n      iszero\n      tag_186\n      jumpi\n      dup1\n      0x1f\n      lt\n      tag_187\n      jumpi\n      0x0100\n      dup1\n      dup4\n      sload\n      div\n      mul\n      dup4\n      mstore\n      swap2\n      0x20\n      add\n      swap2\n      jump(tag_186)\n    tag_187:\n      dup3\n      add\n      swap2\n      swap1\n      0x00\n      mstore\n      keccak256(0x00, 0x20)\n      swap1\n    tag_188:\n      dup2\n      sload\n      dup2\n      mstore\n      swap1\n      0x01\n      add\n      swap1\n      0x20\n      add\n      dup1\n      dup4\n      gt\n      tag_188\n      jumpi\n      dup3\n      swap1\n      sub\n      0x1f\n      and\n      dup3\n      add\n      swap2\n    tag_186:\n      pop\n      pop\n      pop\n      pop\n      pop\n      dup2\n      mstore\n      0x20\n      add\n      0x02\n      dup3\n      add\n      0x00\n      swap1\n      sload\n      swap1\n      0x0100\n      exp\n      swap1\n      div\n      0xff\n      and\n      0x03\n      dup2\n      gt\n      iszero\n      tag_189\n      jumpi\n      tag_190\n      tag_74\n      jump\t// in\n    tag_190:\n    tag_189:\n      0x03\n      dup2\n      gt\n      iszero\n      tag_191\n      jumpi\n      tag_192\n      tag_74\n      jump\t// in\n    tag_192:\n    tag_191:\n      dup2\n      mstore\n      pop\n      pop\n      swap1\n      pop\n        /* \"contracts/Todo.sol\":1743:1749  mytodo */\n      dup1\n        /* \"contracts/Todo.sol\":1743:1755  mytodo.title */\n      0x00\n      add\n      mload\n        /* \"contracts/Todo.sol\":1757:1763  mytodo */\n      dup2\n        /* \"contracts/Todo.sol\":1757:1775  mytodo.description */\n      0x20\n      add\n      mload\n        /* \"contracts/Todo.sol\":1777:1783  mytodo */\n      dup3\n        /* \"contracts/Todo.sol\":1777:1790  mytodo.status */\n      0x40\n      add\n      mload\n        /* \"contracts/Todo.sol\":1735:1791  return (mytodo.title, mytodo.description, mytodo.status) */\n      swap4\n      pop\n      swap4\n      pop\n      swap4\n      pop\n      pop\n        /* \"contracts/Todo.sol\":1507:1799  function getTodo(uint8 _index) external view validAddress returns (string memory, string memory, Status){... */\n      swap2\n      swap4\n      swap1\n      swap3\n      pop\n      jump\t// out\n    tag_80:\n      pop\n      dup1\n      sload\n      tag_193\n      swap1\n      tag_126\n      jump\t// in\n    tag_193:\n      0x00\n      dup3\n      sstore\n      dup1\n      0x1f\n      lt\n      tag_195\n      jumpi\n      pop\n      jump(tag_194)\n    tag_195:\n      0x1f\n      add\n      0x20\n      swap1\n      div\n      swap1\n      0x00\n      mstore\n      keccak256(0x00, 0x20)\n      swap1\n      dup2\n      add\n      swap1\n      tag_196\n      swap2\n      swap1\n      tag_197\n      jump\t// in\n    tag_196:\n    tag_194:\n      pop\n      jump\t// out\n    tag_90:\n      mload(0x40)\n      dup1\n      0x60\n      add\n      0x40\n      mstore\n      dup1\n      0x60\n      dup2\n      mstore\n      0x20\n      add\n      0x60\n      dup2\n      mstore\n      0x20\n      add\n      0x00\n      0x03\n      dup2\n      gt\n      iszero\n      tag_198\n      jumpi\n      tag_199\n      tag_74\n      jump\t// in\n    tag_199:\n    tag_198:\n      dup2\n      mstore\n      pop\n      swap1\n      jump\t// out\n    tag_197:\n    tag_200:\n      dup1\n      dup3\n      gt\n      iszero\n      tag_201\n      jumpi\n      0x00\n      dup2\n      0x00\n      swap1\n      sstore\n      pop\n      0x01\n      add\n      jump(tag_200)\n    tag_201:\n      pop\n      swap1\n      jump\t// out\n        /* \"#utility.yul\":7:82   */\n    tag_202:\n        /* \"#utility.yul\":40:46   */\n      0x00\n        /* \"#utility.yul\":73:75   */\n      0x40\n        /* \"#utility.yul\":67:76   */\n      mload\n        /* \"#utility.yul\":57:76   */\n      swap1\n      pop\n        /* \"#utility.yul\":7:82   */\n      swap1\n      jump\t// out\n        /* \"#utility.yul\":88:205   */\n    tag_203:\n        /* \"#utility.yul\":197:198   */\n      0x00\n        /* \"#utility.yul\":194:195   */\n      0x00\n        /* \"#utility.yul\":187:199   */\n      revert\n        /* \"#utility.yul\":211:328   */\n    tag_204:\n        /* \"#utility.yul\":320:321   */\n      0x00\n        /* \"#utility.yul\":317:318   */\n      0x00\n        /* \"#utility.yul\":310:322   */\n      revert\n        /* \"#utility.yul\":334:420   */\n    tag_205:\n        /* \"#utility.yul\":369:376   */\n      0x00\n        /* \"#utility.yul\":409:413   */\n      0xff\n        /* \"#utility.yul\":402:407   */\n      dup3\n        /* \"#utility.yul\":398:414   */\n      and\n        /* \"#utility.yul\":387:414   */\n      swap1\n      pop\n        /* \"#utility.yul\":334:420   */\n      swap2\n      swap1\n      pop\n      jump\t// out\n        /* \"#utility.yul\":426:544   */\n    tag_206:\n        /* \"#utility.yul\":497:519   */\n      tag_278\n        /* \"#utility.yul\":513:518   */\n      dup2\n        /* \"#utility.yul\":497:519   */\n      tag_205\n      jump\t// in\n    tag_278:\n        /* \"#utility.yul\":490:495   */\n      dup2\n        /* \"#utility.yul\":487:520   */\n      eq\n        /* \"#utility.yul\":477:538   */\n      tag_279\n      jumpi\n        /* \"#utility.yul\":534:535   */\n      0x00\n        /* \"#utility.yul\":531:532   */\n      0x00\n        /* \"#utility.yul\":524:536   */\n      revert\n        /* \"#utility.yul\":477:538   */\n    tag_279:\n        /* \"#utility.yul\":426:544   */\n      pop\n      jump\t// out\n        /* \"#utility.yul\":550:685   */\n    tag_207:\n        /* \"#utility.yul\":594:599   */\n      0x00\n        /* \"#utility.yul\":632:638   */\n      dup2\n        /* \"#utility.yul\":619:639   */\n      calldataload\n        /* \"#utility.yul\":610:639   */\n      swap1\n      pop\n        /* \"#utility.yul\":648:679   */\n      tag_281\n        /* \"#utility.yul\":673:678   */\n      dup2\n        /* \"#utility.yul\":648:679   */\n      tag_206\n      jump\t// in\n    tag_281:\n        /* \"#utility.yul\":550:685   */\n      swap3\n      swap2\n      pop\n      pop\n      jump\t// out\n        /* \"#utility.yul\":691:1016   */\n    tag_14:\n        /* \"#utility.yul\":748:754   */\n      0x00\n        /* \"#utility.yul\":797:799   */\n      0x20\n        /* \"#utility.yul\":785:794   */\n      dup3\n        /* \"#utility.yul\":776:783   */\n      dup5\n        /* \"#utility.yul\":772:795   */\n      sub\n        /* \"#utility.yul\":768:800   */\n      slt\n        /* \"#utility.yul\":765:884   */\n      iszero\n      tag_283\n      jumpi\n        /* \"#utility.yul\":803:882   */\n      tag_284\n      tag_203\n      jump\t// in\n    tag_284:\n        /* \"#utility.yul\":765:884   */\n    tag_283:\n        /* \"#utility.yul\":923:924   */\n      0x00\n        /* \"#utility.yul\":948:999   */\n      tag_285\n        /* \"#utility.yul\":991:998   */\n      dup5\n        /* \"#utility.yul\":982:988   */\n      dup3\n        /* \"#utility.yul\":971:980   */\n      dup6\n        /* \"#utility.yul\":967:989   */\n      add\n        /* \"#utility.yul\":948:999   */\n      tag_207\n      jump\t// in\n    tag_285:\n        /* \"#utility.yul\":938:999   */\n      swap2\n      pop\n        /* \"#utility.yul\":894:1009   */\n      pop\n        /* \"#utility.yul\":691:1016   */\n      swap3\n      swap2\n      pop\n      pop\n      jump\t// out\n        /* \"#utility.yul\":1022:1139   */\n    tag_208:\n        /* \"#utility.yul\":1131:1132   */\n      0x00\n        /* \"#utility.yul\":1128:1129   */\n      0x00\n        /* \"#utility.yul\":1121:1133   */\n      revert\n        /* \"#utility.yul\":1145:1262   */\n    tag_209:\n        /* \"#utility.yul\":1254:1255   */\n      0x00\n        /* \"#utility.yul\":1251:1252   */\n      0x00\n        /* \"#utility.yul\":1244:1256   */\n      revert\n        /* \"#utility.yul\":1268:1370   */\n    tag_210:\n        /* \"#utility.yul\":1309:1315   */\n      0x00\n        /* \"#utility.yul\":1360:1362   */\n      0x1f\n        /* \"#utility.yul\":1356:1363   */\n      not\n        /* \"#utility.yul\":1351:1353   */\n      0x1f\n        /* \"#utility.yul\":1344:1349   */\n      dup4\n        /* \"#utility.yul\":1340:1354   */\n      add\n        /* \"#utility.yul\":1336:1364   */\n      and\n        /* \"#utility.yul\":1326:1364   */\n      swap1\n      pop\n        /* \"#utility.yul\":1268:1370   */\n      swap2\n      swap1\n      pop\n      jump\t// out\n        /* \"#utility.yul\":1376:1556   */\n    tag_211:\n        /* \"#utility.yul\":1424:1501   */\n      0x4e487b7100000000000000000000000000000000000000000000000000000000\n        /* \"#utility.yul\":1421:1422   */\n      0x00\n        /* \"#utility.yul\":1414:1502   */\n      mstore\n        /* \"#utility.yul\":1521:1525   */\n      0x41\n        /* \"#utility.yul\":1518:1519   */\n      0x04\n        /* \"#utility.yul\":1511:1526   */\n      mstore\n        /* \"#utility.yul\":1545:1549   */\n      0x24\n        /* \"#utility.yul\":1542:1543   */\n      0x00\n        /* \"#utility.yul\":1535:1550   */\n      revert\n        /* \"#utility.yul\":1562:1843   */\n    tag_212:\n        /* \"#utility.yul\":1645:1672   */\n      tag_291\n        /* \"#utility.yul\":1667:1671   */\n      dup3\n        /* \"#utility.yul\":1645:1672   */\n      tag_210\n      jump\t// in\n    tag_291:\n        /* \"#utility.yul\":1637:1643   */\n      dup2\n        /* \"#utility.yul\":1633:1673   */\n      add\n        /* \"#utility.yul\":1775:1781   */\n      dup2\n        /* \"#utility.yul\":1763:1773   */\n      dup2\n        /* \"#utility.yul\":1760:1782   */\n      lt\n        /* \"#utility.yul\":1739:1757   */\n      0xffffffffffffffff\n        /* \"#utility.yul\":1727:1737   */\n      dup3\n        /* \"#utility.yul\":1724:1758   */\n      gt\n        /* \"#utility.yul\":1721:1783   */\n      or\n        /* \"#utility.yul\":1718:1806   */\n      iszero\n      tag_292\n      jumpi\n        /* \"#utility.yul\":1786:1804   */\n      tag_293\n      tag_211\n      jump\t// in\n    tag_293:\n        /* \"#utility.yul\":1718:1806   */\n    tag_292:\n        /* \"#utility.yul\":1826:1836   */\n      dup1\n        /* \"#utility.yul\":1822:1824   */\n      0x40\n        /* \"#utility.yul\":1815:1837   */\n      mstore\n        /* \"#utility.yul\":1605:1843   */\n      pop\n        /* \"#utility.yul\":1562:1843   */\n      pop\n      pop\n      jump\t// out\n        /* \"#utility.yul\":1849:1978   */\n    tag_213:\n        /* \"#utility.yul\":1883:1889   */\n      0x00\n        /* \"#utility.yul\":1910:1930   */\n      tag_295\n      tag_202\n      jump\t// in\n    tag_295:\n        /* \"#utility.yul\":1900:1930   */\n      swap1\n      pop\n        /* \"#utility.yul\":1939:1972   */\n      tag_296\n        /* \"#utility.yul\":1967:1971   */\n      dup3\n        /* \"#utility.yul\":1959:1965   */\n      dup3\n        /* \"#utility.yul\":1939:1972   */\n      tag_212\n      jump\t// in\n    tag_296:\n        /* \"#utility.yul\":1849:1978   */\n      swap2\n      swap1\n      pop\n      jump\t// out\n        /* \"#utility.yul\":1984:2292   */\n    tag_214:\n        /* \"#utility.yul\":2046:2050   */\n      0x00\n        /* \"#utility.yul\":2136:2154   */\n      0xffffffffffffffff\n        /* \"#utility.yul\":2128:2134   */\n      dup3\n        /* \"#utility.yul\":2125:2155   */\n      gt\n        /* \"#utility.yul\":2122:2178   */\n      iszero\n      tag_298\n      jumpi\n        /* \"#utility.yul\":2158:2176   */\n      tag_299\n      tag_211\n      jump\t// in\n    tag_299:\n        /* \"#utility.yul\":2122:2178   */\n    tag_298:\n        /* \"#utility.yul\":2196:2225   */\n      tag_300\n        /* \"#utility.yul\":2218:2224   */\n      dup3\n        /* \"#utility.yul\":2196:2225   */\n      tag_210\n      jump\t// in\n    tag_300:\n        /* \"#utility.yul\":2188:2225   */\n      swap1\n      pop\n        /* \"#utility.yul\":2280:2284   */\n      0x20\n        /* \"#utility.yul\":2274:2278   */\n      dup2\n        /* \"#utility.yul\":2270:2285   */\n      add\n        /* \"#utility.yul\":2262:2285   */\n      swap1\n      pop\n        /* \"#utility.yul\":1984:2292   */\n      swap2\n      swap1\n      pop\n      jump\t// out\n        /* \"#utility.yul\":2298:2446   */\n    tag_215:\n        /* \"#utility.yul\":2396:2402   */\n      dup3\n        /* \"#utility.yul\":2391:2394   */\n      dup2\n        /* \"#utility.yul\":2386:2389   */\n      dup4\n        /* \"#utility.yul\":2373:2403   */\n      calldatacopy\n        /* \"#utility.yul\":2437:2438   */\n      0x00\n        /* \"#utility.yul\":2428:2434   */\n      dup4\n        /* \"#utility.yul\":2423:2426   */\n      dup4\n        /* \"#utility.yul\":2419:2435   */\n      add\n        /* \"#utility.yul\":2412:2439   */\n      mstore\n        /* \"#utility.yul\":2298:2446   */\n      pop\n      pop\n      pop\n      jump\t// out\n        /* \"#utility.yul\":2452:2877   */\n    tag_216:\n        /* \"#utility.yul\":2530:2535   */\n      0x00\n        /* \"#utility.yul\":2555:2621   */\n      tag_303\n        /* \"#utility.yul\":2571:2620   */\n      tag_304\n        /* \"#utility.yul\":2613:2619   */\n      dup5\n        /* \"#utility.yul\":2571:2620   */\n      tag_214\n      jump\t// in\n    tag_304:\n        /* \"#utility.yul\":2555:2621   */\n      tag_213\n      jump\t// in\n    tag_303:\n        /* \"#utility.yul\":2546:2621   */\n      swap1\n      pop\n        /* \"#utility.yul\":2644:2650   */\n      dup3\n        /* \"#utility.yul\":2637:2642   */\n      dup2\n        /* \"#utility.yul\":2630:2651   */\n      mstore\n        /* \"#utility.yul\":2682:2686   */\n      0x20\n        /* \"#utility.yul\":2675:2680   */\n      dup2\n        /* \"#utility.yul\":2671:2687   */\n      add\n        /* \"#utility.yul\":2720:2723   */\n      dup5\n        /* \"#utility.yul\":2711:2717   */\n      dup5\n        /* \"#utility.yul\":2706:2709   */\n      dup5\n        /* \"#utility.yul\":2702:2718   */\n      add\n        /* \"#utility.yul\":2699:2724   */\n      gt\n        /* \"#utility.yul\":2696:2808   */\n      iszero\n      tag_305\n      jumpi\n        /* \"#utility.yul\":2727:2806   */\n      tag_306\n      tag_209\n      jump\t// in\n    tag_306:\n        /* \"#utility.yul\":2696:2808   */\n    tag_305:\n        /* \"#utility.yul\":2817:2871   */\n      tag_307\n        /* \"#utility.yul\":2864:2870   */\n      dup5\n        /* \"#utility.yul\":2859:2862   */\n      dup3\n        /* \"#utility.yul\":2854:2857   */\n      dup6\n        /* \"#utility.yul\":2817:2871   */\n      tag_215\n      jump\t// in\n    tag_307:\n        /* \"#utility.yul\":2536:2877   */\n      pop\n        /* \"#utility.yul\":2452:2877   */\n      swap4\n      swap3\n      pop\n      pop\n      pop\n      jump\t// out\n        /* \"#utility.yul\":2897:3237   */\n    tag_217:\n        /* \"#utility.yul\":2953:2958   */\n      0x00\n        /* \"#utility.yul\":3002:3005   */\n      dup3\n        /* \"#utility.yul\":2995:2999   */\n      0x1f\n        /* \"#utility.yul\":2987:2993   */\n      dup4\n        /* \"#utility.yul\":2983:3000   */\n      add\n        /* \"#utility.yul\":2979:3006   */\n      slt\n        /* \"#utility.yul\":2969:3091   */\n      tag_309\n      jumpi\n        /* \"#utility.yul\":3010:3089   */\n      tag_310\n      tag_208\n      jump\t// in\n    tag_310:\n        /* \"#utility.yul\":2969:3091   */\n    tag_309:\n        /* \"#utility.yul\":3127:3133   */\n      dup2\n        /* \"#utility.yul\":3114:3134   */\n      calldataload\n        /* \"#utility.yul\":3152:3231   */\n      tag_311\n        /* \"#utility.yul\":3227:3230   */\n      dup5\n        /* \"#utility.yul\":3219:3225   */\n      dup3\n        /* \"#utility.yul\":3212:3216   */\n      0x20\n        /* \"#utility.yul\":3204:3210   */\n      dup7\n        /* \"#utility.yul\":3200:3217   */\n      add\n        /* \"#utility.yul\":3152:3231   */\n      tag_216\n      jump\t// in\n    tag_311:\n        /* \"#utility.yul\":3143:3231   */\n      swap2\n      pop\n        /* \"#utility.yul\":2959:3237   */\n      pop\n        /* \"#utility.yul\":2897:3237   */\n      swap3\n      swap2\n      pop\n      pop\n      jump\t// out\n        /* \"#utility.yul\":3243:4077   */\n    tag_18:\n        /* \"#utility.yul\":3331:3337   */\n      0x00\n        /* \"#utility.yul\":3339:3345   */\n      0x00\n        /* \"#utility.yul\":3388:3390   */\n      0x40\n        /* \"#utility.yul\":3376:3385   */\n      dup4\n        /* \"#utility.yul\":3367:3374   */\n      dup6\n        /* \"#utility.yul\":3363:3386   */\n      sub\n        /* \"#utility.yul\":3359:3391   */\n      slt\n        /* \"#utility.yul\":3356:3475   */\n      iszero\n      tag_313\n      jumpi\n        /* \"#utility.yul\":3394:3473   */\n      tag_314\n      tag_203\n      jump\t// in\n    tag_314:\n        /* \"#utility.yul\":3356:3475   */\n    tag_313:\n        /* \"#utility.yul\":3542:3543   */\n      0x00\n        /* \"#utility.yul\":3531:3540   */\n      dup4\n        /* \"#utility.yul\":3527:3544   */\n      add\n        /* \"#utility.yul\":3514:3545   */\n      calldataload\n        /* \"#utility.yul\":3572:3590   */\n      0xffffffffffffffff\n        /* \"#utility.yul\":3564:3570   */\n      dup2\n        /* \"#utility.yul\":3561:3591   */\n      gt\n        /* \"#utility.yul\":3558:3675   */\n      iszero\n      tag_315\n      jumpi\n        /* \"#utility.yul\":3594:3673   */\n      tag_316\n      tag_204\n      jump\t// in\n    tag_316:\n        /* \"#utility.yul\":3558:3675   */\n    tag_315:\n        /* \"#utility.yul\":3699:3762   */\n      tag_317\n        /* \"#utility.yul\":3754:3761   */\n      dup6\n        /* \"#utility.yul\":3745:3751   */\n      dup3\n        /* \"#utility.yul\":3734:3743   */\n      dup7\n        /* \"#utility.yul\":3730:3752   */\n      add\n        /* \"#utility.yul\":3699:3762   */\n      tag_217\n      jump\t// in\n    tag_317:\n        /* \"#utility.yul\":3689:3762   */\n      swap3\n      pop\n        /* \"#utility.yul\":3485:3772   */\n      pop\n        /* \"#utility.yul\":3839:3841   */\n      0x20\n        /* \"#utility.yul\":3828:3837   */\n      dup4\n        /* \"#utility.yul\":3824:3842   */\n      add\n        /* \"#utility.yul\":3811:3843   */\n      calldataload\n        /* \"#utility.yul\":3870:3888   */\n      0xffffffffffffffff\n        /* \"#utility.yul\":3862:3868   */\n      dup2\n        /* \"#utility.yul\":3859:3889   */\n      gt\n        /* \"#utility.yul\":3856:3973   */\n      iszero\n      tag_318\n      jumpi\n        /* \"#utility.yul\":3892:3971   */\n      tag_319\n      tag_204\n      jump\t// in\n    tag_319:\n        /* \"#utility.yul\":3856:3973   */\n    tag_318:\n        /* \"#utility.yul\":3997:4060   */\n      tag_320\n        /* \"#utility.yul\":4052:4059   */\n      dup6\n        /* \"#utility.yul\":4043:4049   */\n      dup3\n        /* \"#utility.yul\":4032:4041   */\n      dup7\n        /* \"#utility.yul\":4028:4050   */\n      add\n        /* \"#utility.yul\":3997:4060   */\n      tag_217\n      jump\t// in\n    tag_320:\n        /* \"#utility.yul\":3987:4060   */\n      swap2\n      pop\n        /* \"#utility.yul\":3782:4070   */\n      pop\n        /* \"#utility.yul\":3243:4077   */\n      swap3\n      pop\n      swap3\n      swap1\n      pop\n      jump\t// out\n        /* \"#utility.yul\":4083:4173   */\n    tag_218:\n        /* \"#utility.yul\":4117:4124   */\n      0x00\n        /* \"#utility.yul\":4160:4165   */\n      dup2\n        /* \"#utility.yul\":4153:4166   */\n      iszero\n        /* \"#utility.yul\":4146:4167   */\n      iszero\n        /* \"#utility.yul\":4135:4167   */\n      swap1\n      pop\n        /* \"#utility.yul\":4083:4173   */\n      swap2\n      swap1\n      pop\n      jump\t// out\n        /* \"#utility.yul\":4179:4288   */\n    tag_219:\n        /* \"#utility.yul\":4260:4281   */\n      tag_323\n        /* \"#utility.yul\":4275:4280   */\n      dup2\n        /* \"#utility.yul\":4260:4281   */\n      tag_218\n      jump\t// in\n    tag_323:\n        /* \"#utility.yul\":4255:4258   */\n      dup3\n        /* \"#utility.yul\":4248:4282   */\n      mstore\n        /* \"#utility.yul\":4179:4288   */\n      pop\n      pop\n      jump\t// out\n        /* \"#utility.yul\":4294:4504   */\n    tag_21:\n        /* \"#utility.yul\":4381:4385   */\n      0x00\n        /* \"#utility.yul\":4419:4421   */\n      0x20\n        /* \"#utility.yul\":4408:4417   */\n      dup3\n        /* \"#utility.yul\":4404:4422   */\n      add\n        /* \"#utility.yul\":4396:4422   */\n      swap1\n      pop\n        /* \"#utility.yul\":4432:4497   */\n      tag_325\n        /* \"#utility.yul\":4494:4495   */\n      0x00\n        /* \"#utility.yul\":4483:4492   */\n      dup4\n        /* \"#utility.yul\":4479:4496   */\n      add\n        /* \"#utility.yul\":4470:4476   */\n      dup5\n        /* \"#utility.yul\":4432:4497   */\n      tag_219\n      jump\t// in\n    tag_325:\n        /* \"#utility.yul\":4294:4504   */\n      swap3\n      swap2\n      pop\n      pop\n      jump\t// out\n        /* \"#utility.yul\":4510:4636   */\n    tag_220:\n        /* \"#utility.yul\":4547:4554   */\n      0x00\n        /* \"#utility.yul\":4587:4629   */\n      0xffffffffffffffffffffffffffffffffffffffff\n        /* \"#utility.yul\":4580:4585   */\n      dup3\n        /* \"#utility.yul\":4576:4630   */\n      and\n        /* \"#utility.yul\":4565:4630   */\n      swap1\n      pop\n        /* \"#utility.yul\":4510:4636   */\n      swap2\n      swap1\n      pop\n      jump\t// out\n        /* \"#utility.yul\":4642:4738   */\n    tag_221:\n        /* \"#utility.yul\":4679:4686   */\n      0x00\n        /* \"#utility.yul\":4708:4732   */\n      tag_328\n        /* \"#utility.yul\":4726:4731   */\n      dup3\n        /* \"#utility.yul\":4708:4732   */\n      tag_220\n      jump\t// in\n    tag_328:\n        /* \"#utility.yul\":4697:4732   */\n      swap1\n      pop\n        /* \"#utility.yul\":4642:4738   */\n      swap2\n      swap1\n      pop\n      jump\t// out\n        /* \"#utility.yul\":4744:4862   */\n    tag_222:\n        /* \"#utility.yul\":4831:4855   */\n      tag_330\n        /* \"#utility.yul\":4849:4854   */\n      dup2\n        /* \"#utility.yul\":4831:4855   */\n      tag_221\n      jump\t// in\n    tag_330:\n        /* \"#utility.yul\":4826:4829   */\n      dup3\n        /* \"#utility.yul\":4819:4856   */\n      mstore\n        /* \"#utility.yul\":4744:4862   */\n      pop\n      pop\n      jump\t// out\n        /* \"#utility.yul\":4868:5090   */\n    tag_29:\n        /* \"#utility.yul\":4961:4965   */\n      0x00\n        /* \"#utility.yul\":4999:5001   */\n      0x20\n        /* \"#utility.yul\":4988:4997   */\n      dup3\n        /* \"#utility.yul\":4984:5002   */\n      add\n        /* \"#utility.yul\":4976:5002   */\n      swap1\n      pop\n        /* \"#utility.yul\":5012:5083   */\n      tag_332\n        /* \"#utility.yul\":5080:5081   */\n      0x00\n        /* \"#utility.yul\":5069:5078   */\n      dup4\n        /* \"#utility.yul\":5065:5082   */\n      add\n        /* \"#utility.yul\":5056:5062   */\n      dup5\n        /* \"#utility.yul\":5012:5083   */\n      tag_222\n      jump\t// in\n    tag_332:\n        /* \"#utility.yul\":4868:5090   */\n      swap3\n      swap2\n      pop\n      pop\n      jump\t// out\n        /* \"#utility.yul\":5096:5230   */\n    tag_223:\n        /* \"#utility.yul\":5183:5189   */\n      0x00\n        /* \"#utility.yul\":5217:5222   */\n      dup2\n        /* \"#utility.yul\":5211:5223   */\n      mload\n        /* \"#utility.yul\":5201:5223   */\n      swap1\n      pop\n        /* \"#utility.yul\":5096:5230   */\n      swap2\n      swap1\n      pop\n      jump\t// out\n        /* \"#utility.yul\":5236:5440   */\n    tag_224:\n        /* \"#utility.yul\":5355:5366   */\n      0x00\n        /* \"#utility.yul\":5389:5395   */\n      dup3\n        /* \"#utility.yul\":5384:5387   */\n      dup3\n        /* \"#utility.yul\":5377:5396   */\n      mstore\n        /* \"#utility.yul\":5429:5433   */\n      0x20\n        /* \"#utility.yul\":5424:5427   */\n      dup3\n        /* \"#utility.yul\":5420:5434   */\n      add\n        /* \"#utility.yul\":5405:5434   */\n      swap1\n      pop\n        /* \"#utility.yul\":5236:5440   */\n      swap3\n      swap2\n      pop\n      pop\n      jump\t// out\n        /* \"#utility.yul\":5446:5598   */\n    tag_225:\n        /* \"#utility.yul\":5533:5537   */\n      0x00\n        /* \"#utility.yul\":5556:5559   */\n      dup2\n        /* \"#utility.yul\":5548:5559   */\n      swap1\n      pop\n        /* \"#utility.yul\":5586:5590   */\n      0x20\n        /* \"#utility.yul\":5581:5584   */\n      dup3\n        /* \"#utility.yul\":5577:5591   */\n      add\n        /* \"#utility.yul\":5569:5591   */\n      swap1\n      pop\n        /* \"#utility.yul\":5446:5598   */\n      swap2\n      swap1\n      pop\n      jump\t// out\n        /* \"#utility.yul\":5604:5703   */\n    tag_226:\n        /* \"#utility.yul\":5656:5662   */\n      0x00\n        /* \"#utility.yul\":5690:5695   */\n      dup2\n        /* \"#utility.yul\":5684:5696   */\n      mload\n        /* \"#utility.yul\":5674:5696   */\n      swap1\n      pop\n        /* \"#utility.yul\":5604:5703   */\n      swap2\n      swap1\n      pop\n      jump\t// out\n        /* \"#utility.yul\":5709:5868   */\n    tag_227:\n        /* \"#utility.yul\":5783:5794   */\n      0x00\n        /* \"#utility.yul\":5817:5823   */\n      dup3\n        /* \"#utility.yul\":5812:5815   */\n      dup3\n        /* \"#utility.yul\":5805:5824   */\n      mstore\n        /* \"#utility.yul\":5857:5861   */\n      0x20\n        /* \"#utility.yul\":5852:5855   */\n      dup3\n        /* \"#utility.yul\":5848:5862   */\n      add\n        /* \"#utility.yul\":5833:5862   */\n      swap1\n      pop\n        /* \"#utility.yul\":5709:5868   */\n      swap3\n      swap2\n      pop\n      pop\n      jump\t// out\n        /* \"#utility.yul\":5874:6013   */\n    tag_228:\n        /* \"#utility.yul\":5963:5969   */\n      dup3\n        /* \"#utility.yul\":5958:5961   */\n      dup2\n        /* \"#utility.yul\":5953:5956   */\n      dup4\n        /* \"#utility.yul\":5947:5970   */\n      mcopy\n        /* \"#utility.yul\":6004:6005   */\n      0x00\n        /* \"#utility.yul\":5995:6001   */\n      dup4\n        /* \"#utility.yul\":5990:5993   */\n      dup4\n        /* \"#utility.yul\":5986:6002   */\n      add\n        /* \"#utility.yul\":5979:6006   */\n      mstore\n        /* \"#utility.yul\":5874:6013   */\n      pop\n      pop\n      pop\n      jump\t// out\n        /* \"#utility.yul\":6019:6376   */\n    tag_229:\n        /* \"#utility.yul\":6097:6100   */\n      0x00\n        /* \"#utility.yul\":6125:6164   */\n      tag_340\n        /* \"#utility.yul\":6158:6163   */\n      dup3\n        /* \"#utility.yul\":6125:6164   */\n      tag_226\n      jump\t// in\n    tag_340:\n        /* \"#utility.yul\":6180:6241   */\n      tag_341\n        /* \"#utility.yul\":6234:6240   */\n      dup2\n        /* \"#utility.yul\":6229:6232   */\n      dup6\n        /* \"#utility.yul\":6180:6241   */\n      tag_227\n      jump\t// in\n    tag_341:\n        /* \"#utility.yul\":6173:6241   */\n      swap4\n      pop\n        /* \"#utility.yul\":6250:6315   */\n      tag_342\n        /* \"#utility.yul\":6308:6314   */\n      dup2\n        /* \"#utility.yul\":6303:6306   */\n      dup6\n        /* \"#utility.yul\":6296:6300   */\n      0x20\n        /* \"#utility.yul\":6289:6294   */\n      dup7\n        /* \"#utility.yul\":6285:6301   */\n      add\n        /* \"#utility.yul\":6250:6315   */\n      tag_228\n      jump\t// in\n    tag_342:\n        /* \"#utility.yul\":6340:6369   */\n      tag_343\n        /* \"#utility.yul\":6362:6368   */\n      dup2\n        /* \"#utility.yul\":6340:6369   */\n      tag_210\n      jump\t// in\n    tag_343:\n        /* \"#utility.yul\":6335:6338   */\n      dup5\n        /* \"#utility.yul\":6331:6370   */\n      add\n        /* \"#utility.yul\":6324:6370   */\n      swap2\n      pop\n        /* \"#utility.yul\":6101:6376   */\n      pop\n        /* \"#utility.yul\":6019:6376   */\n      swap3\n      swap2\n      pop\n      pop\n      jump\t// out\n        /* \"#utility.yul\":6382:6562   */\n    tag_74:\n        /* \"#utility.yul\":6430:6507   */\n      0x4e487b7100000000000000000000000000000000000000000000000000000000\n        /* \"#utility.yul\":6427:6428   */\n      0x00\n        /* \"#utility.yul\":6420:6508   */\n      mstore\n        /* \"#utility.yul\":6527:6531   */\n      0x21\n        /* \"#utility.yul\":6524:6525   */\n      0x04\n        /* \"#utility.yul\":6517:6532   */\n      mstore\n        /* \"#utility.yul\":6551:6555   */\n      0x24\n        /* \"#utility.yul\":6548:6549   */\n      0x00\n        /* \"#utility.yul\":6541:6556   */\n      revert\n        /* \"#utility.yul\":6568:6681   */\n    tag_230:\n        /* \"#utility.yul\":6649:6650   */\n      0x04\n        /* \"#utility.yul\":6642:6647   */\n      dup2\n        /* \"#utility.yul\":6639:6651   */\n      lt\n        /* \"#utility.yul\":6629:6675   */\n      tag_346\n      jumpi\n        /* \"#utility.yul\":6655:6673   */\n      tag_347\n      tag_74\n      jump\t// in\n    tag_347:\n        /* \"#utility.yul\":6629:6675   */\n    tag_346:\n        /* \"#utility.yul\":6568:6681   */\n      pop\n      jump\t// out\n        /* \"#utility.yul\":6687:6814   */\n    tag_231:\n        /* \"#utility.yul\":6732:6739   */\n      0x00\n        /* \"#utility.yul\":6761:6766   */\n      dup2\n        /* \"#utility.yul\":6750:6766   */\n      swap1\n      pop\n        /* \"#utility.yul\":6767:6808   */\n      tag_349\n        /* \"#utility.yul\":6802:6807   */\n      dup3\n        /* \"#utility.yul\":6767:6808   */\n      tag_230\n      jump\t// in\n    tag_349:\n        /* \"#utility.yul\":6687:6814   */\n      swap2\n      swap1\n      pop\n      jump\t// out\n        /* \"#utility.yul\":6820:6947   */\n    tag_232:\n        /* \"#utility.yul\":6876:6885   */\n      0x00\n        /* \"#utility.yul\":6909:6941   */\n      tag_351\n        /* \"#utility.yul\":6935:6940   */\n      dup3\n        /* \"#utility.yul\":6909:6941   */\n      tag_231\n      jump\t// in\n    tag_351:\n        /* \"#utility.yul\":6896:6941   */\n      swap1\n      pop\n        /* \"#utility.yul\":6820:6947   */\n      swap2\n      swap1\n      pop\n      jump\t// out\n        /* \"#utility.yul\":6953:7086   */\n    tag_233:\n        /* \"#utility.yul\":7036:7079   */\n      tag_353\n        /* \"#utility.yul\":7073:7078   */\n      dup2\n        /* \"#utility.yul\":7036:7079   */\n      tag_232\n      jump\t// in\n    tag_353:\n        /* \"#utility.yul\":7031:7034   */\n      dup3\n        /* \"#utility.yul\":7024:7080   */\n      mstore\n        /* \"#utility.yul\":6953:7086   */\n      pop\n      pop\n      jump\t// out\n        /* \"#utility.yul\":7144:7991   */\n    tag_234:\n        /* \"#utility.yul\":7243:7246   */\n      0x00\n        /* \"#utility.yul\":7279:7283   */\n      0x60\n        /* \"#utility.yul\":7274:7277   */\n      dup4\n        /* \"#utility.yul\":7270:7284   */\n      add\n        /* \"#utility.yul\":7367:7371   */\n      0x00\n        /* \"#utility.yul\":7360:7365   */\n      dup4\n        /* \"#utility.yul\":7356:7372   */\n      add\n        /* \"#utility.yul\":7350:7373   */\n      mload\n        /* \"#utility.yul\":7420:7423   */\n      dup5\n        /* \"#utility.yul\":7414:7418   */\n      dup3\n        /* \"#utility.yul\":7410:7424   */\n      sub\n        /* \"#utility.yul\":7403:7407   */\n      0x00\n        /* \"#utility.yul\":7398:7401   */\n      dup7\n        /* \"#utility.yul\":7394:7408   */\n      add\n        /* \"#utility.yul\":7387:7425   */\n      mstore\n        /* \"#utility.yul\":7446:7519   */\n      tag_355\n        /* \"#utility.yul\":7514:7518   */\n      dup3\n        /* \"#utility.yul\":7500:7512   */\n      dup3\n        /* \"#utility.yul\":7446:7519   */\n      tag_229\n      jump\t// in\n    tag_355:\n        /* \"#utility.yul\":7438:7519   */\n      swap2\n      pop\n        /* \"#utility.yul\":7294:7530   */\n      pop\n        /* \"#utility.yul\":7619:7623   */\n      0x20\n        /* \"#utility.yul\":7612:7617   */\n      dup4\n        /* \"#utility.yul\":7608:7624   */\n      add\n        /* \"#utility.yul\":7602:7625   */\n      mload\n        /* \"#utility.yul\":7672:7675   */\n      dup5\n        /* \"#utility.yul\":7666:7670   */\n      dup3\n        /* \"#utility.yul\":7662:7676   */\n      sub\n        /* \"#utility.yul\":7655:7659   */\n      0x20\n        /* \"#utility.yul\":7650:7653   */\n      dup7\n        /* \"#utility.yul\":7646:7660   */\n      add\n        /* \"#utility.yul\":7639:7677   */\n      mstore\n        /* \"#utility.yul\":7698:7771   */\n      tag_356\n        /* \"#utility.yul\":7766:7770   */\n      dup3\n        /* \"#utility.yul\":7752:7764   */\n      dup3\n        /* \"#utility.yul\":7698:7771   */\n      tag_229\n      jump\t// in\n    tag_356:\n        /* \"#utility.yul\":7690:7771   */\n      swap2\n      pop\n        /* \"#utility.yul\":7540:7782   */\n      pop\n        /* \"#utility.yul\":7866:7870   */\n      0x40\n        /* \"#utility.yul\":7859:7864   */\n      dup4\n        /* \"#utility.yul\":7855:7871   */\n      add\n        /* \"#utility.yul\":7849:7872   */\n      mload\n        /* \"#utility.yul\":7885:7954   */\n      tag_357\n        /* \"#utility.yul\":7948:7952   */\n      0x40\n        /* \"#utility.yul\":7943:7946   */\n      dup7\n        /* \"#utility.yul\":7939:7953   */\n      add\n        /* \"#utility.yul\":7925:7937   */\n      dup3\n        /* \"#utility.yul\":7885:7954   */\n      tag_233\n      jump\t// in\n    tag_357:\n        /* \"#utility.yul\":7792:7964   */\n      pop\n        /* \"#utility.yul\":7981:7985   */\n      dup1\n        /* \"#utility.yul\":7974:7985   */\n      swap2\n      pop\n        /* \"#utility.yul\":7248:7991   */\n      pop\n        /* \"#utility.yul\":7144:7991   */\n      swap3\n      swap2\n      pop\n      pop\n      jump\t// out\n        /* \"#utility.yul\":7997:8233   */\n    tag_235:\n        /* \"#utility.yul\":8106:8116   */\n      0x00\n        /* \"#utility.yul\":8141:8227   */\n      tag_359\n        /* \"#utility.yul\":8223:8226   */\n      dup4\n        /* \"#utility.yul\":8215:8221   */\n      dup4\n        /* \"#utility.yul\":8141:8227   */\n      tag_234\n      jump\t// in\n    tag_359:\n        /* \"#utility.yul\":8127:8227   */\n      swap1\n      pop\n        /* \"#utility.yul\":7997:8233   */\n      swap3\n      swap2\n      pop\n      pop\n      jump\t// out\n        /* \"#utility.yul\":8239:8372   */\n    tag_236:\n        /* \"#utility.yul\":8329:8333   */\n      0x00\n        /* \"#utility.yul\":8361:8365   */\n      0x20\n        /* \"#utility.yul\":8356:8359   */\n      dup3\n        /* \"#utility.yul\":8352:8366   */\n      add\n        /* \"#utility.yul\":8344:8366   */\n      swap1\n      pop\n        /* \"#utility.yul\":8239:8372   */\n      swap2\n      swap1\n      pop\n      jump\t// out\n        /* \"#utility.yul\":8434:9505   */\n    tag_237:\n        /* \"#utility.yul\":8593:8596   */\n      0x00\n        /* \"#utility.yul\":8622:8696   */\n      tag_362\n        /* \"#utility.yul\":8690:8695   */\n      dup3\n        /* \"#utility.yul\":8622:8696   */\n      tag_223\n      jump\t// in\n    tag_362:\n        /* \"#utility.yul\":8712:8818   */\n      tag_363\n        /* \"#utility.yul\":8811:8817   */\n      dup2\n        /* \"#utility.yul\":8806:8809   */\n      dup6\n        /* \"#utility.yul\":8712:8818   */\n      tag_224\n      jump\t// in\n    tag_363:\n        /* \"#utility.yul\":8705:8818   */\n      swap4\n      pop\n        /* \"#utility.yul\":8844:8847   */\n      dup4\n        /* \"#utility.yul\":8889:8893   */\n      0x20\n        /* \"#utility.yul\":8881:8887   */\n      dup3\n        /* \"#utility.yul\":8877:8894   */\n      mul\n        /* \"#utility.yul\":8872:8875   */\n      dup6\n        /* \"#utility.yul\":8868:8895   */\n      add\n        /* \"#utility.yul\":8919:8995   */\n      tag_364\n        /* \"#utility.yul\":8989:8994   */\n      dup6\n        /* \"#utility.yul\":8919:8995   */\n      tag_225\n      jump\t// in\n    tag_364:\n        /* \"#utility.yul\":9018:9025   */\n      dup1\n        /* \"#utility.yul\":9049:9050   */\n      0x00\n        /* \"#utility.yul\":9034:9460   */\n    tag_365:\n        /* \"#utility.yul\":9059:9065   */\n      dup6\n        /* \"#utility.yul\":9056:9057   */\n      dup2\n        /* \"#utility.yul\":9053:9066   */\n      lt\n        /* \"#utility.yul\":9034:9460   */\n      iszero\n      tag_367\n      jumpi\n        /* \"#utility.yul\":9130:9139   */\n      dup5\n        /* \"#utility.yul\":9124:9128   */\n      dup5\n        /* \"#utility.yul\":9120:9140   */\n      sub\n        /* \"#utility.yul\":9115:9118   */\n      dup10\n        /* \"#utility.yul\":9108:9141   */\n      mstore\n        /* \"#utility.yul\":9181:9187   */\n      dup2\n        /* \"#utility.yul\":9175:9188   */\n      mload\n        /* \"#utility.yul\":9209:9313   */\n      tag_368\n        /* \"#utility.yul\":9308:9312   */\n      dup6\n        /* \"#utility.yul\":9293:9306   */\n      dup3\n        /* \"#utility.yul\":9209:9313   */\n      tag_235\n      jump\t// in\n    tag_368:\n        /* \"#utility.yul\":9201:9313   */\n      swap5\n      pop\n        /* \"#utility.yul\":9336:9416   */\n      tag_369\n        /* \"#utility.yul\":9409:9415   */\n      dup4\n        /* \"#utility.yul\":9336:9416   */\n      tag_236\n      jump\t// in\n    tag_369:\n        /* \"#utility.yul\":9326:9416   */\n      swap3\n      pop\n        /* \"#utility.yul\":9445:9449   */\n      0x20\n        /* \"#utility.yul\":9440:9443   */\n      dup11\n        /* \"#utility.yul\":9436:9450   */\n      add\n        /* \"#utility.yul\":9429:9450   */\n      swap10\n      pop\n        /* \"#utility.yul\":9094:9460   */\n      pop\n        /* \"#utility.yul\":9081:9082   */\n      0x01\n        /* \"#utility.yul\":9078:9079   */\n      dup2\n        /* \"#utility.yul\":9074:9083   */\n      add\n        /* \"#utility.yul\":9069:9083   */\n      swap1\n      pop\n        /* \"#utility.yul\":9034:9460   */\n      jump(tag_365)\n    tag_367:\n        /* \"#utility.yul\":9038:9052   */\n      pop\n        /* \"#utility.yul\":9476:9480   */\n      dup3\n        /* \"#utility.yul\":9469:9480   */\n      swap8\n      pop\n        /* \"#utility.yul\":9496:9499   */\n      dup8\n        /* \"#utility.yul\":9489:9499   */\n      swap6\n      pop\n        /* \"#utility.yul\":8598:9505   */\n      pop\n      pop\n      pop\n      pop\n      pop\n        /* \"#utility.yul\":8434:9505   */\n      swap3\n      swap2\n      pop\n      pop\n      jump\t// out\n        /* \"#utility.yul\":9511:9964   */\n    tag_33:\n        /* \"#utility.yul\":9694:9698   */\n      0x00\n        /* \"#utility.yul\":9732:9734   */\n      0x20\n        /* \"#utility.yul\":9721:9730   */\n      dup3\n        /* \"#utility.yul\":9717:9735   */\n      add\n        /* \"#utility.yul\":9709:9735   */\n      swap1\n      pop\n        /* \"#utility.yul\":9781:9790   */\n      dup2\n        /* \"#utility.yul\":9775:9779   */\n      dup2\n        /* \"#utility.yul\":9771:9791   */\n      sub\n        /* \"#utility.yul\":9767:9768   */\n      0x00\n        /* \"#utility.yul\":9756:9765   */\n      dup4\n        /* \"#utility.yul\":9752:9769   */\n      add\n        /* \"#utility.yul\":9745:9792   */\n      mstore\n        /* \"#utility.yul\":9809:9957   */\n      tag_371\n        /* \"#utility.yul\":9952:9956   */\n      dup2\n        /* \"#utility.yul\":9943:9949   */\n      dup5\n        /* \"#utility.yul\":9809:9957   */\n      tag_237\n      jump\t// in\n    tag_371:\n        /* \"#utility.yul\":9801:9957   */\n      swap1\n      pop\n        /* \"#utility.yul\":9511:9964   */\n      swap3\n      swap2\n      pop\n      pop\n      jump\t// out\n        /* \"#utility.yul\":9970:10047   */\n    tag_238:\n        /* \"#utility.yul\":10007:10014   */\n      0x00\n        /* \"#utility.yul\":10036:10041   */\n      dup2\n        /* \"#utility.yul\":10025:10041   */\n      swap1\n      pop\n        /* \"#utility.yul\":9970:10047   */\n      swap2\n      swap1\n      pop\n      jump\t// out\n        /* \"#utility.yul\":10053:10175   */\n    tag_239:\n        /* \"#utility.yul\":10126:10150   */\n      tag_374\n        /* \"#utility.yul\":10144:10149   */\n      dup2\n        /* \"#utility.yul\":10126:10150   */\n      tag_238\n      jump\t// in\n    tag_374:\n        /* \"#utility.yul\":10119:10124   */\n      dup2\n        /* \"#utility.yul\":10116:10151   */\n      eq\n        /* \"#utility.yul\":10106:10169   */\n      tag_375\n      jumpi\n        /* \"#utility.yul\":10165:10166   */\n      0x00\n        /* \"#utility.yul\":10162:10163   */\n      0x00\n        /* \"#utility.yul\":10155:10167   */\n      revert\n        /* \"#utility.yul\":10106:10169   */\n    tag_375:\n        /* \"#utility.yul\":10053:10175   */\n      pop\n      jump\t// out\n        /* \"#utility.yul\":10181:10320   */\n    tag_240:\n        /* \"#utility.yul\":10227:10232   */\n      0x00\n        /* \"#utility.yul\":10265:10271   */\n      dup2\n        /* \"#utility.yul\":10252:10272   */\n      calldataload\n        /* \"#utility.yul\":10243:10272   */\n      swap1\n      pop\n        /* \"#utility.yul\":10281:10314   */\n      tag_377\n        /* \"#utility.yul\":10308:10313   */\n      dup2\n        /* \"#utility.yul\":10281:10314   */\n      tag_239\n      jump\t// in\n    tag_377:\n        /* \"#utility.yul\":10181:10320   */\n      swap3\n      swap2\n      pop\n      pop\n      jump\t// out\n        /* \"#utility.yul\":10326:10655   */\n    tag_36:\n        /* \"#utility.yul\":10385:10391   */\n      0x00\n        /* \"#utility.yul\":10434:10436   */\n      0x20\n        /* \"#utility.yul\":10422:10431   */\n      dup3\n        /* \"#utility.yul\":10413:10420   */\n      dup5\n        /* \"#utility.yul\":10409:10432   */\n      sub\n        /* \"#utility.yul\":10405:10437   */\n      slt\n        /* \"#utility.yul\":10402:10521   */\n      iszero\n      tag_379\n      jumpi\n        /* \"#utility.yul\":10440:10519   */\n      tag_380\n      tag_203\n      jump\t// in\n    tag_380:\n        /* \"#utility.yul\":10402:10521   */\n    tag_379:\n        /* \"#utility.yul\":10560:10561   */\n      0x00\n        /* \"#utility.yul\":10585:10638   */\n      tag_381\n        /* \"#utility.yul\":10630:10637   */\n      dup5\n        /* \"#utility.yul\":10621:10627   */\n      dup3\n        /* \"#utility.yul\":10610:10619   */\n      dup6\n        /* \"#utility.yul\":10606:10628   */\n      add\n        /* \"#utility.yul\":10585:10638   */\n      tag_240\n      jump\t// in\n    tag_381:\n        /* \"#utility.yul\":10575:10638   */\n      swap2\n      pop\n        /* \"#utility.yul\":10531:10648   */\n      pop\n        /* \"#utility.yul\":10326:10655   */\n      swap3\n      swap2\n      pop\n      pop\n      jump\t// out\n        /* \"#utility.yul\":10661:10830   */\n    tag_241:\n        /* \"#utility.yul\":10745:10756   */\n      0x00\n        /* \"#utility.yul\":10779:10785   */\n      dup3\n        /* \"#utility.yul\":10774:10777   */\n      dup3\n        /* \"#utility.yul\":10767:10786   */\n      mstore\n        /* \"#utility.yul\":10819:10823   */\n      0x20\n        /* \"#utility.yul\":10814:10817   */\n      dup3\n        /* \"#utility.yul\":10810:10824   */\n      add\n        /* \"#utility.yul\":10795:10824   */\n      swap1\n      pop\n        /* \"#utility.yul\":10661:10830   */\n      swap3\n      swap2\n      pop\n      pop\n      jump\t// out\n        /* \"#utility.yul\":10836:11213   */\n    tag_242:\n        /* \"#utility.yul\":10924:10927   */\n      0x00\n        /* \"#utility.yul\":10952:10991   */\n      tag_384\n        /* \"#utility.yul\":10985:10990   */\n      dup3\n        /* \"#utility.yul\":10952:10991   */\n      tag_226\n      jump\t// in\n    tag_384:\n        /* \"#utility.yul\":11007:11078   */\n      tag_385\n        /* \"#utility.yul\":11071:11077   */\n      dup2\n        /* \"#utility.yul\":11066:11069   */\n      dup6\n        /* \"#utility.yul\":11007:11078   */\n      tag_241\n      jump\t// in\n    tag_385:\n        /* \"#utility.yul\":11000:11078   */\n      swap4\n      pop\n        /* \"#utility.yul\":11087:11152   */\n      tag_386\n        /* \"#utility.yul\":11145:11151   */\n      dup2\n        /* \"#utility.yul\":11140:11143   */\n      dup6\n        /* \"#utility.yul\":11133:11137   */\n      0x20\n        /* \"#utility.yul\":11126:11131   */\n      dup7\n        /* \"#utility.yul\":11122:11138   */\n      add\n        /* \"#utility.yul\":11087:11152   */\n      tag_228\n      jump\t// in\n    tag_386:\n        /* \"#utility.yul\":11177:11206   */\n      tag_387\n        /* \"#utility.yul\":11199:11205   */\n      dup2\n        /* \"#utility.yul\":11177:11206   */\n      tag_210\n      jump\t// in\n    tag_387:\n        /* \"#utility.yul\":11172:11175   */\n      dup5\n        /* \"#utility.yul\":11168:11207   */\n      add\n        /* \"#utility.yul\":11161:11207   */\n      swap2\n      pop\n        /* \"#utility.yul\":10928:11213   */\n      pop\n        /* \"#utility.yul\":10836:11213   */\n      swap3\n      swap2\n      pop\n      pop\n      jump\t// out\n        /* \"#utility.yul\":11219:11362   */\n    tag_243:\n        /* \"#utility.yul\":11312:11355   */\n      tag_389\n        /* \"#utility.yul\":11349:11354   */\n      dup2\n        /* \"#utility.yul\":11312:11355   */\n      tag_232\n      jump\t// in\n    tag_389:\n        /* \"#utility.yul\":11307:11310   */\n      dup3\n        /* \"#utility.yul\":11300:11356   */\n      mstore\n        /* \"#utility.yul\":11219:11362   */\n      pop\n      pop\n      jump\t// out\n        /* \"#utility.yul\":11368:12004   */\n    tag_39:\n        /* \"#utility.yul\":11563:11567   */\n      0x00\n        /* \"#utility.yul\":11601:11603   */\n      0x60\n        /* \"#utility.yul\":11590:11599   */\n      dup3\n        /* \"#utility.yul\":11586:11604   */\n      add\n        /* \"#utility.yul\":11578:11604   */\n      swap1\n      pop\n        /* \"#utility.yul\":11650:11659   */\n      dup2\n        /* \"#utility.yul\":11644:11648   */\n      dup2\n        /* \"#utility.yul\":11640:11660   */\n      sub\n        /* \"#utility.yul\":11636:11637   */\n      0x00\n        /* \"#utility.yul\":11625:11634   */\n      dup4\n        /* \"#utility.yul\":11621:11638   */\n      add\n        /* \"#utility.yul\":11614:11661   */\n      mstore\n        /* \"#utility.yul\":11678:11756   */\n      tag_391\n        /* \"#utility.yul\":11751:11755   */\n      dup2\n        /* \"#utility.yul\":11742:11748   */\n      dup7\n        /* \"#utility.yul\":11678:11756   */\n      tag_242\n      jump\t// in\n    tag_391:\n        /* \"#utility.yul\":11670:11756   */\n      swap1\n      pop\n        /* \"#utility.yul\":11803:11812   */\n      dup2\n        /* \"#utility.yul\":11797:11801   */\n      dup2\n        /* \"#utility.yul\":11793:11813   */\n      sub\n        /* \"#utility.yul\":11788:11790   */\n      0x20\n        /* \"#utility.yul\":11777:11786   */\n      dup4\n        /* \"#utility.yul\":11773:11791   */\n      add\n        /* \"#utility.yul\":11766:11814   */\n      mstore\n        /* \"#utility.yul\":11831:11909   */\n      tag_392\n        /* \"#utility.yul\":11904:11908   */\n      dup2\n        /* \"#utility.yul\":11895:11901   */\n      dup6\n        /* \"#utility.yul\":11831:11909   */\n      tag_242\n      jump\t// in\n    tag_392:\n        /* \"#utility.yul\":11823:11909   */\n      swap1\n      pop\n        /* \"#utility.yul\":11919:11997   */\n      tag_393\n        /* \"#utility.yul\":11993:11995   */\n      0x40\n        /* \"#utility.yul\":11982:11991   */\n      dup4\n        /* \"#utility.yul\":11978:11996   */\n      add\n        /* \"#utility.yul\":11969:11975   */\n      dup5\n        /* \"#utility.yul\":11919:11997   */\n      tag_243\n      jump\t// in\n    tag_393:\n        /* \"#utility.yul\":11368:12004   */\n      swap5\n      swap4\n      pop\n      pop\n      pop\n      pop\n      jump\t// out\n        /* \"#utility.yul\":12010:12985   */\n    tag_42:\n        /* \"#utility.yul\":12105:12111   */\n      0x00\n        /* \"#utility.yul\":12113:12119   */\n      0x00\n        /* \"#utility.yul\":12121:12127   */\n      0x00\n        /* \"#utility.yul\":12170:12172   */\n      0x60\n        /* \"#utility.yul\":12158:12167   */\n      dup5\n        /* \"#utility.yul\":12149:12156   */\n      dup7\n        /* \"#utility.yul\":12145:12168   */\n      sub\n        /* \"#utility.yul\":12141:12173   */\n      slt\n        /* \"#utility.yul\":12138:12257   */\n      iszero\n      tag_395\n      jumpi\n        /* \"#utility.yul\":12176:12255   */\n      tag_396\n      tag_203\n      jump\t// in\n    tag_396:\n        /* \"#utility.yul\":12138:12257   */\n    tag_395:\n        /* \"#utility.yul\":12296:12297   */\n      0x00\n        /* \"#utility.yul\":12321:12372   */\n      tag_397\n        /* \"#utility.yul\":12364:12371   */\n      dup7\n        /* \"#utility.yul\":12355:12361   */\n      dup3\n        /* \"#utility.yul\":12344:12353   */\n      dup8\n        /* \"#utility.yul\":12340:12362   */\n      add\n        /* \"#utility.yul\":12321:12372   */\n      tag_207\n      jump\t// in\n    tag_397:\n        /* \"#utility.yul\":12311:12372   */\n      swap4\n      pop\n        /* \"#utility.yul\":12267:12382   */\n      pop\n        /* \"#utility.yul\":12449:12451   */\n      0x20\n        /* \"#utility.yul\":12438:12447   */\n      dup5\n        /* \"#utility.yul\":12434:12452   */\n      add\n        /* \"#utility.yul\":12421:12453   */\n      calldataload\n        /* \"#utility.yul\":12480:12498   */\n      0xffffffffffffffff\n        /* \"#utility.yul\":12472:12478   */\n      dup2\n        /* \"#utility.yul\":12469:12499   */\n      gt\n        /* \"#utility.yul\":12466:12583   */\n      iszero\n      tag_398\n      jumpi\n        /* \"#utility.yul\":12502:12581   */\n      tag_399\n      tag_204\n      jump\t// in\n    tag_399:\n        /* \"#utility.yul\":12466:12583   */\n    tag_398:\n        /* \"#utility.yul\":12607:12670   */\n      tag_400\n        /* \"#utility.yul\":12662:12669   */\n      dup7\n        /* \"#utility.yul\":12653:12659   */\n      dup3\n        /* \"#utility.yul\":12642:12651   */\n      dup8\n        /* \"#utility.yul\":12638:12660   */\n      add\n        /* \"#utility.yul\":12607:12670   */\n      tag_217\n      jump\t// in\n    tag_400:\n        /* \"#utility.yul\":12597:12670   */\n      swap3\n      pop\n        /* \"#utility.yul\":12392:12680   */\n      pop\n        /* \"#utility.yul\":12747:12749   */\n      0x40\n        /* \"#utility.yul\":12736:12745   */\n      dup5\n        /* \"#utility.yul\":12732:12750   */\n      add\n        /* \"#utility.yul\":12719:12751   */\n      calldataload\n        /* \"#utility.yul\":12778:12796   */\n      0xffffffffffffffff\n        /* \"#utility.yul\":12770:12776   */\n      dup2\n        /* \"#utility.yul\":12767:12797   */\n      gt\n        /* \"#utility.yul\":12764:12881   */\n      iszero\n      tag_401\n      jumpi\n        /* \"#utility.yul\":12800:12879   */\n      tag_402\n      tag_204\n      jump\t// in\n    tag_402:\n        /* \"#utility.yul\":12764:12881   */\n    tag_401:\n        /* \"#utility.yul\":12905:12968   */\n      tag_403\n        /* \"#utility.yul\":12960:12967   */\n      dup7\n        /* \"#utility.yul\":12951:12957   */\n      dup3\n        /* \"#utility.yul\":12940:12949   */\n      dup8\n        /* \"#utility.yul\":12936:12958   */\n      add\n        /* \"#utility.yul\":12905:12968   */\n      tag_217\n      jump\t// in\n    tag_403:\n        /* \"#utility.yul\":12895:12968   */\n      swap2\n      pop\n        /* \"#utility.yul\":12690:12978   */\n      pop\n        /* \"#utility.yul\":12010:12985   */\n      swap3\n      pop\n      swap3\n      pop\n      swap3\n      jump\t// out\n        /* \"#utility.yul\":12991:13159   */\n    tag_244:\n        /* \"#utility.yul\":13131:13151   */\n      0x596f75277265206e6f7420616c6c6f7765640000000000000000000000000000\n        /* \"#utility.yul\":13127:13128   */\n      0x00\n        /* \"#utility.yul\":13119:13125   */\n      dup3\n        /* \"#utility.yul\":13115:13129   */\n      add\n        /* \"#utility.yul\":13108:13152   */\n      mstore\n        /* \"#utility.yul\":12991:13159   */\n      pop\n      jump\t// out\n        /* \"#utility.yul\":13165:13531   */\n    tag_245:\n        /* \"#utility.yul\":13307:13310   */\n      0x00\n        /* \"#utility.yul\":13328:13395   */\n      tag_406\n        /* \"#utility.yul\":13392:13394   */\n      0x12\n        /* \"#utility.yul\":13387:13390   */\n      dup4\n        /* \"#utility.yul\":13328:13395   */\n      tag_241\n      jump\t// in\n    tag_406:\n        /* \"#utility.yul\":13321:13395   */\n      swap2\n      pop\n        /* \"#utility.yul\":13404:13497   */\n      tag_407\n        /* \"#utility.yul\":13493:13496   */\n      dup3\n        /* \"#utility.yul\":13404:13497   */\n      tag_244\n      jump\t// in\n    tag_407:\n        /* \"#utility.yul\":13522:13524   */\n      0x20\n        /* \"#utility.yul\":13517:13520   */\n      dup3\n        /* \"#utility.yul\":13513:13525   */\n      add\n        /* \"#utility.yul\":13506:13525   */\n      swap1\n      pop\n        /* \"#utility.yul\":13165:13531   */\n      swap2\n      swap1\n      pop\n      jump\t// out\n        /* \"#utility.yul\":13537:13956   */\n    tag_51:\n        /* \"#utility.yul\":13703:13707   */\n      0x00\n        /* \"#utility.yul\":13741:13743   */\n      0x20\n        /* \"#utility.yul\":13730:13739   */\n      dup3\n        /* \"#utility.yul\":13726:13744   */\n      add\n        /* \"#utility.yul\":13718:13744   */\n      swap1\n      pop\n        /* \"#utility.yul\":13790:13799   */\n      dup2\n        /* \"#utility.yul\":13784:13788   */\n      dup2\n        /* \"#utility.yul\":13780:13800   */\n      sub\n        /* \"#utility.yul\":13776:13777   */\n      0x00\n        /* \"#utility.yul\":13765:13774   */\n      dup4\n        /* \"#utility.yul\":13761:13778   */\n      add\n        /* \"#utility.yul\":13754:13801   */\n      mstore\n        /* \"#utility.yul\":13818:13949   */\n      tag_409\n        /* \"#utility.yul\":13944:13948   */\n      dup2\n        /* \"#utility.yul\":13818:13949   */\n      tag_245\n      jump\t// in\n    tag_409:\n        /* \"#utility.yul\":13810:13949   */\n      swap1\n      pop\n        /* \"#utility.yul\":13537:13956   */\n      swap2\n      swap1\n      pop\n      jump\t// out\n        /* \"#utility.yul\":13962:14136   */\n    tag_246:\n        /* \"#utility.yul\":14102:14128   */\n      0x5a656f722061646472657373206e6f7420616c6c6f7765640000000000000000\n        /* \"#utility.yul\":14098:14099   */\n      0x00\n        /* \"#utility.yul\":14090:14096   */\n      dup3\n        /* \"#utility.yul\":14086:14100   */\n      add\n        /* \"#utility.yul\":14079:14129   */\n      mstore\n        /* \"#utility.yul\":13962:14136   */\n      pop\n      jump\t// out\n        /* \"#utility.yul\":14142:14508   */\n    tag_247:\n        /* \"#utility.yul\":14284:14287   */\n      0x00\n        /* \"#utility.yul\":14305:14372   */\n      tag_412\n        /* \"#utility.yul\":14369:14371   */\n      0x18\n        /* \"#utility.yul\":14364:14367   */\n      dup4\n        /* \"#utility.yul\":14305:14372   */\n      tag_241\n      jump\t// in\n    tag_412:\n        /* \"#utility.yul\":14298:14372   */\n      swap2\n      pop\n        /* \"#utility.yul\":14381:14474   */\n      tag_413\n        /* \"#utility.yul\":14470:14473   */\n      dup3\n        /* \"#utility.yul\":14381:14474   */\n      tag_246\n      jump\t// in\n    tag_413:\n        /* \"#utility.yul\":14499:14501   */\n      0x20\n        /* \"#utility.yul\":14494:14497   */\n      dup3\n        /* \"#utility.yul\":14490:14502   */\n      add\n        /* \"#utility.yul\":14483:14502   */\n      swap1\n      pop\n        /* \"#utility.yul\":14142:14508   */\n      swap2\n      swap1\n      pop\n      jump\t// out\n        /* \"#utility.yul\":14514:14933   */\n    tag_55:\n        /* \"#utility.yul\":14680:14684   */\n      0x00\n        /* \"#utility.yul\":14718:14720   */\n      0x20\n        /* \"#utility.yul\":14707:14716   */\n      dup3\n        /* \"#utility.yul\":14703:14721   */\n      add\n        /* \"#utility.yul\":14695:14721   */\n      swap1\n      pop\n        /* \"#utility.yul\":14767:14776   */\n      dup2\n        /* \"#utility.yul\":14761:14765   */\n      dup2\n        /* \"#utility.yul\":14757:14777   */\n      sub\n        /* \"#utility.yul\":14753:14754   */\n      0x00\n        /* \"#utility.yul\":14742:14751   */\n      dup4\n        /* \"#utility.yul\":14738:14755   */\n      add\n        /* \"#utility.yul\":14731:14778   */\n      mstore\n        /* \"#utility.yul\":14795:14926   */\n      tag_415\n        /* \"#utility.yul\":14921:14925   */\n      dup2\n        /* \"#utility.yul\":14795:14926   */\n      tag_247\n      jump\t// in\n    tag_415:\n        /* \"#utility.yul\":14787:14926   */\n      swap1\n      pop\n        /* \"#utility.yul\":14514:14933   */\n      swap2\n      swap1\n      pop\n      jump\t// out\n        /* \"#utility.yul\":14939:15110   */\n    tag_248:\n        /* \"#utility.yul\":15079:15102   */\n      0x496e646578206973206f75742d6f662d626f756e640000000000000000000000\n        /* \"#utility.yul\":15075:15076   */\n      0x00\n        /* \"#utility.yul\":15067:15073   */\n      dup3\n        /* \"#utility.yul\":15063:15077   */\n      add\n        /* \"#utility.yul\":15056:15103   */\n      mstore\n        /* \"#utility.yul\":14939:15110   */\n      pop\n      jump\t// out\n        /* \"#utility.yul\":15116:15482   */\n    tag_249:\n        /* \"#utility.yul\":15258:15261   */\n      0x00\n        /* \"#utility.yul\":15279:15346   */\n      tag_418\n        /* \"#utility.yul\":15343:15345   */\n      0x15\n        /* \"#utility.yul\":15338:15341   */\n      dup4\n        /* \"#utility.yul\":15279:15346   */\n      tag_241\n      jump\t// in\n    tag_418:\n        /* \"#utility.yul\":15272:15346   */\n      swap2\n      pop\n        /* \"#utility.yul\":15355:15448   */\n      tag_419\n        /* \"#utility.yul\":15444:15447   */\n      dup3\n        /* \"#utility.yul\":15355:15448   */\n      tag_248\n      jump\t// in\n    tag_419:\n        /* \"#utility.yul\":15473:15475   */\n      0x20\n        /* \"#utility.yul\":15468:15471   */\n      dup3\n        /* \"#utility.yul\":15464:15476   */\n      add\n        /* \"#utility.yul\":15457:15476   */\n      swap1\n      pop\n        /* \"#utility.yul\":15116:15482   */\n      swap2\n      swap1\n      pop\n      jump\t// out\n        /* \"#utility.yul\":15488:15907   */\n    tag_59:\n        /* \"#utility.yul\":15654:15658   */\n      0x00\n        /* \"#utility.yul\":15692:15694   */\n      0x20\n        /* \"#utility.yul\":15681:15690   */\n      dup3\n        /* \"#utility.yul\":15677:15695   */\n      add\n        /* \"#utility.yul\":15669:15695   */\n      swap1\n      pop\n        /* \"#utility.yul\":15741:15750   */\n      dup2\n        /* \"#utility.yul\":15735:15739   */\n      dup2\n        /* \"#utility.yul\":15731:15751   */\n      sub\n        /* \"#utility.yul\":15727:15728   */\n      0x00\n        /* \"#utility.yul\":15716:15725   */\n      dup4\n        /* \"#utility.yul\":15712:15729   */\n      add\n        /* \"#utility.yul\":15705:15752   */\n      mstore\n        /* \"#utility.yul\":15769:15900   */\n      tag_421\n        /* \"#utility.yul\":15895:15899   */\n      dup2\n        /* \"#utility.yul\":15769:15900   */\n      tag_249\n      jump\t// in\n    tag_421:\n        /* \"#utility.yul\":15761:15900   */\n      swap1\n      pop\n        /* \"#utility.yul\":15488:15907   */\n      swap2\n      swap1\n      pop\n      jump\t// out\n        /* \"#utility.yul\":15913:16093   */\n    tag_250:\n        /* \"#utility.yul\":15961:16038   */\n      0x4e487b7100000000000000000000000000000000000000000000000000000000\n        /* \"#utility.yul\":15958:15959   */\n      0x00\n        /* \"#utility.yul\":15951:16039   */\n      mstore\n        /* \"#utility.yul\":16058:16062   */\n      0x11\n        /* \"#utility.yul\":16055:16056   */\n      0x04\n        /* \"#utility.yul\":16048:16063   */\n      mstore\n        /* \"#utility.yul\":16082:16086   */\n      0x24\n        /* \"#utility.yul\":16079:16080   */\n      0x00\n        /* \"#utility.yul\":16072:16087   */\n      revert\n        /* \"#utility.yul\":16099:16293   */\n    tag_61:\n        /* \"#utility.yul\":16139:16143   */\n      0x00\n        /* \"#utility.yul\":16159:16179   */\n      tag_424\n        /* \"#utility.yul\":16177:16178   */\n      dup3\n        /* \"#utility.yul\":16159:16179   */\n      tag_238\n      jump\t// in\n    tag_424:\n        /* \"#utility.yul\":16154:16179   */\n      swap2\n      pop\n        /* \"#utility.yul\":16193:16213   */\n      tag_425\n        /* \"#utility.yul\":16211:16212   */\n      dup4\n        /* \"#utility.yul\":16193:16213   */\n      tag_238\n      jump\t// in\n    tag_425:\n        /* \"#utility.yul\":16188:16213   */\n      swap3\n      pop\n        /* \"#utility.yul\":16237:16238   */\n      dup3\n        /* \"#utility.yul\":16234:16235   */\n      dup3\n        /* \"#utility.yul\":16230:16239   */\n      sub\n        /* \"#utility.yul\":16222:16239   */\n      swap1\n      pop\n        /* \"#utility.yul\":16261:16262   */\n      dup2\n        /* \"#utility.yul\":16255:16259   */\n      dup2\n        /* \"#utility.yul\":16252:16263   */\n      gt\n        /* \"#utility.yul\":16249:16286   */\n      iszero\n      tag_426\n      jumpi\n        /* \"#utility.yul\":16266:16284   */\n      tag_427\n      tag_250\n      jump\t// in\n    tag_427:\n        /* \"#utility.yul\":16249:16286   */\n    tag_426:\n        /* \"#utility.yul\":16099:16293   */\n      swap3\n      swap2\n      pop\n      pop\n      jump\t// out\n        /* \"#utility.yul\":16299:16479   */\n    tag_64:\n        /* \"#utility.yul\":16347:16424   */\n      0x4e487b7100000000000000000000000000000000000000000000000000000000\n        /* \"#utility.yul\":16344:16345   */\n      0x00\n        /* \"#utility.yul\":16337:16425   */\n      mstore\n        /* \"#utility.yul\":16444:16448   */\n      0x32\n        /* \"#utility.yul\":16441:16442   */\n      0x04\n        /* \"#utility.yul\":16434:16449   */\n      mstore\n        /* \"#utility.yul\":16468:16472   */\n      0x24\n        /* \"#utility.yul\":16465:16466   */\n      0x00\n        /* \"#utility.yul\":16458:16473   */\n      revert\n        /* \"#utility.yul\":16485:16665   */\n    tag_251:\n        /* \"#utility.yul\":16533:16610   */\n      0x4e487b7100000000000000000000000000000000000000000000000000000000\n        /* \"#utility.yul\":16530:16531   */\n      0x00\n        /* \"#utility.yul\":16523:16611   */\n      mstore\n        /* \"#utility.yul\":16630:16634   */\n      0x22\n        /* \"#utility.yul\":16627:16628   */\n      0x04\n        /* \"#utility.yul\":16620:16635   */\n      mstore\n        /* \"#utility.yul\":16654:16658   */\n      0x24\n        /* \"#utility.yul\":16651:16652   */\n      0x00\n        /* \"#utility.yul\":16644:16659   */\n      revert\n        /* \"#utility.yul\":16671:16991   */\n    tag_126:\n        /* \"#utility.yul\":16715:16721   */\n      0x00\n        /* \"#utility.yul\":16752:16753   */\n      0x02\n        /* \"#utility.yul\":16746:16750   */\n      dup3\n        /* \"#utility.yul\":16742:16754   */\n      div\n        /* \"#utility.yul\":16732:16754   */\n      swap1\n      pop\n        /* \"#utility.yul\":16799:16800   */\n      0x01\n        /* \"#utility.yul\":16793:16797   */\n      dup3\n        /* \"#utility.yul\":16789:16801   */\n      and\n        /* \"#utility.yul\":16820:16838   */\n      dup1\n        /* \"#utility.yul\":16810:16891   */\n      tag_431\n      jumpi\n        /* \"#utility.yul\":16876:16880   */\n      0x7f\n        /* \"#utility.yul\":16868:16874   */\n      dup3\n        /* \"#utility.yul\":16864:16881   */\n      and\n        /* \"#utility.yul\":16854:16881   */\n      swap2\n      pop\n        /* \"#utility.yul\":16810:16891   */\n    tag_431:\n        /* \"#utility.yul\":16938:16940   */\n      0x20\n        /* \"#utility.yul\":16930:16936   */\n      dup3\n        /* \"#utility.yul\":16927:16941   */\n      lt\n        /* \"#utility.yul\":16907:16925   */\n      dup2\n        /* \"#utility.yul\":16904:16942   */\n      sub\n        /* \"#utility.yul\":16901:16985   */\n      tag_432\n      jumpi\n        /* \"#utility.yul\":16957:16975   */\n      tag_433\n      tag_251\n      jump\t// in\n    tag_433:\n        /* \"#utility.yul\":16901:16985   */\n    tag_432:\n        /* \"#utility.yul\":16722:16991   */\n      pop\n        /* \"#utility.yul\":16671:16991   */\n      swap2\n      swap1\n      pop\n      jump\t// out\n        /* \"#utility.yul\":16997:17146   */\n    tag_252:\n        /* \"#utility.yul\":17046:17052   */\n      0x00\n        /* \"#utility.yul\":17080:17085   */\n      dup2\n        /* \"#utility.yul\":17074:17086   */\n      sload\n        /* \"#utility.yul\":17064:17086   */\n      swap1\n      pop\n        /* \"#utility.yul\":17106:17139   */\n      tag_435\n        /* \"#utility.yul\":17132:17138   */\n      dup2\n        /* \"#utility.yul\":17106:17139   */\n      tag_126\n      jump\t// in\n    tag_435:\n        /* \"#utility.yul\":17096:17139   */\n      swap1\n      pop\n        /* \"#utility.yul\":16997:17146   */\n      swap2\n      swap1\n      pop\n      jump\t// out\n        /* \"#utility.yul\":17152:17293   */\n    tag_253:\n        /* \"#utility.yul\":17201:17205   */\n      0x00\n        /* \"#utility.yul\":17224:17227   */\n      dup2\n        /* \"#utility.yul\":17216:17227   */\n      swap1\n      pop\n        /* \"#utility.yul\":17247:17250   */\n      dup2\n        /* \"#utility.yul\":17244:17245   */\n      0x00\n        /* \"#utility.yul\":17237:17251   */\n      mstore\n        /* \"#utility.yul\":17281:17285   */\n      0x20\n        /* \"#utility.yul\":17278:17279   */\n      0x00\n        /* \"#utility.yul\":17268:17286   */\n      keccak256\n        /* \"#utility.yul\":17260:17286   */\n      swap1\n      pop\n        /* \"#utility.yul\":17152:17293   */\n      swap2\n      swap1\n      pop\n      jump\t// out\n        /* \"#utility.yul\":17299:17392   */\n    tag_254:\n        /* \"#utility.yul\":17336:17342   */\n      0x00\n        /* \"#utility.yul\":17383:17385   */\n      0x20\n        /* \"#utility.yul\":17378:17380   */\n      0x1f\n        /* \"#utility.yul\":17371:17376   */\n      dup4\n        /* \"#utility.yul\":17367:17381   */\n      add\n        /* \"#utility.yul\":17363:17386   */\n      div\n        /* \"#utility.yul\":17353:17386   */\n      swap1\n      pop\n        /* \"#utility.yul\":17299:17392   */\n      swap2\n      swap1\n      pop\n      jump\t// out\n        /* \"#utility.yul\":17398:17505   */\n    tag_255:\n        /* \"#utility.yul\":17442:17450   */\n      0x00\n        /* \"#utility.yul\":17492:17497   */\n      dup3\n        /* \"#utility.yul\":17486:17490   */\n      dup3\n        /* \"#utility.yul\":17482:17498   */\n      shl\n        /* \"#utility.yul\":17461:17498   */\n      swap1\n      pop\n        /* \"#utility.yul\":17398:17505   */\n      swap3\n      swap2\n      pop\n      pop\n      jump\t// out\n        /* \"#utility.yul\":17511:17904   */\n    tag_256:\n        /* \"#utility.yul\":17580:17586   */\n      0x00\n        /* \"#utility.yul\":17630:17631   */\n      0x08\n        /* \"#utility.yul\":17618:17628   */\n      dup4\n        /* \"#utility.yul\":17614:17632   */\n      mul\n        /* \"#utility.yul\":17653:17750   */\n      tag_440\n        /* \"#utility.yul\":17683:17749   */\n      0xffffffffffffffffffffffffffffffffffffffffffffffffffffffffffffffff\n        /* \"#utility.yul\":17672:17681   */\n      dup3\n        /* \"#utility.yul\":17653:17750   */\n      tag_255\n      jump\t// in\n    tag_440:\n        /* \"#utility.yul\":17771:17810   */\n      tag_441\n        /* \"#utility.yul\":17801:17809   */\n      dup7\n        /* \"#utility.yul\":17790:17799   */\n      dup4\n        /* \"#utility.yul\":17771:17810   */\n      tag_255\n      jump\t// in\n    tag_441:\n        /* \"#utility.yul\":17759:17810   */\n      swap6\n      pop\n        /* \"#utility.yul\":17843:17847   */\n      dup1\n        /* \"#utility.yul\":17839:17848   */\n      not\n        /* \"#utility.yul\":17832:17837   */\n      dup5\n        /* \"#utility.yul\":17828:17849   */\n      and\n        /* \"#utility.yul\":17819:17849   */\n      swap4\n      pop\n        /* \"#utility.yul\":17892:17896   */\n      dup1\n        /* \"#utility.yul\":17882:17890   */\n      dup7\n        /* \"#utility.yul\":17878:17897   */\n      and\n        /* \"#utility.yul\":17871:17876   */\n      dup5\n        /* \"#utility.yul\":17868:17898   */\n      or\n        /* \"#utility.yul\":17858:17898   */\n      swap3\n      pop\n        /* \"#utility.yul\":17587:17904   */\n      pop\n      pop\n        /* \"#utility.yul\":17511:17904   */\n      swap4\n      swap3\n      pop\n      pop\n      pop\n      jump\t// out\n        /* \"#utility.yul\":17910:17970   */\n    tag_257:\n        /* \"#utility.yul\":17938:17941   */\n      0x00\n        /* \"#utility.yul\":17959:17964   */\n      dup2\n        /* \"#utility.yul\":17952:17964   */\n      swap1\n      pop\n        /* \"#utility.yul\":17910:17970   */\n      swap2\n      swap1\n      pop\n      jump\t// out\n        /* \"#utility.yul\":17976:18118   */\n    tag_258:\n        /* \"#utility.yul\":18026:18035   */\n      0x00\n        /* \"#utility.yul\":18059:18112   */\n      tag_444\n        /* \"#utility.yul\":18077:18111   */\n      tag_445\n        /* \"#utility.yul\":18086:18110   */\n      tag_446\n        /* \"#utility.yul\":18104:18109   */\n      dup5\n        /* \"#utility.yul\":18086:18110   */\n      tag_238\n      jump\t// in\n    tag_446:\n        /* \"#utility.yul\":18077:18111   */\n      tag_257\n      jump\t// in\n    tag_445:\n        /* \"#utility.yul\":18059:18112   */\n      tag_238\n      jump\t// in\n    tag_444:\n        /* \"#utility.yul\":18046:18112   */\n      swap1\n      pop\n        /* \"#utility.yul\":17976:18118   */\n      swap2\n      swap1\n      pop\n      jump\t// out\n        /* \"#utility.yul\":18124:18199   */\n    tag_259:\n        /* \"#utility.yul\":18167:18170   */\n      0x00\n        /* \"#utility.yul\":18188:18193   */\n      dup2\n        /* \"#utility.yul\":18181:18193   */\n      swap1\n      pop\n        /* \"#utility.yul\":18124:18199   */\n      swap2\n      swap1\n      pop\n      jump\t// out\n        /* \"#utility.yul\":18205:18474   */\n    tag_260:\n        /* \"#utility.yul\":18315:18354   */\n      tag_449\n        /* \"#utility.yul\":18346:18353   */\n      dup4\n        /* \"#utility.yul\":18315:18354   */\n      tag_258\n      jump\t// in\n    tag_449:\n        /* \"#utility.yul\":18376:18467   */\n      tag_450\n        /* \"#utility.yul\":18425:18466   */\n      tag_451\n        /* \"#utility.yul\":18449:18465   */\n      dup3\n        /* \"#utility.yul\":18425:18466   */\n      tag_259\n      jump\t// in\n    tag_451:\n        /* \"#utility.yul\":18417:18423   */\n      dup5\n        /* \"#utility.yul\":18410:18414   */\n      dup5\n        /* \"#utility.yul\":18404:18415   */\n      sload\n        /* \"#utility.yul\":18376:18467   */\n      tag_256\n      jump\t// in\n    tag_450:\n        /* \"#utility.yul\":18370:18374   */\n      dup3\n        /* \"#utility.yul\":18363:18468   */\n      sstore\n        /* \"#utility.yul\":18281:18474   */\n      pop\n        /* \"#utility.yul\":18205:18474   */\n      pop\n      pop\n      pop\n      jump\t// out\n        /* \"#utility.yul\":18480:18553   */\n    tag_261:\n        /* \"#utility.yul\":18525:18528   */\n      0x00\n        /* \"#utility.yul\":18546:18547   */\n      0x00\n        /* \"#utility.yul\":18539:18547   */\n      swap1\n      pop\n        /* \"#utility.yul\":18480:18553   */\n      swap1\n      jump\t// out\n        /* \"#utility.yul\":18559:18748   */\n    tag_262:\n        /* \"#utility.yul\":18636:18668   */\n      tag_454\n      tag_261\n      jump\t// in\n    tag_454:\n        /* \"#utility.yul\":18677:18742   */\n      tag_455\n        /* \"#utility.yul\":18735:18741   */\n      dup2\n        /* \"#utility.yul\":18727:18733   */\n      dup5\n        /* \"#utility.yul\":18721:18725   */\n      dup5\n        /* \"#utility.yul\":18677:18742   */\n      tag_260\n      jump\t// in\n    tag_455:\n        /* \"#utility.yul\":18612:18748   */\n      pop\n        /* \"#utility.yul\":18559:18748   */\n      pop\n      pop\n      jump\t// out\n        /* \"#utility.yul\":18754:18940   */\n    tag_263:\n        /* \"#utility.yul\":18814:18934   */\n    tag_457:\n        /* \"#utility.yul\":18831:18834   */\n      dup2\n        /* \"#utility.yul\":18824:18829   */\n      dup2\n        /* \"#utility.yul\":18821:18835   */\n      lt\n        /* \"#utility.yul\":18814:18934   */\n      iszero\n      tag_459\n      jumpi\n        /* \"#utility.yul\":18885:18924   */\n      tag_460\n        /* \"#utility.yul\":18922:18923   */\n      0x00\n        /* \"#utility.yul\":18915:18920   */\n      dup3\n        /* \"#utility.yul\":18885:18924   */\n      tag_262\n      jump\t// in\n    tag_460:\n        /* \"#utility.yul\":18858:18859   */\n      0x01\n        /* \"#utility.yul\":18851:18856   */\n      dup2\n        /* \"#utility.yul\":18847:18860   */\n      add\n        /* \"#utility.yul\":18838:18860   */\n      swap1\n      pop\n        /* \"#utility.yul\":18814:18934   */\n      jump(tag_457)\n    tag_459:\n        /* \"#utility.yul\":18754:18940   */\n      pop\n      pop\n      jump\t// out\n        /* \"#utility.yul\":18946:19489   */\n    tag_264:\n        /* \"#utility.yul\":19047:19049   */\n      0x1f\n        /* \"#utility.yul\":19042:19045   */\n      dup3\n        /* \"#utility.yul\":19039:19050   */\n      gt\n        /* \"#utility.yul\":19036:19482   */\n      iszero\n      tag_462\n      jumpi\n        /* \"#utility.yul\":19081:19119   */\n      tag_463\n        /* \"#utility.yul\":19113:19118   */\n      dup2\n        /* \"#utility.yul\":19081:19119   */\n      tag_253\n      jump\t// in\n    tag_463:\n        /* \"#utility.yul\":19165:19194   */\n      tag_464\n        /* \"#utility.yul\":19183:19193   */\n      dup5\n        /* \"#utility.yul\":19165:19194   */\n      tag_254\n      jump\t// in\n    tag_464:\n        /* \"#utility.yul\":19155:19163   */\n      dup2\n        /* \"#utility.yul\":19151:19195   */\n      add\n        /* \"#utility.yul\":19348:19350   */\n      0x20\n        /* \"#utility.yul\":19336:19346   */\n      dup6\n        /* \"#utility.yul\":19333:19351   */\n      lt\n        /* \"#utility.yul\":19330:19379   */\n      iszero\n      tag_465\n      jumpi\n        /* \"#utility.yul\":19369:19377   */\n      dup2\n        /* \"#utility.yul\":19354:19377   */\n      swap1\n      pop\n        /* \"#utility.yul\":19330:19379   */\n    tag_465:\n        /* \"#utility.yul\":19392:19472   */\n      tag_466\n        /* \"#utility.yul\":19448:19470   */\n      tag_467\n        /* \"#utility.yul\":19466:19469   */\n      dup6\n        /* \"#utility.yul\":19448:19470   */\n      tag_254\n      jump\t// in\n    tag_467:\n        /* \"#utility.yul\":19438:19446   */\n      dup4\n        /* \"#utility.yul\":19434:19471   */\n      add\n        /* \"#utility.yul\":19421:19432   */\n      dup3\n        /* \"#utility.yul\":19392:19472   */\n      tag_263\n      jump\t// in\n    tag_466:\n        /* \"#utility.yul\":19051:19482   */\n      pop\n      pop\n        /* \"#utility.yul\":19036:19482   */\n    tag_462:\n        /* \"#utility.yul\":18946:19489   */\n      pop\n      pop\n      pop\n      jump\t// out\n        /* \"#utility.yul\":19495:19612   */\n    tag_265:\n        /* \"#utility.yul\":19549:19557   */\n      0x00\n        /* \"#utility.yul\":19599:19604   */\n      dup3\n        /* \"#utility.yul\":19593:19597   */\n      dup3\n        /* \"#utility.yul\":19589:19605   */\n      shr\n        /* \"#utility.yul\":19568:19605   */\n      swap1\n      pop\n        /* \"#utility.yul\":19495:19612   */\n      swap3\n      swap2\n      pop\n      pop\n      jump\t// out\n        /* \"#utility.yul\":19618:19787   */\n    tag_266:\n        /* \"#utility.yul\":19662:19668   */\n      0x00\n        /* \"#utility.yul\":19695:19746   */\n      tag_470\n        /* \"#utility.yul\":19743:19744   */\n      0x00\n        /* \"#utility.yul\":19739:19745   */\n      not\n        /* \"#utility.yul\":19731:19736   */\n      dup5\n        /* \"#utility.yul\":19728:19729   */\n      0x08\n        /* \"#utility.yul\":19724:19737   */\n      mul\n        /* \"#utility.yul\":19695:19746   */\n      tag_265\n      jump\t// in\n    tag_470:\n        /* \"#utility.yul\":19691:19747   */\n      not\n        /* \"#utility.yul\":19776:19780   */\n      dup1\n        /* \"#utility.yul\":19770:19774   */\n      dup4\n        /* \"#utility.yul\":19766:19781   */\n      and\n        /* \"#utility.yul\":19756:19781   */\n      swap2\n      pop\n        /* \"#utility.yul\":19669:19787   */\n      pop\n        /* \"#utility.yul\":19618:19787   */\n      swap3\n      swap2\n      pop\n      pop\n      jump\t// out\n        /* \"#utility.yul\":19792:20087   */\n    tag_267:\n        /* \"#utility.yul\":19868:19872   */\n      0x00\n        /* \"#utility.yul\":20014:20043   */\n      tag_472\n        /* \"#utility.yul\":20039:20042   */\n      dup4\n        /* \"#utility.yul\":20033:20037   */\n      dup4\n        /* \"#utility.yul\":20014:20043   */\n      tag_266\n      jump\t// in\n    tag_472:\n        /* \"#utility.yul\":20006:20043   */\n      swap2\n      pop\n        /* \"#utility.yul\":20076:20079   */\n      dup3\n        /* \"#utility.yul\":20073:20074   */\n      0x02\n        /* \"#utility.yul\":20069:20080   */\n      mul\n        /* \"#utility.yul\":20063:20067   */\n      dup3\n        /* \"#utility.yul\":20060:20081   */\n      or\n        /* \"#utility.yul\":20052:20081   */\n      swap1\n      pop\n        /* \"#utility.yul\":19792:20087   */\n      swap3\n      swap2\n      pop\n      pop\n      jump\t// out\n        /* \"#utility.yul\":20092:21543   */\n    tag_70:\n        /* \"#utility.yul\":20203:20206   */\n      dup2\n        /* \"#utility.yul\":20197:20201   */\n      dup2\n        /* \"#utility.yul\":20194:20207   */\n      sub\n        /* \"#utility.yul\":20191:20217   */\n      tag_474\n      jumpi\n        /* \"#utility.yul\":20210:20215   */\n      pop\n      pop\n      jump(tag_473)\n        /* \"#utility.yul\":20191:20217   */\n    tag_474:\n        /* \"#utility.yul\":20241:20275   */\n      tag_475\n        /* \"#utility.yul\":20271:20274   */\n      dup3\n        /* \"#utility.yul\":20241:20275   */\n      tag_252\n      jump\t// in\n    tag_475:\n        /* \"#utility.yul\":20340:20358   */\n      0xffffffffffffffff\n        /* \"#utility.yul\":20332:20338   */\n      dup2\n        /* \"#utility.yul\":20329:20359   */\n      gt\n        /* \"#utility.yul\":20326:20382   */\n      iszero\n      tag_476\n      jumpi\n        /* \"#utility.yul\":20362:20380   */\n      tag_477\n      tag_211\n      jump\t// in\n    tag_477:\n        /* \"#utility.yul\":20326:20382   */\n    tag_476:\n        /* \"#utility.yul\":20406:20444   */\n      tag_478\n        /* \"#utility.yul\":20438:20442   */\n      dup3\n        /* \"#utility.yul\":20432:20443   */\n      sload\n        /* \"#utility.yul\":20406:20444   */\n      tag_126\n      jump\t// in\n    tag_478:\n        /* \"#utility.yul\":20491:20558   */\n      tag_479\n        /* \"#utility.yul\":20551:20557   */\n      dup3\n        /* \"#utility.yul\":20543:20549   */\n      dup3\n        /* \"#utility.yul\":20537:20541   */\n      dup6\n        /* \"#utility.yul\":20491:20558   */\n      tag_264\n      jump\t// in\n    tag_479:\n        /* \"#utility.yul\":20585:20586   */\n      0x00\n        /* \"#utility.yul\":20614:20616   */\n      0x1f\n        /* \"#utility.yul\":20606:20612   */\n      dup4\n        /* \"#utility.yul\":20603:20617   */\n      gt\n        /* \"#utility.yul\":20631:20632   */\n      0x01\n        /* \"#utility.yul\":20626:21298   */\n      dup2\n      eq\n      tag_481\n      jumpi\n        /* \"#utility.yul\":21342:21343   */\n      0x00\n        /* \"#utility.yul\":21359:21365   */\n      dup5\n        /* \"#utility.yul\":21356:21433   */\n      iszero\n      tag_482\n      jumpi\n        /* \"#utility.yul\":21408:21417   */\n      dup3\n        /* \"#utility.yul\":21403:21406   */\n      dup8\n        /* \"#utility.yul\":21399:21418   */\n      add\n        /* \"#utility.yul\":21393:21419   */\n      sload\n        /* \"#utility.yul\":21384:21419   */\n      swap1\n      pop\n        /* \"#utility.yul\":21356:21433   */\n    tag_482:\n        /* \"#utility.yul\":21459:21526   */\n      tag_483\n        /* \"#utility.yul\":21519:21525   */\n      dup6\n        /* \"#utility.yul\":21512:21517   */\n      dup3\n        /* \"#utility.yul\":21459:21526   */\n      tag_267\n      jump\t// in\n    tag_483:\n        /* \"#utility.yul\":21453:21457   */\n      dup7\n        /* \"#utility.yul\":21446:21527   */\n      sstore\n        /* \"#utility.yul\":21315:21537   */\n      pop\n        /* \"#utility.yul\":20596:21537   */\n      jump(tag_480)\n        /* \"#utility.yul\":20626:21298   */\n    tag_481:\n        /* \"#utility.yul\":20678:20682   */\n      0x1f\n        /* \"#utility.yul\":20674:20683   */\n      not\n        /* \"#utility.yul\":20666:20672   */\n      dup5\n        /* \"#utility.yul\":20662:20684   */\n      and\n        /* \"#utility.yul\":20704:20740   */\n      tag_484\n        /* \"#utility.yul\":20736:20739   */\n      dup8\n        /* \"#utility.yul\":20704:20740   */\n      tag_253\n      jump\t// in\n    tag_484:\n        /* \"#utility.yul\":20697:20740   */\n      swap7\n      pop\n        /* \"#utility.yul\":20767:20804   */\n      tag_485\n        /* \"#utility.yul\":20799:20803   */\n      dup7\n        /* \"#utility.yul\":20767:20804   */\n      tag_253\n      jump\t// in\n    tag_485:\n        /* \"#utility.yul\":20826:20827   */\n      0x00\n        /* \"#utility.yul\":20840:21047   */\n    tag_486:\n        /* \"#utility.yul\":20854:20861   */\n      dup3\n        /* \"#utility.yul\":20851:20852   */\n      dup2\n        /* \"#utility.yul\":20848:20862   */\n      lt\n        /* \"#utility.yul\":20840:21047   */\n      iszero\n      tag_488\n      jumpi\n        /* \"#utility.yul\":20933:20942   */\n      dup5\n        /* \"#utility.yul\":20928:20931   */\n      dup10\n        /* \"#utility.yul\":20924:20943   */\n      add\n        /* \"#utility.yul\":20918:20944   */\n      sload\n        /* \"#utility.yul\":20910:20916   */\n      dup3\n        /* \"#utility.yul\":20903:20945   */\n      sstore\n        /* \"#utility.yul\":20984:20985   */\n      0x01\n        /* \"#utility.yul\":20976:20982   */\n      dup3\n        /* \"#utility.yul\":20972:20986   */\n      add\n        /* \"#utility.yul\":20962:20986   */\n      swap2\n      pop\n        /* \"#utility.yul\":21031:21032   */\n      0x01\n        /* \"#utility.yul\":21020:21029   */\n      dup6\n        /* \"#utility.yul\":21016:21033   */\n      add\n        /* \"#utility.yul\":21003:21033   */\n      swap5\n      pop\n        /* \"#utility.yul\":20877:20881   */\n      0x20\n        /* \"#utility.yul\":20874:20875   */\n      dup2\n        /* \"#utility.yul\":20870:20882   */\n      add\n        /* \"#utility.yul\":20865:20882   */\n      swap1\n      pop\n        /* \"#utility.yul\":20840:21047   */\n      jump(tag_486)\n    tag_488:\n        /* \"#utility.yul\":21075:21081   */\n      dup7\n        /* \"#utility.yul\":21066:21073   */\n      dup4\n        /* \"#utility.yul\":21063:21082   */\n      lt\n        /* \"#utility.yul\":21060:21239   */\n      iszero\n      tag_489\n      jumpi\n        /* \"#utility.yul\":21133:21142   */\n      dup5\n        /* \"#utility.yul\":21128:21131   */\n      dup10\n        /* \"#utility.yul\":21124:21143   */\n      add\n        /* \"#utility.yul\":21118:21144   */\n      sload\n        /* \"#utility.yul\":21176:21224   */\n      tag_490\n        /* \"#utility.yul\":21218:21222   */\n      0x1f\n        /* \"#utility.yul\":21210:21216   */\n      dup10\n        /* \"#utility.yul\":21206:21223   */\n      and\n        /* \"#utility.yul\":21195:21204   */\n      dup3\n        /* \"#utility.yul\":21176:21224   */\n      tag_266\n      jump\t// in\n    tag_490:\n        /* \"#utility.yul\":21168:21174   */\n      dup4\n        /* \"#utility.yul\":21161:21225   */\n      sstore\n        /* \"#utility.yul\":21083:21239   */\n      pop\n        /* \"#utility.yul\":21060:21239   */\n    tag_489:\n        /* \"#utility.yul\":21285:21286   */\n      0x01\n        /* \"#utility.yul\":21281:21282   */\n      0x02\n        /* \"#utility.yul\":21273:21279   */\n      dup9\n        /* \"#utility.yul\":21269:21283   */\n      mul\n        /* \"#utility.yul\":21265:21287   */\n      add\n        /* \"#utility.yul\":21259:21263   */\n      dup9\n        /* \"#utility.yul\":21252:21288   */\n      sstore\n        /* \"#utility.yul\":20633:21298   */\n      pop\n      pop\n      pop\n        /* \"#utility.yul\":20596:21537   */\n    tag_480:\n      pop\n        /* \"#utility.yul\":20181:21543   */\n      pop\n      pop\n      pop\n        /* \"#utility.yul\":20092:21543   */\n      pop\n      pop\n    tag_473:\n      jump\t// out\n        /* \"#utility.yul\":21549:21729   */\n    tag_77:\n        /* \"#utility.yul\":21597:21674   */\n      0x4e487b7100000000000000000000000000000000000000000000000000000000\n        /* \"#utility.yul\":21594:21595   */\n      0x00\n        /* \"#utility.yul\":21587:21675   */\n      mstore\n        /* \"#utility.yul\":21694:21698   */\n      0x31\n        /* \"#utility.yul\":21691:21692   */\n      0x04\n        /* \"#utility.yul\":21684:21699   */\n      mstore\n        /* \"#utility.yul\":21718:21722   */\n      0x24\n        /* \"#utility.yul\":21715:21716   */\n      0x00\n        /* \"#utility.yul\":21708:21723   */\n      revert\n        /* \"#utility.yul\":21735:23130   */\n    tag_97:\n        /* \"#utility.yul\":21852:21889   */\n      tag_493\n        /* \"#utility.yul\":21885:21888   */\n      dup3\n        /* \"#utility.yul\":21852:21889   */\n      tag_226\n      jump\t// in\n    tag_493:\n        /* \"#utility.yul\":21954:21972   */\n      0xffffffffffffffff\n        /* \"#utility.yul\":21946:21952   */\n      dup2\n        /* \"#utility.yul\":21943:21973   */\n      gt\n        /* \"#utility.yul\":21940:21996   */\n      iszero\n      tag_494\n      jumpi\n        /* \"#utility.yul\":21976:21994   */\n      tag_495\n      tag_211\n      jump\t// in\n    tag_495:\n        /* \"#utility.yul\":21940:21996   */\n    tag_494:\n        /* \"#utility.yul\":22020:22058   */\n      tag_496\n        /* \"#utility.yul\":22052:22056   */\n      dup3\n        /* \"#utility.yul\":22046:22057   */\n      sload\n        /* \"#utility.yul\":22020:22058   */\n      tag_126\n      jump\t// in\n    tag_496:\n        /* \"#utility.yul\":22105:22172   */\n      tag_497\n        /* \"#utility.yul\":22165:22171   */\n      dup3\n        /* \"#utility.yul\":22157:22163   */\n      dup3\n        /* \"#utility.yul\":22151:22155   */\n      dup6\n        /* \"#utility.yul\":22105:22172   */\n      tag_264\n      jump\t// in\n    tag_497:\n        /* \"#utility.yul\":22199:22200   */\n      0x00\n        /* \"#utility.yul\":22223:22227   */\n      0x20\n        /* \"#utility.yul\":22210:22227   */\n      swap1\n      pop\n        /* \"#utility.yul\":22255:22257   */\n      0x1f\n        /* \"#utility.yul\":22247:22253   */\n      dup4\n        /* \"#utility.yul\":22244:22258   */\n      gt\n        /* \"#utility.yul\":22272:22273   */\n      0x01\n        /* \"#utility.yul\":22267:22885   */\n      dup2\n      eq\n      tag_499\n      jumpi\n        /* \"#utility.yul\":22929:22930   */\n      0x00\n        /* \"#utility.yul\":22946:22952   */\n      dup5\n        /* \"#utility.yul\":22943:23020   */\n      iszero\n      tag_500\n      jumpi\n        /* \"#utility.yul\":22995:23004   */\n      dup3\n        /* \"#utility.yul\":22990:22993   */\n      dup8\n        /* \"#utility.yul\":22986:23005   */\n      add\n        /* \"#utility.yul\":22980:23006   */\n      mload\n        /* \"#utility.yul\":22971:23006   */\n      swap1\n      pop\n        /* \"#utility.yul\":22943:23020   */\n    tag_500:\n        /* \"#utility.yul\":23046:23113   */\n      tag_501\n        /* \"#utility.yul\":23106:23112   */\n      dup6\n        /* \"#utility.yul\":23099:23104   */\n      dup3\n        /* \"#utility.yul\":23046:23113   */\n      tag_267\n      jump\t// in\n    tag_501:\n        /* \"#utility.yul\":23040:23044   */\n      dup7\n        /* \"#utility.yul\":23033:23114   */\n      sstore\n        /* \"#utility.yul\":22902:23124   */\n      pop\n        /* \"#utility.yul\":22237:23124   */\n      jump(tag_498)\n        /* \"#utility.yul\":22267:22885   */\n    tag_499:\n        /* \"#utility.yul\":22319:22323   */\n      0x1f\n        /* \"#utility.yul\":22315:22324   */\n      not\n        /* \"#utility.yul\":22307:22313   */\n      dup5\n        /* \"#utility.yul\":22303:22325   */\n      and\n        /* \"#utility.yul\":22353:22390   */\n      tag_502\n        /* \"#utility.yul\":22385:22389   */\n      dup7\n        /* \"#utility.yul\":22353:22390   */\n      tag_253\n      jump\t// in\n    tag_502:\n        /* \"#utility.yul\":22412:22413   */\n      0x00\n        /* \"#utility.yul\":22426:22634   */\n    tag_503:\n        /* \"#utility.yul\":22440:22447   */\n      dup3\n        /* \"#utility.yul\":22437:22438   */\n      dup2\n        /* \"#utility.yul\":22434:22448   */\n      lt\n        /* \"#utility.yul\":22426:22634   */\n      iszero\n      tag_505\n      jumpi\n        /* \"#utility.yul\":22519:22528   */\n      dup5\n        /* \"#utility.yul\":22514:22517   */\n      dup10\n        /* \"#utility.yul\":22510:22529   */\n      add\n        /* \"#utility.yul\":22504:22530   */\n      mload\n        /* \"#utility.yul\":22496:22502   */\n      dup3\n        /* \"#utility.yul\":22489:22531   */\n      sstore\n        /* \"#utility.yul\":22570:22571   */\n      0x01\n        /* \"#utility.yul\":22562:22568   */\n      dup3\n        /* \"#utility.yul\":22558:22572   */\n      add\n        /* \"#utility.yul\":22548:22572   */\n      swap2\n      pop\n        /* \"#utility.yul\":22617:22619   */\n      0x20\n        /* \"#utility.yul\":22606:22615   */\n      dup6\n        /* \"#utility.yul\":22602:22620   */\n      add\n        /* \"#utility.yul\":22589:22620   */\n      swap5\n      pop\n        /* \"#utility.yul\":22463:22467   */\n      0x20\n        /* \"#utility.yul\":22460:22461   */\n      dup2\n        /* \"#utility.yul\":22456:22468   */\n      add\n        /* \"#utility.yul\":22451:22468   */\n      swap1\n      pop\n        /* \"#utility.yul\":22426:22634   */\n      jump(tag_503)\n    tag_505:\n        /* \"#utility.yul\":22662:22668   */\n      dup7\n        /* \"#utility.yul\":22653:22660   */\n      dup4\n        /* \"#utility.yul\":22650:22669   */\n      lt\n        /* \"#utility.yul\":22647:22826   */\n      iszero\n      tag_506\n      jumpi\n        /* \"#utility.yul\":22720:22729   */\n      dup5\n        /* \"#utility.yul\":22715:22718   */\n      dup10\n        /* \"#utility.yul\":22711:22730   */\n      add\n        /* \"#utility.yul\":22705:22731   */\n      mload\n        /* \"#utility.yul\":22763:22811   */\n      tag_507\n        /* \"#utility.yul\":22805:22809   */\n      0x1f\n        /* \"#utility.yul\":22797:22803   */\n      dup10\n        /* \"#utility.yul\":22793:22810   */\n      and\n        /* \"#utility.yul\":22782:22791   */\n      dup3\n        /* \"#utility.yul\":22763:22811   */\n      tag_266\n      jump\t// in\n    tag_507:\n        /* \"#utility.yul\":22755:22761   */\n      dup4\n        /* \"#utility.yul\":22748:22812   */\n      sstore\n        /* \"#utility.yul\":22670:22826   */\n      pop\n        /* \"#utility.yul\":22647:22826   */\n    tag_506:\n        /* \"#utility.yul\":22872:22873   */\n      0x01\n        /* \"#utility.yul\":22868:22869   */\n      0x02\n        /* \"#utility.yul\":22860:22866   */\n      dup9\n        /* \"#utility.yul\":22856:22870   */\n      mul\n        /* \"#utility.yul\":22852:22874   */\n      add\n        /* \"#utility.yul\":22846:22850   */\n      dup9\n        /* \"#utility.yul\":22839:22875   */\n      sstore\n        /* \"#utility.yul\":22274:22885   */\n      pop\n      pop\n      pop\n        /* \"#utility.yul\":22237:23124   */\n    tag_498:\n      pop\n        /* \"#utility.yul\":21827:23130   */\n      pop\n      pop\n      pop\n        /* \"#utility.yul\":21735:23130   */\n      pop\n      pop\n      jump\t// out\n        /* \"#utility.yul\":23136:23571   */\n    tag_102:\n        /* \"#utility.yul\":23283:23287   */\n      0x00\n        /* \"#utility.yul\":23321:23323   */\n      0x40\n        /* \"#utility.yul\":23310:23319   */\n      dup3\n        /* \"#utility.yul\":23306:23324   */\n      add\n        /* \"#utility.yul\":23298:23324   */\n      swap1\n      pop\n        /* \"#utility.yul\":23370:23379   */\n      dup2\n        /* \"#utility.yul\":23364:23368   */\n      dup2\n        /* \"#utility.yul\":23360:23380   */\n      sub\n        /* \"#utility.yul\":23356:23357   */\n      0x00\n        /* \"#utility.yul\":23345:23354   */\n      dup4\n        /* \"#utility.yul\":23341:23358   */\n      add\n        /* \"#utility.yul\":23334:23381   */\n      mstore\n        /* \"#utility.yul\":23398:23476   */\n      tag_509\n        /* \"#utility.yul\":23471:23475   */\n      dup2\n        /* \"#utility.yul\":23462:23468   */\n      dup6\n        /* \"#utility.yul\":23398:23476   */\n      tag_242\n      jump\t// in\n    tag_509:\n        /* \"#utility.yul\":23390:23476   */\n      swap1\n      pop\n        /* \"#utility.yul\":23486:23564   */\n      tag_510\n        /* \"#utility.yul\":23560:23562   */\n      0x20\n        /* \"#utility.yul\":23549:23558   */\n      dup4\n        /* \"#utility.yul\":23545:23563   */\n      add\n        /* \"#utility.yul\":23536:23542   */\n      dup5\n        /* \"#utility.yul\":23486:23564   */\n      tag_243\n      jump\t// in\n    tag_510:\n        /* \"#utility.yul\":23136:23571   */\n      swap4\n      swap3\n      pop\n      pop\n      pop\n      jump\t// out\n        /* \"#utility.yul\":23577:23748   */\n    tag_268:\n        /* \"#utility.yul\":23717:23740   */\n      0x496e646578206973206f75722d6f662d626f756e640000000000000000000000\n        /* \"#utility.yul\":23713:23714   */\n      0x00\n        /* \"#utility.yul\":23705:23711   */\n      dup3\n        /* \"#utility.yul\":23701:23715   */\n      add\n        /* \"#utility.yul\":23694:23741   */\n      mstore\n        /* \"#utility.yul\":23577:23748   */\n      pop\n      jump\t// out\n        /* \"#utility.yul\":23754:24120   */\n    tag_269:\n        /* \"#utility.yul\":23896:23899   */\n      0x00\n        /* \"#utility.yul\":23917:23984   */\n      tag_513\n        /* \"#utility.yul\":23981:23983   */\n      0x15\n        /* \"#utility.yul\":23976:23979   */\n      dup4\n        /* \"#utility.yul\":23917:23984   */\n      tag_241\n      jump\t// in\n    tag_513:\n        /* \"#utility.yul\":23910:23984   */\n      swap2\n      pop\n        /* \"#utility.yul\":23993:24086   */\n      tag_514\n        /* \"#utility.yul\":24082:24085   */\n      dup3\n        /* \"#utility.yul\":23993:24086   */\n      tag_268\n      jump\t// in\n    tag_514:\n        /* \"#utility.yul\":24111:24113   */\n      0x20\n        /* \"#utility.yul\":24106:24109   */\n      dup3\n        /* \"#utility.yul\":24102:24114   */\n      add\n        /* \"#utility.yul\":24095:24114   */\n      swap1\n      pop\n        /* \"#utility.yul\":23754:24120   */\n      swap2\n      swap1\n      pop\n      jump\t// out\n        /* \"#utility.yul\":24126:24545   */\n    tag_112:\n        /* \"#utility.yul\":24292:24296   */\n      0x00\n        /* \"#utility.yul\":24330:24332   */\n      0x20\n        /* \"#utility.yul\":24319:24328   */\n      dup3\n        /* \"#utility.yul\":24315:24333   */\n      add\n        /* \"#utility.yul\":24307:24333   */\n      swap1\n      pop\n        /* \"#utility.yul\":24379:24388   */\n      dup2\n        /* \"#utility.yul\":24373:24377   */\n      dup2\n        /* \"#utility.yul\":24369:24389   */\n      sub\n        /* \"#utility.yul\":24365:24366   */\n      0x00\n        /* \"#utility.yul\":24354:24363   */\n      dup4\n        /* \"#utility.yul\":24350:24367   */\n      add\n        /* \"#utility.yul\":24343:24390   */\n      mstore\n        /* \"#utility.yul\":24407:24538   */\n      tag_516\n        /* \"#utility.yul\":24533:24537   */\n      dup2\n        /* \"#utility.yul\":24407:24538   */\n      tag_269\n      jump\t// in\n    tag_516:\n        /* \"#utility.yul\":24399:24538   */\n      swap1\n      pop\n        /* \"#utility.yul\":24126:24545   */\n      swap2\n      swap1\n      pop\n      jump\t// out\n        /* \"#utility.yul\":24551:24722   */\n    tag_270:\n        /* \"#utility.yul\":24691:24714   */\n      0x496e646578206973206f7574206f6620626f756e640000000000000000000000\n        /* \"#utility.yul\":24687:24688   */\n      0x00\n        /* \"#utility.yul\":24679:24685   */\n      dup3\n        /* \"#utility.yul\":24675:24689   */\n      add\n        /* \"#utility.yul\":24668:24715   */\n      mstore\n        /* \"#utility.yul\":24551:24722   */\n      pop\n      jump\t// out\n        /* \"#utility.yul\":24728:25094   */\n    tag_271:\n        /* \"#utility.yul\":24870:24873   */\n      0x00\n        /* \"#utility.yul\":24891:24958   */\n      tag_519\n        /* \"#utility.yul\":24955:24957   */\n      0x15\n        /* \"#utility.yul\":24950:24953   */\n      dup4\n        /* \"#utility.yul\":24891:24958   */\n      tag_241\n      jump\t// in\n    tag_519:\n        /* \"#utility.yul\":24884:24958   */\n      swap2\n      pop\n        /* \"#utility.yul\":24967:25060   */\n      tag_520\n        /* \"#utility.yul\":25056:25059   */\n      dup3\n        /* \"#utility.yul\":24967:25060   */\n      tag_270\n      jump\t// in\n    tag_520:\n        /* \"#utility.yul\":25085:25087   */\n      0x20\n        /* \"#utility.yul\":25080:25083   */\n      dup3\n        /* \"#utility.yul\":25076:25088   */\n      add\n        /* \"#utility.yul\":25069:25088   */\n      swap1\n      pop\n        /* \"#utility.yul\":24728:25094   */\n      swap2\n      swap1\n      pop\n      jump\t// out\n        /* \"#utility.yul\":25100:25519   */\n    tag_161:\n        /* \"#utility.yul\":25266:25270   */\n      0x00\n        /* \"#utility.yul\":25304:25306   */\n      0x20\n        /* \"#utility.yul\":25293:25302   */\n      dup3\n        /* \"#utility.yul\":25289:25307   */\n      add\n        /* \"#utility.yul\":25281:25307   */\n      swap1\n      pop\n        /* \"#utility.yul\":25353:25362   */\n      dup2\n        /* \"#utility.yul\":25347:25351   */\n      dup2\n        /* \"#utility.yul\":25343:25363   */\n      sub\n        /* \"#utility.yul\":25339:25340   */\n      0x00\n        /* \"#utility.yul\":25328:25337   */\n      dup4\n        /* \"#utility.yul\":25324:25341   */\n      add\n        /* \"#utility.yul\":25317:25364   */\n      mstore\n        /* \"#utility.yul\":25381:25512   */\n      tag_522\n        /* \"#utility.yul\":25507:25511   */\n      dup2\n        /* \"#utility.yul\":25381:25512   */\n      tag_271\n      jump\t// in\n    tag_522:\n        /* \"#utility.yul\":25373:25512   */\n      swap1\n      pop\n        /* \"#utility.yul\":25100:25519   */\n      swap2\n      swap1\n      pop\n      jump\t// out\n\n    auxdata: 0xa26469706673582212205019e0bf54b47e3ae86756a3e7cc9361e9a3bb5fd6b8438bfb157a52ddc0a16764736f6c634300081b0033\n}\n",
				"bytecode": {
					"linkReferences": {},
					"object": "6080604052348015600e575f5ffd5b50335f5f6101000a81548173ffffffffffffffffffffffffffffffffffffffff021916908373ffffffffffffffffffffffffffffffffffffffff160217905550611d678061005b5f395ff3fe608060405234801561000f575f5ffd5b5060043610610086575f3560e01c8063982abb8911610059578063982abb8914610124578063bc8bc2b414610142578063e950516414610174578063fb0b86fb1461019057610086565b8063233881461461008a5780633380b99f146100a65780635607da51146100d65780638da5cb5b14610106575b5f5ffd5b6100a4600480360381019061009f9190611091565b6101c2565b005b6100c060048036038101906100bb91906111f8565b61041c565b6040516100cd9190611288565b60405180910390f35b6100f060048036038101906100eb9190611091565b61062c565b6040516100fd9190611288565b60405180910390f35b61010e6107cf565b60405161011b91906112e0565b60405180910390f35b61012c6107f3565b60405161013991906114db565b60405180910390f35b61015c6004803603810190610157919061152e565b610a16565b60405161016b939291906115b0565b60405180910390f35b61018e600480360381019061018991906115f3565b610b63565b005b6101aa60048036038101906101a59190611091565b610d5e565b6040516101b9939291906115b0565b60405180910390f35b5f5f9054906101000a900473ffffffffffffffffffffffffffffffffffffffff1673ffffffffffffffffffffffffffffffffffffffff163373ffffffffffffffffffffffffffffffffffffffff1614610250576040517f08c379a0000000000000000000000000000000000000000000000000000000008152600401610247906116c5565b60405180910390fd5b5f73ffffffffffffffffffffffffffffffffffffffff163373ffffffffffffffffffffffffffffffffffffffff16036102be576040517f08c379a00000000000000000000000000000000000000000000000000000000081526004016102b59061172d565b60405180910390fd5b6001805490508160ff1610610308576040517f08c379a00000000000000000000000000000000000000000000000000000000081526004016102ff90611795565b60405180910390fd5b600180808054905061031a91906117e0565b8154811061032b5761032a611813565b5b905f5260205f20906003020160018260ff168154811061034e5761034d611813565b5b905f5260205f2090600302015f8201815f01908161036c9190611a52565b50600182018160010190816103819190611a52565b50600282015f9054906101000a900460ff16816002015f6101000a81548160ff021916908360038111156103b8576103b7611382565b5b021790555090505060018054806103d2576103d1611b37565b5b600190038181905f5260205f2090600302015f5f82015f6103f39190610fc0565b600182015f6104029190610fc0565b600282015f6101000a81549060ff02191690555050905550565b5f5f5f9054906101000a900473ffffffffffffffffffffffffffffffffffffffff1673ffffffffffffffffffffffffffffffffffffffff163373ffffffffffffffffffffffffffffffffffffffff16146104ab576040517f08c379a00000000000000000000000000000000000000000000000000000000081526004016104a2906116c5565b60405180910390fd5b5f73ffffffffffffffffffffffffffffffffffffffff163373ffffffffffffffffffffffffffffffffffffffff1603610519576040517f08c379a00000000000000000000000000000000000000000000000000000000081526004016105109061172d565b60405180910390fd5b610521610ffd565b83815f018190525082816020018190525060018160400190600381111561054b5761054a611382565b5b9081600381111561055f5761055e611382565b5b81525050600181908060018154018082558091505060019003905f5260205f2090600302015f909190919091505f820151815f01908161059f9190611b64565b5060208201518160010190816105b59190611b64565b506040820151816002015f6101000a81548160ff021916908360038111156105e0576105df611382565b5b021790555050507fb24501745f85fff88cc582df1223bf671a1234ab872711ffaa7eb8bd56fe311e846001604051610619929190611c33565b60405180910390a1600191505092915050565b5f5f5f9054906101000a900473ffffffffffffffffffffffffffffffffffffffff1673ffffffffffffffffffffffffffffffffffffffff163373ffffffffffffffffffffffffffffffffffffffff16146106bb576040517f08c379a00000000000000000000000000000000000000000000000000000000081526004016106b2906116c5565b60405180910390fd5b5f73ffffffffffffffffffffffffffffffffffffffff163373ffffffffffffffffffffffffffffffffffffffff1603610729576040517f08c379a00000000000000000000000000000000000000000000000000000000081526004016107209061172d565b60405180910390fd5b6001805490508260ff1610610773576040517f08c379a000000000000000000000000000000000000000000000000000000000815260040161076a90611cab565b60405180910390fd5b5f60018360ff168154811061078b5761078a611813565b5b905f5260205f20906003020190506003816002015f6101000a81548160ff021916908360038111156107c0576107bf611382565b5b02179055506001915050919050565b5f5f9054906101000a900473ffffffffffffffffffffffffffffffffffffffff1681565b60605f73ffffffffffffffffffffffffffffffffffffffff163373ffffffffffffffffffffffffffffffffffffffff1603610863576040517f08c379a000000000000000000000000000000000000000000000000000000000815260040161085a9061172d565b60405180910390fd5b6001805480602002602001604051908101604052809291908181526020015f905b82821015610a0d578382905f5260205f2090600302016040518060600160405290815f820180546108b49061186d565b80601f01602080910402602001604051908101604052809291908181526020018280546108e09061186d565b801561092b5780601f106109025761010080835404028352916020019161092b565b820191905f5260205f20905b81548152906001019060200180831161090e57829003601f168201915b505050505081526020016001820180546109449061186d565b80601f01602080910402602001604051908101604052809291908181526020018280546109709061186d565b80156109bb5780601f10610992576101008083540402835291602001916109bb565b820191905f5260205f20905b81548152906001019060200180831161099e57829003601f168201915b50505050508152602001600282015f9054906101000a900460ff1660038111156109e8576109e7611382565b5b60038111156109fa576109f9611382565b5b8152505081526020019060010190610884565b50505050905090565b60018181548110610a25575f80fd5b905f5260205f2090600302015f91509050805f018054610a449061186d565b80601f0160208091040260200160405190810160405280929190818152602001828054610a709061186d565b8015610abb5780601f10610a9257610100808354040283529160200191610abb565b820191905f5260205f20905b815481529060010190602001808311610a9e57829003601f168201915b505050505090806001018054610ad09061186d565b80601f0160208091040260200160405190810160405280929190818152602001828054610afc9061186d565b8015610b475780601f10610b1e57610100808354040283529160200191610b47565b820191905f5260205f20905b815481529060010190602001808311610b2a57829003601f168201915b505050505090806002015f9054906101000a900460ff16905083565b5f5f9054906101000a900473ffffffffffffffffffffffffffffffffffffffff1673ffffffffffffffffffffffffffffffffffffffff163373ffffffffffffffffffffffffffffffffffffffff1614610bf1576040517f08c379a0000000000000000000000000000000000000000000000000000000008152600401610be8906116c5565b60405180910390fd5b5f73ffffffffffffffffffffffffffffffffffffffff163373ffffffffffffffffffffffffffffffffffffffff1603610c5f576040517f08c379a0000000000000000000000000000000000000000000000000000000008152600401610c569061172d565b60405180910390fd5b6001805490508360ff1610610ca9576040517f08c379a0000000000000000000000000000000000000000000000000000000008152600401610ca090611d13565b60405180910390fd5b5f60018460ff1681548110610cc157610cc0611813565b5b905f5260205f209060030201905082815f019081610cdf9190611b64565b5081816001019081610cf19190611b64565b506002816002015f6101000a81548160ff02191690836003811115610d1957610d18611382565b5b02179055507f3ff5b2dbb379a3765de2a11e90d91cfaf54b178f2d29590471f1fb57642fd165836002604051610d50929190611c33565b60405180910390a150505050565b6060805f5f73ffffffffffffffffffffffffffffffffffffffff163373ffffffffffffffffffffffffffffffffffffffff1603610dd0576040517f08c379a0000000000000000000000000000000000000000000000000000000008152600401610dc79061172d565b60405180910390fd5b6001805490508460ff1610610e1a576040517f08c379a0000000000000000000000000000000000000000000000000000000008152600401610e1190611795565b60405180910390fd5b5f60018560ff1681548110610e3257610e31611813565b5b905f5260205f2090600302016040518060600160405290815f82018054610e589061186d565b80601f0160208091040260200160405190810160405280929190818152602001828054610e849061186d565b8015610ecf5780601f10610ea657610100808354040283529160200191610ecf565b820191905f5260205f20905b815481529060010190602001808311610eb257829003601f168201915b50505050508152602001600182018054610ee89061186d565b80601f0160208091040260200160405190810160405280929190818152602001828054610f149061186d565b8015610f5f5780601f10610f3657610100808354040283529160200191610f5f565b820191905f5260205f20905b815481529060010190602001808311610f4257829003601f168201915b50505050508152602001600282015f9054906101000a900460ff166003811115610f8c57610f8b611382565b5b6003811115610f9e57610f9d611382565b5b815250509050805f015181602001518260400151935093509350509193909250565b508054610fcc9061186d565b5f825580601f10610fdd5750610ffa565b601f0160209004905f5260205f2090810190610ff9919061102f565b5b50565b604051806060016040528060608152602001606081526020015f600381111561102957611028611382565b5b81525090565b5b80821115611046575f815f905550600101611030565b5090565b5f604051905090565b5f5ffd5b5f5ffd5b5f60ff82169050919050565b6110708161105b565b811461107a575f5ffd5b50565b5f8135905061108b81611067565b92915050565b5f602082840312156110a6576110a5611053565b5b5f6110b38482850161107d565b91505092915050565b5f5ffd5b5f5ffd5b5f601f19601f8301169050919050565b7f4e487b71000000000000000000000000000000000000000000000000000000005f52604160045260245ffd5b61110a826110c4565b810181811067ffffffffffffffff82111715611129576111286110d4565b5b80604052505050565b5f61113b61104a565b90506111478282611101565b919050565b5f67ffffffffffffffff821115611166576111656110d4565b5b61116f826110c4565b9050602081019050919050565b828183375f83830152505050565b5f61119c6111978461114c565b611132565b9050828152602081018484840111156111b8576111b76110c0565b5b6111c384828561117c565b509392505050565b5f82601f8301126111df576111de6110bc565b5b81356111ef84826020860161118a565b91505092915050565b5f5f6040838503121561120e5761120d611053565b5b5f83013567ffffffffffffffff81111561122b5761122a611057565b5b611237858286016111cb565b925050602083013567ffffffffffffffff81111561125857611257611057565b5b611264858286016111cb565b9150509250929050565b5f8115159050919050565b6112828161126e565b82525050565b5f60208201905061129b5f830184611279565b92915050565b5f73ffffffffffffffffffffffffffffffffffffffff82169050919050565b5f6112ca826112a1565b9050919050565b6112da816112c0565b82525050565b5f6020820190506112f35f8301846112d1565b92915050565b5f81519050919050565b5f82825260208201905092915050565b5f819050602082019050919050565b5f81519050919050565b5f82825260208201905092915050565b8281835e5f83830152505050565b5f61135482611322565b61135e818561132c565b935061136e81856020860161133c565b611377816110c4565b840191505092915050565b7f4e487b71000000000000000000000000000000000000000000000000000000005f52602160045260245ffd5b600481106113c0576113bf611382565b5b50565b5f8190506113d0826113af565b919050565b5f6113df826113c3565b9050919050565b6113ef816113d5565b82525050565b5f606083015f8301518482035f86015261140f828261134a565b91505060208301518482036020860152611429828261134a565b915050604083015161143e60408601826113e6565b508091505092915050565b5f61145483836113f5565b905092915050565b5f602082019050919050565b5f611472826112f9565b61147c8185611303565b93508360208202850161148e85611313565b805f5b858110156114c957848403895281516114aa8582611449565b94506114b58361145c565b925060208a01995050600181019050611491565b50829750879550505050505092915050565b5f6020820190508181035f8301526114f38184611468565b905092915050565b5f819050919050565b61150d816114fb565b8114611517575f5ffd5b50565b5f8135905061152881611504565b92915050565b5f6020828403121561154357611542611053565b5b5f6115508482850161151a565b91505092915050565b5f82825260208201905092915050565b5f61157382611322565b61157d8185611559565b935061158d81856020860161133c565b611596816110c4565b840191505092915050565b6115aa816113d5565b82525050565b5f6060820190508181035f8301526115c88186611569565b905081810360208301526115dc8185611569565b90506115eb60408301846115a1565b949350505050565b5f5f5f6060848603121561160a57611609611053565b5b5f6116178682870161107d565b935050602084013567ffffffffffffffff81111561163857611637611057565b5b611644868287016111cb565b925050604084013567ffffffffffffffff81111561166557611664611057565b5b611671868287016111cb565b9150509250925092565b7f596f75277265206e6f7420616c6c6f77656400000000000000000000000000005f82015250565b5f6116af601283611559565b91506116ba8261167b565b602082019050919050565b5f6020820190508181035f8301526116dc816116a3565b9050919050565b7f5a656f722061646472657373206e6f7420616c6c6f77656400000000000000005f82015250565b5f611717601883611559565b9150611722826116e3565b602082019050919050565b5f6020820190508181035f8301526117448161170b565b9050919050565b7f496e646578206973206f75742d6f662d626f756e6400000000000000000000005f82015250565b5f61177f601583611559565b915061178a8261174b565b602082019050919050565b5f6020820190508181035f8301526117ac81611773565b9050919050565b7f4e487b71000000000000000000000000000000000000000000000000000000005f52601160045260245ffd5b5f6117ea826114fb565b91506117f5836114fb565b925082820390508181111561180d5761180c6117b3565b5b92915050565b7f4e487b71000000000000000000000000000000000000000000000000000000005f52603260045260245ffd5b7f4e487b71000000000000000000000000000000000000000000000000000000005f52602260045260245ffd5b5f600282049050600182168061188457607f821691505b60208210810361189757611896611840565b5b50919050565b5f815490506118ab8161186d565b9050919050565b5f819050815f5260205f209050919050565b5f6020601f8301049050919050565b5f82821b905092915050565b5f6008830261190e7fffffffffffffffffffffffffffffffffffffffffffffffffffffffffffffffff826118d3565b61191886836118d3565b95508019841693508086168417925050509392505050565b5f819050919050565b5f61195361194e611949846114fb565b611930565b6114fb565b9050919050565b5f819050919050565b61196c83611939565b6119806119788261195a565b8484546118df565b825550505050565b5f5f905090565b611997611988565b6119a2818484611963565b505050565b5b818110156119c5576119ba5f8261198f565b6001810190506119a8565b5050565b601f821115611a0a576119db816118b2565b6119e4846118c4565b810160208510156119f3578190505b611a076119ff856118c4565b8301826119a7565b50505b505050565b5f82821c905092915050565b5f611a2a5f1984600802611a0f565b1980831691505092915050565b5f611a428383611a1b565b9150826002028217905092915050565b818103611a60575050611b35565b611a698261189d565b67ffffffffffffffff811115611a8257611a816110d4565b5b611a8c825461186d565b611a978282856119c9565b5f601f831160018114611ac4575f8415611ab2578287015490505b611abc8582611a37565b865550611b2e565b601f198416611ad2876118b2565b9650611add866118b2565b5f5b82811015611b0457848901548255600182019150600185019450602081019050611adf565b86831015611b215784890154611b1d601f891682611a1b565b8355505b6001600288020188555050505b5050505050505b565b7f4e487b71000000000000000000000000000000000000000000000000000000005f52603160045260245ffd5b611b6d82611322565b67ffffffffffffffff811115611b8657611b856110d4565b5b611b90825461186d565b611b9b8282856119c9565b5f60209050601f831160018114611bcc575f8415611bba578287015190505b611bc48582611a37565b865550611c2b565b601f198416611bda866118b2565b5f5b82811015611c0157848901518255600182019150602085019450602081019050611bdc565b86831015611c1e5784890151611c1a601f891682611a1b565b8355505b6001600288020188555050505b505050505050565b5f6040820190508181035f830152611c4b8185611569565b9050611c5a60208301846115a1565b9392505050565b7f496e646578206973206f75722d6f662d626f756e6400000000000000000000005f82015250565b5f611c95601583611559565b9150611ca082611c61565b602082019050919050565b5f6020820190508181035f830152611cc281611c89565b9050919050565b7f496e646578206973206f7574206f6620626f756e6400000000000000000000005f82015250565b5f611cfd601583611559565b9150611d0882611cc9565b602082019050919050565b5f6020820190508181035f830152611d2a81611cf1565b905091905056fea26469706673582212205019e0bf54b47e3ae86756a3e7cc9361e9a3bb5fd6b8438bfb157a52ddc0a16764736f6c634300081b0033",
					"opcodes": "PUSH1 0x80 PUSH1 0x40 MSTORE CALLVALUE DUP1 ISZERO PUSH1 0xE JUMPI PUSH0 PUSH0 REVERT JUMPDEST POP CALLER PUSH0 PUSH0 PUSH2 0x100 EXP DUP2 SLOAD DUP2 PUSH20 0xFFFFFFFFFFFFFFFFFFFFFFFFFFFFFFFFFFFFFFFF MUL NOT AND SWAP1 DUP4 PUSH20 0xFFFFFFFFFFFFFFFFFFFFFFFFFFFFFFFFFFFFFFFF AND MUL OR SWAP1 SSTORE POP PUSH2 0x1D67 DUP1 PUSH2 0x5B PUSH0 CODECOPY PUSH0 RETURN INVALID PUSH1 0x80 PUSH1 0x40 MSTORE CALLVALUE DUP1 ISZERO PUSH2 0xF JUMPI PUSH0 PUSH0 REVERT JUMPDEST POP PUSH1 0x4 CALLDATASIZE LT PUSH2 0x86 JUMPI PUSH0 CALLDATALOAD PUSH1 0xE0 SHR DUP1 PUSH4 0x982ABB89 GT PUSH2 0x59 JUMPI DUP1 PUSH4 0x982ABB89 EQ PUSH2 0x124 JUMPI DUP1 PUSH4 0xBC8BC2B4 EQ PUSH2 0x142 JUMPI DUP1 PUSH4 0xE9505164 EQ PUSH2 0x174 JUMPI DUP1 PUSH4 0xFB0B86FB EQ PUSH2 0x190 JUMPI PUSH2 0x86 JUMP JUMPDEST DUP1 PUSH4 0x23388146 EQ PUSH2 0x8A JUMPI DUP1 PUSH4 0x3380B99F EQ PUSH2 0xA6 JUMPI DUP1 PUSH4 0x5607DA51 EQ PUSH2 0xD6 JUMPI DUP1 PUSH4 0x8DA5CB5B EQ PUSH2 0x106 JUMPI JUMPDEST PUSH0 PUSH0 REVERT JUMPDEST PUSH2 0xA4 PUSH1 0x4 DUP1 CALLDATASIZE SUB DUP2 ADD SWAP1 PUSH2 0x9F SWAP2 SWAP1 PUSH2 0x1091 JUMP JUMPDEST PUSH2 0x1C2 JUMP JUMPDEST STOP JUMPDEST PUSH2 0xC0 PUSH1 0x4 DUP1 CALLDATASIZE SUB DUP2 ADD SWAP1 PUSH2 0xBB SWAP2 SWAP1 PUSH2 0x11F8 JUMP JUMPDEST PUSH2 0x41C JUMP JUMPDEST PUSH1 0x40 MLOAD PUSH2 0xCD SWAP2 SWAP1 PUSH2 0x1288 JUMP JUMPDEST PUSH1 0x40 MLOAD DUP1 SWAP2 SUB SWAP1 RETURN JUMPDEST PUSH2 0xF0 PUSH1 0x4 DUP1 CALLDATASIZE SUB DUP2 ADD SWAP1 PUSH2 0xEB SWAP2 SWAP1 PUSH2 0x1091 JUMP JUMPDEST PUSH2 0x62C JUMP JUMPDEST PUSH1 0x40 MLOAD PUSH2 0xFD SWAP2 SWAP1 PUSH2 0x1288 JUMP JUMPDEST PUSH1 0x40 MLOAD DUP1 SWAP2 SUB SWAP1 RETURN JUMPDEST PUSH2 0x10E PUSH2 0x7CF JUMP JUMPDEST PUSH1 0x40 MLOAD PUSH2 0x11B SWAP2 SWAP1 PUSH2 0x12E0 JUMP JUMPDEST PUSH1 0x40 MLOAD DUP1 SWAP2 SUB SWAP1 RETURN JUMPDEST PUSH2 0x12C PUSH2 0x7F3 JUMP JUMPDEST PUSH1 0x40 MLOAD PUSH2 0x139 SWAP2 SWAP1 PUSH2 0x14DB JUMP JUMPDEST PUSH1 0x40 MLOAD DUP1 SWAP2 SUB SWAP1 RETURN JUMPDEST PUSH2 0x15C PUSH1 0x4 DUP1 CALLDATASIZE SUB DUP2 ADD SWAP1 PUSH2 0x157 SWAP2 SWAP1 PUSH2 0x152E JUMP JUMPDEST PUSH2 0xA16 JUMP JUMPDEST PUSH1 0x40 MLOAD PUSH2 0x16B SWAP4 SWAP3 SWAP2 SWAP1 PUSH2 0x15B0 JUMP JUMPDEST PUSH1 0x40 MLOAD DUP1 SWAP2 SUB SWAP1 RETURN JUMPDEST PUSH2 0x18E PUSH1 0x4 DUP1 CALLDATASIZE SUB DUP2 ADD SWAP1 PUSH2 0x189 SWAP2 SWAP1 PUSH2 0x15F3 JUMP JUMPDEST PUSH2 0xB63 JUMP JUMPDEST STOP JUMPDEST PUSH2 0x1AA PUSH1 0x4 DUP1 CALLDATASIZE SUB DUP2 ADD SWAP1 PUSH2 0x1A5 SWAP2 SWAP1 PUSH2 0x1091 JUMP JUMPDEST PUSH2 0xD5E JUMP JUMPDEST PUSH1 0x40 MLOAD PUSH2 0x1B9 SWAP4 SWAP3 SWAP2 SWAP1 PUSH2 0x15B0 JUMP JUMPDEST PUSH1 0x40 MLOAD DUP1 SWAP2 SUB SWAP1 RETURN JUMPDEST PUSH0 PUSH0 SWAP1 SLOAD SWAP1 PUSH2 0x100 EXP SWAP1 DIV PUSH20 0xFFFFFFFFFFFFFFFFFFFFFFFFFFFFFFFFFFFFFFFF AND PUSH20 0xFFFFFFFFFFFFFFFFFFFFFFFFFFFFFFFFFFFFFFFF AND CALLER PUSH20 0xFFFFFFFFFFFFFFFFFFFFFFFFFFFFFFFFFFFFFFFF AND EQ PUSH2 0x250 JUMPI PUSH1 0x40 MLOAD PUSH32 0x8C379A000000000000000000000000000000000000000000000000000000000 DUP2 MSTORE PUSH1 0x4 ADD PUSH2 0x247 SWAP1 PUSH2 0x16C5 JUMP JUMPDEST PUSH1 0x40 MLOAD DUP1 SWAP2 SUB SWAP1 REVERT JUMPDEST PUSH0 PUSH20 0xFFFFFFFFFFFFFFFFFFFFFFFFFFFFFFFFFFFFFFFF AND CALLER PUSH20 0xFFFFFFFFFFFFFFFFFFFFFFFFFFFFFFFFFFFFFFFF AND SUB PUSH2 0x2BE JUMPI PUSH1 0x40 MLOAD PUSH32 0x8C379A000000000000000000000000000000000000000000000000000000000 DUP2 MSTORE PUSH1 0x4 ADD PUSH2 0x2B5 SWAP1 PUSH2 0x172D JUMP JUMPDEST PUSH1 0x40 MLOAD DUP1 SWAP2 SUB SWAP1 REVERT JUMPDEST PUSH1 0x1 DUP1 SLOAD SWAP1 POP DUP2 PUSH1 0xFF AND LT PUSH2 0x308 JUMPI PUSH1 0x40 MLOAD PUSH32 0x8C379A000000000000000000000000000000000000000000000000000000000 DUP2 MSTORE PUSH1 0x4 ADD PUSH2 0x2FF SWAP1 PUSH2 0x1795 JUMP JUMPDEST PUSH1 0x40 MLOAD DUP1 SWAP2 SUB SWAP1 REVERT JUMPDEST PUSH1 0x1 DUP1 DUP1 DUP1 SLOAD SWAP1 POP PUSH2 0x31A SWAP2 SWAP1 PUSH2 0x17E0 JUMP JUMPDEST DUP2 SLOAD DUP2 LT PUSH2 0x32B JUMPI PUSH2 0x32A PUSH2 0x1813 JUMP JUMPDEST JUMPDEST SWAP1 PUSH0 MSTORE PUSH1 0x20 PUSH0 KECCAK256 SWAP1 PUSH1 0x3 MUL ADD PUSH1 0x1 DUP3 PUSH1 0xFF AND DUP2 SLOAD DUP2 LT PUSH2 0x34E JUMPI PUSH2 0x34D PUSH2 0x1813 JUMP JUMPDEST JUMPDEST SWAP1 PUSH0 MSTORE PUSH1 0x20 PUSH0 KECCAK256 SWAP1 PUSH1 0x3 MUL ADD PUSH0 DUP3 ADD DUP2 PUSH0 ADD SWAP1 DUP2 PUSH2 0x36C SWAP2 SWAP1 PUSH2 0x1A52 JUMP JUMPDEST POP PUSH1 0x1 DUP3 ADD DUP2 PUSH1 0x1 ADD SWAP1 DUP2 PUSH2 0x381 SWAP2 SWAP1 PUSH2 0x1A52 JUMP JUMPDEST POP PUSH1 0x2 DUP3 ADD PUSH0 SWAP1 SLOAD SWAP1 PUSH2 0x100 EXP SWAP1 DIV PUSH1 0xFF AND DUP2 PUSH1 0x2 ADD PUSH0 PUSH2 0x100 EXP DUP2 SLOAD DUP2 PUSH1 0xFF MUL NOT AND SWAP1 DUP4 PUSH1 0x3 DUP2 GT ISZERO PUSH2 0x3B8 JUMPI PUSH2 0x3B7 PUSH2 0x1382 JUMP JUMPDEST JUMPDEST MUL OR SWAP1 SSTORE POP SWAP1 POP POP PUSH1 0x1 DUP1 SLOAD DUP1 PUSH2 0x3D2 JUMPI PUSH2 0x3D1 PUSH2 0x1B37 JUMP JUMPDEST JUMPDEST PUSH1 0x1 SWAP1 SUB DUP2 DUP2 SWAP1 PUSH0 MSTORE PUSH1 0x20 PUSH0 KECCAK256 SWAP1 PUSH1 0x3 MUL ADD PUSH0 PUSH0 DUP3 ADD PUSH0 PUSH2 0x3F3 SWAP2 SWAP1 PUSH2 0xFC0 JUMP JUMPDEST PUSH1 0x1 DUP3 ADD PUSH0 PUSH2 0x402 SWAP2 SWAP1 PUSH2 0xFC0 JUMP JUMPDEST PUSH1 0x2 DUP3 ADD PUSH0 PUSH2 0x100 EXP DUP2 SLOAD SWAP1 PUSH1 0xFF MUL NOT AND SWAP1 SSTORE POP POP SWAP1 SSTORE POP JUMP JUMPDEST PUSH0 PUSH0 PUSH0 SWAP1 SLOAD SWAP1 PUSH2 0x100 EXP SWAP1 DIV PUSH20 0xFFFFFFFFFFFFFFFFFFFFFFFFFFFFFFFFFFFFFFFF AND PUSH20 0xFFFFFFFFFFFFFFFFFFFFFFFFFFFFFFFFFFFFFFFF AND CALLER PUSH20 0xFFFFFFFFFFFFFFFFFFFFFFFFFFFFFFFFFFFFFFFF AND EQ PUSH2 0x4AB JUMPI PUSH1 0x40 MLOAD PUSH32 0x8C379A000000000000000000000000000000000000000000000000000000000 DUP2 MSTORE PUSH1 0x4 ADD PUSH2 0x4A2 SWAP1 PUSH2 0x16C5 JUMP JUMPDEST PUSH1 0x40 MLOAD DUP1 SWAP2 SUB SWAP1 REVERT JUMPDEST PUSH0 PUSH20 0xFFFFFFFFFFFFFFFFFFFFFFFFFFFFFFFFFFFFFFFF AND CALLER PUSH20 0xFFFFFFFFFFFFFFFFFFFFFFFFFFFFFFFFFFFFFFFF AND SUB PUSH2 0x519 JUMPI PUSH1 0x40 MLOAD PUSH32 0x8C379A000000000000000000000000000000000000000000000000000000000 DUP2 MSTORE PUSH1 0x4 ADD PUSH2 0x510 SWAP1 PUSH2 0x172D JUMP JUMPDEST PUSH1 0x40 MLOAD DUP1 SWAP2 SUB SWAP1 REVERT JUMPDEST PUSH2 0x521 PUSH2 0xFFD JUMP JUMPDEST DUP4 DUP2 PUSH0 ADD DUP2 SWAP1 MSTORE POP DUP3 DUP2 PUSH1 0x20 ADD DUP2 SWAP1 MSTORE POP PUSH1 0x1 DUP2 PUSH1 0x40 ADD SWAP1 PUSH1 0x3 DUP2 GT ISZERO PUSH2 0x54B JUMPI PUSH2 0x54A PUSH2 0x1382 JUMP JUMPDEST JUMPDEST SWAP1 DUP2 PUSH1 0x3 DUP2 GT ISZERO PUSH2 0x55F JUMPI PUSH2 0x55E PUSH2 0x1382 JUMP JUMPDEST JUMPDEST DUP2 MSTORE POP POP PUSH1 0x1 DUP2 SWAP1 DUP1 PUSH1 0x1 DUP2 SLOAD ADD DUP1 DUP3 SSTORE DUP1 SWAP2 POP POP PUSH1 0x1 SWAP1 SUB SWAP1 PUSH0 MSTORE PUSH1 0x20 PUSH0 KECCAK256 SWAP1 PUSH1 0x3 MUL ADD PUSH0 SWAP1 SWAP2 SWAP1 SWAP2 SWAP1 SWAP2 POP PUSH0 DUP3 ADD MLOAD DUP2 PUSH0 ADD SWAP1 DUP2 PUSH2 0x59F SWAP2 SWAP1 PUSH2 0x1B64 JUMP JUMPDEST POP PUSH1 0x20 DUP3 ADD MLOAD DUP2 PUSH1 0x1 ADD SWAP1 DUP2 PUSH2 0x5B5 SWAP2 SWAP1 PUSH2 0x1B64 JUMP JUMPDEST POP PUSH1 0x40 DUP3 ADD MLOAD DUP2 PUSH1 0x2 ADD PUSH0 PUSH2 0x100 EXP DUP2 SLOAD DUP2 PUSH1 0xFF MUL NOT AND SWAP1 DUP4 PUSH1 0x3 DUP2 GT ISZERO PUSH2 0x5E0 JUMPI PUSH2 0x5DF PUSH2 0x1382 JUMP JUMPDEST JUMPDEST MUL OR SWAP1 SSTORE POP POP POP PUSH32 0xB24501745F85FFF88CC582DF1223BF671A1234AB872711FFAA7EB8BD56FE311E DUP5 PUSH1 0x1 PUSH1 0x40 MLOAD PUSH2 0x619 SWAP3 SWAP2 SWAP1 PUSH2 0x1C33 JUMP JUMPDEST PUSH1 0x40 MLOAD DUP1 SWAP2 SUB SWAP1 LOG1 PUSH1 0x1 SWAP2 POP POP SWAP3 SWAP2 POP POP JUMP JUMPDEST PUSH0 PUSH0 PUSH0 SWAP1 SLOAD SWAP1 PUSH2 0x100 EXP SWAP1 DIV PUSH20 0xFFFFFFFFFFFFFFFFFFFFFFFFFFFFFFFFFFFFFFFF AND PUSH20 0xFFFFFFFFFFFFFFFFFFFFFFFFFFFFFFFFFFFFFFFF AND CALLER PUSH20 0xFFFFFFFFFFFFFFFFFFFFFFFFFFFFFFFFFFFFFFFF AND EQ PUSH2 0x6BB JUMPI PUSH1 0x40 MLOAD PUSH32 0x8C379A000000000000000000000000000000000000000000000000000000000 DUP2 MSTORE PUSH1 0x4 ADD PUSH2 0x6B2 SWAP1 PUSH2 0x16C5 JUMP JUMPDEST PUSH1 0x40 MLOAD DUP1 SWAP2 SUB SWAP1 REVERT JUMPDEST PUSH0 PUSH20 0xFFFFFFFFFFFFFFFFFFFFFFFFFFFFFFFFFFFFFFFF AND CALLER PUSH20 0xFFFFFFFFFFFFFFFFFFFFFFFFFFFFFFFFFFFFFFFF AND SUB PUSH2 0x729 JUMPI PUSH1 0x40 MLOAD PUSH32 0x8C379A000000000000000000000000000000000000000000000000000000000 DUP2 MSTORE PUSH1 0x4 ADD PUSH2 0x720 SWAP1 PUSH2 0x172D JUMP JUMPDEST PUSH1 0x40 MLOAD DUP1 SWAP2 SUB SWAP1 REVERT JUMPDEST PUSH1 0x1 DUP1 SLOAD SWAP1 POP DUP3 PUSH1 0xFF AND LT PUSH2 0x773 JUMPI PUSH1 0x40 MLOAD PUSH32 0x8C379A000000000000000000000000000000000000000000000000000000000 DUP2 MSTORE PUSH1 0x4 ADD PUSH2 0x76A SWAP1 PUSH2 0x1CAB JUMP JUMPDEST PUSH1 0x40 MLOAD DUP1 SWAP2 SUB SWAP1 REVERT JUMPDEST PUSH0 PUSH1 0x1 DUP4 PUSH1 0xFF AND DUP2 SLOAD DUP2 LT PUSH2 0x78B JUMPI PUSH2 0x78A PUSH2 0x1813 JUMP JUMPDEST JUMPDEST SWAP1 PUSH0 MSTORE PUSH1 0x20 PUSH0 KECCAK256 SWAP1 PUSH1 0x3 MUL ADD SWAP1 POP PUSH1 0x3 DUP2 PUSH1 0x2 ADD PUSH0 PUSH2 0x100 EXP DUP2 SLOAD DUP2 PUSH1 0xFF MUL NOT AND SWAP1 DUP4 PUSH1 0x3 DUP2 GT ISZERO PUSH2 0x7C0 JUMPI PUSH2 0x7BF PUSH2 0x1382 JUMP JUMPDEST JUMPDEST MUL OR SWAP1 SSTORE POP PUSH1 0x1 SWAP2 POP POP SWAP2 SWAP1 POP JUMP JUMPDEST PUSH0 PUSH0 SWAP1 SLOAD SWAP1 PUSH2 0x100 EXP SWAP1 DIV PUSH20 0xFFFFFFFFFFFFFFFFFFFFFFFFFFFFFFFFFFFFFFFF AND DUP2 JUMP JUMPDEST PUSH1 0x60 PUSH0 PUSH20 0xFFFFFFFFFFFFFFFFFFFFFFFFFFFFFFFFFFFFFFFF AND CALLER PUSH20 0xFFFFFFFFFFFFFFFFFFFFFFFFFFFFFFFFFFFFFFFF AND SUB PUSH2 0x863 JUMPI PUSH1 0x40 MLOAD PUSH32 0x8C379A000000000000000000000000000000000000000000000000000000000 DUP2 MSTORE PUSH1 0x4 ADD PUSH2 0x85A SWAP1 PUSH2 0x172D JUMP JUMPDEST PUSH1 0x40 MLOAD DUP1 SWAP2 SUB SWAP1 REVERT JUMPDEST PUSH1 0x1 DUP1 SLOAD DUP1 PUSH1 0x20 MUL PUSH1 0x20 ADD PUSH1 0x40 MLOAD SWAP1 DUP2 ADD PUSH1 0x40 MSTORE DUP1 SWAP3 SWAP2 SWAP1 DUP2 DUP2 MSTORE PUSH1 0x20 ADD PUSH0 SWAP1 JUMPDEST DUP3 DUP3 LT ISZERO PUSH2 0xA0D JUMPI DUP4 DUP3 SWAP1 PUSH0 MSTORE PUSH1 0x20 PUSH0 KECCAK256 SWAP1 PUSH1 0x3 MUL ADD PUSH1 0x40 MLOAD DUP1 PUSH1 0x60 ADD PUSH1 0x40 MSTORE SWAP1 DUP2 PUSH0 DUP3 ADD DUP1 SLOAD PUSH2 0x8B4 SWAP1 PUSH2 0x186D JUMP JUMPDEST DUP1 PUSH1 0x1F ADD PUSH1 0x20 DUP1 SWAP2 DIV MUL PUSH1 0x20 ADD PUSH1 0x40 MLOAD SWAP1 DUP2 ADD PUSH1 0x40 MSTORE DUP1 SWAP3 SWAP2 SWAP1 DUP2 DUP2 MSTORE PUSH1 0x20 ADD DUP3 DUP1 SLOAD PUSH2 0x8E0 SWAP1 PUSH2 0x186D JUMP JUMPDEST DUP1 ISZERO PUSH2 0x92B JUMPI DUP1 PUSH1 0x1F LT PUSH2 0x902 JUMPI PUSH2 0x100 DUP1 DUP4 SLOAD DIV MUL DUP4 MSTORE SWAP2 PUSH1 0x20 ADD SWAP2 PUSH2 0x92B JUMP JUMPDEST DUP3 ADD SWAP2 SWAP1 PUSH0 MSTORE PUSH1 0x20 PUSH0 KECCAK256 SWAP1 JUMPDEST DUP2 SLOAD DUP2 MSTORE SWAP1 PUSH1 0x1 ADD SWAP1 PUSH1 0x20 ADD DUP1 DUP4 GT PUSH2 0x90E JUMPI DUP3 SWAP1 SUB PUSH1 0x1F AND DUP3 ADD SWAP2 JUMPDEST POP POP POP POP POP DUP2 MSTORE PUSH1 0x20 ADD PUSH1 0x1 DUP3 ADD DUP1 SLOAD PUSH2 0x944 SWAP1 PUSH2 0x186D JUMP JUMPDEST DUP1 PUSH1 0x1F ADD PUSH1 0x20 DUP1 SWAP2 DIV MUL PUSH1 0x20 ADD PUSH1 0x40 MLOAD SWAP1 DUP2 ADD PUSH1 0x40 MSTORE DUP1 SWAP3 SWAP2 SWAP1 DUP2 DUP2 MSTORE PUSH1 0x20 ADD DUP3 DUP1 SLOAD PUSH2 0x970 SWAP1 PUSH2 0x186D JUMP JUMPDEST DUP1 ISZERO PUSH2 0x9BB JUMPI DUP1 PUSH1 0x1F LT PUSH2 0x992 JUMPI PUSH2 0x100 DUP1 DUP4 SLOAD DIV MUL DUP4 MSTORE SWAP2 PUSH1 0x20 ADD SWAP2 PUSH2 0x9BB JUMP JUMPDEST DUP3 ADD SWAP2 SWAP1 PUSH0 MSTORE PUSH1 0x20 PUSH0 KECCAK256 SWAP1 JUMPDEST DUP2 SLOAD DUP2 MSTORE SWAP1 PUSH1 0x1 ADD SWAP1 PUSH1 0x20 ADD DUP1 DUP4 GT PUSH2 0x99E JUMPI DUP3 SWAP1 SUB PUSH1 0x1F AND DUP3 ADD SWAP2 JUMPDEST POP POP POP POP POP DUP2 MSTORE PUSH1 0x20 ADD PUSH1 0x2 DUP3 ADD PUSH0 SWAP1 SLOAD SWAP1 PUSH2 0x100 EXP SWAP1 DIV PUSH1 0xFF AND PUSH1 0x3 DUP2 GT ISZERO PUSH2 0x9E8 JUMPI PUSH2 0x9E7 PUSH2 0x1382 JUMP JUMPDEST JUMPDEST PUSH1 0x3 DUP2 GT ISZERO PUSH2 0x9FA JUMPI PUSH2 0x9F9 PUSH2 0x1382 JUMP JUMPDEST JUMPDEST DUP2 MSTORE POP POP DUP2 MSTORE PUSH1 0x20 ADD SWAP1 PUSH1 0x1 ADD SWAP1 PUSH2 0x884 JUMP JUMPDEST POP POP POP POP SWAP1 POP SWAP1 JUMP JUMPDEST PUSH1 0x1 DUP2 DUP2 SLOAD DUP2 LT PUSH2 0xA25 JUMPI PUSH0 DUP1 REVERT JUMPDEST SWAP1 PUSH0 MSTORE PUSH1 0x20 PUSH0 KECCAK256 SWAP1 PUSH1 0x3 MUL ADD PUSH0 SWAP2 POP SWAP1 POP DUP1 PUSH0 ADD DUP1 SLOAD PUSH2 0xA44 SWAP1 PUSH2 0x186D JUMP JUMPDEST DUP1 PUSH1 0x1F ADD PUSH1 0x20 DUP1 SWAP2 DIV MUL PUSH1 0x20 ADD PUSH1 0x40 MLOAD SWAP1 DUP2 ADD PUSH1 0x40 MSTORE DUP1 SWAP3 SWAP2 SWAP1 DUP2 DUP2 MSTORE PUSH1 0x20 ADD DUP3 DUP1 SLOAD PUSH2 0xA70 SWAP1 PUSH2 0x186D JUMP JUMPDEST DUP1 ISZERO PUSH2 0xABB JUMPI DUP1 PUSH1 0x1F LT PUSH2 0xA92 JUMPI PUSH2 0x100 DUP1 DUP4 SLOAD DIV MUL DUP4 MSTORE SWAP2 PUSH1 0x20 ADD SWAP2 PUSH2 0xABB JUMP JUMPDEST DUP3 ADD SWAP2 SWAP1 PUSH0 MSTORE PUSH1 0x20 PUSH0 KECCAK256 SWAP1 JUMPDEST DUP2 SLOAD DUP2 MSTORE SWAP1 PUSH1 0x1 ADD SWAP1 PUSH1 0x20 ADD DUP1 DUP4 GT PUSH2 0xA9E JUMPI DUP3 SWAP1 SUB PUSH1 0x1F AND DUP3 ADD SWAP2 JUMPDEST POP POP POP POP POP SWAP1 DUP1 PUSH1 0x1 ADD DUP1 SLOAD PUSH2 0xAD0 SWAP1 PUSH2 0x186D JUMP JUMPDEST DUP1 PUSH1 0x1F ADD PUSH1 0x20 DUP1 SWAP2 DIV MUL PUSH1 0x20 ADD PUSH1 0x40 MLOAD SWAP1 DUP2 ADD PUSH1 0x40 MSTORE DUP1 SWAP3 SWAP2 SWAP1 DUP2 DUP2 MSTORE PUSH1 0x20 ADD DUP3 DUP1 SLOAD PUSH2 0xAFC SWAP1 PUSH2 0x186D JUMP JUMPDEST DUP1 ISZERO PUSH2 0xB47 JUMPI DUP1 PUSH1 0x1F LT PUSH2 0xB1E JUMPI PUSH2 0x100 DUP1 DUP4 SLOAD DIV MUL DUP4 MSTORE SWAP2 PUSH1 0x20 ADD SWAP2 PUSH2 0xB47 JUMP JUMPDEST DUP3 ADD SWAP2 SWAP1 PUSH0 MSTORE PUSH1 0x20 PUSH0 KECCAK256 SWAP1 JUMPDEST DUP2 SLOAD DUP2 MSTORE SWAP1 PUSH1 0x1 ADD SWAP1 PUSH1 0x20 ADD DUP1 DUP4 GT PUSH2 0xB2A JUMPI DUP3 SWAP1 SUB PUSH1 0x1F AND DUP3 ADD SWAP2 JUMPDEST POP POP POP POP POP SWAP1 DUP1 PUSH1 0x2 ADD PUSH0 SWAP1 SLOAD SWAP1 PUSH2 0x100 EXP SWAP1 DIV PUSH1 0xFF AND SWAP1 POP DUP4 JUMP JUMPDEST PUSH0 PUSH0 SWAP1 SLOAD SWAP1 PUSH2 0x100 EXP SWAP1 DIV PUSH20 0xFFFFFFFFFFFFFFFFFFFFFFFFFFFFFFFFFFFFFFFF AND PUSH20 0xFFFFFFFFFFFFFFFFFFFFFFFFFFFFFFFFFFFFFFFF AND CALLER PUSH20 0xFFFFFFFFFFFFFFFFFFFFFFFFFFFFFFFFFFFFFFFF AND EQ PUSH2 0xBF1 JUMPI PUSH1 0x40 MLOAD PUSH32 0x8C379A000000000000000000000000000000000000000000000000000000000 DUP2 MSTORE PUSH1 0x4 ADD PUSH2 0xBE8 SWAP1 PUSH2 0x16C5 JUMP JUMPDEST PUSH1 0x40 MLOAD DUP1 SWAP2 SUB SWAP1 REVERT JUMPDEST PUSH0 PUSH20 0xFFFFFFFFFFFFFFFFFFFFFFFFFFFFFFFFFFFFFFFF AND CALLER PUSH20 0xFFFFFFFFFFFFFFFFFFFFFFFFFFFFFFFFFFFFFFFF AND SUB PUSH2 0xC5F JUMPI PUSH1 0x40 MLOAD PUSH32 0x8C379A000000000000000000000000000000000000000000000000000000000 DUP2 MSTORE PUSH1 0x4 ADD PUSH2 0xC56 SWAP1 PUSH2 0x172D JUMP JUMPDEST PUSH1 0x40 MLOAD DUP1 SWAP2 SUB SWAP1 REVERT JUMPDEST PUSH1 0x1 DUP1 SLOAD SWAP1 POP DUP4 PUSH1 0xFF AND LT PUSH2 0xCA9 JUMPI PUSH1 0x40 MLOAD PUSH32 0x8C379A000000000000000000000000000000000000000000000000000000000 DUP2 MSTORE PUSH1 0x4 ADD PUSH2 0xCA0 SWAP1 PUSH2 0x1D13 JUMP JUMPDEST PUSH1 0x40 MLOAD DUP1 SWAP2 SUB SWAP1 REVERT JUMPDEST PUSH0 PUSH1 0x1 DUP5 PUSH1 0xFF AND DUP2 SLOAD DUP2 LT PUSH2 0xCC1 JUMPI PUSH2 0xCC0 PUSH2 0x1813 JUMP JUMPDEST JUMPDEST SWAP1 PUSH0 MSTORE PUSH1 0x20 PUSH0 KECCAK256 SWAP1 PUSH1 0x3 MUL ADD SWAP1 POP DUP3 DUP2 PUSH0 ADD SWAP1 DUP2 PUSH2 0xCDF SWAP2 SWAP1 PUSH2 0x1B64 JUMP JUMPDEST POP DUP2 DUP2 PUSH1 0x1 ADD SWAP1 DUP2 PUSH2 0xCF1 SWAP2 SWAP1 PUSH2 0x1B64 JUMP JUMPDEST POP PUSH1 0x2 DUP2 PUSH1 0x2 ADD PUSH0 PUSH2 0x100 EXP DUP2 SLOAD DUP2 PUSH1 0xFF MUL NOT AND SWAP1 DUP4 PUSH1 0x3 DUP2 GT ISZERO PUSH2 0xD19 JUMPI PUSH2 0xD18 PUSH2 0x1382 JUMP JUMPDEST JUMPDEST MUL OR SWAP1 SSTORE POP PUSH32 0x3FF5B2DBB379A3765DE2A11E90D91CFAF54B178F2D29590471F1FB57642FD165 DUP4 PUSH1 0x2 PUSH1 0x40 MLOAD PUSH2 0xD50 SWAP3 SWAP2 SWAP1 PUSH2 0x1C33 JUMP JUMPDEST PUSH1 0x40 MLOAD DUP1 SWAP2 SUB SWAP1 LOG1 POP POP POP POP JUMP JUMPDEST PUSH1 0x60 DUP1 PUSH0 PUSH0 PUSH20 0xFFFFFFFFFFFFFFFFFFFFFFFFFFFFFFFFFFFFFFFF AND CALLER PUSH20 0xFFFFFFFFFFFFFFFFFFFFFFFFFFFFFFFFFFFFFFFF AND SUB PUSH2 0xDD0 JUMPI PUSH1 0x40 MLOAD PUSH32 0x8C379A000000000000000000000000000000000000000000000000000000000 DUP2 MSTORE PUSH1 0x4 ADD PUSH2 0xDC7 SWAP1 PUSH2 0x172D JUMP JUMPDEST PUSH1 0x40 MLOAD DUP1 SWAP2 SUB SWAP1 REVERT JUMPDEST PUSH1 0x1 DUP1 SLOAD SWAP1 POP DUP5 PUSH1 0xFF AND LT PUSH2 0xE1A JUMPI PUSH1 0x40 MLOAD PUSH32 0x8C379A000000000000000000000000000000000000000000000000000000000 DUP2 MSTORE PUSH1 0x4 ADD PUSH2 0xE11 SWAP1 PUSH2 0x1795 JUMP JUMPDEST PUSH1 0x40 MLOAD DUP1 SWAP2 SUB SWAP1 REVERT JUMPDEST PUSH0 PUSH1 0x1 DUP6 PUSH1 0xFF AND DUP2 SLOAD DUP2 LT PUSH2 0xE32 JUMPI PUSH2 0xE31 PUSH2 0x1813 JUMP JUMPDEST JUMPDEST SWAP1 PUSH0 MSTORE PUSH1 0x20 PUSH0 KECCAK256 SWAP1 PUSH1 0x3 MUL ADD PUSH1 0x40 MLOAD DUP1 PUSH1 0x60 ADD PUSH1 0x40 MSTORE SWAP1 DUP2 PUSH0 DUP3 ADD DUP1 SLOAD PUSH2 0xE58 SWAP1 PUSH2 0x186D JUMP JUMPDEST DUP1 PUSH1 0x1F ADD PUSH1 0x20 DUP1 SWAP2 DIV MUL PUSH1 0x20 ADD PUSH1 0x40 MLOAD SWAP1 DUP2 ADD PUSH1 0x40 MSTORE DUP1 SWAP3 SWAP2 SWAP1 DUP2 DUP2 MSTORE PUSH1 0x20 ADD DUP3 DUP1 SLOAD PUSH2 0xE84 SWAP1 PUSH2 0x186D JUMP JUMPDEST DUP1 ISZERO PUSH2 0xECF JUMPI DUP1 PUSH1 0x1F LT PUSH2 0xEA6 JUMPI PUSH2 0x100 DUP1 DUP4 SLOAD DIV MUL DUP4 MSTORE SWAP2 PUSH1 0x20 ADD SWAP2 PUSH2 0xECF JUMP JUMPDEST DUP3 ADD SWAP2 SWAP1 PUSH0 MSTORE PUSH1 0x20 PUSH0 KECCAK256 SWAP1 JUMPDEST DUP2 SLOAD DUP2 MSTORE SWAP1 PUSH1 0x1 ADD SWAP1 PUSH1 0x20 ADD DUP1 DUP4 GT PUSH2 0xEB2 JUMPI DUP3 SWAP1 SUB PUSH1 0x1F AND DUP3 ADD SWAP2 JUMPDEST POP POP POP POP POP DUP2 MSTORE PUSH1 0x20 ADD PUSH1 0x1 DUP3 ADD DUP1 SLOAD PUSH2 0xEE8 SWAP1 PUSH2 0x186D JUMP JUMPDEST DUP1 PUSH1 0x1F ADD PUSH1 0x20 DUP1 SWAP2 DIV MUL PUSH1 0x20 ADD PUSH1 0x40 MLOAD SWAP1 DUP2 ADD PUSH1 0x40 MSTORE DUP1 SWAP3 SWAP2 SWAP1 DUP2 DUP2 MSTORE PUSH1 0x20 ADD DUP3 DUP1 SLOAD PUSH2 0xF14 SWAP1 PUSH2 0x186D JUMP JUMPDEST DUP1 ISZERO PUSH2 0xF5F JUMPI DUP1 PUSH1 0x1F LT PUSH2 0xF36 JUMPI PUSH2 0x100 DUP1 DUP4 SLOAD DIV MUL DUP4 MSTORE SWAP2 PUSH1 0x20 ADD SWAP2 PUSH2 0xF5F JUMP JUMPDEST DUP3 ADD SWAP2 SWAP1 PUSH0 MSTORE PUSH1 0x20 PUSH0 KECCAK256 SWAP1 JUMPDEST DUP2 SLOAD DUP2 MSTORE SWAP1 PUSH1 0x1 ADD SWAP1 PUSH1 0x20 ADD DUP1 DUP4 GT PUSH2 0xF42 JUMPI DUP3 SWAP1 SUB PUSH1 0x1F AND DUP3 ADD SWAP2 JUMPDEST POP POP POP POP POP DUP2 MSTORE PUSH1 0x20 ADD PUSH1 0x2 DUP3 ADD PUSH0 SWAP1 SLOAD SWAP1 PUSH2 0x100 EXP SWAP1 DIV PUSH1 0xFF AND PUSH1 0x3 DUP2 GT ISZERO PUSH2 0xF8C JUMPI PUSH2 0xF8B PUSH2 0x1382 JUMP JUMPDEST JUMPDEST PUSH1 0x3 DUP2 GT ISZERO PUSH2 0xF9E JUMPI PUSH2 0xF9D PUSH2 0x1382 JUMP JUMPDEST JUMPDEST DUP2 MSTORE POP POP SWAP1 POP DUP1 PUSH0 ADD MLOAD DUP2 PUSH1 0x20 ADD MLOAD DUP3 PUSH1 0x40 ADD MLOAD SWAP4 POP SWAP4 POP SWAP4 POP POP SWAP2 SWAP4 SWAP1 SWAP3 POP JUMP JUMPDEST POP DUP1 SLOAD PUSH2 0xFCC SWAP1 PUSH2 0x186D JUMP JUMPDEST PUSH0 DUP3 SSTORE DUP1 PUSH1 0x1F LT PUSH2 0xFDD JUMPI POP PUSH2 0xFFA JUMP JUMPDEST PUSH1 0x1F ADD PUSH1 0x20 SWAP1 DIV SWAP1 PUSH0 MSTORE PUSH1 0x20 PUSH0 KECCAK256 SWAP1 DUP2 ADD SWAP1 PUSH2 0xFF9 SWAP2 SWAP1 PUSH2 0x102F JUMP JUMPDEST JUMPDEST POP JUMP JUMPDEST PUSH1 0x40 MLOAD DUP1 PUSH1 0x60 ADD PUSH1 0x40 MSTORE DUP1 PUSH1 0x60 DUP2 MSTORE PUSH1 0x20 ADD PUSH1 0x60 DUP2 MSTORE PUSH1 0x20 ADD PUSH0 PUSH1 0x3 DUP2 GT ISZERO PUSH2 0x1029 JUMPI PUSH2 0x1028 PUSH2 0x1382 JUMP JUMPDEST JUMPDEST DUP2 MSTORE POP SWAP1 JUMP JUMPDEST JUMPDEST DUP1 DUP3 GT ISZERO PUSH2 0x1046 JUMPI PUSH0 DUP2 PUSH0 SWAP1 SSTORE POP PUSH1 0x1 ADD PUSH2 0x1030 JUMP JUMPDEST POP SWAP1 JUMP JUMPDEST PUSH0 PUSH1 0x40 MLOAD SWAP1 POP SWAP1 JUMP JUMPDEST PUSH0 PUSH0 REVERT JUMPDEST PUSH0 PUSH0 REVERT JUMPDEST PUSH0 PUSH1 0xFF DUP3 AND SWAP1 POP SWAP2 SWAP1 POP JUMP JUMPDEST PUSH2 0x1070 DUP2 PUSH2 0x105B JUMP JUMPDEST DUP2 EQ PUSH2 0x107A JUMPI PUSH0 PUSH0 REVERT JUMPDEST POP JUMP JUMPDEST PUSH0 DUP2 CALLDATALOAD SWAP1 POP PUSH2 0x108B DUP2 PUSH2 0x1067 JUMP JUMPDEST SWAP3 SWAP2 POP POP JUMP JUMPDEST PUSH0 PUSH1 0x20 DUP3 DUP5 SUB SLT ISZERO PUSH2 0x10A6 JUMPI PUSH2 0x10A5 PUSH2 0x1053 JUMP JUMPDEST JUMPDEST PUSH0 PUSH2 0x10B3 DUP5 DUP3 DUP6 ADD PUSH2 0x107D JUMP JUMPDEST SWAP2 POP POP SWAP3 SWAP2 POP POP JUMP JUMPDEST PUSH0 PUSH0 REVERT JUMPDEST PUSH0 PUSH0 REVERT JUMPDEST PUSH0 PUSH1 0x1F NOT PUSH1 0x1F DUP4 ADD AND SWAP1 POP SWAP2 SWAP1 POP JUMP JUMPDEST PUSH32 0x4E487B7100000000000000000000000000000000000000000000000000000000 PUSH0 MSTORE PUSH1 0x41 PUSH1 0x4 MSTORE PUSH1 0x24 PUSH0 REVERT JUMPDEST PUSH2 0x110A DUP3 PUSH2 0x10C4 JUMP JUMPDEST DUP2 ADD DUP2 DUP2 LT PUSH8 0xFFFFFFFFFFFFFFFF DUP3 GT OR ISZERO PUSH2 0x1129 JUMPI PUSH2 0x1128 PUSH2 0x10D4 JUMP JUMPDEST JUMPDEST DUP1 PUSH1 0x40 MSTORE POP POP POP JUMP JUMPDEST PUSH0 PUSH2 0x113B PUSH2 0x104A JUMP JUMPDEST SWAP1 POP PUSH2 0x1147 DUP3 DUP3 PUSH2 0x1101 JUMP JUMPDEST SWAP2 SWAP1 POP JUMP JUMPDEST PUSH0 PUSH8 0xFFFFFFFFFFFFFFFF DUP3 GT ISZERO PUSH2 0x1166 JUMPI PUSH2 0x1165 PUSH2 0x10D4 JUMP JUMPDEST JUMPDEST PUSH2 0x116F DUP3 PUSH2 0x10C4 JUMP JUMPDEST SWAP1 POP PUSH1 0x20 DUP2 ADD SWAP1 POP SWAP2 SWAP1 POP JUMP JUMPDEST DUP3 DUP2 DUP4 CALLDATACOPY PUSH0 DUP4 DUP4 ADD MSTORE POP POP POP JUMP JUMPDEST PUSH0 PUSH2 0x119C PUSH2 0x1197 DUP5 PUSH2 0x114C JUMP JUMPDEST PUSH2 0x1132 JUMP JUMPDEST SWAP1 POP DUP3 DUP2 MSTORE PUSH1 0x20 DUP2 ADD DUP5 DUP5 DUP5 ADD GT ISZERO PUSH2 0x11B8 JUMPI PUSH2 0x11B7 PUSH2 0x10C0 JUMP JUMPDEST JUMPDEST PUSH2 0x11C3 DUP5 DUP3 DUP6 PUSH2 0x117C JUMP JUMPDEST POP SWAP4 SWAP3 POP POP POP JUMP JUMPDEST PUSH0 DUP3 PUSH1 0x1F DUP4 ADD SLT PUSH2 0x11DF JUMPI PUSH2 0x11DE PUSH2 0x10BC JUMP JUMPDEST JUMPDEST DUP2 CALLDATALOAD PUSH2 0x11EF DUP5 DUP3 PUSH1 0x20 DUP7 ADD PUSH2 0x118A JUMP JUMPDEST SWAP2 POP POP SWAP3 SWAP2 POP POP JUMP JUMPDEST PUSH0 PUSH0 PUSH1 0x40 DUP4 DUP6 SUB SLT ISZERO PUSH2 0x120E JUMPI PUSH2 0x120D PUSH2 0x1053 JUMP JUMPDEST JUMPDEST PUSH0 DUP4 ADD CALLDATALOAD PUSH8 0xFFFFFFFFFFFFFFFF DUP2 GT ISZERO PUSH2 0x122B JUMPI PUSH2 0x122A PUSH2 0x1057 JUMP JUMPDEST JUMPDEST PUSH2 0x1237 DUP6 DUP3 DUP7 ADD PUSH2 0x11CB JUMP JUMPDEST SWAP3 POP POP PUSH1 0x20 DUP4 ADD CALLDATALOAD PUSH8 0xFFFFFFFFFFFFFFFF DUP2 GT ISZERO PUSH2 0x1258 JUMPI PUSH2 0x1257 PUSH2 0x1057 JUMP JUMPDEST JUMPDEST PUSH2 0x1264 DUP6 DUP3 DUP7 ADD PUSH2 0x11CB JUMP JUMPDEST SWAP2 POP POP SWAP3 POP SWAP3 SWAP1 POP JUMP JUMPDEST PUSH0 DUP2 ISZERO ISZERO SWAP1 POP SWAP2 SWAP1 POP JUMP JUMPDEST PUSH2 0x1282 DUP2 PUSH2 0x126E JUMP JUMPDEST DUP3 MSTORE POP POP JUMP JUMPDEST PUSH0 PUSH1 0x20 DUP3 ADD SWAP1 POP PUSH2 0x129B PUSH0 DUP4 ADD DUP5 PUSH2 0x1279 JUMP JUMPDEST SWAP3 SWAP2 POP POP JUMP JUMPDEST PUSH0 PUSH20 0xFFFFFFFFFFFFFFFFFFFFFFFFFFFFFFFFFFFFFFFF DUP3 AND SWAP1 POP SWAP2 SWAP1 POP JUMP JUMPDEST PUSH0 PUSH2 0x12CA DUP3 PUSH2 0x12A1 JUMP JUMPDEST SWAP1 POP SWAP2 SWAP1 POP JUMP JUMPDEST PUSH2 0x12DA DUP2 PUSH2 0x12C0 JUMP JUMPDEST DUP3 MSTORE POP POP JUMP JUMPDEST PUSH0 PUSH1 0x20 DUP3 ADD SWAP1 POP PUSH2 0x12F3 PUSH0 DUP4 ADD DUP5 PUSH2 0x12D1 JUMP JUMPDEST SWAP3 SWAP2 POP POP JUMP JUMPDEST PUSH0 DUP2 MLOAD SWAP1 POP SWAP2 SWAP1 POP JUMP JUMPDEST PUSH0 DUP3 DUP3 MSTORE PUSH1 0x20 DUP3 ADD SWAP1 POP SWAP3 SWAP2 POP POP JUMP JUMPDEST PUSH0 DUP2 SWAP1 POP PUSH1 0x20 DUP3 ADD SWAP1 POP SWAP2 SWAP1 POP JUMP JUMPDEST PUSH0 DUP2 MLOAD SWAP1 POP SWAP2 SWAP1 POP JUMP JUMPDEST PUSH0 DUP3 DUP3 MSTORE PUSH1 0x20 DUP3 ADD SWAP1 POP SWAP3 SWAP2 POP POP JUMP JUMPDEST DUP3 DUP2 DUP4 MCOPY PUSH0 DUP4 DUP4 ADD MSTORE POP POP POP JUMP JUMPDEST PUSH0 PUSH2 0x1354 DUP3 PUSH2 0x1322 JUMP JUMPDEST PUSH2 0x135E DUP2 DUP6 PUSH2 0x132C JUMP JUMPDEST SWAP4 POP PUSH2 0x136E DUP2 DUP6 PUSH1 0x20 DUP7 ADD PUSH2 0x133C JUMP JUMPDEST PUSH2 0x1377 DUP2 PUSH2 0x10C4 JUMP JUMPDEST DUP5 ADD SWAP2 POP POP SWAP3 SWAP2 POP POP JUMP JUMPDEST PUSH32 0x4E487B7100000000000000000000000000000000000000000000000000000000 PUSH0 MSTORE PUSH1 0x21 PUSH1 0x4 MSTORE PUSH1 0x24 PUSH0 REVERT JUMPDEST PUSH1 0x4 DUP2 LT PUSH2 0x13C0 JUMPI PUSH2 0x13BF PUSH2 0x1382 JUMP JUMPDEST JUMPDEST POP JUMP JUMPDEST PUSH0 DUP2 SWAP1 POP PUSH2 0x13D0 DUP3 PUSH2 0x13AF JUMP JUMPDEST SWAP2 SWAP1 POP JUMP JUMPDEST PUSH0 PUSH2 0x13DF DUP3 PUSH2 0x13C3 JUMP JUMPDEST SWAP1 POP SWAP2 SWAP1 POP JUMP JUMPDEST PUSH2 0x13EF DUP2 PUSH2 0x13D5 JUMP JUMPDEST DUP3 MSTORE POP POP JUMP JUMPDEST PUSH0 PUSH1 0x60 DUP4 ADD PUSH0 DUP4 ADD MLOAD DUP5 DUP3 SUB PUSH0 DUP7 ADD MSTORE PUSH2 0x140F DUP3 DUP3 PUSH2 0x134A JUMP JUMPDEST SWAP2 POP POP PUSH1 0x20 DUP4 ADD MLOAD DUP5 DUP3 SUB PUSH1 0x20 DUP7 ADD MSTORE PUSH2 0x1429 DUP3 DUP3 PUSH2 0x134A JUMP JUMPDEST SWAP2 POP POP PUSH1 0x40 DUP4 ADD MLOAD PUSH2 0x143E PUSH1 0x40 DUP7 ADD DUP3 PUSH2 0x13E6 JUMP JUMPDEST POP DUP1 SWAP2 POP POP SWAP3 SWAP2 POP POP JUMP JUMPDEST PUSH0 PUSH2 0x1454 DUP4 DUP4 PUSH2 0x13F5 JUMP JUMPDEST SWAP1 POP SWAP3 SWAP2 POP POP JUMP JUMPDEST PUSH0 PUSH1 0x20 DUP3 ADD SWAP1 POP SWAP2 SWAP1 POP JUMP JUMPDEST PUSH0 PUSH2 0x1472 DUP3 PUSH2 0x12F9 JUMP JUMPDEST PUSH2 0x147C DUP2 DUP6 PUSH2 0x1303 JUMP JUMPDEST SWAP4 POP DUP4 PUSH1 0x20 DUP3 MUL DUP6 ADD PUSH2 0x148E DUP6 PUSH2 0x1313 JUMP JUMPDEST DUP1 PUSH0 JUMPDEST DUP6 DUP2 LT ISZERO PUSH2 0x14C9 JUMPI DUP5 DUP5 SUB DUP10 MSTORE DUP2 MLOAD PUSH2 0x14AA DUP6 DUP3 PUSH2 0x1449 JUMP JUMPDEST SWAP5 POP PUSH2 0x14B5 DUP4 PUSH2 0x145C JUMP JUMPDEST SWAP3 POP PUSH1 0x20 DUP11 ADD SWAP10 POP POP PUSH1 0x1 DUP2 ADD SWAP1 POP PUSH2 0x1491 JUMP JUMPDEST POP DUP3 SWAP8 POP DUP8 SWAP6 POP POP POP POP POP POP SWAP3 SWAP2 POP POP JUMP JUMPDEST PUSH0 PUSH1 0x20 DUP3 ADD SWAP1 POP DUP2 DUP2 SUB PUSH0 DUP4 ADD MSTORE PUSH2 0x14F3 DUP2 DUP5 PUSH2 0x1468 JUMP JUMPDEST SWAP1 POP SWAP3 SWAP2 POP POP JUMP JUMPDEST PUSH0 DUP2 SWAP1 POP SWAP2 SWAP1 POP JUMP JUMPDEST PUSH2 0x150D DUP2 PUSH2 0x14FB JUMP JUMPDEST DUP2 EQ PUSH2 0x1517 JUMPI PUSH0 PUSH0 REVERT JUMPDEST POP JUMP JUMPDEST PUSH0 DUP2 CALLDATALOAD SWAP1 POP PUSH2 0x1528 DUP2 PUSH2 0x1504 JUMP JUMPDEST SWAP3 SWAP2 POP POP JUMP JUMPDEST PUSH0 PUSH1 0x20 DUP3 DUP5 SUB SLT ISZERO PUSH2 0x1543 JUMPI PUSH2 0x1542 PUSH2 0x1053 JUMP JUMPDEST JUMPDEST PUSH0 PUSH2 0x1550 DUP5 DUP3 DUP6 ADD PUSH2 0x151A JUMP JUMPDEST SWAP2 POP POP SWAP3 SWAP2 POP POP JUMP JUMPDEST PUSH0 DUP3 DUP3 MSTORE PUSH1 0x20 DUP3 ADD SWAP1 POP SWAP3 SWAP2 POP POP JUMP JUMPDEST PUSH0 PUSH2 0x1573 DUP3 PUSH2 0x1322 JUMP JUMPDEST PUSH2 0x157D DUP2 DUP6 PUSH2 0x1559 JUMP JUMPDEST SWAP4 POP PUSH2 0x158D DUP2 DUP6 PUSH1 0x20 DUP7 ADD PUSH2 0x133C JUMP JUMPDEST PUSH2 0x1596 DUP2 PUSH2 0x10C4 JUMP JUMPDEST DUP5 ADD SWAP2 POP POP SWAP3 SWAP2 POP POP JUMP JUMPDEST PUSH2 0x15AA DUP2 PUSH2 0x13D5 JUMP JUMPDEST DUP3 MSTORE POP POP JUMP JUMPDEST PUSH0 PUSH1 0x60 DUP3 ADD SWAP1 POP DUP2 DUP2 SUB PUSH0 DUP4 ADD MSTORE PUSH2 0x15C8 DUP2 DUP7 PUSH2 0x1569 JUMP JUMPDEST SWAP1 POP DUP2 DUP2 SUB PUSH1 0x20 DUP4 ADD MSTORE PUSH2 0x15DC DUP2 DUP6 PUSH2 0x1569 JUMP JUMPDEST SWAP1 POP PUSH2 0x15EB PUSH1 0x40 DUP4 ADD DUP5 PUSH2 0x15A1 JUMP JUMPDEST SWAP5 SWAP4 POP POP POP POP JUMP JUMPDEST PUSH0 PUSH0 PUSH0 PUSH1 0x60 DUP5 DUP7 SUB SLT ISZERO PUSH2 0x160A JUMPI PUSH2 0x1609 PUSH2 0x1053 JUMP JUMPDEST JUMPDEST PUSH0 PUSH2 0x1617 DUP7 DUP3 DUP8 ADD PUSH2 0x107D JUMP JUMPDEST SWAP4 POP POP PUSH1 0x20 DUP5 ADD CALLDATALOAD PUSH8 0xFFFFFFFFFFFFFFFF DUP2 GT ISZERO PUSH2 0x1638 JUMPI PUSH2 0x1637 PUSH2 0x1057 JUMP JUMPDEST JUMPDEST PUSH2 0x1644 DUP7 DUP3 DUP8 ADD PUSH2 0x11CB JUMP JUMPDEST SWAP3 POP POP PUSH1 0x40 DUP5 ADD CALLDATALOAD PUSH8 0xFFFFFFFFFFFFFFFF DUP2 GT ISZERO PUSH2 0x1665 JUMPI PUSH2 0x1664 PUSH2 0x1057 JUMP JUMPDEST JUMPDEST PUSH2 0x1671 DUP7 DUP3 DUP8 ADD PUSH2 0x11CB JUMP JUMPDEST SWAP2 POP POP SWAP3 POP SWAP3 POP SWAP3 JUMP JUMPDEST PUSH32 0x596F75277265206E6F7420616C6C6F7765640000000000000000000000000000 PUSH0 DUP3 ADD MSTORE POP JUMP JUMPDEST PUSH0 PUSH2 0x16AF PUSH1 0x12 DUP4 PUSH2 0x1559 JUMP JUMPDEST SWAP2 POP PUSH2 0x16BA DUP3 PUSH2 0x167B JUMP JUMPDEST PUSH1 0x20 DUP3 ADD SWAP1 POP SWAP2 SWAP1 POP JUMP JUMPDEST PUSH0 PUSH1 0x20 DUP3 ADD SWAP1 POP DUP2 DUP2 SUB PUSH0 DUP4 ADD MSTORE PUSH2 0x16DC DUP2 PUSH2 0x16A3 JUMP JUMPDEST SWAP1 POP SWAP2 SWAP1 POP JUMP JUMPDEST PUSH32 0x5A656F722061646472657373206E6F7420616C6C6F7765640000000000000000 PUSH0 DUP3 ADD MSTORE POP JUMP JUMPDEST PUSH0 PUSH2 0x1717 PUSH1 0x18 DUP4 PUSH2 0x1559 JUMP JUMPDEST SWAP2 POP PUSH2 0x1722 DUP3 PUSH2 0x16E3 JUMP JUMPDEST PUSH1 0x20 DUP3 ADD SWAP1 POP SWAP2 SWAP1 POP JUMP JUMPDEST PUSH0 PUSH1 0x20 DUP3 ADD SWAP1 POP DUP2 DUP2 SUB PUSH0 DUP4 ADD MSTORE PUSH2 0x1744 DUP2 PUSH2 0x170B JUMP JUMPDEST SWAP1 POP SWAP2 SWAP1 POP JUMP JUMPDEST PUSH32 0x496E646578206973206F75742D6F662D626F756E640000000000000000000000 PUSH0 DUP3 ADD MSTORE POP JUMP JUMPDEST PUSH0 PUSH2 0x177F PUSH1 0x15 DUP4 PUSH2 0x1559 JUMP JUMPDEST SWAP2 POP PUSH2 0x178A DUP3 PUSH2 0x174B JUMP JUMPDEST PUSH1 0x20 DUP3 ADD SWAP1 POP SWAP2 SWAP1 POP JUMP JUMPDEST PUSH0 PUSH1 0x20 DUP3 ADD SWAP1 POP DUP2 DUP2 SUB PUSH0 DUP4 ADD MSTORE PUSH2 0x17AC DUP2 PUSH2 0x1773 JUMP JUMPDEST SWAP1 POP SWAP2 SWAP1 POP JUMP JUMPDEST PUSH32 0x4E487B7100000000000000000000000000000000000000000000000000000000 PUSH0 MSTORE PUSH1 0x11 PUSH1 0x4 MSTORE PUSH1 0x24 PUSH0 REVERT JUMPDEST PUSH0 PUSH2 0x17EA DUP3 PUSH2 0x14FB JUMP JUMPDEST SWAP2 POP PUSH2 0x17F5 DUP4 PUSH2 0x14FB JUMP JUMPDEST SWAP3 POP DUP3 DUP3 SUB SWAP1 POP DUP2 DUP2 GT ISZERO PUSH2 0x180D JUMPI PUSH2 0x180C PUSH2 0x17B3 JUMP JUMPDEST JUMPDEST SWAP3 SWAP2 POP POP JUMP JUMPDEST PUSH32 0x4E487B7100000000000000000000000000000000000000000000000000000000 PUSH0 MSTORE PUSH1 0x32 PUSH1 0x4 MSTORE PUSH1 0x24 PUSH0 REVERT JUMPDEST PUSH32 0x4E487B7100000000000000000000000000000000000000000000000000000000 PUSH0 MSTORE PUSH1 0x22 PUSH1 0x4 MSTORE PUSH1 0x24 PUSH0 REVERT JUMPDEST PUSH0 PUSH1 0x2 DUP3 DIV SWAP1 POP PUSH1 0x1 DUP3 AND DUP1 PUSH2 0x1884 JUMPI PUSH1 0x7F DUP3 AND SWAP2 POP JUMPDEST PUSH1 0x20 DUP3 LT DUP2 SUB PUSH2 0x1897 JUMPI PUSH2 0x1896 PUSH2 0x1840 JUMP JUMPDEST JUMPDEST POP SWAP2 SWAP1 POP JUMP JUMPDEST PUSH0 DUP2 SLOAD SWAP1 POP PUSH2 0x18AB DUP2 PUSH2 0x186D JUMP JUMPDEST SWAP1 POP SWAP2 SWAP1 POP JUMP JUMPDEST PUSH0 DUP2 SWAP1 POP DUP2 PUSH0 MSTORE PUSH1 0x20 PUSH0 KECCAK256 SWAP1 POP SWAP2 SWAP1 POP JUMP JUMPDEST PUSH0 PUSH1 0x20 PUSH1 0x1F DUP4 ADD DIV SWAP1 POP SWAP2 SWAP1 POP JUMP JUMPDEST PUSH0 DUP3 DUP3 SHL SWAP1 POP SWAP3 SWAP2 POP POP JUMP JUMPDEST PUSH0 PUSH1 0x8 DUP4 MUL PUSH2 0x190E PUSH32 0xFFFFFFFFFFFFFFFFFFFFFFFFFFFFFFFFFFFFFFFFFFFFFFFFFFFFFFFFFFFFFFFF DUP3 PUSH2 0x18D3 JUMP JUMPDEST PUSH2 0x1918 DUP7 DUP4 PUSH2 0x18D3 JUMP JUMPDEST SWAP6 POP DUP1 NOT DUP5 AND SWAP4 POP DUP1 DUP7 AND DUP5 OR SWAP3 POP POP POP SWAP4 SWAP3 POP POP POP JUMP JUMPDEST PUSH0 DUP2 SWAP1 POP SWAP2 SWAP1 POP JUMP JUMPDEST PUSH0 PUSH2 0x1953 PUSH2 0x194E PUSH2 0x1949 DUP5 PUSH2 0x14FB JUMP JUMPDEST PUSH2 0x1930 JUMP JUMPDEST PUSH2 0x14FB JUMP JUMPDEST SWAP1 POP SWAP2 SWAP1 POP JUMP JUMPDEST PUSH0 DUP2 SWAP1 POP SWAP2 SWAP1 POP JUMP JUMPDEST PUSH2 0x196C DUP4 PUSH2 0x1939 JUMP JUMPDEST PUSH2 0x1980 PUSH2 0x1978 DUP3 PUSH2 0x195A JUMP JUMPDEST DUP5 DUP5 SLOAD PUSH2 0x18DF JUMP JUMPDEST DUP3 SSTORE POP POP POP POP JUMP JUMPDEST PUSH0 PUSH0 SWAP1 POP SWAP1 JUMP JUMPDEST PUSH2 0x1997 PUSH2 0x1988 JUMP JUMPDEST PUSH2 0x19A2 DUP2 DUP5 DUP5 PUSH2 0x1963 JUMP JUMPDEST POP POP POP JUMP JUMPDEST JUMPDEST DUP2 DUP2 LT ISZERO PUSH2 0x19C5 JUMPI PUSH2 0x19BA PUSH0 DUP3 PUSH2 0x198F JUMP JUMPDEST PUSH1 0x1 DUP2 ADD SWAP1 POP PUSH2 0x19A8 JUMP JUMPDEST POP POP JUMP JUMPDEST PUSH1 0x1F DUP3 GT ISZERO PUSH2 0x1A0A JUMPI PUSH2 0x19DB DUP2 PUSH2 0x18B2 JUMP JUMPDEST PUSH2 0x19E4 DUP5 PUSH2 0x18C4 JUMP JUMPDEST DUP2 ADD PUSH1 0x20 DUP6 LT ISZERO PUSH2 0x19F3 JUMPI DUP2 SWAP1 POP JUMPDEST PUSH2 0x1A07 PUSH2 0x19FF DUP6 PUSH2 0x18C4 JUMP JUMPDEST DUP4 ADD DUP3 PUSH2 0x19A7 JUMP JUMPDEST POP POP JUMPDEST POP POP POP JUMP JUMPDEST PUSH0 DUP3 DUP3 SHR SWAP1 POP SWAP3 SWAP2 POP POP JUMP JUMPDEST PUSH0 PUSH2 0x1A2A PUSH0 NOT DUP5 PUSH1 0x8 MUL PUSH2 0x1A0F JUMP JUMPDEST NOT DUP1 DUP4 AND SWAP2 POP POP SWAP3 SWAP2 POP POP JUMP JUMPDEST PUSH0 PUSH2 0x1A42 DUP4 DUP4 PUSH2 0x1A1B JUMP JUMPDEST SWAP2 POP DUP3 PUSH1 0x2 MUL DUP3 OR SWAP1 POP SWAP3 SWAP2 POP POP JUMP JUMPDEST DUP2 DUP2 SUB PUSH2 0x1A60 JUMPI POP POP PUSH2 0x1B35 JUMP JUMPDEST PUSH2 0x1A69 DUP3 PUSH2 0x189D JUMP JUMPDEST PUSH8 0xFFFFFFFFFFFFFFFF DUP2 GT ISZERO PUSH2 0x1A82 JUMPI PUSH2 0x1A81 PUSH2 0x10D4 JUMP JUMPDEST JUMPDEST PUSH2 0x1A8C DUP3 SLOAD PUSH2 0x186D JUMP JUMPDEST PUSH2 0x1A97 DUP3 DUP3 DUP6 PUSH2 0x19C9 JUMP JUMPDEST PUSH0 PUSH1 0x1F DUP4 GT PUSH1 0x1 DUP2 EQ PUSH2 0x1AC4 JUMPI PUSH0 DUP5 ISZERO PUSH2 0x1AB2 JUMPI DUP3 DUP8 ADD SLOAD SWAP1 POP JUMPDEST PUSH2 0x1ABC DUP6 DUP3 PUSH2 0x1A37 JUMP JUMPDEST DUP7 SSTORE POP PUSH2 0x1B2E JUMP JUMPDEST PUSH1 0x1F NOT DUP5 AND PUSH2 0x1AD2 DUP8 PUSH2 0x18B2 JUMP JUMPDEST SWAP7 POP PUSH2 0x1ADD DUP7 PUSH2 0x18B2 JUMP JUMPDEST PUSH0 JUMPDEST DUP3 DUP2 LT ISZERO PUSH2 0x1B04 JUMPI DUP5 DUP10 ADD SLOAD DUP3 SSTORE PUSH1 0x1 DUP3 ADD SWAP2 POP PUSH1 0x1 DUP6 ADD SWAP5 POP PUSH1 0x20 DUP2 ADD SWAP1 POP PUSH2 0x1ADF JUMP JUMPDEST DUP7 DUP4 LT ISZERO PUSH2 0x1B21 JUMPI DUP5 DUP10 ADD SLOAD PUSH2 0x1B1D PUSH1 0x1F DUP10 AND DUP3 PUSH2 0x1A1B JUMP JUMPDEST DUP4 SSTORE POP JUMPDEST PUSH1 0x1 PUSH1 0x2 DUP9 MUL ADD DUP9 SSTORE POP POP POP JUMPDEST POP POP POP POP POP POP JUMPDEST JUMP JUMPDEST PUSH32 0x4E487B7100000000000000000000000000000000000000000000000000000000 PUSH0 MSTORE PUSH1 0x31 PUSH1 0x4 MSTORE PUSH1 0x24 PUSH0 REVERT JUMPDEST PUSH2 0x1B6D DUP3 PUSH2 0x1322 JUMP JUMPDEST PUSH8 0xFFFFFFFFFFFFFFFF DUP2 GT ISZERO PUSH2 0x1B86 JUMPI PUSH2 0x1B85 PUSH2 0x10D4 JUMP JUMPDEST JUMPDEST PUSH2 0x1B90 DUP3 SLOAD PUSH2 0x186D JUMP JUMPDEST PUSH2 0x1B9B DUP3 DUP3 DUP6 PUSH2 0x19C9 JUMP JUMPDEST PUSH0 PUSH1 0x20 SWAP1 POP PUSH1 0x1F DUP4 GT PUSH1 0x1 DUP2 EQ PUSH2 0x1BCC JUMPI PUSH0 DUP5 ISZERO PUSH2 0x1BBA JUMPI DUP3 DUP8 ADD MLOAD SWAP1 POP JUMPDEST PUSH2 0x1BC4 DUP6 DUP3 PUSH2 0x1A37 JUMP JUMPDEST DUP7 SSTORE POP PUSH2 0x1C2B JUMP JUMPDEST PUSH1 0x1F NOT DUP5 AND PUSH2 0x1BDA DUP7 PUSH2 0x18B2 JUMP JUMPDEST PUSH0 JUMPDEST DUP3 DUP2 LT ISZERO PUSH2 0x1C01 JUMPI DUP5 DUP10 ADD MLOAD DUP3 SSTORE PUSH1 0x1 DUP3 ADD SWAP2 POP PUSH1 0x20 DUP6 ADD SWAP5 POP PUSH1 0x20 DUP2 ADD SWAP1 POP PUSH2 0x1BDC JUMP JUMPDEST DUP7 DUP4 LT ISZERO PUSH2 0x1C1E JUMPI DUP5 DUP10 ADD MLOAD PUSH2 0x1C1A PUSH1 0x1F DUP10 AND DUP3 PUSH2 0x1A1B JUMP JUMPDEST DUP4 SSTORE POP JUMPDEST PUSH1 0x1 PUSH1 0x2 DUP9 MUL ADD DUP9 SSTORE POP POP POP JUMPDEST POP POP POP POP POP POP JUMP JUMPDEST PUSH0 PUSH1 0x40 DUP3 ADD SWAP1 POP DUP2 DUP2 SUB PUSH0 DUP4 ADD MSTORE PUSH2 0x1C4B DUP2 DUP6 PUSH2 0x1569 JUMP JUMPDEST SWAP1 POP PUSH2 0x1C5A PUSH1 0x20 DUP4 ADD DUP5 PUSH2 0x15A1 JUMP JUMPDEST SWAP4 SWAP3 POP POP POP JUMP JUMPDEST PUSH32 0x496E646578206973206F75722D6F662D626F756E640000000000000000000000 PUSH0 DUP3 ADD MSTORE POP JUMP JUMPDEST PUSH0 PUSH2 0x1C95 PUSH1 0x15 DUP4 PUSH2 0x1559 JUMP JUMPDEST SWAP2 POP PUSH2 0x1CA0 DUP3 PUSH2 0x1C61 JUMP JUMPDEST PUSH1 0x20 DUP3 ADD SWAP1 POP SWAP2 SWAP1 POP JUMP JUMPDEST PUSH0 PUSH1 0x20 DUP3 ADD SWAP1 POP DUP2 DUP2 SUB PUSH0 DUP4 ADD MSTORE PUSH2 0x1CC2 DUP2 PUSH2 0x1C89 JUMP JUMPDEST SWAP1 POP SWAP2 SWAP1 POP JUMP JUMPDEST PUSH32 0x496E646578206973206F7574206F6620626F756E640000000000000000000000 PUSH0 DUP3 ADD MSTORE POP JUMP JUMPDEST PUSH0 PUSH2 0x1CFD PUSH1 0x15 DUP4 PUSH2 0x1559 JUMP JUMPDEST SWAP2 POP PUSH2 0x1D08 DUP3 PUSH2 0x1CC9 JUMP JUMPDEST PUSH1 0x20 DUP3 ADD SWAP1 POP SWAP2 SWAP1 POP JUMP JUMPDEST PUSH0 PUSH1 0x20 DUP3 ADD SWAP1 POP DUP2 DUP2 SUB PUSH0 DUP4 ADD MSTORE PUSH2 0x1D2A DUP2 PUSH2 0x1CF1 JUMP JUMPDEST SWAP1 POP SWAP2 SWAP1 POP JUMP INVALID LOG2 PUSH5 0x6970667358 0x22 SLT KECCAK256 POP NOT 0xE0 0xBF SLOAD 0xB4 PUSH31 0x3AE86756A3E7CC9361E9A3BB5FD6B8438BFB157A52DDC0A16764736F6C6343 STOP ADDMOD SHL STOP CALLER "
				},
				"gasEstimates": {
					"creation": {
						"codeDepositCost": "1505400",
						"executionCost": "25837",
						"totalCost": "1531237"
					},
					"external": {
						"createTodo(string,string)": "infinite",
						"deleteTodo(uint8)": "infinite",
						"getAllTodo()": "infinite",
						"getTodo(uint8)": "infinite",
						"owner()": "2574",
						"todoCompleted(uint8)": "31487",
						"todos(uint256)": "infinite",
						"updateTodo(uint8,string,string)": "infinite"
					}
				},
				"methodIdentifiers": {
					"createTodo(string,string)": "3380b99f",
					"deleteTodo(uint8)": "23388146",
					"getAllTodo()": "982abb89",
					"getTodo(uint8)": "fb0b86fb",
					"owner()": "8da5cb5b",
					"todoCompleted(uint8)": "5607da51",
					"todos(uint256)": "bc8bc2b4",
					"updateTodo(uint8,string,string)": "e9505164"
				}
			},
			"storageLayout": {
				"storage": [
					{
						"astId": 3,
						"contract": "contracts/Todo.sol:TodoList",
						"label": "owner",
						"offset": 0,
						"slot": "0",
						"type": "t_address"
					},
					{
						"astId": 20,
						"contract": "contracts/Todo.sol:TodoList",
						"label": "todos",
						"offset": 0,
						"slot": "1",
						"type": "t_array(t_struct(Todo)16_storage)dyn_storage"
					}
				],
				"types": {
					"t_address": {
						"encoding": "inplace",
						"label": "address",
						"numberOfBytes": "20"
					},
					"t_array(t_struct(Todo)16_storage)dyn_storage": {
						"base": "t_struct(Todo)16_storage",
						"encoding": "dynamic_array",
						"label": "struct TodoList.Todo[]",
						"numberOfBytes": "32"
					},
					"t_enum(Status)8": {
						"encoding": "inplace",
						"label": "enum TodoList.Status",
						"numberOfBytes": "1"
					},
					"t_string_storage": {
						"encoding": "bytes",
						"label": "string",
						"numberOfBytes": "32"
					},
					"t_struct(Todo)16_storage": {
						"encoding": "inplace",
						"label": "struct TodoList.Todo",
						"members": [
							{
								"astId": 10,
								"contract": "contracts/Todo.sol:TodoList",
								"label": "title",
								"offset": 0,
								"slot": "0",
								"type": "t_string_storage"
							},
							{
								"astId": 12,
								"contract": "contracts/Todo.sol:TodoList",
								"label": "description",
								"offset": 0,
								"slot": "1",
								"type": "t_string_storage"
							},
							{
								"astId": 15,
								"contract": "contracts/Todo.sol:TodoList",
								"label": "status",
								"offset": 0,
								"slot": "2",
								"type": "t_enum(Status)8"
							}
						],
						"numberOfBytes": "96"
					}
				}
			},
			"userdoc": {
				"kind": "user",
				"methods": {},
				"version": 1
			}
		}
	}
}