{
	"contracts/Todo.sol": {
		"TodoList": {
			"abi": [
				{
					"inputs": [],
					"stateMutability": "nonpayable",
					"type": "constructor"
				},
				{
					"anonymous": false,
					"inputs": [
						{
							"indexed": false,
							"internalType": "string",
							"name": "title",
							"type": "string"
						},
						{
							"indexed": false,
							"internalType": "enum TodoList.Status",
							"name": "status",
							"type": "uint8"
						}
					],
					"name": "TodoCreated",
					"type": "event"
				},
				{
					"anonymous": false,
					"inputs": [
						{
							"indexed": false,
							"internalType": "string",
							"name": "title",
							"type": "string"
						},
						{
							"indexed": false,
							"internalType": "enum TodoList.Status",
							"name": "status",
							"type": "uint8"
						}
					],
					"name": "TodoUpdated",
					"type": "event"
				},
				{
					"inputs": [
						{
							"internalType": "string",
							"name": "_title",
							"type": "string"
						},
						{
							"internalType": "string",
							"name": "_desc",
							"type": "string"
						}
					],
					"name": "createTodo",
					"outputs": [
						{
							"internalType": "bool",
							"name": "",
							"type": "bool"
						}
					],
					"stateMutability": "nonpayable",
					"type": "function"
				},
				{
					"inputs": [
						{
							"internalType": "uint8",
							"name": "_index",
							"type": "uint8"
						}
					],
					"name": "getTodo",
					"outputs": [
						{
							"internalType": "string",
							"name": "",
							"type": "string"
						},
						{
							"internalType": "string",
							"name": "",
							"type": "string"
						},
						{
							"internalType": "enum TodoList.Status",
							"name": "",
							"type": "uint8"
						}
					],
					"stateMutability": "view",
					"type": "function"
				},
				{
					"inputs": [],
					"name": "owner",
					"outputs": [
						{
							"internalType": "address",
							"name": "",
							"type": "address"
						}
					],
					"stateMutability": "view",
					"type": "function"
				},
				{
					"inputs": [
						{
							"internalType": "uint256",
							"name": "",
							"type": "uint256"
						}
					],
					"name": "todos",
					"outputs": [
						{
							"internalType": "string",
							"name": "title",
							"type": "string"
						},
						{
							"internalType": "string",
							"name": "description",
							"type": "string"
						},
						{
							"internalType": "enum TodoList.Status",
							"name": "status",
							"type": "uint8"
						}
					],
					"stateMutability": "view",
					"type": "function"
				},
				{
					"inputs": [
						{
							"internalType": "uint8",
							"name": "_index",
							"type": "uint8"
						},
						{
							"internalType": "string",
							"name": "_title",
							"type": "string"
						},
						{
							"internalType": "string",
							"name": "_desc",
							"type": "string"
						}
					],
					"name": "updateTodo",
					"outputs": [],
					"stateMutability": "nonpayable",
					"type": "function"
				}
			],
			"devdoc": {
				"kind": "dev",
				"methods": {},
				"version": 1
			},
			"evm": {
				"assembly": "    /* \"contracts/Todo.sol\":61:1800  contract TodoList{... */\n  mstore(0x40, 0x80)\n    /* \"contracts/Todo.sol\":296:350  constructor(){... */\n  callvalue\n  dup1\n  iszero\n  tag_1\n  jumpi\n  revert(0x00, 0x00)\ntag_1:\n  pop\n    /* \"contracts/Todo.sol\":328:338  msg.sender */\n  caller\n    /* \"contracts/Todo.sol\":320:325  owner */\n  0x00\n  0x00\n    /* \"contracts/Todo.sol\":320:338  owner = msg.sender */\n  0x0100\n  exp\n  dup2\n  sload\n  dup2\n  0xffffffffffffffffffffffffffffffffffffffff\n  mul\n  not\n  and\n  swap1\n  dup4\n  0xffffffffffffffffffffffffffffffffffffffff\n  and\n  mul\n  or\n  swap1\n  sstore\n  pop\n    /* \"contracts/Todo.sol\":61:1800  contract TodoList{... */\n  dataSize(sub_0)\n  dup1\n  dataOffset(sub_0)\n  0x00\n  codecopy\n  0x00\n  return\nstop\n\nsub_0: assembly {\n        /* \"contracts/Todo.sol\":61:1800  contract TodoList{... */\n      mstore(0x40, 0x80)\n      callvalue\n      dup1\n      iszero\n      tag_1\n      jumpi\n      revert(0x00, 0x00)\n    tag_1:\n      pop\n      jumpi(tag_2, lt(calldatasize, 0x04))\n      shr(0xe0, calldataload(0x00))\n      dup1\n      0x3380b99f\n      eq\n      tag_3\n      jumpi\n      dup1\n      0x8da5cb5b\n      eq\n      tag_4\n      jumpi\n      dup1\n      0xbc8bc2b4\n      eq\n      tag_5\n      jumpi\n      dup1\n      0xe9505164\n      eq\n      tag_6\n      jumpi\n      dup1\n      0xfb0b86fb\n      eq\n      tag_7\n      jumpi\n    tag_2:\n      revert(0x00, 0x00)\n        /* \"contracts/Todo.sol\":722:1094  function createTodo(string memory _title, string memory _desc) external onlyOwner validAddress returns (bool){... */\n    tag_3:\n      tag_8\n      0x04\n      dup1\n      calldatasize\n      sub\n      dup2\n      add\n      swap1\n      tag_9\n      swap2\n      swap1\n      tag_10\n      jump\t// in\n    tag_9:\n      tag_11\n      jump\t// in\n    tag_8:\n      mload(0x40)\n      tag_12\n      swap2\n      swap1\n      tag_13\n      jump\t// in\n    tag_12:\n      mload(0x40)\n      dup1\n      swap2\n      sub\n      swap1\n      return\n        /* \"contracts/Todo.sol\":87:107  address public owner */\n    tag_4:\n      tag_14\n      tag_15\n      jump\t// in\n    tag_14:\n      mload(0x40)\n      tag_16\n      swap2\n      swap1\n      tag_17\n      jump\t// in\n    tag_16:\n      mload(0x40)\n      dup1\n      swap2\n      sub\n      swap1\n      return\n        /* \"contracts/Todo.sol\":268:287  Todo[] public todos */\n    tag_5:\n      tag_18\n      0x04\n      dup1\n      calldatasize\n      sub\n      dup2\n      add\n      swap1\n      tag_19\n      swap2\n      swap1\n      tag_20\n      jump\t// in\n    tag_19:\n      tag_21\n      jump\t// in\n    tag_18:\n      mload(0x40)\n      tag_22\n      swap4\n      swap3\n      swap2\n      swap1\n      tag_23\n      jump\t// in\n    tag_22:\n      mload(0x40)\n      dup1\n      swap2\n      sub\n      swap1\n      return\n        /* \"contracts/Todo.sol\":1102:1496  function updateTodo(uint8 _index, string memory _title, string memory _desc) external onlyOwner validAddress{... */\n    tag_6:\n      tag_24\n      0x04\n      dup1\n      calldatasize\n      sub\n      dup2\n      add\n      swap1\n      tag_25\n      swap2\n      swap1\n      tag_26\n      jump\t// in\n    tag_25:\n      tag_27\n      jump\t// in\n    tag_24:\n      stop\n        /* \"contracts/Todo.sol\":1504:1796  function getTodo(uint8 _index) external view validAddress returns (string memory, string memory, Status){... */\n    tag_7:\n      tag_28\n      0x04\n      dup1\n      calldatasize\n      sub\n      dup2\n      add\n      swap1\n      tag_29\n      swap2\n      swap1\n      tag_30\n      jump\t// in\n    tag_29:\n      tag_31\n      jump\t// in\n    tag_28:\n      mload(0x40)\n      tag_32\n      swap4\n      swap3\n      swap2\n      swap1\n      tag_23\n      jump\t// in\n    tag_32:\n      mload(0x40)\n      dup1\n      swap2\n      sub\n      swap1\n      return\n        /* \"contracts/Todo.sol\":722:1094  function createTodo(string memory _title, string memory _desc) external onlyOwner validAddress returns (bool){... */\n    tag_11:\n        /* \"contracts/Todo.sol\":826:830  bool */\n      0x00\n        /* \"contracts/Todo.sol\":411:416  owner */\n      0x00\n      0x00\n      swap1\n      sload\n      swap1\n      0x0100\n      exp\n      swap1\n      div\n      0xffffffffffffffffffffffffffffffffffffffff\n      and\n        /* \"contracts/Todo.sol\":397:416  msg.sender == owner */\n      0xffffffffffffffffffffffffffffffffffffffff\n      and\n        /* \"contracts/Todo.sol\":397:407  msg.sender */\n      caller\n        /* \"contracts/Todo.sol\":397:416  msg.sender == owner */\n      0xffffffffffffffffffffffffffffffffffffffff\n      and\n      eq\n        /* \"contracts/Todo.sol\":389:439  require(msg.sender == owner, \"You're not allowed\") */\n      tag_34\n      jumpi\n      mload(0x40)\n      0x08c379a000000000000000000000000000000000000000000000000000000000\n      dup2\n      mstore\n      0x04\n      add\n      tag_35\n      swap1\n      tag_36\n      jump\t// in\n    tag_35:\n      mload(0x40)\n      dup1\n      swap2\n      sub\n      swap1\n      revert\n    tag_34:\n        /* \"contracts/Todo.sol\":531:532  0 */\n      0x00\n        /* \"contracts/Todo.sol\":509:533  msg.sender != address(0) */\n      0xffffffffffffffffffffffffffffffffffffffff\n      and\n        /* \"contracts/Todo.sol\":509:519  msg.sender */\n      caller\n        /* \"contracts/Todo.sol\":509:533  msg.sender != address(0) */\n      0xffffffffffffffffffffffffffffffffffffffff\n      and\n      sub\n        /* \"contracts/Todo.sol\":501:562  require(msg.sender != address(0), \"Zeor address not allowed\") */\n      tag_38\n      jumpi\n      mload(0x40)\n      0x08c379a000000000000000000000000000000000000000000000000000000000\n      dup2\n      mstore\n      0x04\n      add\n      tag_39\n      swap1\n      tag_40\n      jump\t// in\n    tag_39:\n      mload(0x40)\n      dup1\n      swap2\n      sub\n      swap1\n      revert\n    tag_38:\n        /* \"contracts/Todo.sol\":842:860  Todo memory mytodo */\n      tag_42\n      tag_43\n      jump\t// in\n    tag_42:\n        /* \"contracts/Todo.sol\":886:892  _title */\n      dup4\n        /* \"contracts/Todo.sol\":871:877  mytodo */\n      dup2\n        /* \"contracts/Todo.sol\":871:883  mytodo.title */\n      0x00\n      add\n        /* \"contracts/Todo.sol\":871:892  mytodo.title = _title */\n      dup2\n      swap1\n      mstore\n      pop\n        /* \"contracts/Todo.sol\":924:929  _desc */\n      dup3\n        /* \"contracts/Todo.sol\":903:909  mytodo */\n      dup2\n        /* \"contracts/Todo.sol\":903:921  mytodo.description */\n      0x20\n      add\n        /* \"contracts/Todo.sol\":903:929  mytodo.description = _desc */\n      dup2\n      swap1\n      mstore\n      pop\n        /* \"contracts/Todo.sol\":956:970  Status.Created */\n      0x01\n        /* \"contracts/Todo.sol\":940:946  mytodo */\n      dup2\n        /* \"contracts/Todo.sol\":940:953  mytodo.status */\n      0x40\n      add\n        /* \"contracts/Todo.sol\":940:970  mytodo.status = Status.Created */\n      swap1\n      0x03\n      dup2\n      gt\n      iszero\n      tag_44\n      jumpi\n      tag_45\n      tag_46\n      jump\t// in\n    tag_45:\n    tag_44:\n      swap1\n      dup2\n      0x03\n      dup2\n      gt\n      iszero\n      tag_47\n      jumpi\n      tag_48\n      tag_46\n      jump\t// in\n    tag_48:\n    tag_47:\n      dup2\n      mstore\n      pop\n      pop\n        /* \"contracts/Todo.sol\":983:988  todos */\n      0x01\n        /* \"contracts/Todo.sol\":994:1000  mytodo */\n      dup2\n        /* \"contracts/Todo.sol\":983:1001  todos.push(mytodo) */\n      swap1\n      dup1\n      0x01\n      dup2\n      sload\n      add\n      dup1\n      dup3\n      sstore\n      dup1\n      swap2\n      pop\n      pop\n      0x01\n      swap1\n      sub\n      swap1\n      0x00\n      mstore\n      keccak256(0x00, 0x20)\n      swap1\n      0x03\n      mul\n      add\n      0x00\n      swap1\n      swap2\n      swap1\n      swap2\n      swap1\n      swap2\n      pop\n      0x00\n      dup3\n      add\n      mload\n      dup2\n      0x00\n      add\n      swap1\n      dup2\n      tag_50\n      swap2\n      swap1\n      tag_51\n      jump\t// in\n    tag_50:\n      pop\n      0x20\n      dup3\n      add\n      mload\n      dup2\n      0x01\n      add\n      swap1\n      dup2\n      tag_52\n      swap2\n      swap1\n      tag_51\n      jump\t// in\n    tag_52:\n      pop\n      0x40\n      dup3\n      add\n      mload\n      dup2\n      0x02\n      add\n      exp(0x0100, 0x00)\n      dup2\n      sload\n      dup2\n      0xff\n      mul\n      not\n      and\n      swap1\n      dup4\n      0x03\n      dup2\n      gt\n      iszero\n      tag_53\n      jumpi\n      tag_54\n      tag_46\n      jump\t// in\n    tag_54:\n    tag_53:\n      mul\n      or\n      swap1\n      sstore\n      pop\n      pop\n      pop\n        /* \"contracts/Todo.sol\":1025:1060  TodoCreated(_title, Status.Created) */\n      0xb24501745f85fff88cc582df1223bf671a1234ab872711ffaa7eb8bd56fe311e\n        /* \"contracts/Todo.sol\":1037:1043  _title */\n      dup5\n        /* \"contracts/Todo.sol\":1045:1059  Status.Created */\n      0x01\n        /* \"contracts/Todo.sol\":1025:1060  TodoCreated(_title, Status.Created) */\n      mload(0x40)\n      tag_55\n      swap3\n      swap2\n      swap1\n      tag_56\n      jump\t// in\n    tag_55:\n      mload(0x40)\n      dup1\n      swap2\n      sub\n      swap1\n      log1\n        /* \"contracts/Todo.sol\":1080:1084  true */\n      0x01\n        /* \"contracts/Todo.sol\":1073:1084  return true */\n      swap2\n      pop\n      pop\n        /* \"contracts/Todo.sol\":722:1094  function createTodo(string memory _title, string memory _desc) external onlyOwner validAddress returns (bool){... */\n      swap3\n      swap2\n      pop\n      pop\n      jump\t// out\n        /* \"contracts/Todo.sol\":87:107  address public owner */\n    tag_15:\n      0x00\n      0x00\n      swap1\n      sload\n      swap1\n      0x0100\n      exp\n      swap1\n      div\n      0xffffffffffffffffffffffffffffffffffffffff\n      and\n      dup2\n      jump\t// out\n        /* \"contracts/Todo.sol\":268:287  Todo[] public todos */\n    tag_21:\n      0x01\n      dup2\n      dup2\n      sload\n      dup2\n      lt\n      tag_57\n      jumpi\n      0x00\n      dup1\n      revert\n    tag_57:\n      swap1\n      0x00\n      mstore\n      keccak256(0x00, 0x20)\n      swap1\n      0x03\n      mul\n      add\n      0x00\n      swap2\n      pop\n      swap1\n      pop\n      dup1\n      0x00\n      add\n      dup1\n      sload\n      tag_59\n      swap1\n      tag_60\n      jump\t// in\n    tag_59:\n      dup1\n      0x1f\n      add\n      0x20\n      dup1\n      swap2\n      div\n      mul\n      0x20\n      add\n      mload(0x40)\n      swap1\n      dup2\n      add\n      0x40\n      mstore\n      dup1\n      swap3\n      swap2\n      swap1\n      dup2\n      dup2\n      mstore\n      0x20\n      add\n      dup3\n      dup1\n      sload\n      tag_61\n      swap1\n      tag_60\n      jump\t// in\n    tag_61:\n      dup1\n      iszero\n      tag_62\n      jumpi\n      dup1\n      0x1f\n      lt\n      tag_63\n      jumpi\n      0x0100\n      dup1\n      dup4\n      sload\n      div\n      mul\n      dup4\n      mstore\n      swap2\n      0x20\n      add\n      swap2\n      jump(tag_62)\n    tag_63:\n      dup3\n      add\n      swap2\n      swap1\n      0x00\n      mstore\n      keccak256(0x00, 0x20)\n      swap1\n    tag_64:\n      dup2\n      sload\n      dup2\n      mstore\n      swap1\n      0x01\n      add\n      swap1\n      0x20\n      add\n      dup1\n      dup4\n      gt\n      tag_64\n      jumpi\n      dup3\n      swap1\n      sub\n      0x1f\n      and\n      dup3\n      add\n      swap2\n    tag_62:\n      pop\n      pop\n      pop\n      pop\n      pop\n      swap1\n      dup1\n      0x01\n      add\n      dup1\n      sload\n      tag_65\n      swap1\n      tag_60\n      jump\t// in\n    tag_65:\n      dup1\n      0x1f\n      add\n      0x20\n      dup1\n      swap2\n      div\n      mul\n      0x20\n      add\n      mload(0x40)\n      swap1\n      dup2\n      add\n      0x40\n      mstore\n      dup1\n      swap3\n      swap2\n      swap1\n      dup2\n      dup2\n      mstore\n      0x20\n      add\n      dup3\n      dup1\n      sload\n      tag_66\n      swap1\n      tag_60\n      jump\t// in\n    tag_66:\n      dup1\n      iszero\n      tag_67\n      jumpi\n      dup1\n      0x1f\n      lt\n      tag_68\n      jumpi\n      0x0100\n      dup1\n      dup4\n      sload\n      div\n      mul\n      dup4\n      mstore\n      swap2\n      0x20\n      add\n      swap2\n      jump(tag_67)\n    tag_68:\n      dup3\n      add\n      swap2\n      swap1\n      0x00\n      mstore\n      keccak256(0x00, 0x20)\n      swap1\n    tag_69:\n      dup2\n      sload\n      dup2\n      mstore\n      swap1\n      0x01\n      add\n      swap1\n      0x20\n      add\n      dup1\n      dup4\n      gt\n      tag_69\n      jumpi\n      dup3\n      swap1\n      sub\n      0x1f\n      and\n      dup3\n      add\n      swap2\n    tag_67:\n      pop\n      pop\n      pop\n      pop\n      pop\n      swap1\n      dup1\n      0x02\n      add\n      0x00\n      swap1\n      sload\n      swap1\n      0x0100\n      exp\n      swap1\n      div\n      0xff\n      and\n      swap1\n      pop\n      dup4\n      jump\t// out\n        /* \"contracts/Todo.sol\":1102:1496  function updateTodo(uint8 _index, string memory _title, string memory _desc) external onlyOwner validAddress{... */\n    tag_27:\n        /* \"contracts/Todo.sol\":411:416  owner */\n      0x00\n      0x00\n      swap1\n      sload\n      swap1\n      0x0100\n      exp\n      swap1\n      div\n      0xffffffffffffffffffffffffffffffffffffffff\n      and\n        /* \"contracts/Todo.sol\":397:416  msg.sender == owner */\n      0xffffffffffffffffffffffffffffffffffffffff\n      and\n        /* \"contracts/Todo.sol\":397:407  msg.sender */\n      caller\n        /* \"contracts/Todo.sol\":397:416  msg.sender == owner */\n      0xffffffffffffffffffffffffffffffffffffffff\n      and\n      eq\n        /* \"contracts/Todo.sol\":389:439  require(msg.sender == owner, \"You're not allowed\") */\n      tag_71\n      jumpi\n      mload(0x40)\n      0x08c379a000000000000000000000000000000000000000000000000000000000\n      dup2\n      mstore\n      0x04\n      add\n      tag_72\n      swap1\n      tag_36\n      jump\t// in\n    tag_72:\n      mload(0x40)\n      dup1\n      swap2\n      sub\n      swap1\n      revert\n    tag_71:\n        /* \"contracts/Todo.sol\":531:532  0 */\n      0x00\n        /* \"contracts/Todo.sol\":509:533  msg.sender != address(0) */\n      0xffffffffffffffffffffffffffffffffffffffff\n      and\n        /* \"contracts/Todo.sol\":509:519  msg.sender */\n      caller\n        /* \"contracts/Todo.sol\":509:533  msg.sender != address(0) */\n      0xffffffffffffffffffffffffffffffffffffffff\n      and\n      sub\n        /* \"contracts/Todo.sol\":501:562  require(msg.sender != address(0), \"Zeor address not allowed\") */\n      tag_74\n      jumpi\n      mload(0x40)\n      0x08c379a000000000000000000000000000000000000000000000000000000000\n      dup2\n      mstore\n      0x04\n      add\n      tag_75\n      swap1\n      tag_40\n      jump\t// in\n    tag_75:\n      mload(0x40)\n      dup1\n      swap2\n      sub\n      swap1\n      revert\n    tag_74:\n        /* \"contracts/Todo.sol\":1238:1243  todos */\n      0x01\n        /* \"contracts/Todo.sol\":1238:1250  todos.length */\n      dup1\n      sload\n      swap1\n      pop\n        /* \"contracts/Todo.sol\":1229:1235  _index */\n      dup4\n        /* \"contracts/Todo.sol\":1229:1250  _index < todos.length */\n      0xff\n      and\n      lt\n        /* \"contracts/Todo.sol\":1221:1276  require(_index < todos.length, \"Index is out of bound\") */\n      tag_77\n      jumpi\n      mload(0x40)\n      0x08c379a000000000000000000000000000000000000000000000000000000000\n      dup2\n      mstore\n      0x04\n      add\n      tag_78\n      swap1\n      tag_79\n      jump\t// in\n    tag_78:\n      mload(0x40)\n      dup1\n      swap2\n      sub\n      swap1\n      revert\n    tag_77:\n        /* \"contracts/Todo.sol\":1290:1309  Todo storage mytodo */\n      0x00\n        /* \"contracts/Todo.sol\":1312:1317  todos */\n      0x01\n        /* \"contracts/Todo.sol\":1318:1324  _index */\n      dup5\n        /* \"contracts/Todo.sol\":1312:1325  todos[_index] */\n      0xff\n      and\n      dup2\n      sload\n      dup2\n      lt\n      tag_80\n      jumpi\n      tag_81\n      tag_82\n      jump\t// in\n    tag_81:\n    tag_80:\n      swap1\n      0x00\n      mstore\n      keccak256(0x00, 0x20)\n      swap1\n      0x03\n      mul\n      add\n        /* \"contracts/Todo.sol\":1290:1325  Todo storage mytodo = todos[_index] */\n      swap1\n      pop\n        /* \"contracts/Todo.sol\":1351:1357  _title */\n      dup3\n        /* \"contracts/Todo.sol\":1336:1342  mytodo */\n      dup2\n        /* \"contracts/Todo.sol\":1336:1348  mytodo.title */\n      0x00\n      add\n        /* \"contracts/Todo.sol\":1336:1357  mytodo.title = _title */\n      swap1\n      dup2\n      tag_84\n      swap2\n      swap1\n      tag_51\n      jump\t// in\n    tag_84:\n      pop\n        /* \"contracts/Todo.sol\":1389:1394  _desc */\n      dup2\n        /* \"contracts/Todo.sol\":1368:1374  mytodo */\n      dup2\n        /* \"contracts/Todo.sol\":1368:1386  mytodo.description */\n      0x01\n      add\n        /* \"contracts/Todo.sol\":1368:1394  mytodo.description = _desc */\n      swap1\n      dup2\n      tag_85\n      swap2\n      swap1\n      tag_51\n      jump\t// in\n    tag_85:\n      pop\n        /* \"contracts/Todo.sol\":1421:1434  Status.Edited */\n      0x02\n        /* \"contracts/Todo.sol\":1405:1411  mytodo */\n      dup2\n        /* \"contracts/Todo.sol\":1405:1418  mytodo.status */\n      0x02\n      add\n      0x00\n        /* \"contracts/Todo.sol\":1405:1434  mytodo.status = Status.Edited */\n      0x0100\n      exp\n      dup2\n      sload\n      dup2\n      0xff\n      mul\n      not\n      and\n      swap1\n      dup4\n      0x03\n      dup2\n      gt\n      iszero\n      tag_86\n      jumpi\n      tag_87\n      tag_46\n      jump\t// in\n    tag_87:\n    tag_86:\n      mul\n      or\n      swap1\n      sstore\n      pop\n        /* \"contracts/Todo.sol\":1452:1486  TodoUpdated(_title, Status.Edited) */\n      0x3ff5b2dbb379a3765de2a11e90d91cfaf54b178f2d29590471f1fb57642fd165\n        /* \"contracts/Todo.sol\":1464:1470  _title */\n      dup4\n        /* \"contracts/Todo.sol\":1472:1485  Status.Edited */\n      0x02\n        /* \"contracts/Todo.sol\":1452:1486  TodoUpdated(_title, Status.Edited) */\n      mload(0x40)\n      tag_88\n      swap3\n      swap2\n      swap1\n      tag_56\n      jump\t// in\n    tag_88:\n      mload(0x40)\n      dup1\n      swap2\n      sub\n      swap1\n      log1\n        /* \"contracts/Todo.sol\":1210:1496  {... */\n      pop\n        /* \"contracts/Todo.sol\":1102:1496  function updateTodo(uint8 _index, string memory _title, string memory _desc) external onlyOwner validAddress{... */\n      pop\n      pop\n      pop\n      jump\t// out\n        /* \"contracts/Todo.sol\":1504:1796  function getTodo(uint8 _index) external view validAddress returns (string memory, string memory, Status){... */\n    tag_31:\n        /* \"contracts/Todo.sol\":1571:1584  string memory */\n      0x60\n        /* \"contracts/Todo.sol\":1586:1599  string memory */\n      dup1\n        /* \"contracts/Todo.sol\":1601:1607  Status */\n      0x00\n        /* \"contracts/Todo.sol\":531:532  0 */\n      0x00\n        /* \"contracts/Todo.sol\":509:533  msg.sender != address(0) */\n      0xffffffffffffffffffffffffffffffffffffffff\n      and\n        /* \"contracts/Todo.sol\":509:519  msg.sender */\n      caller\n        /* \"contracts/Todo.sol\":509:533  msg.sender != address(0) */\n      0xffffffffffffffffffffffffffffffffffffffff\n      and\n      sub\n        /* \"contracts/Todo.sol\":501:562  require(msg.sender != address(0), \"Zeor address not allowed\") */\n      tag_90\n      jumpi\n      mload(0x40)\n      0x08c379a000000000000000000000000000000000000000000000000000000000\n      dup2\n      mstore\n      0x04\n      add\n      tag_91\n      swap1\n      tag_40\n      jump\t// in\n    tag_91:\n      mload(0x40)\n      dup1\n      swap2\n      sub\n      swap1\n      revert\n    tag_90:\n        /* \"contracts/Todo.sol\":1636:1641  todos */\n      0x01\n        /* \"contracts/Todo.sol\":1636:1648  todos.length */\n      dup1\n      sload\n      swap1\n      pop\n        /* \"contracts/Todo.sol\":1627:1633  _index */\n      dup5\n        /* \"contracts/Todo.sol\":1627:1648  _index < todos.length */\n      0xff\n      and\n      lt\n        /* \"contracts/Todo.sol\":1619:1674  require(_index < todos.length, \"Index is out-of-bound\") */\n      tag_93\n      jumpi\n      mload(0x40)\n      0x08c379a000000000000000000000000000000000000000000000000000000000\n      dup2\n      mstore\n      0x04\n      add\n      tag_94\n      swap1\n      tag_95\n      jump\t// in\n    tag_94:\n      mload(0x40)\n      dup1\n      swap2\n      sub\n      swap1\n      revert\n    tag_93:\n        /* \"contracts/Todo.sol\":1687:1705  Todo memory mytodo */\n      0x00\n        /* \"contracts/Todo.sol\":1708:1713  todos */\n      0x01\n        /* \"contracts/Todo.sol\":1714:1720  _index */\n      dup6\n        /* \"contracts/Todo.sol\":1708:1721  todos[_index] */\n      0xff\n      and\n      dup2\n      sload\n      dup2\n      lt\n      tag_96\n      jumpi\n      tag_97\n      tag_82\n      jump\t// in\n    tag_97:\n    tag_96:\n      swap1\n      0x00\n      mstore\n      keccak256(0x00, 0x20)\n      swap1\n      0x03\n      mul\n      add\n        /* \"contracts/Todo.sol\":1687:1721  Todo memory mytodo = todos[_index] */\n      mload(0x40)\n      dup1\n      0x60\n      add\n      0x40\n      mstore\n      swap1\n      dup2\n      0x00\n      dup3\n      add\n      dup1\n      sload\n      tag_99\n      swap1\n      tag_60\n      jump\t// in\n    tag_99:\n      dup1\n      0x1f\n      add\n      0x20\n      dup1\n      swap2\n      div\n      mul\n      0x20\n      add\n      mload(0x40)\n      swap1\n      dup2\n      add\n      0x40\n      mstore\n      dup1\n      swap3\n      swap2\n      swap1\n      dup2\n      dup2\n      mstore\n      0x20\n      add\n      dup3\n      dup1\n      sload\n      tag_100\n      swap1\n      tag_60\n      jump\t// in\n    tag_100:\n      dup1\n      iszero\n      tag_101\n      jumpi\n      dup1\n      0x1f\n      lt\n      tag_102\n      jumpi\n      0x0100\n      dup1\n      dup4\n      sload\n      div\n      mul\n      dup4\n      mstore\n      swap2\n      0x20\n      add\n      swap2\n      jump(tag_101)\n    tag_102:\n      dup3\n      add\n      swap2\n      swap1\n      0x00\n      mstore\n      keccak256(0x00, 0x20)\n      swap1\n    tag_103:\n      dup2\n      sload\n      dup2\n      mstore\n      swap1\n      0x01\n      add\n      swap1\n      0x20\n      add\n      dup1\n      dup4\n      gt\n      tag_103\n      jumpi\n      dup3\n      swap1\n      sub\n      0x1f\n      and\n      dup3\n      add\n      swap2\n    tag_101:\n      pop\n      pop\n      pop\n      pop\n      pop\n      dup2\n      mstore\n      0x20\n      add\n      0x01\n      dup3\n      add\n      dup1\n      sload\n      tag_104\n      swap1\n      tag_60\n      jump\t// in\n    tag_104:\n      dup1\n      0x1f\n      add\n      0x20\n      dup1\n      swap2\n      div\n      mul\n      0x20\n      add\n      mload(0x40)\n      swap1\n      dup2\n      add\n      0x40\n      mstore\n      dup1\n      swap3\n      swap2\n      swap1\n      dup2\n      dup2\n      mstore\n      0x20\n      add\n      dup3\n      dup1\n      sload\n      tag_105\n      swap1\n      tag_60\n      jump\t// in\n    tag_105:\n      dup1\n      iszero\n      tag_106\n      jumpi\n      dup1\n      0x1f\n      lt\n      tag_107\n      jumpi\n      0x0100\n      dup1\n      dup4\n      sload\n      div\n      mul\n      dup4\n      mstore\n      swap2\n      0x20\n      add\n      swap2\n      jump(tag_106)\n    tag_107:\n      dup3\n      add\n      swap2\n      swap1\n      0x00\n      mstore\n      keccak256(0x00, 0x20)\n      swap1\n    tag_108:\n      dup2\n      sload\n      dup2\n      mstore\n      swap1\n      0x01\n      add\n      swap1\n      0x20\n      add\n      dup1\n      dup4\n      gt\n      tag_108\n      jumpi\n      dup3\n      swap1\n      sub\n      0x1f\n      and\n      dup3\n      add\n      swap2\n    tag_106:\n      pop\n      pop\n      pop\n      pop\n      pop\n      dup2\n      mstore\n      0x20\n      add\n      0x02\n      dup3\n      add\n      0x00\n      swap1\n      sload\n      swap1\n      0x0100\n      exp\n      swap1\n      div\n      0xff\n      and\n      0x03\n      dup2\n      gt\n      iszero\n      tag_109\n      jumpi\n      tag_110\n      tag_46\n      jump\t// in\n    tag_110:\n    tag_109:\n      0x03\n      dup2\n      gt\n      iszero\n      tag_111\n      jumpi\n      tag_112\n      tag_46\n      jump\t// in\n    tag_112:\n    tag_111:\n      dup2\n      mstore\n      pop\n      pop\n      swap1\n      pop\n        /* \"contracts/Todo.sol\":1740:1746  mytodo */\n      dup1\n        /* \"contracts/Todo.sol\":1740:1752  mytodo.title */\n      0x00\n      add\n      mload\n        /* \"contracts/Todo.sol\":1754:1760  mytodo */\n      dup2\n        /* \"contracts/Todo.sol\":1754:1772  mytodo.description */\n      0x20\n      add\n      mload\n        /* \"contracts/Todo.sol\":1774:1780  mytodo */\n      dup3\n        /* \"contracts/Todo.sol\":1774:1787  mytodo.status */\n      0x40\n      add\n      mload\n        /* \"contracts/Todo.sol\":1732:1788  return (mytodo.title, mytodo.description, mytodo.status) */\n      swap4\n      pop\n      swap4\n      pop\n      swap4\n      pop\n      pop\n        /* \"contracts/Todo.sol\":1504:1796  function getTodo(uint8 _index) external view validAddress returns (string memory, string memory, Status){... */\n      swap2\n      swap4\n      swap1\n      swap3\n      pop\n      jump\t// out\n    tag_43:\n      mload(0x40)\n      dup1\n      0x60\n      add\n      0x40\n      mstore\n      dup1\n      0x60\n      dup2\n      mstore\n      0x20\n      add\n      0x60\n      dup2\n      mstore\n      0x20\n      add\n      0x00\n      0x03\n      dup2\n      gt\n      iszero\n      tag_113\n      jumpi\n      tag_114\n      tag_46\n      jump\t// in\n    tag_114:\n    tag_113:\n      dup2\n      mstore\n      pop\n      swap1\n      jump\t// out\n        /* \"#utility.yul\":7:82   */\n    tag_115:\n        /* \"#utility.yul\":40:46   */\n      0x00\n        /* \"#utility.yul\":73:75   */\n      0x40\n        /* \"#utility.yul\":67:76   */\n      mload\n        /* \"#utility.yul\":57:76   */\n      swap1\n      pop\n        /* \"#utility.yul\":7:82   */\n      swap1\n      jump\t// out\n        /* \"#utility.yul\":88:205   */\n    tag_116:\n        /* \"#utility.yul\":197:198   */\n      0x00\n        /* \"#utility.yul\":194:195   */\n      0x00\n        /* \"#utility.yul\":187:199   */\n      revert\n        /* \"#utility.yul\":211:328   */\n    tag_117:\n        /* \"#utility.yul\":320:321   */\n      0x00\n        /* \"#utility.yul\":317:318   */\n      0x00\n        /* \"#utility.yul\":310:322   */\n      revert\n        /* \"#utility.yul\":334:451   */\n    tag_118:\n        /* \"#utility.yul\":443:444   */\n      0x00\n        /* \"#utility.yul\":440:441   */\n      0x00\n        /* \"#utility.yul\":433:445   */\n      revert\n        /* \"#utility.yul\":457:574   */\n    tag_119:\n        /* \"#utility.yul\":566:567   */\n      0x00\n        /* \"#utility.yul\":563:564   */\n      0x00\n        /* \"#utility.yul\":556:568   */\n      revert\n        /* \"#utility.yul\":580:682   */\n    tag_120:\n        /* \"#utility.yul\":621:627   */\n      0x00\n        /* \"#utility.yul\":672:674   */\n      0x1f\n        /* \"#utility.yul\":668:675   */\n      not\n        /* \"#utility.yul\":663:665   */\n      0x1f\n        /* \"#utility.yul\":656:661   */\n      dup4\n        /* \"#utility.yul\":652:666   */\n      add\n        /* \"#utility.yul\":648:676   */\n      and\n        /* \"#utility.yul\":638:676   */\n      swap1\n      pop\n        /* \"#utility.yul\":580:682   */\n      swap2\n      swap1\n      pop\n      jump\t// out\n        /* \"#utility.yul\":688:868   */\n    tag_121:\n        /* \"#utility.yul\":736:813   */\n      0x4e487b7100000000000000000000000000000000000000000000000000000000\n        /* \"#utility.yul\":733:734   */\n      0x00\n        /* \"#utility.yul\":726:814   */\n      mstore\n        /* \"#utility.yul\":833:837   */\n      0x41\n        /* \"#utility.yul\":830:831   */\n      0x04\n        /* \"#utility.yul\":823:838   */\n      mstore\n        /* \"#utility.yul\":857:861   */\n      0x24\n        /* \"#utility.yul\":854:855   */\n      0x00\n        /* \"#utility.yul\":847:862   */\n      revert\n        /* \"#utility.yul\":874:1155   */\n    tag_122:\n        /* \"#utility.yul\":957:984   */\n      tag_180\n        /* \"#utility.yul\":979:983   */\n      dup3\n        /* \"#utility.yul\":957:984   */\n      tag_120\n      jump\t// in\n    tag_180:\n        /* \"#utility.yul\":949:955   */\n      dup2\n        /* \"#utility.yul\":945:985   */\n      add\n        /* \"#utility.yul\":1087:1093   */\n      dup2\n        /* \"#utility.yul\":1075:1085   */\n      dup2\n        /* \"#utility.yul\":1072:1094   */\n      lt\n        /* \"#utility.yul\":1051:1069   */\n      0xffffffffffffffff\n        /* \"#utility.yul\":1039:1049   */\n      dup3\n        /* \"#utility.yul\":1036:1070   */\n      gt\n        /* \"#utility.yul\":1033:1095   */\n      or\n        /* \"#utility.yul\":1030:1118   */\n      iszero\n      tag_181\n      jumpi\n        /* \"#utility.yul\":1098:1116   */\n      tag_182\n      tag_121\n      jump\t// in\n    tag_182:\n        /* \"#utility.yul\":1030:1118   */\n    tag_181:\n        /* \"#utility.yul\":1138:1148   */\n      dup1\n        /* \"#utility.yul\":1134:1136   */\n      0x40\n        /* \"#utility.yul\":1127:1149   */\n      mstore\n        /* \"#utility.yul\":917:1155   */\n      pop\n        /* \"#utility.yul\":874:1155   */\n      pop\n      pop\n      jump\t// out\n        /* \"#utility.yul\":1161:1290   */\n    tag_123:\n        /* \"#utility.yul\":1195:1201   */\n      0x00\n        /* \"#utility.yul\":1222:1242   */\n      tag_184\n      tag_115\n      jump\t// in\n    tag_184:\n        /* \"#utility.yul\":1212:1242   */\n      swap1\n      pop\n        /* \"#utility.yul\":1251:1284   */\n      tag_185\n        /* \"#utility.yul\":1279:1283   */\n      dup3\n        /* \"#utility.yul\":1271:1277   */\n      dup3\n        /* \"#utility.yul\":1251:1284   */\n      tag_122\n      jump\t// in\n    tag_185:\n        /* \"#utility.yul\":1161:1290   */\n      swap2\n      swap1\n      pop\n      jump\t// out\n        /* \"#utility.yul\":1296:1604   */\n    tag_124:\n        /* \"#utility.yul\":1358:1362   */\n      0x00\n        /* \"#utility.yul\":1448:1466   */\n      0xffffffffffffffff\n        /* \"#utility.yul\":1440:1446   */\n      dup3\n        /* \"#utility.yul\":1437:1467   */\n      gt\n        /* \"#utility.yul\":1434:1490   */\n      iszero\n      tag_187\n      jumpi\n        /* \"#utility.yul\":1470:1488   */\n      tag_188\n      tag_121\n      jump\t// in\n    tag_188:\n        /* \"#utility.yul\":1434:1490   */\n    tag_187:\n        /* \"#utility.yul\":1508:1537   */\n      tag_189\n        /* \"#utility.yul\":1530:1536   */\n      dup3\n        /* \"#utility.yul\":1508:1537   */\n      tag_120\n      jump\t// in\n    tag_189:\n        /* \"#utility.yul\":1500:1537   */\n      swap1\n      pop\n        /* \"#utility.yul\":1592:1596   */\n      0x20\n        /* \"#utility.yul\":1586:1590   */\n      dup2\n        /* \"#utility.yul\":1582:1597   */\n      add\n        /* \"#utility.yul\":1574:1597   */\n      swap1\n      pop\n        /* \"#utility.yul\":1296:1604   */\n      swap2\n      swap1\n      pop\n      jump\t// out\n        /* \"#utility.yul\":1610:1758   */\n    tag_125:\n        /* \"#utility.yul\":1708:1714   */\n      dup3\n        /* \"#utility.yul\":1703:1706   */\n      dup2\n        /* \"#utility.yul\":1698:1701   */\n      dup4\n        /* \"#utility.yul\":1685:1715   */\n      calldatacopy\n        /* \"#utility.yul\":1749:1750   */\n      0x00\n        /* \"#utility.yul\":1740:1746   */\n      dup4\n        /* \"#utility.yul\":1735:1738   */\n      dup4\n        /* \"#utility.yul\":1731:1747   */\n      add\n        /* \"#utility.yul\":1724:1751   */\n      mstore\n        /* \"#utility.yul\":1610:1758   */\n      pop\n      pop\n      pop\n      jump\t// out\n        /* \"#utility.yul\":1764:2189   */\n    tag_126:\n        /* \"#utility.yul\":1842:1847   */\n      0x00\n        /* \"#utility.yul\":1867:1933   */\n      tag_192\n        /* \"#utility.yul\":1883:1932   */\n      tag_193\n        /* \"#utility.yul\":1925:1931   */\n      dup5\n        /* \"#utility.yul\":1883:1932   */\n      tag_124\n      jump\t// in\n    tag_193:\n        /* \"#utility.yul\":1867:1933   */\n      tag_123\n      jump\t// in\n    tag_192:\n        /* \"#utility.yul\":1858:1933   */\n      swap1\n      pop\n        /* \"#utility.yul\":1956:1962   */\n      dup3\n        /* \"#utility.yul\":1949:1954   */\n      dup2\n        /* \"#utility.yul\":1942:1963   */\n      mstore\n        /* \"#utility.yul\":1994:1998   */\n      0x20\n        /* \"#utility.yul\":1987:1992   */\n      dup2\n        /* \"#utility.yul\":1983:1999   */\n      add\n        /* \"#utility.yul\":2032:2035   */\n      dup5\n        /* \"#utility.yul\":2023:2029   */\n      dup5\n        /* \"#utility.yul\":2018:2021   */\n      dup5\n        /* \"#utility.yul\":2014:2030   */\n      add\n        /* \"#utility.yul\":2011:2036   */\n      gt\n        /* \"#utility.yul\":2008:2120   */\n      iszero\n      tag_194\n      jumpi\n        /* \"#utility.yul\":2039:2118   */\n      tag_195\n      tag_119\n      jump\t// in\n    tag_195:\n        /* \"#utility.yul\":2008:2120   */\n    tag_194:\n        /* \"#utility.yul\":2129:2183   */\n      tag_196\n        /* \"#utility.yul\":2176:2182   */\n      dup5\n        /* \"#utility.yul\":2171:2174   */\n      dup3\n        /* \"#utility.yul\":2166:2169   */\n      dup6\n        /* \"#utility.yul\":2129:2183   */\n      tag_125\n      jump\t// in\n    tag_196:\n        /* \"#utility.yul\":1848:2189   */\n      pop\n        /* \"#utility.yul\":1764:2189   */\n      swap4\n      swap3\n      pop\n      pop\n      pop\n      jump\t// out\n        /* \"#utility.yul\":2209:2549   */\n    tag_127:\n        /* \"#utility.yul\":2265:2270   */\n      0x00\n        /* \"#utility.yul\":2314:2317   */\n      dup3\n        /* \"#utility.yul\":2307:2311   */\n      0x1f\n        /* \"#utility.yul\":2299:2305   */\n      dup4\n        /* \"#utility.yul\":2295:2312   */\n      add\n        /* \"#utility.yul\":2291:2318   */\n      slt\n        /* \"#utility.yul\":2281:2403   */\n      tag_198\n      jumpi\n        /* \"#utility.yul\":2322:2401   */\n      tag_199\n      tag_118\n      jump\t// in\n    tag_199:\n        /* \"#utility.yul\":2281:2403   */\n    tag_198:\n        /* \"#utility.yul\":2439:2445   */\n      dup2\n        /* \"#utility.yul\":2426:2446   */\n      calldataload\n        /* \"#utility.yul\":2464:2543   */\n      tag_200\n        /* \"#utility.yul\":2539:2542   */\n      dup5\n        /* \"#utility.yul\":2531:2537   */\n      dup3\n        /* \"#utility.yul\":2524:2528   */\n      0x20\n        /* \"#utility.yul\":2516:2522   */\n      dup7\n        /* \"#utility.yul\":2512:2529   */\n      add\n        /* \"#utility.yul\":2464:2543   */\n      tag_126\n      jump\t// in\n    tag_200:\n        /* \"#utility.yul\":2455:2543   */\n      swap2\n      pop\n        /* \"#utility.yul\":2271:2549   */\n      pop\n        /* \"#utility.yul\":2209:2549   */\n      swap3\n      swap2\n      pop\n      pop\n      jump\t// out\n        /* \"#utility.yul\":2555:3389   */\n    tag_10:\n        /* \"#utility.yul\":2643:2649   */\n      0x00\n        /* \"#utility.yul\":2651:2657   */\n      0x00\n        /* \"#utility.yul\":2700:2702   */\n      0x40\n        /* \"#utility.yul\":2688:2697   */\n      dup4\n        /* \"#utility.yul\":2679:2686   */\n      dup6\n        /* \"#utility.yul\":2675:2698   */\n      sub\n        /* \"#utility.yul\":2671:2703   */\n      slt\n        /* \"#utility.yul\":2668:2787   */\n      iszero\n      tag_202\n      jumpi\n        /* \"#utility.yul\":2706:2785   */\n      tag_203\n      tag_116\n      jump\t// in\n    tag_203:\n        /* \"#utility.yul\":2668:2787   */\n    tag_202:\n        /* \"#utility.yul\":2854:2855   */\n      0x00\n        /* \"#utility.yul\":2843:2852   */\n      dup4\n        /* \"#utility.yul\":2839:2856   */\n      add\n        /* \"#utility.yul\":2826:2857   */\n      calldataload\n        /* \"#utility.yul\":2884:2902   */\n      0xffffffffffffffff\n        /* \"#utility.yul\":2876:2882   */\n      dup2\n        /* \"#utility.yul\":2873:2903   */\n      gt\n        /* \"#utility.yul\":2870:2987   */\n      iszero\n      tag_204\n      jumpi\n        /* \"#utility.yul\":2906:2985   */\n      tag_205\n      tag_117\n      jump\t// in\n    tag_205:\n        /* \"#utility.yul\":2870:2987   */\n    tag_204:\n        /* \"#utility.yul\":3011:3074   */\n      tag_206\n        /* \"#utility.yul\":3066:3073   */\n      dup6\n        /* \"#utility.yul\":3057:3063   */\n      dup3\n        /* \"#utility.yul\":3046:3055   */\n      dup7\n        /* \"#utility.yul\":3042:3064   */\n      add\n        /* \"#utility.yul\":3011:3074   */\n      tag_127\n      jump\t// in\n    tag_206:\n        /* \"#utility.yul\":3001:3074   */\n      swap3\n      pop\n        /* \"#utility.yul\":2797:3084   */\n      pop\n        /* \"#utility.yul\":3151:3153   */\n      0x20\n        /* \"#utility.yul\":3140:3149   */\n      dup4\n        /* \"#utility.yul\":3136:3154   */\n      add\n        /* \"#utility.yul\":3123:3155   */\n      calldataload\n        /* \"#utility.yul\":3182:3200   */\n      0xffffffffffffffff\n        /* \"#utility.yul\":3174:3180   */\n      dup2\n        /* \"#utility.yul\":3171:3201   */\n      gt\n        /* \"#utility.yul\":3168:3285   */\n      iszero\n      tag_207\n      jumpi\n        /* \"#utility.yul\":3204:3283   */\n      tag_208\n      tag_117\n      jump\t// in\n    tag_208:\n        /* \"#utility.yul\":3168:3285   */\n    tag_207:\n        /* \"#utility.yul\":3309:3372   */\n      tag_209\n        /* \"#utility.yul\":3364:3371   */\n      dup6\n        /* \"#utility.yul\":3355:3361   */\n      dup3\n        /* \"#utility.yul\":3344:3353   */\n      dup7\n        /* \"#utility.yul\":3340:3362   */\n      add\n        /* \"#utility.yul\":3309:3372   */\n      tag_127\n      jump\t// in\n    tag_209:\n        /* \"#utility.yul\":3299:3372   */\n      swap2\n      pop\n        /* \"#utility.yul\":3094:3382   */\n      pop\n        /* \"#utility.yul\":2555:3389   */\n      swap3\n      pop\n      swap3\n      swap1\n      pop\n      jump\t// out\n        /* \"#utility.yul\":3395:3485   */\n    tag_128:\n        /* \"#utility.yul\":3429:3436   */\n      0x00\n        /* \"#utility.yul\":3472:3477   */\n      dup2\n        /* \"#utility.yul\":3465:3478   */\n      iszero\n        /* \"#utility.yul\":3458:3479   */\n      iszero\n        /* \"#utility.yul\":3447:3479   */\n      swap1\n      pop\n        /* \"#utility.yul\":3395:3485   */\n      swap2\n      swap1\n      pop\n      jump\t// out\n        /* \"#utility.yul\":3491:3600   */\n    tag_129:\n        /* \"#utility.yul\":3572:3593   */\n      tag_212\n        /* \"#utility.yul\":3587:3592   */\n      dup2\n        /* \"#utility.yul\":3572:3593   */\n      tag_128\n      jump\t// in\n    tag_212:\n        /* \"#utility.yul\":3567:3570   */\n      dup3\n        /* \"#utility.yul\":3560:3594   */\n      mstore\n        /* \"#utility.yul\":3491:3600   */\n      pop\n      pop\n      jump\t// out\n        /* \"#utility.yul\":3606:3816   */\n    tag_13:\n        /* \"#utility.yul\":3693:3697   */\n      0x00\n        /* \"#utility.yul\":3731:3733   */\n      0x20\n        /* \"#utility.yul\":3720:3729   */\n      dup3\n        /* \"#utility.yul\":3716:3734   */\n      add\n        /* \"#utility.yul\":3708:3734   */\n      swap1\n      pop\n        /* \"#utility.yul\":3744:3809   */\n      tag_214\n        /* \"#utility.yul\":3806:3807   */\n      0x00\n        /* \"#utility.yul\":3795:3804   */\n      dup4\n        /* \"#utility.yul\":3791:3808   */\n      add\n        /* \"#utility.yul\":3782:3788   */\n      dup5\n        /* \"#utility.yul\":3744:3809   */\n      tag_129\n      jump\t// in\n    tag_214:\n        /* \"#utility.yul\":3606:3816   */\n      swap3\n      swap2\n      pop\n      pop\n      jump\t// out\n        /* \"#utility.yul\":3822:3948   */\n    tag_130:\n        /* \"#utility.yul\":3859:3866   */\n      0x00\n        /* \"#utility.yul\":3899:3941   */\n      0xffffffffffffffffffffffffffffffffffffffff\n        /* \"#utility.yul\":3892:3897   */\n      dup3\n        /* \"#utility.yul\":3888:3942   */\n      and\n        /* \"#utility.yul\":3877:3942   */\n      swap1\n      pop\n        /* \"#utility.yul\":3822:3948   */\n      swap2\n      swap1\n      pop\n      jump\t// out\n        /* \"#utility.yul\":3954:4050   */\n    tag_131:\n        /* \"#utility.yul\":3991:3998   */\n      0x00\n        /* \"#utility.yul\":4020:4044   */\n      tag_217\n        /* \"#utility.yul\":4038:4043   */\n      dup3\n        /* \"#utility.yul\":4020:4044   */\n      tag_130\n      jump\t// in\n    tag_217:\n        /* \"#utility.yul\":4009:4044   */\n      swap1\n      pop\n        /* \"#utility.yul\":3954:4050   */\n      swap2\n      swap1\n      pop\n      jump\t// out\n        /* \"#utility.yul\":4056:4174   */\n    tag_132:\n        /* \"#utility.yul\":4143:4167   */\n      tag_219\n        /* \"#utility.yul\":4161:4166   */\n      dup2\n        /* \"#utility.yul\":4143:4167   */\n      tag_131\n      jump\t// in\n    tag_219:\n        /* \"#utility.yul\":4138:4141   */\n      dup3\n        /* \"#utility.yul\":4131:4168   */\n      mstore\n        /* \"#utility.yul\":4056:4174   */\n      pop\n      pop\n      jump\t// out\n        /* \"#utility.yul\":4180:4402   */\n    tag_17:\n        /* \"#utility.yul\":4273:4277   */\n      0x00\n        /* \"#utility.yul\":4311:4313   */\n      0x20\n        /* \"#utility.yul\":4300:4309   */\n      dup3\n        /* \"#utility.yul\":4296:4314   */\n      add\n        /* \"#utility.yul\":4288:4314   */\n      swap1\n      pop\n        /* \"#utility.yul\":4324:4395   */\n      tag_221\n        /* \"#utility.yul\":4392:4393   */\n      0x00\n        /* \"#utility.yul\":4381:4390   */\n      dup4\n        /* \"#utility.yul\":4377:4394   */\n      add\n        /* \"#utility.yul\":4368:4374   */\n      dup5\n        /* \"#utility.yul\":4324:4395   */\n      tag_132\n      jump\t// in\n    tag_221:\n        /* \"#utility.yul\":4180:4402   */\n      swap3\n      swap2\n      pop\n      pop\n      jump\t// out\n        /* \"#utility.yul\":4408:4485   */\n    tag_133:\n        /* \"#utility.yul\":4445:4452   */\n      0x00\n        /* \"#utility.yul\":4474:4479   */\n      dup2\n        /* \"#utility.yul\":4463:4479   */\n      swap1\n      pop\n        /* \"#utility.yul\":4408:4485   */\n      swap2\n      swap1\n      pop\n      jump\t// out\n        /* \"#utility.yul\":4491:4613   */\n    tag_134:\n        /* \"#utility.yul\":4564:4588   */\n      tag_224\n        /* \"#utility.yul\":4582:4587   */\n      dup2\n        /* \"#utility.yul\":4564:4588   */\n      tag_133\n      jump\t// in\n    tag_224:\n        /* \"#utility.yul\":4557:4562   */\n      dup2\n        /* \"#utility.yul\":4554:4589   */\n      eq\n        /* \"#utility.yul\":4544:4607   */\n      tag_225\n      jumpi\n        /* \"#utility.yul\":4603:4604   */\n      0x00\n        /* \"#utility.yul\":4600:4601   */\n      0x00\n        /* \"#utility.yul\":4593:4605   */\n      revert\n        /* \"#utility.yul\":4544:4607   */\n    tag_225:\n        /* \"#utility.yul\":4491:4613   */\n      pop\n      jump\t// out\n        /* \"#utility.yul\":4619:4758   */\n    tag_135:\n        /* \"#utility.yul\":4665:4670   */\n      0x00\n        /* \"#utility.yul\":4703:4709   */\n      dup2\n        /* \"#utility.yul\":4690:4710   */\n      calldataload\n        /* \"#utility.yul\":4681:4710   */\n      swap1\n      pop\n        /* \"#utility.yul\":4719:4752   */\n      tag_227\n        /* \"#utility.yul\":4746:4751   */\n      dup2\n        /* \"#utility.yul\":4719:4752   */\n      tag_134\n      jump\t// in\n    tag_227:\n        /* \"#utility.yul\":4619:4758   */\n      swap3\n      swap2\n      pop\n      pop\n      jump\t// out\n        /* \"#utility.yul\":4764:5093   */\n    tag_20:\n        /* \"#utility.yul\":4823:4829   */\n      0x00\n        /* \"#utility.yul\":4872:4874   */\n      0x20\n        /* \"#utility.yul\":4860:4869   */\n      dup3\n        /* \"#utility.yul\":4851:4858   */\n      dup5\n        /* \"#utility.yul\":4847:4870   */\n      sub\n        /* \"#utility.yul\":4843:4875   */\n      slt\n        /* \"#utility.yul\":4840:4959   */\n      iszero\n      tag_229\n      jumpi\n        /* \"#utility.yul\":4878:4957   */\n      tag_230\n      tag_116\n      jump\t// in\n    tag_230:\n        /* \"#utility.yul\":4840:4959   */\n    tag_229:\n        /* \"#utility.yul\":4998:4999   */\n      0x00\n        /* \"#utility.yul\":5023:5076   */\n      tag_231\n        /* \"#utility.yul\":5068:5075   */\n      dup5\n        /* \"#utility.yul\":5059:5065   */\n      dup3\n        /* \"#utility.yul\":5048:5057   */\n      dup6\n        /* \"#utility.yul\":5044:5066   */\n      add\n        /* \"#utility.yul\":5023:5076   */\n      tag_135\n      jump\t// in\n    tag_231:\n        /* \"#utility.yul\":5013:5076   */\n      swap2\n      pop\n        /* \"#utility.yul\":4969:5086   */\n      pop\n        /* \"#utility.yul\":4764:5093   */\n      swap3\n      swap2\n      pop\n      pop\n      jump\t// out\n        /* \"#utility.yul\":5099:5198   */\n    tag_136:\n        /* \"#utility.yul\":5151:5157   */\n      0x00\n        /* \"#utility.yul\":5185:5190   */\n      dup2\n        /* \"#utility.yul\":5179:5191   */\n      mload\n        /* \"#utility.yul\":5169:5191   */\n      swap1\n      pop\n        /* \"#utility.yul\":5099:5198   */\n      swap2\n      swap1\n      pop\n      jump\t// out\n        /* \"#utility.yul\":5204:5373   */\n    tag_137:\n        /* \"#utility.yul\":5288:5299   */\n      0x00\n        /* \"#utility.yul\":5322:5328   */\n      dup3\n        /* \"#utility.yul\":5317:5320   */\n      dup3\n        /* \"#utility.yul\":5310:5329   */\n      mstore\n        /* \"#utility.yul\":5362:5366   */\n      0x20\n        /* \"#utility.yul\":5357:5360   */\n      dup3\n        /* \"#utility.yul\":5353:5367   */\n      add\n        /* \"#utility.yul\":5338:5367   */\n      swap1\n      pop\n        /* \"#utility.yul\":5204:5373   */\n      swap3\n      swap2\n      pop\n      pop\n      jump\t// out\n        /* \"#utility.yul\":5379:5518   */\n    tag_138:\n        /* \"#utility.yul\":5468:5474   */\n      dup3\n        /* \"#utility.yul\":5463:5466   */\n      dup2\n        /* \"#utility.yul\":5458:5461   */\n      dup4\n        /* \"#utility.yul\":5452:5475   */\n      mcopy\n        /* \"#utility.yul\":5509:5510   */\n      0x00\n        /* \"#utility.yul\":5500:5506   */\n      dup4\n        /* \"#utility.yul\":5495:5498   */\n      dup4\n        /* \"#utility.yul\":5491:5507   */\n      add\n        /* \"#utility.yul\":5484:5511   */\n      mstore\n        /* \"#utility.yul\":5379:5518   */\n      pop\n      pop\n      pop\n      jump\t// out\n        /* \"#utility.yul\":5524:5901   */\n    tag_139:\n        /* \"#utility.yul\":5612:5615   */\n      0x00\n        /* \"#utility.yul\":5640:5679   */\n      tag_236\n        /* \"#utility.yul\":5673:5678   */\n      dup3\n        /* \"#utility.yul\":5640:5679   */\n      tag_136\n      jump\t// in\n    tag_236:\n        /* \"#utility.yul\":5695:5766   */\n      tag_237\n        /* \"#utility.yul\":5759:5765   */\n      dup2\n        /* \"#utility.yul\":5754:5757   */\n      dup6\n        /* \"#utility.yul\":5695:5766   */\n      tag_137\n      jump\t// in\n    tag_237:\n        /* \"#utility.yul\":5688:5766   */\n      swap4\n      pop\n        /* \"#utility.yul\":5775:5840   */\n      tag_238\n        /* \"#utility.yul\":5833:5839   */\n      dup2\n        /* \"#utility.yul\":5828:5831   */\n      dup6\n        /* \"#utility.yul\":5821:5825   */\n      0x20\n        /* \"#utility.yul\":5814:5819   */\n      dup7\n        /* \"#utility.yul\":5810:5826   */\n      add\n        /* \"#utility.yul\":5775:5840   */\n      tag_138\n      jump\t// in\n    tag_238:\n        /* \"#utility.yul\":5865:5894   */\n      tag_239\n        /* \"#utility.yul\":5887:5893   */\n      dup2\n        /* \"#utility.yul\":5865:5894   */\n      tag_120\n      jump\t// in\n    tag_239:\n        /* \"#utility.yul\":5860:5863   */\n      dup5\n        /* \"#utility.yul\":5856:5895   */\n      add\n        /* \"#utility.yul\":5849:5895   */\n      swap2\n      pop\n        /* \"#utility.yul\":5616:5901   */\n      pop\n        /* \"#utility.yul\":5524:5901   */\n      swap3\n      swap2\n      pop\n      pop\n      jump\t// out\n        /* \"#utility.yul\":5907:6087   */\n    tag_46:\n        /* \"#utility.yul\":5955:6032   */\n      0x4e487b7100000000000000000000000000000000000000000000000000000000\n        /* \"#utility.yul\":5952:5953   */\n      0x00\n        /* \"#utility.yul\":5945:6033   */\n      mstore\n        /* \"#utility.yul\":6052:6056   */\n      0x21\n        /* \"#utility.yul\":6049:6050   */\n      0x04\n        /* \"#utility.yul\":6042:6057   */\n      mstore\n        /* \"#utility.yul\":6076:6080   */\n      0x24\n        /* \"#utility.yul\":6073:6074   */\n      0x00\n        /* \"#utility.yul\":6066:6081   */\n      revert\n        /* \"#utility.yul\":6093:6206   */\n    tag_140:\n        /* \"#utility.yul\":6174:6175   */\n      0x04\n        /* \"#utility.yul\":6167:6172   */\n      dup2\n        /* \"#utility.yul\":6164:6176   */\n      lt\n        /* \"#utility.yul\":6154:6200   */\n      tag_242\n      jumpi\n        /* \"#utility.yul\":6180:6198   */\n      tag_243\n      tag_46\n      jump\t// in\n    tag_243:\n        /* \"#utility.yul\":6154:6200   */\n    tag_242:\n        /* \"#utility.yul\":6093:6206   */\n      pop\n      jump\t// out\n        /* \"#utility.yul\":6212:6339   */\n    tag_141:\n        /* \"#utility.yul\":6257:6264   */\n      0x00\n        /* \"#utility.yul\":6286:6291   */\n      dup2\n        /* \"#utility.yul\":6275:6291   */\n      swap1\n      pop\n        /* \"#utility.yul\":6292:6333   */\n      tag_245\n        /* \"#utility.yul\":6327:6332   */\n      dup3\n        /* \"#utility.yul\":6292:6333   */\n      tag_140\n      jump\t// in\n    tag_245:\n        /* \"#utility.yul\":6212:6339   */\n      swap2\n      swap1\n      pop\n      jump\t// out\n        /* \"#utility.yul\":6345:6472   */\n    tag_142:\n        /* \"#utility.yul\":6401:6410   */\n      0x00\n        /* \"#utility.yul\":6434:6466   */\n      tag_247\n        /* \"#utility.yul\":6460:6465   */\n      dup3\n        /* \"#utility.yul\":6434:6466   */\n      tag_141\n      jump\t// in\n    tag_247:\n        /* \"#utility.yul\":6421:6466   */\n      swap1\n      pop\n        /* \"#utility.yul\":6345:6472   */\n      swap2\n      swap1\n      pop\n      jump\t// out\n        /* \"#utility.yul\":6478:6621   */\n    tag_143:\n        /* \"#utility.yul\":6571:6614   */\n      tag_249\n        /* \"#utility.yul\":6608:6613   */\n      dup2\n        /* \"#utility.yul\":6571:6614   */\n      tag_142\n      jump\t// in\n    tag_249:\n        /* \"#utility.yul\":6566:6569   */\n      dup3\n        /* \"#utility.yul\":6559:6615   */\n      mstore\n        /* \"#utility.yul\":6478:6621   */\n      pop\n      pop\n      jump\t// out\n        /* \"#utility.yul\":6627:7263   */\n    tag_23:\n        /* \"#utility.yul\":6822:6826   */\n      0x00\n        /* \"#utility.yul\":6860:6862   */\n      0x60\n        /* \"#utility.yul\":6849:6858   */\n      dup3\n        /* \"#utility.yul\":6845:6863   */\n      add\n        /* \"#utility.yul\":6837:6863   */\n      swap1\n      pop\n        /* \"#utility.yul\":6909:6918   */\n      dup2\n        /* \"#utility.yul\":6903:6907   */\n      dup2\n        /* \"#utility.yul\":6899:6919   */\n      sub\n        /* \"#utility.yul\":6895:6896   */\n      0x00\n        /* \"#utility.yul\":6884:6893   */\n      dup4\n        /* \"#utility.yul\":6880:6897   */\n      add\n        /* \"#utility.yul\":6873:6920   */\n      mstore\n        /* \"#utility.yul\":6937:7015   */\n      tag_251\n        /* \"#utility.yul\":7010:7014   */\n      dup2\n        /* \"#utility.yul\":7001:7007   */\n      dup7\n        /* \"#utility.yul\":6937:7015   */\n      tag_139\n      jump\t// in\n    tag_251:\n        /* \"#utility.yul\":6929:7015   */\n      swap1\n      pop\n        /* \"#utility.yul\":7062:7071   */\n      dup2\n        /* \"#utility.yul\":7056:7060   */\n      dup2\n        /* \"#utility.yul\":7052:7072   */\n      sub\n        /* \"#utility.yul\":7047:7049   */\n      0x20\n        /* \"#utility.yul\":7036:7045   */\n      dup4\n        /* \"#utility.yul\":7032:7050   */\n      add\n        /* \"#utility.yul\":7025:7073   */\n      mstore\n        /* \"#utility.yul\":7090:7168   */\n      tag_252\n        /* \"#utility.yul\":7163:7167   */\n      dup2\n        /* \"#utility.yul\":7154:7160   */\n      dup6\n        /* \"#utility.yul\":7090:7168   */\n      tag_139\n      jump\t// in\n    tag_252:\n        /* \"#utility.yul\":7082:7168   */\n      swap1\n      pop\n        /* \"#utility.yul\":7178:7256   */\n      tag_253\n        /* \"#utility.yul\":7252:7254   */\n      0x40\n        /* \"#utility.yul\":7241:7250   */\n      dup4\n        /* \"#utility.yul\":7237:7255   */\n      add\n        /* \"#utility.yul\":7228:7234   */\n      dup5\n        /* \"#utility.yul\":7178:7256   */\n      tag_143\n      jump\t// in\n    tag_253:\n        /* \"#utility.yul\":6627:7263   */\n      swap5\n      swap4\n      pop\n      pop\n      pop\n      pop\n      jump\t// out\n        /* \"#utility.yul\":7269:7355   */\n    tag_144:\n        /* \"#utility.yul\":7304:7311   */\n      0x00\n        /* \"#utility.yul\":7344:7348   */\n      0xff\n        /* \"#utility.yul\":7337:7342   */\n      dup3\n        /* \"#utility.yul\":7333:7349   */\n      and\n        /* \"#utility.yul\":7322:7349   */\n      swap1\n      pop\n        /* \"#utility.yul\":7269:7355   */\n      swap2\n      swap1\n      pop\n      jump\t// out\n        /* \"#utility.yul\":7361:7479   */\n    tag_145:\n        /* \"#utility.yul\":7432:7454   */\n      tag_256\n        /* \"#utility.yul\":7448:7453   */\n      dup2\n        /* \"#utility.yul\":7432:7454   */\n      tag_144\n      jump\t// in\n    tag_256:\n        /* \"#utility.yul\":7425:7430   */\n      dup2\n        /* \"#utility.yul\":7422:7455   */\n      eq\n        /* \"#utility.yul\":7412:7473   */\n      tag_257\n      jumpi\n        /* \"#utility.yul\":7469:7470   */\n      0x00\n        /* \"#utility.yul\":7466:7467   */\n      0x00\n        /* \"#utility.yul\":7459:7471   */\n      revert\n        /* \"#utility.yul\":7412:7473   */\n    tag_257:\n        /* \"#utility.yul\":7361:7479   */\n      pop\n      jump\t// out\n        /* \"#utility.yul\":7485:7620   */\n    tag_146:\n        /* \"#utility.yul\":7529:7534   */\n      0x00\n        /* \"#utility.yul\":7567:7573   */\n      dup2\n        /* \"#utility.yul\":7554:7574   */\n      calldataload\n        /* \"#utility.yul\":7545:7574   */\n      swap1\n      pop\n        /* \"#utility.yul\":7583:7614   */\n      tag_259\n        /* \"#utility.yul\":7608:7613   */\n      dup2\n        /* \"#utility.yul\":7583:7614   */\n      tag_145\n      jump\t// in\n    tag_259:\n        /* \"#utility.yul\":7485:7620   */\n      swap3\n      swap2\n      pop\n      pop\n      jump\t// out\n        /* \"#utility.yul\":7626:8601   */\n    tag_26:\n        /* \"#utility.yul\":7721:7727   */\n      0x00\n        /* \"#utility.yul\":7729:7735   */\n      0x00\n        /* \"#utility.yul\":7737:7743   */\n      0x00\n        /* \"#utility.yul\":7786:7788   */\n      0x60\n        /* \"#utility.yul\":7774:7783   */\n      dup5\n        /* \"#utility.yul\":7765:7772   */\n      dup7\n        /* \"#utility.yul\":7761:7784   */\n      sub\n        /* \"#utility.yul\":7757:7789   */\n      slt\n        /* \"#utility.yul\":7754:7873   */\n      iszero\n      tag_261\n      jumpi\n        /* \"#utility.yul\":7792:7871   */\n      tag_262\n      tag_116\n      jump\t// in\n    tag_262:\n        /* \"#utility.yul\":7754:7873   */\n    tag_261:\n        /* \"#utility.yul\":7912:7913   */\n      0x00\n        /* \"#utility.yul\":7937:7988   */\n      tag_263\n        /* \"#utility.yul\":7980:7987   */\n      dup7\n        /* \"#utility.yul\":7971:7977   */\n      dup3\n        /* \"#utility.yul\":7960:7969   */\n      dup8\n        /* \"#utility.yul\":7956:7978   */\n      add\n        /* \"#utility.yul\":7937:7988   */\n      tag_146\n      jump\t// in\n    tag_263:\n        /* \"#utility.yul\":7927:7988   */\n      swap4\n      pop\n        /* \"#utility.yul\":7883:7998   */\n      pop\n        /* \"#utility.yul\":8065:8067   */\n      0x20\n        /* \"#utility.yul\":8054:8063   */\n      dup5\n        /* \"#utility.yul\":8050:8068   */\n      add\n        /* \"#utility.yul\":8037:8069   */\n      calldataload\n        /* \"#utility.yul\":8096:8114   */\n      0xffffffffffffffff\n        /* \"#utility.yul\":8088:8094   */\n      dup2\n        /* \"#utility.yul\":8085:8115   */\n      gt\n        /* \"#utility.yul\":8082:8199   */\n      iszero\n      tag_264\n      jumpi\n        /* \"#utility.yul\":8118:8197   */\n      tag_265\n      tag_117\n      jump\t// in\n    tag_265:\n        /* \"#utility.yul\":8082:8199   */\n    tag_264:\n        /* \"#utility.yul\":8223:8286   */\n      tag_266\n        /* \"#utility.yul\":8278:8285   */\n      dup7\n        /* \"#utility.yul\":8269:8275   */\n      dup3\n        /* \"#utility.yul\":8258:8267   */\n      dup8\n        /* \"#utility.yul\":8254:8276   */\n      add\n        /* \"#utility.yul\":8223:8286   */\n      tag_127\n      jump\t// in\n    tag_266:\n        /* \"#utility.yul\":8213:8286   */\n      swap3\n      pop\n        /* \"#utility.yul\":8008:8296   */\n      pop\n        /* \"#utility.yul\":8363:8365   */\n      0x40\n        /* \"#utility.yul\":8352:8361   */\n      dup5\n        /* \"#utility.yul\":8348:8366   */\n      add\n        /* \"#utility.yul\":8335:8367   */\n      calldataload\n        /* \"#utility.yul\":8394:8412   */\n      0xffffffffffffffff\n        /* \"#utility.yul\":8386:8392   */\n      dup2\n        /* \"#utility.yul\":8383:8413   */\n      gt\n        /* \"#utility.yul\":8380:8497   */\n      iszero\n      tag_267\n      jumpi\n        /* \"#utility.yul\":8416:8495   */\n      tag_268\n      tag_117\n      jump\t// in\n    tag_268:\n        /* \"#utility.yul\":8380:8497   */\n    tag_267:\n        /* \"#utility.yul\":8521:8584   */\n      tag_269\n        /* \"#utility.yul\":8576:8583   */\n      dup7\n        /* \"#utility.yul\":8567:8573   */\n      dup3\n        /* \"#utility.yul\":8556:8565   */\n      dup8\n        /* \"#utility.yul\":8552:8574   */\n      add\n        /* \"#utility.yul\":8521:8584   */\n      tag_127\n      jump\t// in\n    tag_269:\n        /* \"#utility.yul\":8511:8584   */\n      swap2\n      pop\n        /* \"#utility.yul\":8306:8594   */\n      pop\n        /* \"#utility.yul\":7626:8601   */\n      swap3\n      pop\n      swap3\n      pop\n      swap3\n      jump\t// out\n        /* \"#utility.yul\":8607:8932   */\n    tag_30:\n        /* \"#utility.yul\":8664:8670   */\n      0x00\n        /* \"#utility.yul\":8713:8715   */\n      0x20\n        /* \"#utility.yul\":8701:8710   */\n      dup3\n        /* \"#utility.yul\":8692:8699   */\n      dup5\n        /* \"#utility.yul\":8688:8711   */\n      sub\n        /* \"#utility.yul\":8684:8716   */\n      slt\n        /* \"#utility.yul\":8681:8800   */\n      iszero\n      tag_271\n      jumpi\n        /* \"#utility.yul\":8719:8798   */\n      tag_272\n      tag_116\n      jump\t// in\n    tag_272:\n        /* \"#utility.yul\":8681:8800   */\n    tag_271:\n        /* \"#utility.yul\":8839:8840   */\n      0x00\n        /* \"#utility.yul\":8864:8915   */\n      tag_273\n        /* \"#utility.yul\":8907:8914   */\n      dup5\n        /* \"#utility.yul\":8898:8904   */\n      dup3\n        /* \"#utility.yul\":8887:8896   */\n      dup6\n        /* \"#utility.yul\":8883:8905   */\n      add\n        /* \"#utility.yul\":8864:8915   */\n      tag_146\n      jump\t// in\n    tag_273:\n        /* \"#utility.yul\":8854:8915   */\n      swap2\n      pop\n        /* \"#utility.yul\":8810:8925   */\n      pop\n        /* \"#utility.yul\":8607:8932   */\n      swap3\n      swap2\n      pop\n      pop\n      jump\t// out\n        /* \"#utility.yul\":8938:9106   */\n    tag_147:\n        /* \"#utility.yul\":9078:9098   */\n      0x596f75277265206e6f7420616c6c6f7765640000000000000000000000000000\n        /* \"#utility.yul\":9074:9075   */\n      0x00\n        /* \"#utility.yul\":9066:9072   */\n      dup3\n        /* \"#utility.yul\":9062:9076   */\n      add\n        /* \"#utility.yul\":9055:9099   */\n      mstore\n        /* \"#utility.yul\":8938:9106   */\n      pop\n      jump\t// out\n        /* \"#utility.yul\":9112:9478   */\n    tag_148:\n        /* \"#utility.yul\":9254:9257   */\n      0x00\n        /* \"#utility.yul\":9275:9342   */\n      tag_276\n        /* \"#utility.yul\":9339:9341   */\n      0x12\n        /* \"#utility.yul\":9334:9337   */\n      dup4\n        /* \"#utility.yul\":9275:9342   */\n      tag_137\n      jump\t// in\n    tag_276:\n        /* \"#utility.yul\":9268:9342   */\n      swap2\n      pop\n        /* \"#utility.yul\":9351:9444   */\n      tag_277\n        /* \"#utility.yul\":9440:9443   */\n      dup3\n        /* \"#utility.yul\":9351:9444   */\n      tag_147\n      jump\t// in\n    tag_277:\n        /* \"#utility.yul\":9469:9471   */\n      0x20\n        /* \"#utility.yul\":9464:9467   */\n      dup3\n        /* \"#utility.yul\":9460:9472   */\n      add\n        /* \"#utility.yul\":9453:9472   */\n      swap1\n      pop\n        /* \"#utility.yul\":9112:9478   */\n      swap2\n      swap1\n      pop\n      jump\t// out\n        /* \"#utility.yul\":9484:9903   */\n    tag_36:\n        /* \"#utility.yul\":9650:9654   */\n      0x00\n        /* \"#utility.yul\":9688:9690   */\n      0x20\n        /* \"#utility.yul\":9677:9686   */\n      dup3\n        /* \"#utility.yul\":9673:9691   */\n      add\n        /* \"#utility.yul\":9665:9691   */\n      swap1\n      pop\n        /* \"#utility.yul\":9737:9746   */\n      dup2\n        /* \"#utility.yul\":9731:9735   */\n      dup2\n        /* \"#utility.yul\":9727:9747   */\n      sub\n        /* \"#utility.yul\":9723:9724   */\n      0x00\n        /* \"#utility.yul\":9712:9721   */\n      dup4\n        /* \"#utility.yul\":9708:9725   */\n      add\n        /* \"#utility.yul\":9701:9748   */\n      mstore\n        /* \"#utility.yul\":9765:9896   */\n      tag_279\n        /* \"#utility.yul\":9891:9895   */\n      dup2\n        /* \"#utility.yul\":9765:9896   */\n      tag_148\n      jump\t// in\n    tag_279:\n        /* \"#utility.yul\":9757:9896   */\n      swap1\n      pop\n        /* \"#utility.yul\":9484:9903   */\n      swap2\n      swap1\n      pop\n      jump\t// out\n        /* \"#utility.yul\":9909:10083   */\n    tag_149:\n        /* \"#utility.yul\":10049:10075   */\n      0x5a656f722061646472657373206e6f7420616c6c6f7765640000000000000000\n        /* \"#utility.yul\":10045:10046   */\n      0x00\n        /* \"#utility.yul\":10037:10043   */\n      dup3\n        /* \"#utility.yul\":10033:10047   */\n      add\n        /* \"#utility.yul\":10026:10076   */\n      mstore\n        /* \"#utility.yul\":9909:10083   */\n      pop\n      jump\t// out\n        /* \"#utility.yul\":10089:10455   */\n    tag_150:\n        /* \"#utility.yul\":10231:10234   */\n      0x00\n        /* \"#utility.yul\":10252:10319   */\n      tag_282\n        /* \"#utility.yul\":10316:10318   */\n      0x18\n        /* \"#utility.yul\":10311:10314   */\n      dup4\n        /* \"#utility.yul\":10252:10319   */\n      tag_137\n      jump\t// in\n    tag_282:\n        /* \"#utility.yul\":10245:10319   */\n      swap2\n      pop\n        /* \"#utility.yul\":10328:10421   */\n      tag_283\n        /* \"#utility.yul\":10417:10420   */\n      dup3\n        /* \"#utility.yul\":10328:10421   */\n      tag_149\n      jump\t// in\n    tag_283:\n        /* \"#utility.yul\":10446:10448   */\n      0x20\n        /* \"#utility.yul\":10441:10444   */\n      dup3\n        /* \"#utility.yul\":10437:10449   */\n      add\n        /* \"#utility.yul\":10430:10449   */\n      swap1\n      pop\n        /* \"#utility.yul\":10089:10455   */\n      swap2\n      swap1\n      pop\n      jump\t// out\n        /* \"#utility.yul\":10461:10880   */\n    tag_40:\n        /* \"#utility.yul\":10627:10631   */\n      0x00\n        /* \"#utility.yul\":10665:10667   */\n      0x20\n        /* \"#utility.yul\":10654:10663   */\n      dup3\n        /* \"#utility.yul\":10650:10668   */\n      add\n        /* \"#utility.yul\":10642:10668   */\n      swap1\n      pop\n        /* \"#utility.yul\":10714:10723   */\n      dup2\n        /* \"#utility.yul\":10708:10712   */\n      dup2\n        /* \"#utility.yul\":10704:10724   */\n      sub\n        /* \"#utility.yul\":10700:10701   */\n      0x00\n        /* \"#utility.yul\":10689:10698   */\n      dup4\n        /* \"#utility.yul\":10685:10702   */\n      add\n        /* \"#utility.yul\":10678:10725   */\n      mstore\n        /* \"#utility.yul\":10742:10873   */\n      tag_285\n        /* \"#utility.yul\":10868:10872   */\n      dup2\n        /* \"#utility.yul\":10742:10873   */\n      tag_150\n      jump\t// in\n    tag_285:\n        /* \"#utility.yul\":10734:10873   */\n      swap1\n      pop\n        /* \"#utility.yul\":10461:10880   */\n      swap2\n      swap1\n      pop\n      jump\t// out\n        /* \"#utility.yul\":10886:11066   */\n    tag_151:\n        /* \"#utility.yul\":10934:11011   */\n      0x4e487b7100000000000000000000000000000000000000000000000000000000\n        /* \"#utility.yul\":10931:10932   */\n      0x00\n        /* \"#utility.yul\":10924:11012   */\n      mstore\n        /* \"#utility.yul\":11031:11035   */\n      0x22\n        /* \"#utility.yul\":11028:11029   */\n      0x04\n        /* \"#utility.yul\":11021:11036   */\n      mstore\n        /* \"#utility.yul\":11055:11059   */\n      0x24\n        /* \"#utility.yul\":11052:11053   */\n      0x00\n        /* \"#utility.yul\":11045:11060   */\n      revert\n        /* \"#utility.yul\":11072:11392   */\n    tag_60:\n        /* \"#utility.yul\":11116:11122   */\n      0x00\n        /* \"#utility.yul\":11153:11154   */\n      0x02\n        /* \"#utility.yul\":11147:11151   */\n      dup3\n        /* \"#utility.yul\":11143:11155   */\n      div\n        /* \"#utility.yul\":11133:11155   */\n      swap1\n      pop\n        /* \"#utility.yul\":11200:11201   */\n      0x01\n        /* \"#utility.yul\":11194:11198   */\n      dup3\n        /* \"#utility.yul\":11190:11202   */\n      and\n        /* \"#utility.yul\":11221:11239   */\n      dup1\n        /* \"#utility.yul\":11211:11292   */\n      tag_288\n      jumpi\n        /* \"#utility.yul\":11277:11281   */\n      0x7f\n        /* \"#utility.yul\":11269:11275   */\n      dup3\n        /* \"#utility.yul\":11265:11282   */\n      and\n        /* \"#utility.yul\":11255:11282   */\n      swap2\n      pop\n        /* \"#utility.yul\":11211:11292   */\n    tag_288:\n        /* \"#utility.yul\":11339:11341   */\n      0x20\n        /* \"#utility.yul\":11331:11337   */\n      dup3\n        /* \"#utility.yul\":11328:11342   */\n      lt\n        /* \"#utility.yul\":11308:11326   */\n      dup2\n        /* \"#utility.yul\":11305:11343   */\n      sub\n        /* \"#utility.yul\":11302:11386   */\n      tag_289\n      jumpi\n        /* \"#utility.yul\":11358:11376   */\n      tag_290\n      tag_151\n      jump\t// in\n    tag_290:\n        /* \"#utility.yul\":11302:11386   */\n    tag_289:\n        /* \"#utility.yul\":11123:11392   */\n      pop\n        /* \"#utility.yul\":11072:11392   */\n      swap2\n      swap1\n      pop\n      jump\t// out\n        /* \"#utility.yul\":11398:11539   */\n    tag_152:\n        /* \"#utility.yul\":11447:11451   */\n      0x00\n        /* \"#utility.yul\":11470:11473   */\n      dup2\n        /* \"#utility.yul\":11462:11473   */\n      swap1\n      pop\n        /* \"#utility.yul\":11493:11496   */\n      dup2\n        /* \"#utility.yul\":11490:11491   */\n      0x00\n        /* \"#utility.yul\":11483:11497   */\n      mstore\n        /* \"#utility.yul\":11527:11531   */\n      0x20\n        /* \"#utility.yul\":11524:11525   */\n      0x00\n        /* \"#utility.yul\":11514:11532   */\n      keccak256\n        /* \"#utility.yul\":11506:11532   */\n      swap1\n      pop\n        /* \"#utility.yul\":11398:11539   */\n      swap2\n      swap1\n      pop\n      jump\t// out\n        /* \"#utility.yul\":11545:11638   */\n    tag_153:\n        /* \"#utility.yul\":11582:11588   */\n      0x00\n        /* \"#utility.yul\":11629:11631   */\n      0x20\n        /* \"#utility.yul\":11624:11626   */\n      0x1f\n        /* \"#utility.yul\":11617:11622   */\n      dup4\n        /* \"#utility.yul\":11613:11627   */\n      add\n        /* \"#utility.yul\":11609:11632   */\n      div\n        /* \"#utility.yul\":11599:11632   */\n      swap1\n      pop\n        /* \"#utility.yul\":11545:11638   */\n      swap2\n      swap1\n      pop\n      jump\t// out\n        /* \"#utility.yul\":11644:11751   */\n    tag_154:\n        /* \"#utility.yul\":11688:11696   */\n      0x00\n        /* \"#utility.yul\":11738:11743   */\n      dup3\n        /* \"#utility.yul\":11732:11736   */\n      dup3\n        /* \"#utility.yul\":11728:11744   */\n      shl\n        /* \"#utility.yul\":11707:11744   */\n      swap1\n      pop\n        /* \"#utility.yul\":11644:11751   */\n      swap3\n      swap2\n      pop\n      pop\n      jump\t// out\n        /* \"#utility.yul\":11757:12150   */\n    tag_155:\n        /* \"#utility.yul\":11826:11832   */\n      0x00\n        /* \"#utility.yul\":11876:11877   */\n      0x08\n        /* \"#utility.yul\":11864:11874   */\n      dup4\n        /* \"#utility.yul\":11860:11878   */\n      mul\n        /* \"#utility.yul\":11899:11996   */\n      tag_295\n        /* \"#utility.yul\":11929:11995   */\n      0xffffffffffffffffffffffffffffffffffffffffffffffffffffffffffffffff\n        /* \"#utility.yul\":11918:11927   */\n      dup3\n        /* \"#utility.yul\":11899:11996   */\n      tag_154\n      jump\t// in\n    tag_295:\n        /* \"#utility.yul\":12017:12056   */\n      tag_296\n        /* \"#utility.yul\":12047:12055   */\n      dup7\n        /* \"#utility.yul\":12036:12045   */\n      dup4\n        /* \"#utility.yul\":12017:12056   */\n      tag_154\n      jump\t// in\n    tag_296:\n        /* \"#utility.yul\":12005:12056   */\n      swap6\n      pop\n        /* \"#utility.yul\":12089:12093   */\n      dup1\n        /* \"#utility.yul\":12085:12094   */\n      not\n        /* \"#utility.yul\":12078:12083   */\n      dup5\n        /* \"#utility.yul\":12074:12095   */\n      and\n        /* \"#utility.yul\":12065:12095   */\n      swap4\n      pop\n        /* \"#utility.yul\":12138:12142   */\n      dup1\n        /* \"#utility.yul\":12128:12136   */\n      dup7\n        /* \"#utility.yul\":12124:12143   */\n      and\n        /* \"#utility.yul\":12117:12122   */\n      dup5\n        /* \"#utility.yul\":12114:12144   */\n      or\n        /* \"#utility.yul\":12104:12144   */\n      swap3\n      pop\n        /* \"#utility.yul\":11833:12150   */\n      pop\n      pop\n        /* \"#utility.yul\":11757:12150   */\n      swap4\n      swap3\n      pop\n      pop\n      pop\n      jump\t// out\n        /* \"#utility.yul\":12156:12216   */\n    tag_156:\n        /* \"#utility.yul\":12184:12187   */\n      0x00\n        /* \"#utility.yul\":12205:12210   */\n      dup2\n        /* \"#utility.yul\":12198:12210   */\n      swap1\n      pop\n        /* \"#utility.yul\":12156:12216   */\n      swap2\n      swap1\n      pop\n      jump\t// out\n        /* \"#utility.yul\":12222:12364   */\n    tag_157:\n        /* \"#utility.yul\":12272:12281   */\n      0x00\n        /* \"#utility.yul\":12305:12358   */\n      tag_299\n        /* \"#utility.yul\":12323:12357   */\n      tag_300\n        /* \"#utility.yul\":12332:12356   */\n      tag_301\n        /* \"#utility.yul\":12350:12355   */\n      dup5\n        /* \"#utility.yul\":12332:12356   */\n      tag_133\n      jump\t// in\n    tag_301:\n        /* \"#utility.yul\":12323:12357   */\n      tag_156\n      jump\t// in\n    tag_300:\n        /* \"#utility.yul\":12305:12358   */\n      tag_133\n      jump\t// in\n    tag_299:\n        /* \"#utility.yul\":12292:12358   */\n      swap1\n      pop\n        /* \"#utility.yul\":12222:12364   */\n      swap2\n      swap1\n      pop\n      jump\t// out\n        /* \"#utility.yul\":12370:12445   */\n    tag_158:\n        /* \"#utility.yul\":12413:12416   */\n      0x00\n        /* \"#utility.yul\":12434:12439   */\n      dup2\n        /* \"#utility.yul\":12427:12439   */\n      swap1\n      pop\n        /* \"#utility.yul\":12370:12445   */\n      swap2\n      swap1\n      pop\n      jump\t// out\n        /* \"#utility.yul\":12451:12720   */\n    tag_159:\n        /* \"#utility.yul\":12561:12600   */\n      tag_304\n        /* \"#utility.yul\":12592:12599   */\n      dup4\n        /* \"#utility.yul\":12561:12600   */\n      tag_157\n      jump\t// in\n    tag_304:\n        /* \"#utility.yul\":12622:12713   */\n      tag_305\n        /* \"#utility.yul\":12671:12712   */\n      tag_306\n        /* \"#utility.yul\":12695:12711   */\n      dup3\n        /* \"#utility.yul\":12671:12712   */\n      tag_158\n      jump\t// in\n    tag_306:\n        /* \"#utility.yul\":12663:12669   */\n      dup5\n        /* \"#utility.yul\":12656:12660   */\n      dup5\n        /* \"#utility.yul\":12650:12661   */\n      sload\n        /* \"#utility.yul\":12622:12713   */\n      tag_155\n      jump\t// in\n    tag_305:\n        /* \"#utility.yul\":12616:12620   */\n      dup3\n        /* \"#utility.yul\":12609:12714   */\n      sstore\n        /* \"#utility.yul\":12527:12720   */\n      pop\n        /* \"#utility.yul\":12451:12720   */\n      pop\n      pop\n      pop\n      jump\t// out\n        /* \"#utility.yul\":12726:12799   */\n    tag_160:\n        /* \"#utility.yul\":12771:12774   */\n      0x00\n        /* \"#utility.yul\":12792:12793   */\n      0x00\n        /* \"#utility.yul\":12785:12793   */\n      swap1\n      pop\n        /* \"#utility.yul\":12726:12799   */\n      swap1\n      jump\t// out\n        /* \"#utility.yul\":12805:12994   */\n    tag_161:\n        /* \"#utility.yul\":12882:12914   */\n      tag_309\n      tag_160\n      jump\t// in\n    tag_309:\n        /* \"#utility.yul\":12923:12988   */\n      tag_310\n        /* \"#utility.yul\":12981:12987   */\n      dup2\n        /* \"#utility.yul\":12973:12979   */\n      dup5\n        /* \"#utility.yul\":12967:12971   */\n      dup5\n        /* \"#utility.yul\":12923:12988   */\n      tag_159\n      jump\t// in\n    tag_310:\n        /* \"#utility.yul\":12858:12994   */\n      pop\n        /* \"#utility.yul\":12805:12994   */\n      pop\n      pop\n      jump\t// out\n        /* \"#utility.yul\":13000:13186   */\n    tag_162:\n        /* \"#utility.yul\":13060:13180   */\n    tag_312:\n        /* \"#utility.yul\":13077:13080   */\n      dup2\n        /* \"#utility.yul\":13070:13075   */\n      dup2\n        /* \"#utility.yul\":13067:13081   */\n      lt\n        /* \"#utility.yul\":13060:13180   */\n      iszero\n      tag_314\n      jumpi\n        /* \"#utility.yul\":13131:13170   */\n      tag_315\n        /* \"#utility.yul\":13168:13169   */\n      0x00\n        /* \"#utility.yul\":13161:13166   */\n      dup3\n        /* \"#utility.yul\":13131:13170   */\n      tag_161\n      jump\t// in\n    tag_315:\n        /* \"#utility.yul\":13104:13105   */\n      0x01\n        /* \"#utility.yul\":13097:13102   */\n      dup2\n        /* \"#utility.yul\":13093:13106   */\n      add\n        /* \"#utility.yul\":13084:13106   */\n      swap1\n      pop\n        /* \"#utility.yul\":13060:13180   */\n      jump(tag_312)\n    tag_314:\n        /* \"#utility.yul\":13000:13186   */\n      pop\n      pop\n      jump\t// out\n        /* \"#utility.yul\":13192:13735   */\n    tag_163:\n        /* \"#utility.yul\":13293:13295   */\n      0x1f\n        /* \"#utility.yul\":13288:13291   */\n      dup3\n        /* \"#utility.yul\":13285:13296   */\n      gt\n        /* \"#utility.yul\":13282:13728   */\n      iszero\n      tag_317\n      jumpi\n        /* \"#utility.yul\":13327:13365   */\n      tag_318\n        /* \"#utility.yul\":13359:13364   */\n      dup2\n        /* \"#utility.yul\":13327:13365   */\n      tag_152\n      jump\t// in\n    tag_318:\n        /* \"#utility.yul\":13411:13440   */\n      tag_319\n        /* \"#utility.yul\":13429:13439   */\n      dup5\n        /* \"#utility.yul\":13411:13440   */\n      tag_153\n      jump\t// in\n    tag_319:\n        /* \"#utility.yul\":13401:13409   */\n      dup2\n        /* \"#utility.yul\":13397:13441   */\n      add\n        /* \"#utility.yul\":13594:13596   */\n      0x20\n        /* \"#utility.yul\":13582:13592   */\n      dup6\n        /* \"#utility.yul\":13579:13597   */\n      lt\n        /* \"#utility.yul\":13576:13625   */\n      iszero\n      tag_320\n      jumpi\n        /* \"#utility.yul\":13615:13623   */\n      dup2\n        /* \"#utility.yul\":13600:13623   */\n      swap1\n      pop\n        /* \"#utility.yul\":13576:13625   */\n    tag_320:\n        /* \"#utility.yul\":13638:13718   */\n      tag_321\n        /* \"#utility.yul\":13694:13716   */\n      tag_322\n        /* \"#utility.yul\":13712:13715   */\n      dup6\n        /* \"#utility.yul\":13694:13716   */\n      tag_153\n      jump\t// in\n    tag_322:\n        /* \"#utility.yul\":13684:13692   */\n      dup4\n        /* \"#utility.yul\":13680:13717   */\n      add\n        /* \"#utility.yul\":13667:13678   */\n      dup3\n        /* \"#utility.yul\":13638:13718   */\n      tag_162\n      jump\t// in\n    tag_321:\n        /* \"#utility.yul\":13297:13728   */\n      pop\n      pop\n        /* \"#utility.yul\":13282:13728   */\n    tag_317:\n        /* \"#utility.yul\":13192:13735   */\n      pop\n      pop\n      pop\n      jump\t// out\n        /* \"#utility.yul\":13741:13858   */\n    tag_164:\n        /* \"#utility.yul\":13795:13803   */\n      0x00\n        /* \"#utility.yul\":13845:13850   */\n      dup3\n        /* \"#utility.yul\":13839:13843   */\n      dup3\n        /* \"#utility.yul\":13835:13851   */\n      shr\n        /* \"#utility.yul\":13814:13851   */\n      swap1\n      pop\n        /* \"#utility.yul\":13741:13858   */\n      swap3\n      swap2\n      pop\n      pop\n      jump\t// out\n        /* \"#utility.yul\":13864:14033   */\n    tag_165:\n        /* \"#utility.yul\":13908:13914   */\n      0x00\n        /* \"#utility.yul\":13941:13992   */\n      tag_325\n        /* \"#utility.yul\":13989:13990   */\n      0x00\n        /* \"#utility.yul\":13985:13991   */\n      not\n        /* \"#utility.yul\":13977:13982   */\n      dup5\n        /* \"#utility.yul\":13974:13975   */\n      0x08\n        /* \"#utility.yul\":13970:13983   */\n      mul\n        /* \"#utility.yul\":13941:13992   */\n      tag_164\n      jump\t// in\n    tag_325:\n        /* \"#utility.yul\":13937:13993   */\n      not\n        /* \"#utility.yul\":14022:14026   */\n      dup1\n        /* \"#utility.yul\":14016:14020   */\n      dup4\n        /* \"#utility.yul\":14012:14027   */\n      and\n        /* \"#utility.yul\":14002:14027   */\n      swap2\n      pop\n        /* \"#utility.yul\":13915:14033   */\n      pop\n        /* \"#utility.yul\":13864:14033   */\n      swap3\n      swap2\n      pop\n      pop\n      jump\t// out\n        /* \"#utility.yul\":14038:14333   */\n    tag_166:\n        /* \"#utility.yul\":14114:14118   */\n      0x00\n        /* \"#utility.yul\":14260:14289   */\n      tag_327\n        /* \"#utility.yul\":14285:14288   */\n      dup4\n        /* \"#utility.yul\":14279:14283   */\n      dup4\n        /* \"#utility.yul\":14260:14289   */\n      tag_165\n      jump\t// in\n    tag_327:\n        /* \"#utility.yul\":14252:14289   */\n      swap2\n      pop\n        /* \"#utility.yul\":14322:14325   */\n      dup3\n        /* \"#utility.yul\":14319:14320   */\n      0x02\n        /* \"#utility.yul\":14315:14326   */\n      mul\n        /* \"#utility.yul\":14309:14313   */\n      dup3\n        /* \"#utility.yul\":14306:14327   */\n      or\n        /* \"#utility.yul\":14298:14327   */\n      swap1\n      pop\n        /* \"#utility.yul\":14038:14333   */\n      swap3\n      swap2\n      pop\n      pop\n      jump\t// out\n        /* \"#utility.yul\":14338:15733   */\n    tag_51:\n        /* \"#utility.yul\":14455:14492   */\n      tag_329\n        /* \"#utility.yul\":14488:14491   */\n      dup3\n        /* \"#utility.yul\":14455:14492   */\n      tag_136\n      jump\t// in\n    tag_329:\n        /* \"#utility.yul\":14557:14575   */\n      0xffffffffffffffff\n        /* \"#utility.yul\":14549:14555   */\n      dup2\n        /* \"#utility.yul\":14546:14576   */\n      gt\n        /* \"#utility.yul\":14543:14599   */\n      iszero\n      tag_330\n      jumpi\n        /* \"#utility.yul\":14579:14597   */\n      tag_331\n      tag_121\n      jump\t// in\n    tag_331:\n        /* \"#utility.yul\":14543:14599   */\n    tag_330:\n        /* \"#utility.yul\":14623:14661   */\n      tag_332\n        /* \"#utility.yul\":14655:14659   */\n      dup3\n        /* \"#utility.yul\":14649:14660   */\n      sload\n        /* \"#utility.yul\":14623:14661   */\n      tag_60\n      jump\t// in\n    tag_332:\n        /* \"#utility.yul\":14708:14775   */\n      tag_333\n        /* \"#utility.yul\":14768:14774   */\n      dup3\n        /* \"#utility.yul\":14760:14766   */\n      dup3\n        /* \"#utility.yul\":14754:14758   */\n      dup6\n        /* \"#utility.yul\":14708:14775   */\n      tag_163\n      jump\t// in\n    tag_333:\n        /* \"#utility.yul\":14802:14803   */\n      0x00\n        /* \"#utility.yul\":14826:14830   */\n      0x20\n        /* \"#utility.yul\":14813:14830   */\n      swap1\n      pop\n        /* \"#utility.yul\":14858:14860   */\n      0x1f\n        /* \"#utility.yul\":14850:14856   */\n      dup4\n        /* \"#utility.yul\":14847:14861   */\n      gt\n        /* \"#utility.yul\":14875:14876   */\n      0x01\n        /* \"#utility.yul\":14870:15488   */\n      dup2\n      eq\n      tag_335\n      jumpi\n        /* \"#utility.yul\":15532:15533   */\n      0x00\n        /* \"#utility.yul\":15549:15555   */\n      dup5\n        /* \"#utility.yul\":15546:15623   */\n      iszero\n      tag_336\n      jumpi\n        /* \"#utility.yul\":15598:15607   */\n      dup3\n        /* \"#utility.yul\":15593:15596   */\n      dup8\n        /* \"#utility.yul\":15589:15608   */\n      add\n        /* \"#utility.yul\":15583:15609   */\n      mload\n        /* \"#utility.yul\":15574:15609   */\n      swap1\n      pop\n        /* \"#utility.yul\":15546:15623   */\n    tag_336:\n        /* \"#utility.yul\":15649:15716   */\n      tag_337\n        /* \"#utility.yul\":15709:15715   */\n      dup6\n        /* \"#utility.yul\":15702:15707   */\n      dup3\n        /* \"#utility.yul\":15649:15716   */\n      tag_166\n      jump\t// in\n    tag_337:\n        /* \"#utility.yul\":15643:15647   */\n      dup7\n        /* \"#utility.yul\":15636:15717   */\n      sstore\n        /* \"#utility.yul\":15505:15727   */\n      pop\n        /* \"#utility.yul\":14840:15727   */\n      jump(tag_334)\n        /* \"#utility.yul\":14870:15488   */\n    tag_335:\n        /* \"#utility.yul\":14922:14926   */\n      0x1f\n        /* \"#utility.yul\":14918:14927   */\n      not\n        /* \"#utility.yul\":14910:14916   */\n      dup5\n        /* \"#utility.yul\":14906:14928   */\n      and\n        /* \"#utility.yul\":14956:14993   */\n      tag_338\n        /* \"#utility.yul\":14988:14992   */\n      dup7\n        /* \"#utility.yul\":14956:14993   */\n      tag_152\n      jump\t// in\n    tag_338:\n        /* \"#utility.yul\":15015:15016   */\n      0x00\n        /* \"#utility.yul\":15029:15237   */\n    tag_339:\n        /* \"#utility.yul\":15043:15050   */\n      dup3\n        /* \"#utility.yul\":15040:15041   */\n      dup2\n        /* \"#utility.yul\":15037:15051   */\n      lt\n        /* \"#utility.yul\":15029:15237   */\n      iszero\n      tag_341\n      jumpi\n        /* \"#utility.yul\":15122:15131   */\n      dup5\n        /* \"#utility.yul\":15117:15120   */\n      dup10\n        /* \"#utility.yul\":15113:15132   */\n      add\n        /* \"#utility.yul\":15107:15133   */\n      mload\n        /* \"#utility.yul\":15099:15105   */\n      dup3\n        /* \"#utility.yul\":15092:15134   */\n      sstore\n        /* \"#utility.yul\":15173:15174   */\n      0x01\n        /* \"#utility.yul\":15165:15171   */\n      dup3\n        /* \"#utility.yul\":15161:15175   */\n      add\n        /* \"#utility.yul\":15151:15175   */\n      swap2\n      pop\n        /* \"#utility.yul\":15220:15222   */\n      0x20\n        /* \"#utility.yul\":15209:15218   */\n      dup6\n        /* \"#utility.yul\":15205:15223   */\n      add\n        /* \"#utility.yul\":15192:15223   */\n      swap5\n      pop\n        /* \"#utility.yul\":15066:15070   */\n      0x20\n        /* \"#utility.yul\":15063:15064   */\n      dup2\n        /* \"#utility.yul\":15059:15071   */\n      add\n        /* \"#utility.yul\":15054:15071   */\n      swap1\n      pop\n        /* \"#utility.yul\":15029:15237   */\n      jump(tag_339)\n    tag_341:\n        /* \"#utility.yul\":15265:15271   */\n      dup7\n        /* \"#utility.yul\":15256:15263   */\n      dup4\n        /* \"#utility.yul\":15253:15272   */\n      lt\n        /* \"#utility.yul\":15250:15429   */\n      iszero\n      tag_342\n      jumpi\n        /* \"#utility.yul\":15323:15332   */\n      dup5\n        /* \"#utility.yul\":15318:15321   */\n      dup10\n        /* \"#utility.yul\":15314:15333   */\n      add\n        /* \"#utility.yul\":15308:15334   */\n      mload\n        /* \"#utility.yul\":15366:15414   */\n      tag_343\n        /* \"#utility.yul\":15408:15412   */\n      0x1f\n        /* \"#utility.yul\":15400:15406   */\n      dup10\n        /* \"#utility.yul\":15396:15413   */\n      and\n        /* \"#utility.yul\":15385:15394   */\n      dup3\n        /* \"#utility.yul\":15366:15414   */\n      tag_165\n      jump\t// in\n    tag_343:\n        /* \"#utility.yul\":15358:15364   */\n      dup4\n        /* \"#utility.yul\":15351:15415   */\n      sstore\n        /* \"#utility.yul\":15273:15429   */\n      pop\n        /* \"#utility.yul\":15250:15429   */\n    tag_342:\n        /* \"#utility.yul\":15475:15476   */\n      0x01\n        /* \"#utility.yul\":15471:15472   */\n      0x02\n        /* \"#utility.yul\":15463:15469   */\n      dup9\n        /* \"#utility.yul\":15459:15473   */\n      mul\n        /* \"#utility.yul\":15455:15477   */\n      add\n        /* \"#utility.yul\":15449:15453   */\n      dup9\n        /* \"#utility.yul\":15442:15478   */\n      sstore\n        /* \"#utility.yul\":14877:15488   */\n      pop\n      pop\n      pop\n        /* \"#utility.yul\":14840:15727   */\n    tag_334:\n      pop\n        /* \"#utility.yul\":14430:15733   */\n      pop\n      pop\n      pop\n        /* \"#utility.yul\":14338:15733   */\n      pop\n      pop\n      jump\t// out\n        /* \"#utility.yul\":15739:16174   */\n    tag_56:\n        /* \"#utility.yul\":15886:15890   */\n      0x00\n        /* \"#utility.yul\":15924:15926   */\n      0x40\n        /* \"#utility.yul\":15913:15922   */\n      dup3\n        /* \"#utility.yul\":15909:15927   */\n      add\n        /* \"#utility.yul\":15901:15927   */\n      swap1\n      pop\n        /* \"#utility.yul\":15973:15982   */\n      dup2\n        /* \"#utility.yul\":15967:15971   */\n      dup2\n        /* \"#utility.yul\":15963:15983   */\n      sub\n        /* \"#utility.yul\":15959:15960   */\n      0x00\n        /* \"#utility.yul\":15948:15957   */\n      dup4\n        /* \"#utility.yul\":15944:15961   */\n      add\n        /* \"#utility.yul\":15937:15984   */\n      mstore\n        /* \"#utility.yul\":16001:16079   */\n      tag_345\n        /* \"#utility.yul\":16074:16078   */\n      dup2\n        /* \"#utility.yul\":16065:16071   */\n      dup6\n        /* \"#utility.yul\":16001:16079   */\n      tag_139\n      jump\t// in\n    tag_345:\n        /* \"#utility.yul\":15993:16079   */\n      swap1\n      pop\n        /* \"#utility.yul\":16089:16167   */\n      tag_346\n        /* \"#utility.yul\":16163:16165   */\n      0x20\n        /* \"#utility.yul\":16152:16161   */\n      dup4\n        /* \"#utility.yul\":16148:16166   */\n      add\n        /* \"#utility.yul\":16139:16145   */\n      dup5\n        /* \"#utility.yul\":16089:16167   */\n      tag_143\n      jump\t// in\n    tag_346:\n        /* \"#utility.yul\":15739:16174   */\n      swap4\n      swap3\n      pop\n      pop\n      pop\n      jump\t// out\n        /* \"#utility.yul\":16180:16351   */\n    tag_167:\n        /* \"#utility.yul\":16320:16343   */\n      0x496e646578206973206f7574206f6620626f756e640000000000000000000000\n        /* \"#utility.yul\":16316:16317   */\n      0x00\n        /* \"#utility.yul\":16308:16314   */\n      dup3\n        /* \"#utility.yul\":16304:16318   */\n      add\n        /* \"#utility.yul\":16297:16344   */\n      mstore\n        /* \"#utility.yul\":16180:16351   */\n      pop\n      jump\t// out\n        /* \"#utility.yul\":16357:16723   */\n    tag_168:\n        /* \"#utility.yul\":16499:16502   */\n      0x00\n        /* \"#utility.yul\":16520:16587   */\n      tag_349\n        /* \"#utility.yul\":16584:16586   */\n      0x15\n        /* \"#utility.yul\":16579:16582   */\n      dup4\n        /* \"#utility.yul\":16520:16587   */\n      tag_137\n      jump\t// in\n    tag_349:\n        /* \"#utility.yul\":16513:16587   */\n      swap2\n      pop\n        /* \"#utility.yul\":16596:16689   */\n      tag_350\n        /* \"#utility.yul\":16685:16688   */\n      dup3\n        /* \"#utility.yul\":16596:16689   */\n      tag_167\n      jump\t// in\n    tag_350:\n        /* \"#utility.yul\":16714:16716   */\n      0x20\n        /* \"#utility.yul\":16709:16712   */\n      dup3\n        /* \"#utility.yul\":16705:16717   */\n      add\n        /* \"#utility.yul\":16698:16717   */\n      swap1\n      pop\n        /* \"#utility.yul\":16357:16723   */\n      swap2\n      swap1\n      pop\n      jump\t// out\n        /* \"#utility.yul\":16729:17148   */\n    tag_79:\n        /* \"#utility.yul\":16895:16899   */\n      0x00\n        /* \"#utility.yul\":16933:16935   */\n      0x20\n        /* \"#utility.yul\":16922:16931   */\n      dup3\n        /* \"#utility.yul\":16918:16936   */\n      add\n        /* \"#utility.yul\":16910:16936   */\n      swap1\n      pop\n        /* \"#utility.yul\":16982:16991   */\n      dup2\n        /* \"#utility.yul\":16976:16980   */\n      dup2\n        /* \"#utility.yul\":16972:16992   */\n      sub\n        /* \"#utility.yul\":16968:16969   */\n      0x00\n        /* \"#utility.yul\":16957:16966   */\n      dup4\n        /* \"#utility.yul\":16953:16970   */\n      add\n        /* \"#utility.yul\":16946:16993   */\n      mstore\n        /* \"#utility.yul\":17010:17141   */\n      tag_352\n        /* \"#utility.yul\":17136:17140   */\n      dup2\n        /* \"#utility.yul\":17010:17141   */\n      tag_168\n      jump\t// in\n    tag_352:\n        /* \"#utility.yul\":17002:17141   */\n      swap1\n      pop\n        /* \"#utility.yul\":16729:17148   */\n      swap2\n      swap1\n      pop\n      jump\t// out\n        /* \"#utility.yul\":17154:17334   */\n    tag_82:\n        /* \"#utility.yul\":17202:17279   */\n      0x4e487b7100000000000000000000000000000000000000000000000000000000\n        /* \"#utility.yul\":17199:17200   */\n      0x00\n        /* \"#utility.yul\":17192:17280   */\n      mstore\n        /* \"#utility.yul\":17299:17303   */\n      0x32\n        /* \"#utility.yul\":17296:17297   */\n      0x04\n        /* \"#utility.yul\":17289:17304   */\n      mstore\n        /* \"#utility.yul\":17323:17327   */\n      0x24\n        /* \"#utility.yul\":17320:17321   */\n      0x00\n        /* \"#utility.yul\":17313:17328   */\n      revert\n        /* \"#utility.yul\":17340:17511   */\n    tag_169:\n        /* \"#utility.yul\":17480:17503   */\n      0x496e646578206973206f75742d6f662d626f756e640000000000000000000000\n        /* \"#utility.yul\":17476:17477   */\n      0x00\n        /* \"#utility.yul\":17468:17474   */\n      dup3\n        /* \"#utility.yul\":17464:17478   */\n      add\n        /* \"#utility.yul\":17457:17504   */\n      mstore\n        /* \"#utility.yul\":17340:17511   */\n      pop\n      jump\t// out\n        /* \"#utility.yul\":17517:17883   */\n    tag_170:\n        /* \"#utility.yul\":17659:17662   */\n      0x00\n        /* \"#utility.yul\":17680:17747   */\n      tag_356\n        /* \"#utility.yul\":17744:17746   */\n      0x15\n        /* \"#utility.yul\":17739:17742   */\n      dup4\n        /* \"#utility.yul\":17680:17747   */\n      tag_137\n      jump\t// in\n    tag_356:\n        /* \"#utility.yul\":17673:17747   */\n      swap2\n      pop\n        /* \"#utility.yul\":17756:17849   */\n      tag_357\n        /* \"#utility.yul\":17845:17848   */\n      dup3\n        /* \"#utility.yul\":17756:17849   */\n      tag_169\n      jump\t// in\n    tag_357:\n        /* \"#utility.yul\":17874:17876   */\n      0x20\n        /* \"#utility.yul\":17869:17872   */\n      dup3\n        /* \"#utility.yul\":17865:17877   */\n      add\n        /* \"#utility.yul\":17858:17877   */\n      swap1\n      pop\n        /* \"#utility.yul\":17517:17883   */\n      swap2\n      swap1\n      pop\n      jump\t// out\n        /* \"#utility.yul\":17889:18308   */\n    tag_95:\n        /* \"#utility.yul\":18055:18059   */\n      0x00\n        /* \"#utility.yul\":18093:18095   */\n      0x20\n        /* \"#utility.yul\":18082:18091   */\n      dup3\n        /* \"#utility.yul\":18078:18096   */\n      add\n        /* \"#utility.yul\":18070:18096   */\n      swap1\n      pop\n        /* \"#utility.yul\":18142:18151   */\n      dup2\n        /* \"#utility.yul\":18136:18140   */\n      dup2\n        /* \"#utility.yul\":18132:18152   */\n      sub\n        /* \"#utility.yul\":18128:18129   */\n      0x00\n        /* \"#utility.yul\":18117:18126   */\n      dup4\n        /* \"#utility.yul\":18113:18130   */\n      add\n        /* \"#utility.yul\":18106:18153   */\n      mstore\n        /* \"#utility.yul\":18170:18301   */\n      tag_359\n        /* \"#utility.yul\":18296:18300   */\n      dup2\n        /* \"#utility.yul\":18170:18301   */\n      tag_170\n      jump\t// in\n    tag_359:\n        /* \"#utility.yul\":18162:18301   */\n      swap1\n      pop\n        /* \"#utility.yul\":17889:18308   */\n      swap2\n      swap1\n      pop\n      jump\t// out\n\n    auxdata: 0xa26469706673582212204ed4ceeba56ed77ada4c0d1563b39e5a92132a5295277a8193aabd8e8ddafa5864736f6c634300081b0033\n}\n",
				"bytecode": {
					"linkReferences": {},
					"object": "6080604052348015600e575f5ffd5b50335f5f6101000a81548173ffffffffffffffffffffffffffffffffffffffff021916908373ffffffffffffffffffffffffffffffffffffffff1602179055506112df8061005b5f395ff3fe608060405234801561000f575f5ffd5b5060043610610055575f3560e01c80633380b99f146100595780638da5cb5b14610089578063bc8bc2b4146100a7578063e9505164146100d9578063fb0b86fb146100f5575b5f5ffd5b610073600480360381019061006e9190610a84565b610127565b6040516100809190610b14565b60405180910390f35b610091610337565b60405161009e9190610b6c565b60405180910390f35b6100c160048036038101906100bc9190610bb8565b61035b565b6040516100d093929190610cb6565b60405180910390f35b6100f360048036038101906100ee9190610d2f565b6104a8565b005b61010f600480360381019061010a9190610db7565b6106a3565b60405161011e93929190610cb6565b60405180910390f35b5f5f5f9054906101000a900473ffffffffffffffffffffffffffffffffffffffff1673ffffffffffffffffffffffffffffffffffffffff163373ffffffffffffffffffffffffffffffffffffffff16146101b6576040517f08c379a00000000000000000000000000000000000000000000000000000000081526004016101ad90610e2c565b60405180910390fd5b5f73ffffffffffffffffffffffffffffffffffffffff163373ffffffffffffffffffffffffffffffffffffffff1603610224576040517f08c379a000000000000000000000000000000000000000000000000000000000815260040161021b90610e94565b60405180910390fd5b61022c610905565b83815f018190525082816020018190525060018160400190600381111561025657610255610c43565b5b9081600381111561026a57610269610c43565b5b81525050600181908060018154018082558091505060019003905f5260205f2090600302015f909190919091505f820151815f0190816102aa91906110af565b5060208201518160010190816102c091906110af565b506040820151816002015f6101000a81548160ff021916908360038111156102eb576102ea610c43565b5b021790555050507fb24501745f85fff88cc582df1223bf671a1234ab872711ffaa7eb8bd56fe311e84600160405161032492919061117e565b60405180910390a1600191505092915050565b5f5f9054906101000a900473ffffffffffffffffffffffffffffffffffffffff1681565b6001818154811061036a575f80fd5b905f5260205f2090600302015f91509050805f01805461038990610edf565b80601f01602080910402602001604051908101604052809291908181526020018280546103b590610edf565b80156104005780601f106103d757610100808354040283529160200191610400565b820191905f5260205f20905b8154815290600101906020018083116103e357829003601f168201915b50505050509080600101805461041590610edf565b80601f016020809104026020016040519081016040528092919081815260200182805461044190610edf565b801561048c5780601f106104635761010080835404028352916020019161048c565b820191905f5260205f20905b81548152906001019060200180831161046f57829003601f168201915b505050505090806002015f9054906101000a900460ff16905083565b5f5f9054906101000a900473ffffffffffffffffffffffffffffffffffffffff1673ffffffffffffffffffffffffffffffffffffffff163373ffffffffffffffffffffffffffffffffffffffff1614610536576040517f08c379a000000000000000000000000000000000000000000000000000000000815260040161052d90610e2c565b60405180910390fd5b5f73ffffffffffffffffffffffffffffffffffffffff163373ffffffffffffffffffffffffffffffffffffffff16036105a4576040517f08c379a000000000000000000000000000000000000000000000000000000000815260040161059b90610e94565b60405180910390fd5b6001805490508360ff16106105ee576040517f08c379a00000000000000000000000000000000000000000000000000000000081526004016105e5906111f6565b60405180910390fd5b5f60018460ff168154811061060657610605611214565b5b905f5260205f209060030201905082815f01908161062491906110af565b508181600101908161063691906110af565b506002816002015f6101000a81548160ff0219169083600381111561065e5761065d610c43565b5b02179055507f3ff5b2dbb379a3765de2a11e90d91cfaf54b178f2d29590471f1fb57642fd16583600260405161069592919061117e565b60405180910390a150505050565b6060805f5f73ffffffffffffffffffffffffffffffffffffffff163373ffffffffffffffffffffffffffffffffffffffff1603610715576040517f08c379a000000000000000000000000000000000000000000000000000000000815260040161070c90610e94565b60405180910390fd5b6001805490508460ff161061075f576040517f08c379a00000000000000000000000000000000000000000000000000000000081526004016107569061128b565b60405180910390fd5b5f60018560ff168154811061077757610776611214565b5b905f5260205f2090600302016040518060600160405290815f8201805461079d90610edf565b80601f01602080910402602001604051908101604052809291908181526020018280546107c990610edf565b80156108145780601f106107eb57610100808354040283529160200191610814565b820191905f5260205f20905b8154815290600101906020018083116107f757829003601f168201915b5050505050815260200160018201805461082d90610edf565b80601f016020809104026020016040519081016040528092919081815260200182805461085990610edf565b80156108a45780601f1061087b576101008083540402835291602001916108a4565b820191905f5260205f20905b81548152906001019060200180831161088757829003601f168201915b50505050508152602001600282015f9054906101000a900460ff1660038111156108d1576108d0610c43565b5b60038111156108e3576108e2610c43565b5b815250509050805f015181602001518260400151935093509350509193909250565b604051806060016040528060608152602001606081526020015f600381111561093157610930610c43565b5b81525090565b5f604051905090565b5f5ffd5b5f5ffd5b5f5ffd5b5f5ffd5b5f601f19601f8301169050919050565b7f4e487b71000000000000000000000000000000000000000000000000000000005f52604160045260245ffd5b61099682610950565b810181811067ffffffffffffffff821117156109b5576109b4610960565b5b80604052505050565b5f6109c7610937565b90506109d3828261098d565b919050565b5f67ffffffffffffffff8211156109f2576109f1610960565b5b6109fb82610950565b9050602081019050919050565b828183375f83830152505050565b5f610a28610a23846109d8565b6109be565b905082815260208101848484011115610a4457610a4361094c565b5b610a4f848285610a08565b509392505050565b5f82601f830112610a6b57610a6a610948565b5b8135610a7b848260208601610a16565b91505092915050565b5f5f60408385031215610a9a57610a99610940565b5b5f83013567ffffffffffffffff811115610ab757610ab6610944565b5b610ac385828601610a57565b925050602083013567ffffffffffffffff811115610ae457610ae3610944565b5b610af085828601610a57565b9150509250929050565b5f8115159050919050565b610b0e81610afa565b82525050565b5f602082019050610b275f830184610b05565b92915050565b5f73ffffffffffffffffffffffffffffffffffffffff82169050919050565b5f610b5682610b2d565b9050919050565b610b6681610b4c565b82525050565b5f602082019050610b7f5f830184610b5d565b92915050565b5f819050919050565b610b9781610b85565b8114610ba1575f5ffd5b50565b5f81359050610bb281610b8e565b92915050565b5f60208284031215610bcd57610bcc610940565b5b5f610bda84828501610ba4565b91505092915050565b5f81519050919050565b5f82825260208201905092915050565b8281835e5f83830152505050565b5f610c1582610be3565b610c1f8185610bed565b9350610c2f818560208601610bfd565b610c3881610950565b840191505092915050565b7f4e487b71000000000000000000000000000000000000000000000000000000005f52602160045260245ffd5b60048110610c8157610c80610c43565b5b50565b5f819050610c9182610c70565b919050565b5f610ca082610c84565b9050919050565b610cb081610c96565b82525050565b5f6060820190508181035f830152610cce8186610c0b565b90508181036020830152610ce28185610c0b565b9050610cf16040830184610ca7565b949350505050565b5f60ff82169050919050565b610d0e81610cf9565b8114610d18575f5ffd5b50565b5f81359050610d2981610d05565b92915050565b5f5f5f60608486031215610d4657610d45610940565b5b5f610d5386828701610d1b565b935050602084013567ffffffffffffffff811115610d7457610d73610944565b5b610d8086828701610a57565b925050604084013567ffffffffffffffff811115610da157610da0610944565b5b610dad86828701610a57565b9150509250925092565b5f60208284031215610dcc57610dcb610940565b5b5f610dd984828501610d1b565b91505092915050565b7f596f75277265206e6f7420616c6c6f77656400000000000000000000000000005f82015250565b5f610e16601283610bed565b9150610e2182610de2565b602082019050919050565b5f6020820190508181035f830152610e4381610e0a565b9050919050565b7f5a656f722061646472657373206e6f7420616c6c6f77656400000000000000005f82015250565b5f610e7e601883610bed565b9150610e8982610e4a565b602082019050919050565b5f6020820190508181035f830152610eab81610e72565b9050919050565b7f4e487b71000000000000000000000000000000000000000000000000000000005f52602260045260245ffd5b5f6002820490506001821680610ef657607f821691505b602082108103610f0957610f08610eb2565b5b50919050565b5f819050815f5260205f209050919050565b5f6020601f8301049050919050565b5f82821b905092915050565b5f60088302610f6b7fffffffffffffffffffffffffffffffffffffffffffffffffffffffffffffffff82610f30565b610f758683610f30565b95508019841693508086168417925050509392505050565b5f819050919050565b5f610fb0610fab610fa684610b85565b610f8d565b610b85565b9050919050565b5f819050919050565b610fc983610f96565b610fdd610fd582610fb7565b848454610f3c565b825550505050565b5f5f905090565b610ff4610fe5565b610fff818484610fc0565b505050565b5b81811015611022576110175f82610fec565b600181019050611005565b5050565b601f8211156110675761103881610f0f565b61104184610f21565b81016020851015611050578190505b61106461105c85610f21565b830182611004565b50505b505050565b5f82821c905092915050565b5f6110875f198460080261106c565b1980831691505092915050565b5f61109f8383611078565b9150826002028217905092915050565b6110b882610be3565b67ffffffffffffffff8111156110d1576110d0610960565b5b6110db8254610edf565b6110e6828285611026565b5f60209050601f831160018114611117575f8415611105578287015190505b61110f8582611094565b865550611176565b601f19841661112586610f0f565b5f5b8281101561114c57848901518255600182019150602085019450602081019050611127565b868310156111695784890151611165601f891682611078565b8355505b6001600288020188555050505b505050505050565b5f6040820190508181035f8301526111968185610c0b565b90506111a56020830184610ca7565b9392505050565b7f496e646578206973206f7574206f6620626f756e6400000000000000000000005f82015250565b5f6111e0601583610bed565b91506111eb826111ac565b602082019050919050565b5f6020820190508181035f83015261120d816111d4565b9050919050565b7f4e487b71000000000000000000000000000000000000000000000000000000005f52603260045260245ffd5b7f496e646578206973206f75742d6f662d626f756e6400000000000000000000005f82015250565b5f611275601583610bed565b915061128082611241565b602082019050919050565b5f6020820190508181035f8301526112a281611269565b905091905056fea26469706673582212204ed4ceeba56ed77ada4c0d1563b39e5a92132a5295277a8193aabd8e8ddafa5864736f6c634300081b0033",
					"opcodes": "PUSH1 0x80 PUSH1 0x40 MSTORE CALLVALUE DUP1 ISZERO PUSH1 0xE JUMPI PUSH0 PUSH0 REVERT JUMPDEST POP CALLER PUSH0 PUSH0 PUSH2 0x100 EXP DUP2 SLOAD DUP2 PUSH20 0xFFFFFFFFFFFFFFFFFFFFFFFFFFFFFFFFFFFFFFFF MUL NOT AND SWAP1 DUP4 PUSH20 0xFFFFFFFFFFFFFFFFFFFFFFFFFFFFFFFFFFFFFFFF AND MUL OR SWAP1 SSTORE POP PUSH2 0x12DF DUP1 PUSH2 0x5B PUSH0 CODECOPY PUSH0 RETURN INVALID PUSH1 0x80 PUSH1 0x40 MSTORE CALLVALUE DUP1 ISZERO PUSH2 0xF JUMPI PUSH0 PUSH0 REVERT JUMPDEST POP PUSH1 0x4 CALLDATASIZE LT PUSH2 0x55 JUMPI PUSH0 CALLDATALOAD PUSH1 0xE0 SHR DUP1 PUSH4 0x3380B99F EQ PUSH2 0x59 JUMPI DUP1 PUSH4 0x8DA5CB5B EQ PUSH2 0x89 JUMPI DUP1 PUSH4 0xBC8BC2B4 EQ PUSH2 0xA7 JUMPI DUP1 PUSH4 0xE9505164 EQ PUSH2 0xD9 JUMPI DUP1 PUSH4 0xFB0B86FB EQ PUSH2 0xF5 JUMPI JUMPDEST PUSH0 PUSH0 REVERT JUMPDEST PUSH2 0x73 PUSH1 0x4 DUP1 CALLDATASIZE SUB DUP2 ADD SWAP1 PUSH2 0x6E SWAP2 SWAP1 PUSH2 0xA84 JUMP JUMPDEST PUSH2 0x127 JUMP JUMPDEST PUSH1 0x40 MLOAD PUSH2 0x80 SWAP2 SWAP1 PUSH2 0xB14 JUMP JUMPDEST PUSH1 0x40 MLOAD DUP1 SWAP2 SUB SWAP1 RETURN JUMPDEST PUSH2 0x91 PUSH2 0x337 JUMP JUMPDEST PUSH1 0x40 MLOAD PUSH2 0x9E SWAP2 SWAP1 PUSH2 0xB6C JUMP JUMPDEST PUSH1 0x40 MLOAD DUP1 SWAP2 SUB SWAP1 RETURN JUMPDEST PUSH2 0xC1 PUSH1 0x4 DUP1 CALLDATASIZE SUB DUP2 ADD SWAP1 PUSH2 0xBC SWAP2 SWAP1 PUSH2 0xBB8 JUMP JUMPDEST PUSH2 0x35B JUMP JUMPDEST PUSH1 0x40 MLOAD PUSH2 0xD0 SWAP4 SWAP3 SWAP2 SWAP1 PUSH2 0xCB6 JUMP JUMPDEST PUSH1 0x40 MLOAD DUP1 SWAP2 SUB SWAP1 RETURN JUMPDEST PUSH2 0xF3 PUSH1 0x4 DUP1 CALLDATASIZE SUB DUP2 ADD SWAP1 PUSH2 0xEE SWAP2 SWAP1 PUSH2 0xD2F JUMP JUMPDEST PUSH2 0x4A8 JUMP JUMPDEST STOP JUMPDEST PUSH2 0x10F PUSH1 0x4 DUP1 CALLDATASIZE SUB DUP2 ADD SWAP1 PUSH2 0x10A SWAP2 SWAP1 PUSH2 0xDB7 JUMP JUMPDEST PUSH2 0x6A3 JUMP JUMPDEST PUSH1 0x40 MLOAD PUSH2 0x11E SWAP4 SWAP3 SWAP2 SWAP1 PUSH2 0xCB6 JUMP JUMPDEST PUSH1 0x40 MLOAD DUP1 SWAP2 SUB SWAP1 RETURN JUMPDEST PUSH0 PUSH0 PUSH0 SWAP1 SLOAD SWAP1 PUSH2 0x100 EXP SWAP1 DIV PUSH20 0xFFFFFFFFFFFFFFFFFFFFFFFFFFFFFFFFFFFFFFFF AND PUSH20 0xFFFFFFFFFFFFFFFFFFFFFFFFFFFFFFFFFFFFFFFF AND CALLER PUSH20 0xFFFFFFFFFFFFFFFFFFFFFFFFFFFFFFFFFFFFFFFF AND EQ PUSH2 0x1B6 JUMPI PUSH1 0x40 MLOAD PUSH32 0x8C379A000000000000000000000000000000000000000000000000000000000 DUP2 MSTORE PUSH1 0x4 ADD PUSH2 0x1AD SWAP1 PUSH2 0xE2C JUMP JUMPDEST PUSH1 0x40 MLOAD DUP1 SWAP2 SUB SWAP1 REVERT JUMPDEST PUSH0 PUSH20 0xFFFFFFFFFFFFFFFFFFFFFFFFFFFFFFFFFFFFFFFF AND CALLER PUSH20 0xFFFFFFFFFFFFFFFFFFFFFFFFFFFFFFFFFFFFFFFF AND SUB PUSH2 0x224 JUMPI PUSH1 0x40 MLOAD PUSH32 0x8C379A000000000000000000000000000000000000000000000000000000000 DUP2 MSTORE PUSH1 0x4 ADD PUSH2 0x21B SWAP1 PUSH2 0xE94 JUMP JUMPDEST PUSH1 0x40 MLOAD DUP1 SWAP2 SUB SWAP1 REVERT JUMPDEST PUSH2 0x22C PUSH2 0x905 JUMP JUMPDEST DUP4 DUP2 PUSH0 ADD DUP2 SWAP1 MSTORE POP DUP3 DUP2 PUSH1 0x20 ADD DUP2 SWAP1 MSTORE POP PUSH1 0x1 DUP2 PUSH1 0x40 ADD SWAP1 PUSH1 0x3 DUP2 GT ISZERO PUSH2 0x256 JUMPI PUSH2 0x255 PUSH2 0xC43 JUMP JUMPDEST JUMPDEST SWAP1 DUP2 PUSH1 0x3 DUP2 GT ISZERO PUSH2 0x26A JUMPI PUSH2 0x269 PUSH2 0xC43 JUMP JUMPDEST JUMPDEST DUP2 MSTORE POP POP PUSH1 0x1 DUP2 SWAP1 DUP1 PUSH1 0x1 DUP2 SLOAD ADD DUP1 DUP3 SSTORE DUP1 SWAP2 POP POP PUSH1 0x1 SWAP1 SUB SWAP1 PUSH0 MSTORE PUSH1 0x20 PUSH0 KECCAK256 SWAP1 PUSH1 0x3 MUL ADD PUSH0 SWAP1 SWAP2 SWAP1 SWAP2 SWAP1 SWAP2 POP PUSH0 DUP3 ADD MLOAD DUP2 PUSH0 ADD SWAP1 DUP2 PUSH2 0x2AA SWAP2 SWAP1 PUSH2 0x10AF JUMP JUMPDEST POP PUSH1 0x20 DUP3 ADD MLOAD DUP2 PUSH1 0x1 ADD SWAP1 DUP2 PUSH2 0x2C0 SWAP2 SWAP1 PUSH2 0x10AF JUMP JUMPDEST POP PUSH1 0x40 DUP3 ADD MLOAD DUP2 PUSH1 0x2 ADD PUSH0 PUSH2 0x100 EXP DUP2 SLOAD DUP2 PUSH1 0xFF MUL NOT AND SWAP1 DUP4 PUSH1 0x3 DUP2 GT ISZERO PUSH2 0x2EB JUMPI PUSH2 0x2EA PUSH2 0xC43 JUMP JUMPDEST JUMPDEST MUL OR SWAP1 SSTORE POP POP POP PUSH32 0xB24501745F85FFF88CC582DF1223BF671A1234AB872711FFAA7EB8BD56FE311E DUP5 PUSH1 0x1 PUSH1 0x40 MLOAD PUSH2 0x324 SWAP3 SWAP2 SWAP1 PUSH2 0x117E JUMP JUMPDEST PUSH1 0x40 MLOAD DUP1 SWAP2 SUB SWAP1 LOG1 PUSH1 0x1 SWAP2 POP POP SWAP3 SWAP2 POP POP JUMP JUMPDEST PUSH0 PUSH0 SWAP1 SLOAD SWAP1 PUSH2 0x100 EXP SWAP1 DIV PUSH20 0xFFFFFFFFFFFFFFFFFFFFFFFFFFFFFFFFFFFFFFFF AND DUP2 JUMP JUMPDEST PUSH1 0x1 DUP2 DUP2 SLOAD DUP2 LT PUSH2 0x36A JUMPI PUSH0 DUP1 REVERT JUMPDEST SWAP1 PUSH0 MSTORE PUSH1 0x20 PUSH0 KECCAK256 SWAP1 PUSH1 0x3 MUL ADD PUSH0 SWAP2 POP SWAP1 POP DUP1 PUSH0 ADD DUP1 SLOAD PUSH2 0x389 SWAP1 PUSH2 0xEDF JUMP JUMPDEST DUP1 PUSH1 0x1F ADD PUSH1 0x20 DUP1 SWAP2 DIV MUL PUSH1 0x20 ADD PUSH1 0x40 MLOAD SWAP1 DUP2 ADD PUSH1 0x40 MSTORE DUP1 SWAP3 SWAP2 SWAP1 DUP2 DUP2 MSTORE PUSH1 0x20 ADD DUP3 DUP1 SLOAD PUSH2 0x3B5 SWAP1 PUSH2 0xEDF JUMP JUMPDEST DUP1 ISZERO PUSH2 0x400 JUMPI DUP1 PUSH1 0x1F LT PUSH2 0x3D7 JUMPI PUSH2 0x100 DUP1 DUP4 SLOAD DIV MUL DUP4 MSTORE SWAP2 PUSH1 0x20 ADD SWAP2 PUSH2 0x400 JUMP JUMPDEST DUP3 ADD SWAP2 SWAP1 PUSH0 MSTORE PUSH1 0x20 PUSH0 KECCAK256 SWAP1 JUMPDEST DUP2 SLOAD DUP2 MSTORE SWAP1 PUSH1 0x1 ADD SWAP1 PUSH1 0x20 ADD DUP1 DUP4 GT PUSH2 0x3E3 JUMPI DUP3 SWAP1 SUB PUSH1 0x1F AND DUP3 ADD SWAP2 JUMPDEST POP POP POP POP POP SWAP1 DUP1 PUSH1 0x1 ADD DUP1 SLOAD PUSH2 0x415 SWAP1 PUSH2 0xEDF JUMP JUMPDEST DUP1 PUSH1 0x1F ADD PUSH1 0x20 DUP1 SWAP2 DIV MUL PUSH1 0x20 ADD PUSH1 0x40 MLOAD SWAP1 DUP2 ADD PUSH1 0x40 MSTORE DUP1 SWAP3 SWAP2 SWAP1 DUP2 DUP2 MSTORE PUSH1 0x20 ADD DUP3 DUP1 SLOAD PUSH2 0x441 SWAP1 PUSH2 0xEDF JUMP JUMPDEST DUP1 ISZERO PUSH2 0x48C JUMPI DUP1 PUSH1 0x1F LT PUSH2 0x463 JUMPI PUSH2 0x100 DUP1 DUP4 SLOAD DIV MUL DUP4 MSTORE SWAP2 PUSH1 0x20 ADD SWAP2 PUSH2 0x48C JUMP JUMPDEST DUP3 ADD SWAP2 SWAP1 PUSH0 MSTORE PUSH1 0x20 PUSH0 KECCAK256 SWAP1 JUMPDEST DUP2 SLOAD DUP2 MSTORE SWAP1 PUSH1 0x1 ADD SWAP1 PUSH1 0x20 ADD DUP1 DUP4 GT PUSH2 0x46F JUMPI DUP3 SWAP1 SUB PUSH1 0x1F AND DUP3 ADD SWAP2 JUMPDEST POP POP POP POP POP SWAP1 DUP1 PUSH1 0x2 ADD PUSH0 SWAP1 SLOAD SWAP1 PUSH2 0x100 EXP SWAP1 DIV PUSH1 0xFF AND SWAP1 POP DUP4 JUMP JUMPDEST PUSH0 PUSH0 SWAP1 SLOAD SWAP1 PUSH2 0x100 EXP SWAP1 DIV PUSH20 0xFFFFFFFFFFFFFFFFFFFFFFFFFFFFFFFFFFFFFFFF AND PUSH20 0xFFFFFFFFFFFFFFFFFFFFFFFFFFFFFFFFFFFFFFFF AND CALLER PUSH20 0xFFFFFFFFFFFFFFFFFFFFFFFFFFFFFFFFFFFFFFFF AND EQ PUSH2 0x536 JUMPI PUSH1 0x40 MLOAD PUSH32 0x8C379A000000000000000000000000000000000000000000000000000000000 DUP2 MSTORE PUSH1 0x4 ADD PUSH2 0x52D SWAP1 PUSH2 0xE2C JUMP JUMPDEST PUSH1 0x40 MLOAD DUP1 SWAP2 SUB SWAP1 REVERT JUMPDEST PUSH0 PUSH20 0xFFFFFFFFFFFFFFFFFFFFFFFFFFFFFFFFFFFFFFFF AND CALLER PUSH20 0xFFFFFFFFFFFFFFFFFFFFFFFFFFFFFFFFFFFFFFFF AND SUB PUSH2 0x5A4 JUMPI PUSH1 0x40 MLOAD PUSH32 0x8C379A000000000000000000000000000000000000000000000000000000000 DUP2 MSTORE PUSH1 0x4 ADD PUSH2 0x59B SWAP1 PUSH2 0xE94 JUMP JUMPDEST PUSH1 0x40 MLOAD DUP1 SWAP2 SUB SWAP1 REVERT JUMPDEST PUSH1 0x1 DUP1 SLOAD SWAP1 POP DUP4 PUSH1 0xFF AND LT PUSH2 0x5EE JUMPI PUSH1 0x40 MLOAD PUSH32 0x8C379A000000000000000000000000000000000000000000000000000000000 DUP2 MSTORE PUSH1 0x4 ADD PUSH2 0x5E5 SWAP1 PUSH2 0x11F6 JUMP JUMPDEST PUSH1 0x40 MLOAD DUP1 SWAP2 SUB SWAP1 REVERT JUMPDEST PUSH0 PUSH1 0x1 DUP5 PUSH1 0xFF AND DUP2 SLOAD DUP2 LT PUSH2 0x606 JUMPI PUSH2 0x605 PUSH2 0x1214 JUMP JUMPDEST JUMPDEST SWAP1 PUSH0 MSTORE PUSH1 0x20 PUSH0 KECCAK256 SWAP1 PUSH1 0x3 MUL ADD SWAP1 POP DUP3 DUP2 PUSH0 ADD SWAP1 DUP2 PUSH2 0x624 SWAP2 SWAP1 PUSH2 0x10AF JUMP JUMPDEST POP DUP2 DUP2 PUSH1 0x1 ADD SWAP1 DUP2 PUSH2 0x636 SWAP2 SWAP1 PUSH2 0x10AF JUMP JUMPDEST POP PUSH1 0x2 DUP2 PUSH1 0x2 ADD PUSH0 PUSH2 0x100 EXP DUP2 SLOAD DUP2 PUSH1 0xFF MUL NOT AND SWAP1 DUP4 PUSH1 0x3 DUP2 GT ISZERO PUSH2 0x65E JUMPI PUSH2 0x65D PUSH2 0xC43 JUMP JUMPDEST JUMPDEST MUL OR SWAP1 SSTORE POP PUSH32 0x3FF5B2DBB379A3765DE2A11E90D91CFAF54B178F2D29590471F1FB57642FD165 DUP4 PUSH1 0x2 PUSH1 0x40 MLOAD PUSH2 0x695 SWAP3 SWAP2 SWAP1 PUSH2 0x117E JUMP JUMPDEST PUSH1 0x40 MLOAD DUP1 SWAP2 SUB SWAP1 LOG1 POP POP POP POP JUMP JUMPDEST PUSH1 0x60 DUP1 PUSH0 PUSH0 PUSH20 0xFFFFFFFFFFFFFFFFFFFFFFFFFFFFFFFFFFFFFFFF AND CALLER PUSH20 0xFFFFFFFFFFFFFFFFFFFFFFFFFFFFFFFFFFFFFFFF AND SUB PUSH2 0x715 JUMPI PUSH1 0x40 MLOAD PUSH32 0x8C379A000000000000000000000000000000000000000000000000000000000 DUP2 MSTORE PUSH1 0x4 ADD PUSH2 0x70C SWAP1 PUSH2 0xE94 JUMP JUMPDEST PUSH1 0x40 MLOAD DUP1 SWAP2 SUB SWAP1 REVERT JUMPDEST PUSH1 0x1 DUP1 SLOAD SWAP1 POP DUP5 PUSH1 0xFF AND LT PUSH2 0x75F JUMPI PUSH1 0x40 MLOAD PUSH32 0x8C379A000000000000000000000000000000000000000000000000000000000 DUP2 MSTORE PUSH1 0x4 ADD PUSH2 0x756 SWAP1 PUSH2 0x128B JUMP JUMPDEST PUSH1 0x40 MLOAD DUP1 SWAP2 SUB SWAP1 REVERT JUMPDEST PUSH0 PUSH1 0x1 DUP6 PUSH1 0xFF AND DUP2 SLOAD DUP2 LT PUSH2 0x777 JUMPI PUSH2 0x776 PUSH2 0x1214 JUMP JUMPDEST JUMPDEST SWAP1 PUSH0 MSTORE PUSH1 0x20 PUSH0 KECCAK256 SWAP1 PUSH1 0x3 MUL ADD PUSH1 0x40 MLOAD DUP1 PUSH1 0x60 ADD PUSH1 0x40 MSTORE SWAP1 DUP2 PUSH0 DUP3 ADD DUP1 SLOAD PUSH2 0x79D SWAP1 PUSH2 0xEDF JUMP JUMPDEST DUP1 PUSH1 0x1F ADD PUSH1 0x20 DUP1 SWAP2 DIV MUL PUSH1 0x20 ADD PUSH1 0x40 MLOAD SWAP1 DUP2 ADD PUSH1 0x40 MSTORE DUP1 SWAP3 SWAP2 SWAP1 DUP2 DUP2 MSTORE PUSH1 0x20 ADD DUP3 DUP1 SLOAD PUSH2 0x7C9 SWAP1 PUSH2 0xEDF JUMP JUMPDEST DUP1 ISZERO PUSH2 0x814 JUMPI DUP1 PUSH1 0x1F LT PUSH2 0x7EB JUMPI PUSH2 0x100 DUP1 DUP4 SLOAD DIV MUL DUP4 MSTORE SWAP2 PUSH1 0x20 ADD SWAP2 PUSH2 0x814 JUMP JUMPDEST DUP3 ADD SWAP2 SWAP1 PUSH0 MSTORE PUSH1 0x20 PUSH0 KECCAK256 SWAP1 JUMPDEST DUP2 SLOAD DUP2 MSTORE SWAP1 PUSH1 0x1 ADD SWAP1 PUSH1 0x20 ADD DUP1 DUP4 GT PUSH2 0x7F7 JUMPI DUP3 SWAP1 SUB PUSH1 0x1F AND DUP3 ADD SWAP2 JUMPDEST POP POP POP POP POP DUP2 MSTORE PUSH1 0x20 ADD PUSH1 0x1 DUP3 ADD DUP1 SLOAD PUSH2 0x82D SWAP1 PUSH2 0xEDF JUMP JUMPDEST DUP1 PUSH1 0x1F ADD PUSH1 0x20 DUP1 SWAP2 DIV MUL PUSH1 0x20 ADD PUSH1 0x40 MLOAD SWAP1 DUP2 ADD PUSH1 0x40 MSTORE DUP1 SWAP3 SWAP2 SWAP1 DUP2 DUP2 MSTORE PUSH1 0x20 ADD DUP3 DUP1 SLOAD PUSH2 0x859 SWAP1 PUSH2 0xEDF JUMP JUMPDEST DUP1 ISZERO PUSH2 0x8A4 JUMPI DUP1 PUSH1 0x1F LT PUSH2 0x87B JUMPI PUSH2 0x100 DUP1 DUP4 SLOAD DIV MUL DUP4 MSTORE SWAP2 PUSH1 0x20 ADD SWAP2 PUSH2 0x8A4 JUMP JUMPDEST DUP3 ADD SWAP2 SWAP1 PUSH0 MSTORE PUSH1 0x20 PUSH0 KECCAK256 SWAP1 JUMPDEST DUP2 SLOAD DUP2 MSTORE SWAP1 PUSH1 0x1 ADD SWAP1 PUSH1 0x20 ADD DUP1 DUP4 GT PUSH2 0x887 JUMPI DUP3 SWAP1 SUB PUSH1 0x1F AND DUP3 ADD SWAP2 JUMPDEST POP POP POP POP POP DUP2 MSTORE PUSH1 0x20 ADD PUSH1 0x2 DUP3 ADD PUSH0 SWAP1 SLOAD SWAP1 PUSH2 0x100 EXP SWAP1 DIV PUSH1 0xFF AND PUSH1 0x3 DUP2 GT ISZERO PUSH2 0x8D1 JUMPI PUSH2 0x8D0 PUSH2 0xC43 JUMP JUMPDEST JUMPDEST PUSH1 0x3 DUP2 GT ISZERO PUSH2 0x8E3 JUMPI PUSH2 0x8E2 PUSH2 0xC43 JUMP JUMPDEST JUMPDEST DUP2 MSTORE POP POP SWAP1 POP DUP1 PUSH0 ADD MLOAD DUP2 PUSH1 0x20 ADD MLOAD DUP3 PUSH1 0x40 ADD MLOAD SWAP4 POP SWAP4 POP SWAP4 POP POP SWAP2 SWAP4 SWAP1 SWAP3 POP JUMP JUMPDEST PUSH1 0x40 MLOAD DUP1 PUSH1 0x60 ADD PUSH1 0x40 MSTORE DUP1 PUSH1 0x60 DUP2 MSTORE PUSH1 0x20 ADD PUSH1 0x60 DUP2 MSTORE PUSH1 0x20 ADD PUSH0 PUSH1 0x3 DUP2 GT ISZERO PUSH2 0x931 JUMPI PUSH2 0x930 PUSH2 0xC43 JUMP JUMPDEST JUMPDEST DUP2 MSTORE POP SWAP1 JUMP JUMPDEST PUSH0 PUSH1 0x40 MLOAD SWAP1 POP SWAP1 JUMP JUMPDEST PUSH0 PUSH0 REVERT JUMPDEST PUSH0 PUSH0 REVERT JUMPDEST PUSH0 PUSH0 REVERT JUMPDEST PUSH0 PUSH0 REVERT JUMPDEST PUSH0 PUSH1 0x1F NOT PUSH1 0x1F DUP4 ADD AND SWAP1 POP SWAP2 SWAP1 POP JUMP JUMPDEST PUSH32 0x4E487B7100000000000000000000000000000000000000000000000000000000 PUSH0 MSTORE PUSH1 0x41 PUSH1 0x4 MSTORE PUSH1 0x24 PUSH0 REVERT JUMPDEST PUSH2 0x996 DUP3 PUSH2 0x950 JUMP JUMPDEST DUP2 ADD DUP2 DUP2 LT PUSH8 0xFFFFFFFFFFFFFFFF DUP3 GT OR ISZERO PUSH2 0x9B5 JUMPI PUSH2 0x9B4 PUSH2 0x960 JUMP JUMPDEST JUMPDEST DUP1 PUSH1 0x40 MSTORE POP POP POP JUMP JUMPDEST PUSH0 PUSH2 0x9C7 PUSH2 0x937 JUMP JUMPDEST SWAP1 POP PUSH2 0x9D3 DUP3 DUP3 PUSH2 0x98D JUMP JUMPDEST SWAP2 SWAP1 POP JUMP JUMPDEST PUSH0 PUSH8 0xFFFFFFFFFFFFFFFF DUP3 GT ISZERO PUSH2 0x9F2 JUMPI PUSH2 0x9F1 PUSH2 0x960 JUMP JUMPDEST JUMPDEST PUSH2 0x9FB DUP3 PUSH2 0x950 JUMP JUMPDEST SWAP1 POP PUSH1 0x20 DUP2 ADD SWAP1 POP SWAP2 SWAP1 POP JUMP JUMPDEST DUP3 DUP2 DUP4 CALLDATACOPY PUSH0 DUP4 DUP4 ADD MSTORE POP POP POP JUMP JUMPDEST PUSH0 PUSH2 0xA28 PUSH2 0xA23 DUP5 PUSH2 0x9D8 JUMP JUMPDEST PUSH2 0x9BE JUMP JUMPDEST SWAP1 POP DUP3 DUP2 MSTORE PUSH1 0x20 DUP2 ADD DUP5 DUP5 DUP5 ADD GT ISZERO PUSH2 0xA44 JUMPI PUSH2 0xA43 PUSH2 0x94C JUMP JUMPDEST JUMPDEST PUSH2 0xA4F DUP5 DUP3 DUP6 PUSH2 0xA08 JUMP JUMPDEST POP SWAP4 SWAP3 POP POP POP JUMP JUMPDEST PUSH0 DUP3 PUSH1 0x1F DUP4 ADD SLT PUSH2 0xA6B JUMPI PUSH2 0xA6A PUSH2 0x948 JUMP JUMPDEST JUMPDEST DUP2 CALLDATALOAD PUSH2 0xA7B DUP5 DUP3 PUSH1 0x20 DUP7 ADD PUSH2 0xA16 JUMP JUMPDEST SWAP2 POP POP SWAP3 SWAP2 POP POP JUMP JUMPDEST PUSH0 PUSH0 PUSH1 0x40 DUP4 DUP6 SUB SLT ISZERO PUSH2 0xA9A JUMPI PUSH2 0xA99 PUSH2 0x940 JUMP JUMPDEST JUMPDEST PUSH0 DUP4 ADD CALLDATALOAD PUSH8 0xFFFFFFFFFFFFFFFF DUP2 GT ISZERO PUSH2 0xAB7 JUMPI PUSH2 0xAB6 PUSH2 0x944 JUMP JUMPDEST JUMPDEST PUSH2 0xAC3 DUP6 DUP3 DUP7 ADD PUSH2 0xA57 JUMP JUMPDEST SWAP3 POP POP PUSH1 0x20 DUP4 ADD CALLDATALOAD PUSH8 0xFFFFFFFFFFFFFFFF DUP2 GT ISZERO PUSH2 0xAE4 JUMPI PUSH2 0xAE3 PUSH2 0x944 JUMP JUMPDEST JUMPDEST PUSH2 0xAF0 DUP6 DUP3 DUP7 ADD PUSH2 0xA57 JUMP JUMPDEST SWAP2 POP POP SWAP3 POP SWAP3 SWAP1 POP JUMP JUMPDEST PUSH0 DUP2 ISZERO ISZERO SWAP1 POP SWAP2 SWAP1 POP JUMP JUMPDEST PUSH2 0xB0E DUP2 PUSH2 0xAFA JUMP JUMPDEST DUP3 MSTORE POP POP JUMP JUMPDEST PUSH0 PUSH1 0x20 DUP3 ADD SWAP1 POP PUSH2 0xB27 PUSH0 DUP4 ADD DUP5 PUSH2 0xB05 JUMP JUMPDEST SWAP3 SWAP2 POP POP JUMP JUMPDEST PUSH0 PUSH20 0xFFFFFFFFFFFFFFFFFFFFFFFFFFFFFFFFFFFFFFFF DUP3 AND SWAP1 POP SWAP2 SWAP1 POP JUMP JUMPDEST PUSH0 PUSH2 0xB56 DUP3 PUSH2 0xB2D JUMP JUMPDEST SWAP1 POP SWAP2 SWAP1 POP JUMP JUMPDEST PUSH2 0xB66 DUP2 PUSH2 0xB4C JUMP JUMPDEST DUP3 MSTORE POP POP JUMP JUMPDEST PUSH0 PUSH1 0x20 DUP3 ADD SWAP1 POP PUSH2 0xB7F PUSH0 DUP4 ADD DUP5 PUSH2 0xB5D JUMP JUMPDEST SWAP3 SWAP2 POP POP JUMP JUMPDEST PUSH0 DUP2 SWAP1 POP SWAP2 SWAP1 POP JUMP JUMPDEST PUSH2 0xB97 DUP2 PUSH2 0xB85 JUMP JUMPDEST DUP2 EQ PUSH2 0xBA1 JUMPI PUSH0 PUSH0 REVERT JUMPDEST POP JUMP JUMPDEST PUSH0 DUP2 CALLDATALOAD SWAP1 POP PUSH2 0xBB2 DUP2 PUSH2 0xB8E JUMP JUMPDEST SWAP3 SWAP2 POP POP JUMP JUMPDEST PUSH0 PUSH1 0x20 DUP3 DUP5 SUB SLT ISZERO PUSH2 0xBCD JUMPI PUSH2 0xBCC PUSH2 0x940 JUMP JUMPDEST JUMPDEST PUSH0 PUSH2 0xBDA DUP5 DUP3 DUP6 ADD PUSH2 0xBA4 JUMP JUMPDEST SWAP2 POP POP SWAP3 SWAP2 POP POP JUMP JUMPDEST PUSH0 DUP2 MLOAD SWAP1 POP SWAP2 SWAP1 POP JUMP JUMPDEST PUSH0 DUP3 DUP3 MSTORE PUSH1 0x20 DUP3 ADD SWAP1 POP SWAP3 SWAP2 POP POP JUMP JUMPDEST DUP3 DUP2 DUP4 MCOPY PUSH0 DUP4 DUP4 ADD MSTORE POP POP POP JUMP JUMPDEST PUSH0 PUSH2 0xC15 DUP3 PUSH2 0xBE3 JUMP JUMPDEST PUSH2 0xC1F DUP2 DUP6 PUSH2 0xBED JUMP JUMPDEST SWAP4 POP PUSH2 0xC2F DUP2 DUP6 PUSH1 0x20 DUP7 ADD PUSH2 0xBFD JUMP JUMPDEST PUSH2 0xC38 DUP2 PUSH2 0x950 JUMP JUMPDEST DUP5 ADD SWAP2 POP POP SWAP3 SWAP2 POP POP JUMP JUMPDEST PUSH32 0x4E487B7100000000000000000000000000000000000000000000000000000000 PUSH0 MSTORE PUSH1 0x21 PUSH1 0x4 MSTORE PUSH1 0x24 PUSH0 REVERT JUMPDEST PUSH1 0x4 DUP2 LT PUSH2 0xC81 JUMPI PUSH2 0xC80 PUSH2 0xC43 JUMP JUMPDEST JUMPDEST POP JUMP JUMPDEST PUSH0 DUP2 SWAP1 POP PUSH2 0xC91 DUP3 PUSH2 0xC70 JUMP JUMPDEST SWAP2 SWAP1 POP JUMP JUMPDEST PUSH0 PUSH2 0xCA0 DUP3 PUSH2 0xC84 JUMP JUMPDEST SWAP1 POP SWAP2 SWAP1 POP JUMP JUMPDEST PUSH2 0xCB0 DUP2 PUSH2 0xC96 JUMP JUMPDEST DUP3 MSTORE POP POP JUMP JUMPDEST PUSH0 PUSH1 0x60 DUP3 ADD SWAP1 POP DUP2 DUP2 SUB PUSH0 DUP4 ADD MSTORE PUSH2 0xCCE DUP2 DUP7 PUSH2 0xC0B JUMP JUMPDEST SWAP1 POP DUP2 DUP2 SUB PUSH1 0x20 DUP4 ADD MSTORE PUSH2 0xCE2 DUP2 DUP6 PUSH2 0xC0B JUMP JUMPDEST SWAP1 POP PUSH2 0xCF1 PUSH1 0x40 DUP4 ADD DUP5 PUSH2 0xCA7 JUMP JUMPDEST SWAP5 SWAP4 POP POP POP POP JUMP JUMPDEST PUSH0 PUSH1 0xFF DUP3 AND SWAP1 POP SWAP2 SWAP1 POP JUMP JUMPDEST PUSH2 0xD0E DUP2 PUSH2 0xCF9 JUMP JUMPDEST DUP2 EQ PUSH2 0xD18 JUMPI PUSH0 PUSH0 REVERT JUMPDEST POP JUMP JUMPDEST PUSH0 DUP2 CALLDATALOAD SWAP1 POP PUSH2 0xD29 DUP2 PUSH2 0xD05 JUMP JUMPDEST SWAP3 SWAP2 POP POP JUMP JUMPDEST PUSH0 PUSH0 PUSH0 PUSH1 0x60 DUP5 DUP7 SUB SLT ISZERO PUSH2 0xD46 JUMPI PUSH2 0xD45 PUSH2 0x940 JUMP JUMPDEST JUMPDEST PUSH0 PUSH2 0xD53 DUP7 DUP3 DUP8 ADD PUSH2 0xD1B JUMP JUMPDEST SWAP4 POP POP PUSH1 0x20 DUP5 ADD CALLDATALOAD PUSH8 0xFFFFFFFFFFFFFFFF DUP2 GT ISZERO PUSH2 0xD74 JUMPI PUSH2 0xD73 PUSH2 0x944 JUMP JUMPDEST JUMPDEST PUSH2 0xD80 DUP7 DUP3 DUP8 ADD PUSH2 0xA57 JUMP JUMPDEST SWAP3 POP POP PUSH1 0x40 DUP5 ADD CALLDATALOAD PUSH8 0xFFFFFFFFFFFFFFFF DUP2 GT ISZERO PUSH2 0xDA1 JUMPI PUSH2 0xDA0 PUSH2 0x944 JUMP JUMPDEST JUMPDEST PUSH2 0xDAD DUP7 DUP3 DUP8 ADD PUSH2 0xA57 JUMP JUMPDEST SWAP2 POP POP SWAP3 POP SWAP3 POP SWAP3 JUMP JUMPDEST PUSH0 PUSH1 0x20 DUP3 DUP5 SUB SLT ISZERO PUSH2 0xDCC JUMPI PUSH2 0xDCB PUSH2 0x940 JUMP JUMPDEST JUMPDEST PUSH0 PUSH2 0xDD9 DUP5 DUP3 DUP6 ADD PUSH2 0xD1B JUMP JUMPDEST SWAP2 POP POP SWAP3 SWAP2 POP POP JUMP JUMPDEST PUSH32 0x596F75277265206E6F7420616C6C6F7765640000000000000000000000000000 PUSH0 DUP3 ADD MSTORE POP JUMP JUMPDEST PUSH0 PUSH2 0xE16 PUSH1 0x12 DUP4 PUSH2 0xBED JUMP JUMPDEST SWAP2 POP PUSH2 0xE21 DUP3 PUSH2 0xDE2 JUMP JUMPDEST PUSH1 0x20 DUP3 ADD SWAP1 POP SWAP2 SWAP1 POP JUMP JUMPDEST PUSH0 PUSH1 0x20 DUP3 ADD SWAP1 POP DUP2 DUP2 SUB PUSH0 DUP4 ADD MSTORE PUSH2 0xE43 DUP2 PUSH2 0xE0A JUMP JUMPDEST SWAP1 POP SWAP2 SWAP1 POP JUMP JUMPDEST PUSH32 0x5A656F722061646472657373206E6F7420616C6C6F7765640000000000000000 PUSH0 DUP3 ADD MSTORE POP JUMP JUMPDEST PUSH0 PUSH2 0xE7E PUSH1 0x18 DUP4 PUSH2 0xBED JUMP JUMPDEST SWAP2 POP PUSH2 0xE89 DUP3 PUSH2 0xE4A JUMP JUMPDEST PUSH1 0x20 DUP3 ADD SWAP1 POP SWAP2 SWAP1 POP JUMP JUMPDEST PUSH0 PUSH1 0x20 DUP3 ADD SWAP1 POP DUP2 DUP2 SUB PUSH0 DUP4 ADD MSTORE PUSH2 0xEAB DUP2 PUSH2 0xE72 JUMP JUMPDEST SWAP1 POP SWAP2 SWAP1 POP JUMP JUMPDEST PUSH32 0x4E487B7100000000000000000000000000000000000000000000000000000000 PUSH0 MSTORE PUSH1 0x22 PUSH1 0x4 MSTORE PUSH1 0x24 PUSH0 REVERT JUMPDEST PUSH0 PUSH1 0x2 DUP3 DIV SWAP1 POP PUSH1 0x1 DUP3 AND DUP1 PUSH2 0xEF6 JUMPI PUSH1 0x7F DUP3 AND SWAP2 POP JUMPDEST PUSH1 0x20 DUP3 LT DUP2 SUB PUSH2 0xF09 JUMPI PUSH2 0xF08 PUSH2 0xEB2 JUMP JUMPDEST JUMPDEST POP SWAP2 SWAP1 POP JUMP JUMPDEST PUSH0 DUP2 SWAP1 POP DUP2 PUSH0 MSTORE PUSH1 0x20 PUSH0 KECCAK256 SWAP1 POP SWAP2 SWAP1 POP JUMP JUMPDEST PUSH0 PUSH1 0x20 PUSH1 0x1F DUP4 ADD DIV SWAP1 POP SWAP2 SWAP1 POP JUMP JUMPDEST PUSH0 DUP3 DUP3 SHL SWAP1 POP SWAP3 SWAP2 POP POP JUMP JUMPDEST PUSH0 PUSH1 0x8 DUP4 MUL PUSH2 0xF6B PUSH32 0xFFFFFFFFFFFFFFFFFFFFFFFFFFFFFFFFFFFFFFFFFFFFFFFFFFFFFFFFFFFFFFFF DUP3 PUSH2 0xF30 JUMP JUMPDEST PUSH2 0xF75 DUP7 DUP4 PUSH2 0xF30 JUMP JUMPDEST SWAP6 POP DUP1 NOT DUP5 AND SWAP4 POP DUP1 DUP7 AND DUP5 OR SWAP3 POP POP POP SWAP4 SWAP3 POP POP POP JUMP JUMPDEST PUSH0 DUP2 SWAP1 POP SWAP2 SWAP1 POP JUMP JUMPDEST PUSH0 PUSH2 0xFB0 PUSH2 0xFAB PUSH2 0xFA6 DUP5 PUSH2 0xB85 JUMP JUMPDEST PUSH2 0xF8D JUMP JUMPDEST PUSH2 0xB85 JUMP JUMPDEST SWAP1 POP SWAP2 SWAP1 POP JUMP JUMPDEST PUSH0 DUP2 SWAP1 POP SWAP2 SWAP1 POP JUMP JUMPDEST PUSH2 0xFC9 DUP4 PUSH2 0xF96 JUMP JUMPDEST PUSH2 0xFDD PUSH2 0xFD5 DUP3 PUSH2 0xFB7 JUMP JUMPDEST DUP5 DUP5 SLOAD PUSH2 0xF3C JUMP JUMPDEST DUP3 SSTORE POP POP POP POP JUMP JUMPDEST PUSH0 PUSH0 SWAP1 POP SWAP1 JUMP JUMPDEST PUSH2 0xFF4 PUSH2 0xFE5 JUMP JUMPDEST PUSH2 0xFFF DUP2 DUP5 DUP5 PUSH2 0xFC0 JUMP JUMPDEST POP POP POP JUMP JUMPDEST JUMPDEST DUP2 DUP2 LT ISZERO PUSH2 0x1022 JUMPI PUSH2 0x1017 PUSH0 DUP3 PUSH2 0xFEC JUMP JUMPDEST PUSH1 0x1 DUP2 ADD SWAP1 POP PUSH2 0x1005 JUMP JUMPDEST POP POP JUMP JUMPDEST PUSH1 0x1F DUP3 GT ISZERO PUSH2 0x1067 JUMPI PUSH2 0x1038 DUP2 PUSH2 0xF0F JUMP JUMPDEST PUSH2 0x1041 DUP5 PUSH2 0xF21 JUMP JUMPDEST DUP2 ADD PUSH1 0x20 DUP6 LT ISZERO PUSH2 0x1050 JUMPI DUP2 SWAP1 POP JUMPDEST PUSH2 0x1064 PUSH2 0x105C DUP6 PUSH2 0xF21 JUMP JUMPDEST DUP4 ADD DUP3 PUSH2 0x1004 JUMP JUMPDEST POP POP JUMPDEST POP POP POP JUMP JUMPDEST PUSH0 DUP3 DUP3 SHR SWAP1 POP SWAP3 SWAP2 POP POP JUMP JUMPDEST PUSH0 PUSH2 0x1087 PUSH0 NOT DUP5 PUSH1 0x8 MUL PUSH2 0x106C JUMP JUMPDEST NOT DUP1 DUP4 AND SWAP2 POP POP SWAP3 SWAP2 POP POP JUMP JUMPDEST PUSH0 PUSH2 0x109F DUP4 DUP4 PUSH2 0x1078 JUMP JUMPDEST SWAP2 POP DUP3 PUSH1 0x2 MUL DUP3 OR SWAP1 POP SWAP3 SWAP2 POP POP JUMP JUMPDEST PUSH2 0x10B8 DUP3 PUSH2 0xBE3 JUMP JUMPDEST PUSH8 0xFFFFFFFFFFFFFFFF DUP2 GT ISZERO PUSH2 0x10D1 JUMPI PUSH2 0x10D0 PUSH2 0x960 JUMP JUMPDEST JUMPDEST PUSH2 0x10DB DUP3 SLOAD PUSH2 0xEDF JUMP JUMPDEST PUSH2 0x10E6 DUP3 DUP3 DUP6 PUSH2 0x1026 JUMP JUMPDEST PUSH0 PUSH1 0x20 SWAP1 POP PUSH1 0x1F DUP4 GT PUSH1 0x1 DUP2 EQ PUSH2 0x1117 JUMPI PUSH0 DUP5 ISZERO PUSH2 0x1105 JUMPI DUP3 DUP8 ADD MLOAD SWAP1 POP JUMPDEST PUSH2 0x110F DUP6 DUP3 PUSH2 0x1094 JUMP JUMPDEST DUP7 SSTORE POP PUSH2 0x1176 JUMP JUMPDEST PUSH1 0x1F NOT DUP5 AND PUSH2 0x1125 DUP7 PUSH2 0xF0F JUMP JUMPDEST PUSH0 JUMPDEST DUP3 DUP2 LT ISZERO PUSH2 0x114C JUMPI DUP5 DUP10 ADD MLOAD DUP3 SSTORE PUSH1 0x1 DUP3 ADD SWAP2 POP PUSH1 0x20 DUP6 ADD SWAP5 POP PUSH1 0x20 DUP2 ADD SWAP1 POP PUSH2 0x1127 JUMP JUMPDEST DUP7 DUP4 LT ISZERO PUSH2 0x1169 JUMPI DUP5 DUP10 ADD MLOAD PUSH2 0x1165 PUSH1 0x1F DUP10 AND DUP3 PUSH2 0x1078 JUMP JUMPDEST DUP4 SSTORE POP JUMPDEST PUSH1 0x1 PUSH1 0x2 DUP9 MUL ADD DUP9 SSTORE POP POP POP JUMPDEST POP POP POP POP POP POP JUMP JUMPDEST PUSH0 PUSH1 0x40 DUP3 ADD SWAP1 POP DUP2 DUP2 SUB PUSH0 DUP4 ADD MSTORE PUSH2 0x1196 DUP2 DUP6 PUSH2 0xC0B JUMP JUMPDEST SWAP1 POP PUSH2 0x11A5 PUSH1 0x20 DUP4 ADD DUP5 PUSH2 0xCA7 JUMP JUMPDEST SWAP4 SWAP3 POP POP POP JUMP JUMPDEST PUSH32 0x496E646578206973206F7574206F6620626F756E640000000000000000000000 PUSH0 DUP3 ADD MSTORE POP JUMP JUMPDEST PUSH0 PUSH2 0x11E0 PUSH1 0x15 DUP4 PUSH2 0xBED JUMP JUMPDEST SWAP2 POP PUSH2 0x11EB DUP3 PUSH2 0x11AC JUMP JUMPDEST PUSH1 0x20 DUP3 ADD SWAP1 POP SWAP2 SWAP1 POP JUMP JUMPDEST PUSH0 PUSH1 0x20 DUP3 ADD SWAP1 POP DUP2 DUP2 SUB PUSH0 DUP4 ADD MSTORE PUSH2 0x120D DUP2 PUSH2 0x11D4 JUMP JUMPDEST SWAP1 POP SWAP2 SWAP1 POP JUMP JUMPDEST PUSH32 0x4E487B7100000000000000000000000000000000000000000000000000000000 PUSH0 MSTORE PUSH1 0x32 PUSH1 0x4 MSTORE PUSH1 0x24 PUSH0 REVERT JUMPDEST PUSH32 0x496E646578206973206F75742D6F662D626F756E640000000000000000000000 PUSH0 DUP3 ADD MSTORE POP JUMP JUMPDEST PUSH0 PUSH2 0x1275 PUSH1 0x15 DUP4 PUSH2 0xBED JUMP JUMPDEST SWAP2 POP PUSH2 0x1280 DUP3 PUSH2 0x1241 JUMP JUMPDEST PUSH1 0x20 DUP3 ADD SWAP1 POP SWAP2 SWAP1 POP JUMP JUMPDEST PUSH0 PUSH1 0x20 DUP3 ADD SWAP1 POP DUP2 DUP2 SUB PUSH0 DUP4 ADD MSTORE PUSH2 0x12A2 DUP2 PUSH2 0x1269 JUMP JUMPDEST SWAP1 POP SWAP2 SWAP1 POP JUMP INVALID LOG2 PUSH5 0x6970667358 0x22 SLT KECCAK256 0x4E 0xD4 0xCE 0xEB 0xA5 PUSH15 0xD77ADA4C0D1563B39E5A92132A5295 0x27 PUSH27 0x8193AABD8E8DDAFA5864736F6C634300081B003300000000000000 "
				},
				"gasEstimates": {
					"creation": {
						"codeDepositCost": "966200",
						"executionCost": "25263",
						"totalCost": "991463"
					},
					"external": {
						"createTodo(string,string)": "infinite",
						"getTodo(uint8)": "infinite",
						"owner()": "2507",
						"todos(uint256)": "infinite",
						"updateTodo(uint8,string,string)": "infinite"
					}
				},
				"methodIdentifiers": {
					"createTodo(string,string)": "3380b99f",
					"getTodo(uint8)": "fb0b86fb",
					"owner()": "8da5cb5b",
					"todos(uint256)": "bc8bc2b4",
					"updateTodo(uint8,string,string)": "e9505164"
				}
			},
			"storageLayout": {
				"storage": [
					{
						"astId": 3,
						"contract": "contracts/Todo.sol:TodoList",
						"label": "owner",
						"offset": 0,
						"slot": "0",
						"type": "t_address"
					},
					{
						"astId": 20,
						"contract": "contracts/Todo.sol:TodoList",
						"label": "todos",
						"offset": 0,
						"slot": "1",
						"type": "t_array(t_struct(Todo)16_storage)dyn_storage"
					}
				],
				"types": {
					"t_address": {
						"encoding": "inplace",
						"label": "address",
						"numberOfBytes": "20"
					},
					"t_array(t_struct(Todo)16_storage)dyn_storage": {
						"base": "t_struct(Todo)16_storage",
						"encoding": "dynamic_array",
						"label": "struct TodoList.Todo[]",
						"numberOfBytes": "32"
					},
					"t_enum(Status)8": {
						"encoding": "inplace",
						"label": "enum TodoList.Status",
						"numberOfBytes": "1"
					},
					"t_string_storage": {
						"encoding": "bytes",
						"label": "string",
						"numberOfBytes": "32"
					},
					"t_struct(Todo)16_storage": {
						"encoding": "inplace",
						"label": "struct TodoList.Todo",
						"members": [
							{
								"astId": 10,
								"contract": "contracts/Todo.sol:TodoList",
								"label": "title",
								"offset": 0,
								"slot": "0",
								"type": "t_string_storage"
							},
							{
								"astId": 12,
								"contract": "contracts/Todo.sol:TodoList",
								"label": "description",
								"offset": 0,
								"slot": "1",
								"type": "t_string_storage"
							},
							{
								"astId": 15,
								"contract": "contracts/Todo.sol:TodoList",
								"label": "status",
								"offset": 0,
								"slot": "2",
								"type": "t_enum(Status)8"
							}
						],
						"numberOfBytes": "96"
					}
				}
			},
			"userdoc": {
				"kind": "user",
				"methods": {},
				"version": 1
			}
		}
	}
}