{
	"data": {
		"bytecode": {
			"linkReferences": {},
			"object": "60806040526103e85f556101f46001556107d0600255610bb86003553480156025575f80fd5b506101d0806100335f395ff3fe608060405234801561000f575f80fd5b5060043610610055575f3560e01c806376e5dbc1146100595780637f58022014610077578063b49f4afd14610095578063bfdd4ad4146100b6578063f4854f1e146100d4575b5f80fd5b6100616100f2565b60405161006e919061013e565b60405180910390f35b61007f6100f8565b60405161008c919061013e565b60405180910390f35b61009d6100fd565b6040516100ad9493929190610157565b60405180910390f35b6100be61011a565b6040516100cb919061013e565b60405180910390f35b6100dc610120565b6040516100e9919061013e565b60405180910390f35b60015481565b5f5481565b5f805f805f54600154600254600354935093509350935090919293565b60025481565b60035481565b5f819050919050565b61013881610126565b82525050565b5f6020820190506101515f83018461012f565b92915050565b5f60808201905061016a5f83018761012f565b610177602083018661012f565b610184604083018561012f565b610191606083018461012f565b9594505050505056fea2646970667358221220d5e0c8594f1861c966b1e40d6647d495b003298edaa45e9b460efb182c315f0d64736f6c634300081a0033",
			"opcodes": "PUSH1 0x80 PUSH1 0x40 MSTORE PUSH2 0x3E8 PUSH0 SSTORE PUSH2 0x1F4 PUSH1 0x1 SSTORE PUSH2 0x7D0 PUSH1 0x2 SSTORE PUSH2 0xBB8 PUSH1 0x3 SSTORE CALLVALUE DUP1 ISZERO PUSH1 0x25 JUMPI PUSH0 DUP1 REVERT JUMPDEST POP PUSH2 0x1D0 DUP1 PUSH2 0x33 PUSH0 CODECOPY PUSH0 RETURN INVALID PUSH1 0x80 PUSH1 0x40 MSTORE CALLVALUE DUP1 ISZERO PUSH2 0xF JUMPI PUSH0 DUP1 REVERT JUMPDEST POP PUSH1 0x4 CALLDATASIZE LT PUSH2 0x55 JUMPI PUSH0 CALLDATALOAD PUSH1 0xE0 SHR DUP1 PUSH4 0x76E5DBC1 EQ PUSH2 0x59 JUMPI DUP1 PUSH4 0x7F580220 EQ PUSH2 0x77 JUMPI DUP1 PUSH4 0xB49F4AFD EQ PUSH2 0x95 JUMPI DUP1 PUSH4 0xBFDD4AD4 EQ PUSH2 0xB6 JUMPI DUP1 PUSH4 0xF4854F1E EQ PUSH2 0xD4 JUMPI JUMPDEST PUSH0 DUP1 REVERT JUMPDEST PUSH2 0x61 PUSH2 0xF2 JUMP JUMPDEST PUSH1 0x40 MLOAD PUSH2 0x6E SWAP2 SWAP1 PUSH2 0x13E JUMP JUMPDEST PUSH1 0x40 MLOAD DUP1 SWAP2 SUB SWAP1 RETURN JUMPDEST PUSH2 0x7F PUSH2 0xF8 JUMP JUMPDEST PUSH1 0x40 MLOAD PUSH2 0x8C SWAP2 SWAP1 PUSH2 0x13E JUMP JUMPDEST PUSH1 0x40 MLOAD DUP1 SWAP2 SUB SWAP1 RETURN JUMPDEST PUSH2 0x9D PUSH2 0xFD JUMP JUMPDEST PUSH1 0x40 MLOAD PUSH2 0xAD SWAP5 SWAP4 SWAP3 SWAP2 SWAP1 PUSH2 0x157 JUMP JUMPDEST PUSH1 0x40 MLOAD DUP1 SWAP2 SUB SWAP1 RETURN JUMPDEST PUSH2 0xBE PUSH2 0x11A JUMP JUMPDEST PUSH1 0x40 MLOAD PUSH2 0xCB SWAP2 SWAP1 PUSH2 0x13E JUMP JUMPDEST PUSH1 0x40 MLOAD DUP1 SWAP2 SUB SWAP1 RETURN JUMPDEST PUSH2 0xDC PUSH2 0x120 JUMP JUMPDEST PUSH1 0x40 MLOAD PUSH2 0xE9 SWAP2 SWAP1 PUSH2 0x13E JUMP JUMPDEST PUSH1 0x40 MLOAD DUP1 SWAP2 SUB SWAP1 RETURN JUMPDEST PUSH1 0x1 SLOAD DUP2 JUMP JUMPDEST PUSH0 SLOAD DUP2 JUMP JUMPDEST PUSH0 DUP1 PUSH0 DUP1 PUSH0 SLOAD PUSH1 0x1 SLOAD PUSH1 0x2 SLOAD PUSH1 0x3 SLOAD SWAP4 POP SWAP4 POP SWAP4 POP SWAP4 POP SWAP1 SWAP2 SWAP3 SWAP4 JUMP JUMPDEST PUSH1 0x2 SLOAD DUP2 JUMP JUMPDEST PUSH1 0x3 SLOAD DUP2 JUMP JUMPDEST PUSH0 DUP2 SWAP1 POP SWAP2 SWAP1 POP JUMP JUMPDEST PUSH2 0x138 DUP2 PUSH2 0x126 JUMP JUMPDEST DUP3 MSTORE POP POP JUMP JUMPDEST PUSH0 PUSH1 0x20 DUP3 ADD SWAP1 POP PUSH2 0x151 PUSH0 DUP4 ADD DUP5 PUSH2 0x12F JUMP JUMPDEST SWAP3 SWAP2 POP POP JUMP JUMPDEST PUSH0 PUSH1 0x80 DUP3 ADD SWAP1 POP PUSH2 0x16A PUSH0 DUP4 ADD DUP8 PUSH2 0x12F JUMP JUMPDEST PUSH2 0x177 PUSH1 0x20 DUP4 ADD DUP7 PUSH2 0x12F JUMP JUMPDEST PUSH2 0x184 PUSH1 0x40 DUP4 ADD DUP6 PUSH2 0x12F JUMP JUMPDEST PUSH2 0x191 PUSH1 0x60 DUP4 ADD DUP5 PUSH2 0x12F JUMP JUMPDEST SWAP6 SWAP5 POP POP POP POP POP JUMP INVALID LOG2 PUSH5 0x6970667358 0x22 SLT KECCAK256 0xD5 0xE0 0xC8 MSIZE 0x4F XOR PUSH2 0xC966 0xB1 0xE4 0xD PUSH7 0x47D495B003298E 0xDA LOG4 MCOPY SWAP12 CHAINID 0xE 0xFB XOR 0x2C BALANCE PUSH0 0xD PUSH5 0x736F6C6343 STOP ADDMOD BYTE STOP CALLER "
		},
		"gasEstimates": {
			"creation": {
				"codeDepositCost": "92800",
				"executionCost": "88562",
				"totalCost": "181362"
			},
			"external": {
				"getBasePrice()": "infinite",
				"priceOfBottle()": "2403",
				"priceOfBurger()": "2469",
				"priceOfRice()": "2424",
				"priceOfShawarma()": "2491"
			}
		},
		"methodIdentifiers": {
			"getBasePrice()": "b49f4afd",
			"priceOfBottle()": "76e5dbc1",
			"priceOfBurger()": "bfdd4ad4",
			"priceOfRice()": "7f580220",
			"priceOfShawarma()": "f4854f1e"
		}
	},
	"abi": [
		{
			"inputs": [],
			"name": "getBasePrice",
			"outputs": [
				{
					"internalType": "uint256",
					"name": "",
					"type": "uint256"
				},
				{
					"internalType": "uint256",
					"name": "",
					"type": "uint256"
				},
				{
					"internalType": "uint256",
					"name": "",
					"type": "uint256"
				},
				{
					"internalType": "uint256",
					"name": "",
					"type": "uint256"
				}
			],
			"stateMutability": "view",
			"type": "function"
		},
		{
			"inputs": [],
			"name": "priceOfBottle",
			"outputs": [
				{
					"internalType": "uint256",
					"name": "",
					"type": "uint256"
				}
			],
			"stateMutability": "view",
			"type": "function"
		},
		{
			"inputs": [],
			"name": "priceOfBurger",
			"outputs": [
				{
					"internalType": "uint256",
					"name": "",
					"type": "uint256"
				}
			],
			"stateMutability": "view",
			"type": "function"
		},
		{
			"inputs": [],
			"name": "priceOfRice",
			"outputs": [
				{
					"internalType": "uint256",
					"name": "",
					"type": "uint256"
				}
			],
			"stateMutability": "view",
			"type": "function"
		},
		{
			"inputs": [],
			"name": "priceOfShawarma",
			"outputs": [
				{
					"internalType": "uint256",
					"name": "",
					"type": "uint256"
				}
			],
			"stateMutability": "view",
			"type": "function"
		}
	]
}