{
	"data": {
		"bytecode": {
			"linkReferences": {},
			"object": "60806040526103e85f556101f46001556107d06002556105dc600355600a600455600f600555348015602f575f80fd5b506103bf8061003d5f395ff3fe608060405234801561000f575f80fd5b506004361061009c575f3560e01c8063b97ae67e11610064578063b97ae67e14610136578063bfdd4ad414610154578063f2a4a82e14610172578063f4854f1e14610190578063ffcee7c2146101ae5761009c565b806347611d04146100a057806376e5dbc1146100be5780637bb98a68146100dc578063aa8c217c146100fa578063b69ef8a814610118575b5f80fd5b6100a86101cc565b6040516100b59190610302565b60405180910390f35b6100c66101d1565b6040516100d39190610302565b60405180910390f35b6100e46101d7565b6040516100f19190610302565b60405180910390f35b6101026101f2565b60405161010f9190610302565b60405180910390f35b61012061020d565b60405161012d9190610302565b60405180910390f35b61013e610228565b60405161014b9190610302565b60405180910390f35b61015c610243565b6040516101699190610302565b60405180910390f35b61017a610249565b6040516101879190610302565b60405180910390f35b61019861024f565b6040516101a59190610302565b60405180910390f35b6101b6610255565b6040516101c39190610302565b60405180910390f35b5f5481565b60015481565b5f6005546101e361025b565b6101ed9190610348565b905090565b5f6005546101fe610276565b6102089190610348565b905090565b5f600554610219610291565b6102239190610348565b905090565b5f6005546102346102ac565b61023e9190610348565b905090565b60025481565b60045481565b60035481565b60055481565b5f6004546102676102c7565b6102719190610348565b905090565b5f6004546102826102d0565b61028c9190610348565b905090565b5f60045461029d6102d9565b6102a79190610348565b905090565b5f6004546102b86102e1565b6102c29190610348565b905090565b5f600254905090565b5f600354905090565b5f8054905090565b5f600154905090565b5f819050919050565b6102fc816102ea565b82525050565b5f6020820190506103155f8301846102f3565b92915050565b7f4e487b71000000000000000000000000000000000000000000000000000000005f52601160045260245ffd5b5f610352826102ea565b915061035d836102ea565b925082820261036b816102ea565b915082820484148315176103825761038161031b565b5b509291505056fea2646970667358221220a061a80ef595fa6c7f216384339869d512b893247396df4e9052ba0151cf9dc764736f6c634300081a0033",
			"opcodes": "PUSH1 0x80 PUSH1 0x40 MSTORE PUSH2 0x3E8 PUSH0 SSTORE PUSH2 0x1F4 PUSH1 0x1 SSTORE PUSH2 0x7D0 PUSH1 0x2 SSTORE PUSH2 0x5DC PUSH1 0x3 SSTORE PUSH1 0xA PUSH1 0x4 SSTORE PUSH1 0xF PUSH1 0x5 SSTORE CALLVALUE DUP1 ISZERO PUSH1 0x2F JUMPI PUSH0 DUP1 REVERT JUMPDEST POP PUSH2 0x3BF DUP1 PUSH2 0x3D PUSH0 CODECOPY PUSH0 RETURN INVALID PUSH1 0x80 PUSH1 0x40 MSTORE CALLVALUE DUP1 ISZERO PUSH2 0xF JUMPI PUSH0 DUP1 REVERT JUMPDEST POP PUSH1 0x4 CALLDATASIZE LT PUSH2 0x9C JUMPI PUSH0 CALLDATALOAD PUSH1 0xE0 SHR DUP1 PUSH4 0xB97AE67E GT PUSH2 0x64 JUMPI DUP1 PUSH4 0xB97AE67E EQ PUSH2 0x136 JUMPI DUP1 PUSH4 0xBFDD4AD4 EQ PUSH2 0x154 JUMPI DUP1 PUSH4 0xF2A4A82E EQ PUSH2 0x172 JUMPI DUP1 PUSH4 0xF4854F1E EQ PUSH2 0x190 JUMPI DUP1 PUSH4 0xFFCEE7C2 EQ PUSH2 0x1AE JUMPI PUSH2 0x9C JUMP JUMPDEST DUP1 PUSH4 0x47611D04 EQ PUSH2 0xA0 JUMPI DUP1 PUSH4 0x76E5DBC1 EQ PUSH2 0xBE JUMPI DUP1 PUSH4 0x7BB98A68 EQ PUSH2 0xDC JUMPI DUP1 PUSH4 0xAA8C217C EQ PUSH2 0xFA JUMPI DUP1 PUSH4 0xB69EF8A8 EQ PUSH2 0x118 JUMPI JUMPDEST PUSH0 DUP1 REVERT JUMPDEST PUSH2 0xA8 PUSH2 0x1CC JUMP JUMPDEST PUSH1 0x40 MLOAD PUSH2 0xB5 SWAP2 SWAP1 PUSH2 0x302 JUMP JUMPDEST PUSH1 0x40 MLOAD DUP1 SWAP2 SUB SWAP1 RETURN JUMPDEST PUSH2 0xC6 PUSH2 0x1D1 JUMP JUMPDEST PUSH1 0x40 MLOAD PUSH2 0xD3 SWAP2 SWAP1 PUSH2 0x302 JUMP JUMPDEST PUSH1 0x40 MLOAD DUP1 SWAP2 SUB SWAP1 RETURN JUMPDEST PUSH2 0xE4 PUSH2 0x1D7 JUMP JUMPDEST PUSH1 0x40 MLOAD PUSH2 0xF1 SWAP2 SWAP1 PUSH2 0x302 JUMP JUMPDEST PUSH1 0x40 MLOAD DUP1 SWAP2 SUB SWAP1 RETURN JUMPDEST PUSH2 0x102 PUSH2 0x1F2 JUMP JUMPDEST PUSH1 0x40 MLOAD PUSH2 0x10F SWAP2 SWAP1 PUSH2 0x302 JUMP JUMPDEST PUSH1 0x40 MLOAD DUP1 SWAP2 SUB SWAP1 RETURN JUMPDEST PUSH2 0x120 PUSH2 0x20D JUMP JUMPDEST PUSH1 0x40 MLOAD PUSH2 0x12D SWAP2 SWAP1 PUSH2 0x302 JUMP JUMPDEST PUSH1 0x40 MLOAD DUP1 SWAP2 SUB SWAP1 RETURN JUMPDEST PUSH2 0x13E PUSH2 0x228 JUMP JUMPDEST PUSH1 0x40 MLOAD PUSH2 0x14B SWAP2 SWAP1 PUSH2 0x302 JUMP JUMPDEST PUSH1 0x40 MLOAD DUP1 SWAP2 SUB SWAP1 RETURN JUMPDEST PUSH2 0x15C PUSH2 0x243 JUMP JUMPDEST PUSH1 0x40 MLOAD PUSH2 0x169 SWAP2 SWAP1 PUSH2 0x302 JUMP JUMPDEST PUSH1 0x40 MLOAD DUP1 SWAP2 SUB SWAP1 RETURN JUMPDEST PUSH2 0x17A PUSH2 0x249 JUMP JUMPDEST PUSH1 0x40 MLOAD PUSH2 0x187 SWAP2 SWAP1 PUSH2 0x302 JUMP JUMPDEST PUSH1 0x40 MLOAD DUP1 SWAP2 SUB SWAP1 RETURN JUMPDEST PUSH2 0x198 PUSH2 0x24F JUMP JUMPDEST PUSH1 0x40 MLOAD PUSH2 0x1A5 SWAP2 SWAP1 PUSH2 0x302 JUMP JUMPDEST PUSH1 0x40 MLOAD DUP1 SWAP2 SUB SWAP1 RETURN JUMPDEST PUSH2 0x1B6 PUSH2 0x255 JUMP JUMPDEST PUSH1 0x40 MLOAD PUSH2 0x1C3 SWAP2 SWAP1 PUSH2 0x302 JUMP JUMPDEST PUSH1 0x40 MLOAD DUP1 SWAP2 SUB SWAP1 RETURN JUMPDEST PUSH0 SLOAD DUP2 JUMP JUMPDEST PUSH1 0x1 SLOAD DUP2 JUMP JUMPDEST PUSH0 PUSH1 0x5 SLOAD PUSH2 0x1E3 PUSH2 0x25B JUMP JUMPDEST PUSH2 0x1ED SWAP2 SWAP1 PUSH2 0x348 JUMP JUMPDEST SWAP1 POP SWAP1 JUMP JUMPDEST PUSH0 PUSH1 0x5 SLOAD PUSH2 0x1FE PUSH2 0x276 JUMP JUMPDEST PUSH2 0x208 SWAP2 SWAP1 PUSH2 0x348 JUMP JUMPDEST SWAP1 POP SWAP1 JUMP JUMPDEST PUSH0 PUSH1 0x5 SLOAD PUSH2 0x219 PUSH2 0x291 JUMP JUMPDEST PUSH2 0x223 SWAP2 SWAP1 PUSH2 0x348 JUMP JUMPDEST SWAP1 POP SWAP1 JUMP JUMPDEST PUSH0 PUSH1 0x5 SLOAD PUSH2 0x234 PUSH2 0x2AC JUMP JUMPDEST PUSH2 0x23E SWAP2 SWAP1 PUSH2 0x348 JUMP JUMPDEST SWAP1 POP SWAP1 JUMP JUMPDEST PUSH1 0x2 SLOAD DUP2 JUMP JUMPDEST PUSH1 0x4 SLOAD DUP2 JUMP JUMPDEST PUSH1 0x3 SLOAD DUP2 JUMP JUMPDEST PUSH1 0x5 SLOAD DUP2 JUMP JUMPDEST PUSH0 PUSH1 0x4 SLOAD PUSH2 0x267 PUSH2 0x2C7 JUMP JUMPDEST PUSH2 0x271 SWAP2 SWAP1 PUSH2 0x348 JUMP JUMPDEST SWAP1 POP SWAP1 JUMP JUMPDEST PUSH0 PUSH1 0x4 SLOAD PUSH2 0x282 PUSH2 0x2D0 JUMP JUMPDEST PUSH2 0x28C SWAP2 SWAP1 PUSH2 0x348 JUMP JUMPDEST SWAP1 POP SWAP1 JUMP JUMPDEST PUSH0 PUSH1 0x4 SLOAD PUSH2 0x29D PUSH2 0x2D9 JUMP JUMPDEST PUSH2 0x2A7 SWAP2 SWAP1 PUSH2 0x348 JUMP JUMPDEST SWAP1 POP SWAP1 JUMP JUMPDEST PUSH0 PUSH1 0x4 SLOAD PUSH2 0x2B8 PUSH2 0x2E1 JUMP JUMPDEST PUSH2 0x2C2 SWAP2 SWAP1 PUSH2 0x348 JUMP JUMPDEST SWAP1 POP SWAP1 JUMP JUMPDEST PUSH0 PUSH1 0x2 SLOAD SWAP1 POP SWAP1 JUMP JUMPDEST PUSH0 PUSH1 0x3 SLOAD SWAP1 POP SWAP1 JUMP JUMPDEST PUSH0 DUP1 SLOAD SWAP1 POP SWAP1 JUMP JUMPDEST PUSH0 PUSH1 0x1 SLOAD SWAP1 POP SWAP1 JUMP JUMPDEST PUSH0 DUP2 SWAP1 POP SWAP2 SWAP1 POP JUMP JUMPDEST PUSH2 0x2FC DUP2 PUSH2 0x2EA JUMP JUMPDEST DUP3 MSTORE POP POP JUMP JUMPDEST PUSH0 PUSH1 0x20 DUP3 ADD SWAP1 POP PUSH2 0x315 PUSH0 DUP4 ADD DUP5 PUSH2 0x2F3 JUMP JUMPDEST SWAP3 SWAP2 POP POP JUMP JUMPDEST PUSH32 0x4E487B7100000000000000000000000000000000000000000000000000000000 PUSH0 MSTORE PUSH1 0x11 PUSH1 0x4 MSTORE PUSH1 0x24 PUSH0 REVERT JUMPDEST PUSH0 PUSH2 0x352 DUP3 PUSH2 0x2EA JUMP JUMPDEST SWAP2 POP PUSH2 0x35D DUP4 PUSH2 0x2EA JUMP JUMPDEST SWAP3 POP DUP3 DUP3 MUL PUSH2 0x36B DUP2 PUSH2 0x2EA JUMP JUMPDEST SWAP2 POP DUP3 DUP3 DIV DUP5 EQ DUP4 ISZERO OR PUSH2 0x382 JUMPI PUSH2 0x381 PUSH2 0x31B JUMP JUMPDEST JUMPDEST POP SWAP3 SWAP2 POP POP JUMP INVALID LOG2 PUSH5 0x6970667358 0x22 SLT KECCAK256 LOG0 PUSH2 0xA80E CREATE2 SWAP6 STATICCALL PUSH13 0x7F216384339869D512B8932473 SWAP7 0xDF 0x4E SWAP1 MSTORE 0xBA ADD MLOAD 0xCF SWAP14 0xC7 PUSH5 0x736F6C6343 STOP ADDMOD BYTE STOP CALLER "
		},
		"gasEstimates": {
			"creation": {
				"codeDepositCost": "191800",
				"executionCost": "132865",
				"totalCost": "324665"
			},
			"external": {
				"EachItem()": "2513",
				"amount()": "infinite",
				"balance()": "infinite",
				"balanced()": "infinite",
				"balances()": "infinite",
				"item()": "2469",
				"plateOfRice()": "2425",
				"priceOfBottle()": "2448",
				"priceOfBurger()": "2447",
				"priceOfShawarma()": "2491"
			}
		},
		"methodIdentifiers": {
			"EachItem()": "ffcee7c2",
			"amount()": "aa8c217c",
			"balance()": "b69ef8a8",
			"balanced()": "b97ae67e",
			"balances()": "7bb98a68",
			"item()": "f2a4a82e",
			"plateOfRice()": "47611d04",
			"priceOfBottle()": "76e5dbc1",
			"priceOfBurger()": "bfdd4ad4",
			"priceOfShawarma()": "f4854f1e"
		}
	},
	"abi": [
		{
			"inputs": [],
			"name": "EachItem",
			"outputs": [
				{
					"internalType": "uint256",
					"name": "",
					"type": "uint256"
				}
			],
			"stateMutability": "view",
			"type": "function"
		},
		{
			"inputs": [],
			"name": "amount",
			"outputs": [
				{
					"internalType": "uint256",
					"name": "",
					"type": "uint256"
				}
			],
			"stateMutability": "view",
			"type": "function"
		},
		{
			"inputs": [],
			"name": "balance",
			"outputs": [
				{
					"internalType": "uint256",
					"name": "",
					"type": "uint256"
				}
			],
			"stateMutability": "view",
			"type": "function"
		},
		{
			"inputs": [],
			"name": "balanced",
			"outputs": [
				{
					"internalType": "uint256",
					"name": "",
					"type": "uint256"
				}
			],
			"stateMutability": "view",
			"type": "function"
		},
		{
			"inputs": [],
			"name": "balances",
			"outputs": [
				{
					"internalType": "uint256",
					"name": "",
					"type": "uint256"
				}
			],
			"stateMutability": "view",
			"type": "function"
		},
		{
			"inputs": [],
			"name": "item",
			"outputs": [
				{
					"internalType": "uint256",
					"name": "",
					"type": "uint256"
				}
			],
			"stateMutability": "view",
			"type": "function"
		},
		{
			"inputs": [],
			"name": "plateOfRice",
			"outputs": [
				{
					"internalType": "uint256",
					"name": "",
					"type": "uint256"
				}
			],
			"stateMutability": "view",
			"type": "function"
		},
		{
			"inputs": [],
			"name": "priceOfBottle",
			"outputs": [
				{
					"internalType": "uint256",
					"name": "",
					"type": "uint256"
				}
			],
			"stateMutability": "view",
			"type": "function"
		},
		{
			"inputs": [],
			"name": "priceOfBurger",
			"outputs": [
				{
					"internalType": "uint256",
					"name": "",
					"type": "uint256"
				}
			],
			"stateMutability": "view",
			"type": "function"
		},
		{
			"inputs": [],
			"name": "priceOfShawarma",
			"outputs": [
				{
					"internalType": "uint256",
					"name": "",
					"type": "uint256"
				}
			],
			"stateMutability": "view",
			"type": "function"
		}
	]
}