{
	"data": {
		"bytecode": {
			"linkReferences": {},
			"object": "60806040526103e85f556101f46001556107d0600255610bb86003553480156025575f80fd5b506102b9806100335f395ff3fe608060405234801561000f575f80fd5b5060043610610086575f3560e01c8063cd4d195011610059578063cd4d195014610102578063ce98a33f14610120578063f4854f1e1461013e578063ffaf3e0f1461015c57610086565b806342fb174f1461008a57806376e5dbc1146100a85780637f580220146100c6578063bfdd4ad4146100e4575b5f80fd5b61009261017a565b60405161009f91906101fc565b60405180910390f35b6100b061018e565b6040516100bd91906101fc565b60405180910390f35b6100ce610194565b6040516100db91906101fc565b60405180910390f35b6100ec610199565b6040516100f991906101fc565b60405180910390f35b61010a61019f565b60405161011791906101fc565b60405180910390f35b6101286101b4565b60405161013591906101fc565b60405180910390f35b6101466101c9565b60405161015391906101fc565b60405180910390f35b6101646101cf565b60405161017191906101fc565b60405180910390f35b5f600f5f546101899190610242565b905090565b60015481565b5f5481565b60025481565b5f600f6003546101af9190610242565b905090565b5f600f6001546101c49190610242565b905090565b60035481565b5f600f6002546101df9190610242565b905090565b5f819050919050565b6101f6816101e4565b82525050565b5f60208201905061020f5f8301846101ed565b92915050565b7f4e487b71000000000000000000000000000000000000000000000000000000005f52601160045260245ffd5b5f61024c826101e4565b9150610257836101e4565b9250828202610265816101e4565b9150828204841483151761027c5761027b610215565b5b509291505056fea26469706673582212207b2a2f6028a55136cd80203227fa88bf6f696b81541e840beb2077f05f30f66264736f6c634300081a0033",
			"opcodes": "PUSH1 0x80 PUSH1 0x40 MSTORE PUSH2 0x3E8 PUSH0 SSTORE PUSH2 0x1F4 PUSH1 0x1 SSTORE PUSH2 0x7D0 PUSH1 0x2 SSTORE PUSH2 0xBB8 PUSH1 0x3 SSTORE CALLVALUE DUP1 ISZERO PUSH1 0x25 JUMPI PUSH0 DUP1 REVERT JUMPDEST POP PUSH2 0x2B9 DUP1 PUSH2 0x33 PUSH0 CODECOPY PUSH0 RETURN INVALID PUSH1 0x80 PUSH1 0x40 MSTORE CALLVALUE DUP1 ISZERO PUSH2 0xF JUMPI PUSH0 DUP1 REVERT JUMPDEST POP PUSH1 0x4 CALLDATASIZE LT PUSH2 0x86 JUMPI PUSH0 CALLDATALOAD PUSH1 0xE0 SHR DUP1 PUSH4 0xCD4D1950 GT PUSH2 0x59 JUMPI DUP1 PUSH4 0xCD4D1950 EQ PUSH2 0x102 JUMPI DUP1 PUSH4 0xCE98A33F EQ PUSH2 0x120 JUMPI DUP1 PUSH4 0xF4854F1E EQ PUSH2 0x13E JUMPI DUP1 PUSH4 0xFFAF3E0F EQ PUSH2 0x15C JUMPI PUSH2 0x86 JUMP JUMPDEST DUP1 PUSH4 0x42FB174F EQ PUSH2 0x8A JUMPI DUP1 PUSH4 0x76E5DBC1 EQ PUSH2 0xA8 JUMPI DUP1 PUSH4 0x7F580220 EQ PUSH2 0xC6 JUMPI DUP1 PUSH4 0xBFDD4AD4 EQ PUSH2 0xE4 JUMPI JUMPDEST PUSH0 DUP1 REVERT JUMPDEST PUSH2 0x92 PUSH2 0x17A JUMP JUMPDEST PUSH1 0x40 MLOAD PUSH2 0x9F SWAP2 SWAP1 PUSH2 0x1FC JUMP JUMPDEST PUSH1 0x40 MLOAD DUP1 SWAP2 SUB SWAP1 RETURN JUMPDEST PUSH2 0xB0 PUSH2 0x18E JUMP JUMPDEST PUSH1 0x40 MLOAD PUSH2 0xBD SWAP2 SWAP1 PUSH2 0x1FC JUMP JUMPDEST PUSH1 0x40 MLOAD DUP1 SWAP2 SUB SWAP1 RETURN JUMPDEST PUSH2 0xCE PUSH2 0x194 JUMP JUMPDEST PUSH1 0x40 MLOAD PUSH2 0xDB SWAP2 SWAP1 PUSH2 0x1FC JUMP JUMPDEST PUSH1 0x40 MLOAD DUP1 SWAP2 SUB SWAP1 RETURN JUMPDEST PUSH2 0xEC PUSH2 0x199 JUMP JUMPDEST PUSH1 0x40 MLOAD PUSH2 0xF9 SWAP2 SWAP1 PUSH2 0x1FC JUMP JUMPDEST PUSH1 0x40 MLOAD DUP1 SWAP2 SUB SWAP1 RETURN JUMPDEST PUSH2 0x10A PUSH2 0x19F JUMP JUMPDEST PUSH1 0x40 MLOAD PUSH2 0x117 SWAP2 SWAP1 PUSH2 0x1FC JUMP JUMPDEST PUSH1 0x40 MLOAD DUP1 SWAP2 SUB SWAP1 RETURN JUMPDEST PUSH2 0x128 PUSH2 0x1B4 JUMP JUMPDEST PUSH1 0x40 MLOAD PUSH2 0x135 SWAP2 SWAP1 PUSH2 0x1FC JUMP JUMPDEST PUSH1 0x40 MLOAD DUP1 SWAP2 SUB SWAP1 RETURN JUMPDEST PUSH2 0x146 PUSH2 0x1C9 JUMP JUMPDEST PUSH1 0x40 MLOAD PUSH2 0x153 SWAP2 SWAP1 PUSH2 0x1FC JUMP JUMPDEST PUSH1 0x40 MLOAD DUP1 SWAP2 SUB SWAP1 RETURN JUMPDEST PUSH2 0x164 PUSH2 0x1CF JUMP JUMPDEST PUSH1 0x40 MLOAD PUSH2 0x171 SWAP2 SWAP1 PUSH2 0x1FC JUMP JUMPDEST PUSH1 0x40 MLOAD DUP1 SWAP2 SUB SWAP1 RETURN JUMPDEST PUSH0 PUSH1 0xF PUSH0 SLOAD PUSH2 0x189 SWAP2 SWAP1 PUSH2 0x242 JUMP JUMPDEST SWAP1 POP SWAP1 JUMP JUMPDEST PUSH1 0x1 SLOAD DUP2 JUMP JUMPDEST PUSH0 SLOAD DUP2 JUMP JUMPDEST PUSH1 0x2 SLOAD DUP2 JUMP JUMPDEST PUSH0 PUSH1 0xF PUSH1 0x3 SLOAD PUSH2 0x1AF SWAP2 SWAP1 PUSH2 0x242 JUMP JUMPDEST SWAP1 POP SWAP1 JUMP JUMPDEST PUSH0 PUSH1 0xF PUSH1 0x1 SLOAD PUSH2 0x1C4 SWAP2 SWAP1 PUSH2 0x242 JUMP JUMPDEST SWAP1 POP SWAP1 JUMP JUMPDEST PUSH1 0x3 SLOAD DUP2 JUMP JUMPDEST PUSH0 PUSH1 0xF PUSH1 0x2 SLOAD PUSH2 0x1DF SWAP2 SWAP1 PUSH2 0x242 JUMP JUMPDEST SWAP1 POP SWAP1 JUMP JUMPDEST PUSH0 DUP2 SWAP1 POP SWAP2 SWAP1 POP JUMP JUMPDEST PUSH2 0x1F6 DUP2 PUSH2 0x1E4 JUMP JUMPDEST DUP3 MSTORE POP POP JUMP JUMPDEST PUSH0 PUSH1 0x20 DUP3 ADD SWAP1 POP PUSH2 0x20F PUSH0 DUP4 ADD DUP5 PUSH2 0x1ED JUMP JUMPDEST SWAP3 SWAP2 POP POP JUMP JUMPDEST PUSH32 0x4E487B7100000000000000000000000000000000000000000000000000000000 PUSH0 MSTORE PUSH1 0x11 PUSH1 0x4 MSTORE PUSH1 0x24 PUSH0 REVERT JUMPDEST PUSH0 PUSH2 0x24C DUP3 PUSH2 0x1E4 JUMP JUMPDEST SWAP2 POP PUSH2 0x257 DUP4 PUSH2 0x1E4 JUMP JUMPDEST SWAP3 POP DUP3 DUP3 MUL PUSH2 0x265 DUP2 PUSH2 0x1E4 JUMP JUMPDEST SWAP2 POP DUP3 DUP3 DIV DUP5 EQ DUP4 ISZERO OR PUSH2 0x27C JUMPI PUSH2 0x27B PUSH2 0x215 JUMP JUMPDEST JUMPDEST POP SWAP3 SWAP2 POP POP JUMP INVALID LOG2 PUSH5 0x6970667358 0x22 SLT KECCAK256 PUSH28 0x2A2F6028A55136CD80203227FA88BF6F696B81541E840BEB2077F05F ADDRESS 0xF6 PUSH3 0x64736F PUSH13 0x634300081A0033000000000000 "
		},
		"gasEstimates": {
			"creation": {
				"codeDepositCost": "139400",
				"executionCost": "88604",
				"totalCost": "228004"
			},
			"external": {
				"getPriceOfBottle()": "infinite",
				"getPriceOfBurger()": "infinite",
				"getPriceOfRice()": "infinite",
				"getPriceOfShawarma()": "infinite",
				"priceOfBottle()": "2448",
				"priceOfBurger()": "2492",
				"priceOfRice()": "2469",
				"priceOfShawarma()": "2469"
			}
		},
		"methodIdentifiers": {
			"getPriceOfBottle()": "ce98a33f",
			"getPriceOfBurger()": "ffaf3e0f",
			"getPriceOfRice()": "42fb174f",
			"getPriceOfShawarma()": "cd4d1950",
			"priceOfBottle()": "76e5dbc1",
			"priceOfBurger()": "bfdd4ad4",
			"priceOfRice()": "7f580220",
			"priceOfShawarma()": "f4854f1e"
		}
	},
	"abi": [
		{
			"inputs": [],
			"name": "getPriceOfBottle",
			"outputs": [
				{
					"internalType": "uint256",
					"name": "",
					"type": "uint256"
				}
			],
			"stateMutability": "view",
			"type": "function"
		},
		{
			"inputs": [],
			"name": "getPriceOfBurger",
			"outputs": [
				{
					"internalType": "uint256",
					"name": "",
					"type": "uint256"
				}
			],
			"stateMutability": "view",
			"type": "function"
		},
		{
			"inputs": [],
			"name": "getPriceOfRice",
			"outputs": [
				{
					"internalType": "uint256",
					"name": "",
					"type": "uint256"
				}
			],
			"stateMutability": "view",
			"type": "function"
		},
		{
			"inputs": [],
			"name": "getPriceOfShawarma",
			"outputs": [
				{
					"internalType": "uint256",
					"name": "",
					"type": "uint256"
				}
			],
			"stateMutability": "view",
			"type": "function"
		},
		{
			"inputs": [],
			"name": "priceOfBottle",
			"outputs": [
				{
					"internalType": "uint256",
					"name": "",
					"type": "uint256"
				}
			],
			"stateMutability": "view",
			"type": "function"
		},
		{
			"inputs": [],
			"name": "priceOfBurger",
			"outputs": [
				{
					"internalType": "uint256",
					"name": "",
					"type": "uint256"
				}
			],
			"stateMutability": "view",
			"type": "function"
		},
		{
			"inputs": [],
			"name": "priceOfRice",
			"outputs": [
				{
					"internalType": "uint256",
					"name": "",
					"type": "uint256"
				}
			],
			"stateMutability": "view",
			"type": "function"
		},
		{
			"inputs": [],
			"name": "priceOfShawarma",
			"outputs": [
				{
					"internalType": "uint256",
					"name": "",
					"type": "uint256"
				}
			],
			"stateMutability": "view",
			"type": "function"
		}
	]
}