{
	"data": {
		"bytecode": {
			"linkReferences": {},
			"object": "6080604052348015600e575f5ffd5b5061038e8061001c5f395ff3fe608060405234801561000f575f5ffd5b506004361061003f575f3560e01c806339f172b81461004357806367e0badb14610073578063799a3f8814610092575b5f5ffd5b61005d600480360381019061005891906101ae565b6100b0565b60405161006a91906101f3565b60405180910390f35b61007b6100d9565b60405161008992919061021b565b60405180910390f35b61009a610129565b6040516100a79190610242565b60405180910390f35b5f815f5f6101000a81548163ffffffff021916908363ffffffff16021790555060019050919050565b5f5f5f5f9054906101000a900463ffffffff1691505f600290505f5f61010f5f5f9054906101000a900463ffffffff168461013d565b925050915080826101209190610288565b93505050509091565b5f5f9054906101000a900463ffffffff1681565b5f5f5f838561014c91906102bf565b9250838561015a9190610288565b915083856101689190610328565b90509250925092565b5f5ffd5b5f63ffffffff82169050919050565b61018d81610175565b8114610197575f5ffd5b50565b5f813590506101a881610184565b92915050565b5f602082840312156101c3576101c2610171565b5b5f6101d08482850161019a565b91505092915050565b5f8115159050919050565b6101ed816101d9565b82525050565b5f6020820190506102065f8301846101e4565b92915050565b61021581610175565b82525050565b5f60408201905061022e5f83018561020c565b61023b602083018461020c565b9392505050565b5f6020820190506102555f83018461020c565b92915050565b7f4e487b71000000000000000000000000000000000000000000000000000000005f52601160045260245ffd5b5f61029282610175565b915061029d83610175565b9250828201905063ffffffff8111156102b9576102b861025b565b5b92915050565b5f6102c982610175565b91506102d483610175565b92508282026102e281610175565b91508082146102f4576102f361025b565b5b5092915050565b7f4e487b71000000000000000000000000000000000000000000000000000000005f52601260045260245ffd5b5f61033282610175565b915061033d83610175565b92508261034d5761034c6102fb565b5b82820490509291505056fea264697066735822122051a11e665a82e634d81da15c8a3fe8a9f53226995061719d83bf7d4fb5900fd264736f6c634300081b0033",
			"opcodes": "PUSH1 0x80 PUSH1 0x40 MSTORE CALLVALUE DUP1 ISZERO PUSH1 0xE JUMPI PUSH0 PUSH0 REVERT JUMPDEST POP PUSH2 0x38E DUP1 PUSH2 0x1C PUSH0 CODECOPY PUSH0 RETURN INVALID PUSH1 0x80 PUSH1 0x40 MSTORE CALLVALUE DUP1 ISZERO PUSH2 0xF JUMPI PUSH0 PUSH0 REVERT JUMPDEST POP PUSH1 0x4 CALLDATASIZE LT PUSH2 0x3F JUMPI PUSH0 CALLDATALOAD PUSH1 0xE0 SHR DUP1 PUSH4 0x39F172B8 EQ PUSH2 0x43 JUMPI DUP1 PUSH4 0x67E0BADB EQ PUSH2 0x73 JUMPI DUP1 PUSH4 0x799A3F88 EQ PUSH2 0x92 JUMPI JUMPDEST PUSH0 PUSH0 REVERT JUMPDEST PUSH2 0x5D PUSH1 0x4 DUP1 CALLDATASIZE SUB DUP2 ADD SWAP1 PUSH2 0x58 SWAP2 SWAP1 PUSH2 0x1AE JUMP JUMPDEST PUSH2 0xB0 JUMP JUMPDEST PUSH1 0x40 MLOAD PUSH2 0x6A SWAP2 SWAP1 PUSH2 0x1F3 JUMP JUMPDEST PUSH1 0x40 MLOAD DUP1 SWAP2 SUB SWAP1 RETURN JUMPDEST PUSH2 0x7B PUSH2 0xD9 JUMP JUMPDEST PUSH1 0x40 MLOAD PUSH2 0x89 SWAP3 SWAP2 SWAP1 PUSH2 0x21B JUMP JUMPDEST PUSH1 0x40 MLOAD DUP1 SWAP2 SUB SWAP1 RETURN JUMPDEST PUSH2 0x9A PUSH2 0x129 JUMP JUMPDEST PUSH1 0x40 MLOAD PUSH2 0xA7 SWAP2 SWAP1 PUSH2 0x242 JUMP JUMPDEST PUSH1 0x40 MLOAD DUP1 SWAP2 SUB SWAP1 RETURN JUMPDEST PUSH0 DUP2 PUSH0 PUSH0 PUSH2 0x100 EXP DUP2 SLOAD DUP2 PUSH4 0xFFFFFFFF MUL NOT AND SWAP1 DUP4 PUSH4 0xFFFFFFFF AND MUL OR SWAP1 SSTORE POP PUSH1 0x1 SWAP1 POP SWAP2 SWAP1 POP JUMP JUMPDEST PUSH0 PUSH0 PUSH0 PUSH0 SWAP1 SLOAD SWAP1 PUSH2 0x100 EXP SWAP1 DIV PUSH4 0xFFFFFFFF AND SWAP2 POP PUSH0 PUSH1 0x2 SWAP1 POP PUSH0 PUSH0 PUSH2 0x10F PUSH0 PUSH0 SWAP1 SLOAD SWAP1 PUSH2 0x100 EXP SWAP1 DIV PUSH4 0xFFFFFFFF AND DUP5 PUSH2 0x13D JUMP JUMPDEST SWAP3 POP POP SWAP2 POP DUP1 DUP3 PUSH2 0x120 SWAP2 SWAP1 PUSH2 0x288 JUMP JUMPDEST SWAP4 POP POP POP POP SWAP1 SWAP2 JUMP JUMPDEST PUSH0 PUSH0 SWAP1 SLOAD SWAP1 PUSH2 0x100 EXP SWAP1 DIV PUSH4 0xFFFFFFFF AND DUP2 JUMP JUMPDEST PUSH0 PUSH0 PUSH0 DUP4 DUP6 PUSH2 0x14C SWAP2 SWAP1 PUSH2 0x2BF JUMP JUMPDEST SWAP3 POP DUP4 DUP6 PUSH2 0x15A SWAP2 SWAP1 PUSH2 0x288 JUMP JUMPDEST SWAP2 POP DUP4 DUP6 PUSH2 0x168 SWAP2 SWAP1 PUSH2 0x328 JUMP JUMPDEST SWAP1 POP SWAP3 POP SWAP3 POP SWAP3 JUMP JUMPDEST PUSH0 PUSH0 REVERT JUMPDEST PUSH0 PUSH4 0xFFFFFFFF DUP3 AND SWAP1 POP SWAP2 SWAP1 POP JUMP JUMPDEST PUSH2 0x18D DUP2 PUSH2 0x175 JUMP JUMPDEST DUP2 EQ PUSH2 0x197 JUMPI PUSH0 PUSH0 REVERT JUMPDEST POP JUMP JUMPDEST PUSH0 DUP2 CALLDATALOAD SWAP1 POP PUSH2 0x1A8 DUP2 PUSH2 0x184 JUMP JUMPDEST SWAP3 SWAP2 POP POP JUMP JUMPDEST PUSH0 PUSH1 0x20 DUP3 DUP5 SUB SLT ISZERO PUSH2 0x1C3 JUMPI PUSH2 0x1C2 PUSH2 0x171 JUMP JUMPDEST JUMPDEST PUSH0 PUSH2 0x1D0 DUP5 DUP3 DUP6 ADD PUSH2 0x19A JUMP JUMPDEST SWAP2 POP POP SWAP3 SWAP2 POP POP JUMP JUMPDEST PUSH0 DUP2 ISZERO ISZERO SWAP1 POP SWAP2 SWAP1 POP JUMP JUMPDEST PUSH2 0x1ED DUP2 PUSH2 0x1D9 JUMP JUMPDEST DUP3 MSTORE POP POP JUMP JUMPDEST PUSH0 PUSH1 0x20 DUP3 ADD SWAP1 POP PUSH2 0x206 PUSH0 DUP4 ADD DUP5 PUSH2 0x1E4 JUMP JUMPDEST SWAP3 SWAP2 POP POP JUMP JUMPDEST PUSH2 0x215 DUP2 PUSH2 0x175 JUMP JUMPDEST DUP3 MSTORE POP POP JUMP JUMPDEST PUSH0 PUSH1 0x40 DUP3 ADD SWAP1 POP PUSH2 0x22E PUSH0 DUP4 ADD DUP6 PUSH2 0x20C JUMP JUMPDEST PUSH2 0x23B PUSH1 0x20 DUP4 ADD DUP5 PUSH2 0x20C JUMP JUMPDEST SWAP4 SWAP3 POP POP POP JUMP JUMPDEST PUSH0 PUSH1 0x20 DUP3 ADD SWAP1 POP PUSH2 0x255 PUSH0 DUP4 ADD DUP5 PUSH2 0x20C JUMP JUMPDEST SWAP3 SWAP2 POP POP JUMP JUMPDEST PUSH32 0x4E487B7100000000000000000000000000000000000000000000000000000000 PUSH0 MSTORE PUSH1 0x11 PUSH1 0x4 MSTORE PUSH1 0x24 PUSH0 REVERT JUMPDEST PUSH0 PUSH2 0x292 DUP3 PUSH2 0x175 JUMP JUMPDEST SWAP2 POP PUSH2 0x29D DUP4 PUSH2 0x175 JUMP JUMPDEST SWAP3 POP DUP3 DUP3 ADD SWAP1 POP PUSH4 0xFFFFFFFF DUP2 GT ISZERO PUSH2 0x2B9 JUMPI PUSH2 0x2B8 PUSH2 0x25B JUMP JUMPDEST JUMPDEST SWAP3 SWAP2 POP POP JUMP JUMPDEST PUSH0 PUSH2 0x2C9 DUP3 PUSH2 0x175 JUMP JUMPDEST SWAP2 POP PUSH2 0x2D4 DUP4 PUSH2 0x175 JUMP JUMPDEST SWAP3 POP DUP3 DUP3 MUL PUSH2 0x2E2 DUP2 PUSH2 0x175 JUMP JUMPDEST SWAP2 POP DUP1 DUP3 EQ PUSH2 0x2F4 JUMPI PUSH2 0x2F3 PUSH2 0x25B JUMP JUMPDEST JUMPDEST POP SWAP3 SWAP2 POP POP JUMP JUMPDEST PUSH32 0x4E487B7100000000000000000000000000000000000000000000000000000000 PUSH0 MSTORE PUSH1 0x12 PUSH1 0x4 MSTORE PUSH1 0x24 PUSH0 REVERT JUMPDEST PUSH0 PUSH2 0x332 DUP3 PUSH2 0x175 JUMP JUMPDEST SWAP2 POP PUSH2 0x33D DUP4 PUSH2 0x175 JUMP JUMPDEST SWAP3 POP DUP3 PUSH2 0x34D JUMPI PUSH2 0x34C PUSH2 0x2FB JUMP JUMPDEST JUMPDEST DUP3 DUP3 DIV SWAP1 POP SWAP3 SWAP2 POP POP JUMP INVALID LOG2 PUSH5 0x6970667358 0x22 SLT KECCAK256 MLOAD LOG1 0x1E PUSH7 0x5A82E634D81DA1 TLOAD DUP11 EXTCODEHASH 0xE8 0xA9 CREATE2 ORIGIN 0x26 SWAP10 POP PUSH2 0x719D DUP4 0xBF PUSH30 0x4FB5900FD264736F6C634300081B00330000000000000000000000000000 "
		},
		"gasEstimates": {
			"creation": {
				"codeDepositCost": "182000",
				"executionCost": "224",
				"totalCost": "182224"
			},
			"external": {
				"getNum()": "infinite",
				"setNum(uint32)": "24848",
				"vaultNumber()": "2487"
			},
			"internal": {
				"calculateReward(uint32,uint32)": "infinite"
			}
		},
		"methodIdentifiers": {
			"getNum()": "67e0badb",
			"setNum(uint32)": "39f172b8",
			"vaultNumber()": "799a3f88"
		}
	},
	"abi": [
		{
			"inputs": [],
			"name": "getNum",
			"outputs": [
				{
					"internalType": "uint32",
					"name": "num_",
					"type": "uint32"
				},
				{
					"internalType": "uint32",
					"name": "vatN_",
					"type": "uint32"
				}
			],
			"stateMutability": "view",
			"type": "function"
		},
		{
			"inputs": [
				{
					"internalType": "uint32",
					"name": "_num",
					"type": "uint32"
				}
			],
			"name": "setNum",
			"outputs": [
				{
					"internalType": "bool",
					"name": "",
					"type": "bool"
				}
			],
			"stateMutability": "nonpayable",
			"type": "function"
		},
		{
			"inputs": [],
			"name": "vaultNumber",
			"outputs": [
				{
					"internalType": "uint32",
					"name": "",
					"type": "uint32"
				}
			],
			"stateMutability": "view",
			"type": "function"
		}
	]
}