{
	"data": {
		"bytecode": {
			"linkReferences": {},
			"object": "6080604052348015600e575f5ffd5b50335f5f6101000a81548173ffffffffffffffffffffffffffffffffffffffff021916908373ffffffffffffffffffffffffffffffffffffffff160217905550610f738061005b5f395ff3fe608060405234801561000f575f5ffd5b506004361061004a575f3560e01c80633380b99f1461004e5780638da5cb5b1461007e578063bc8bc2b41461009c578063e9505164146100ce575b5f5ffd5b610068600480360381019061006391906107ab565b6100ea565b604051610075919061083b565b60405180910390f35b6100866102fa565b6040516100939190610893565b60405180910390f35b6100b660048036038101906100b191906108df565b61031e565b6040516100c5939291906109dd565b60405180910390f35b6100e860048036038101906100e39190610a56565b61046b565b005b5f5f5f9054906101000a900473ffffffffffffffffffffffffffffffffffffffff1673ffffffffffffffffffffffffffffffffffffffff163373ffffffffffffffffffffffffffffffffffffffff1614610179576040517f08c379a000000000000000000000000000000000000000000000000000000000815260040161017090610b28565b60405180910390fd5b5f73ffffffffffffffffffffffffffffffffffffffff163373ffffffffffffffffffffffffffffffffffffffff16036101e7576040517f08c379a00000000000000000000000000000000000000000000000000000000081526004016101de90610b90565b60405180910390fd5b6101ef61062c565b83815f01819052508281602001819052506001816040019060038111156102195761021861096a565b5b9081600381111561022d5761022c61096a565b5b81525050600181908060018154018082558091505060019003905f5260205f2090600302015f909190919091505f820151815f01908161026d9190610dab565b5060208201518160010190816102839190610dab565b506040820151816002015f6101000a81548160ff021916908360038111156102ae576102ad61096a565b5b021790555050507fb24501745f85fff88cc582df1223bf671a1234ab872711ffaa7eb8bd56fe311e8460016040516102e7929190610e7a565b60405180910390a1600191505092915050565b5f5f9054906101000a900473ffffffffffffffffffffffffffffffffffffffff1681565b6001818154811061032d575f80fd5b905f5260205f2090600302015f91509050805f01805461034c90610bdb565b80601f016020809104026020016040519081016040528092919081815260200182805461037890610bdb565b80156103c35780601f1061039a576101008083540402835291602001916103c3565b820191905f5260205f20905b8154815290600101906020018083116103a657829003601f168201915b5050505050908060010180546103d890610bdb565b80601f016020809104026020016040519081016040528092919081815260200182805461040490610bdb565b801561044f5780601f106104265761010080835404028352916020019161044f565b820191905f5260205f20905b81548152906001019060200180831161043257829003601f168201915b505050505090806002015f9054906101000a900460ff16905083565b5f5f9054906101000a900473ffffffffffffffffffffffffffffffffffffffff1673ffffffffffffffffffffffffffffffffffffffff163373ffffffffffffffffffffffffffffffffffffffff16146104f9576040517f08c379a00000000000000000000000000000000000000000000000000000000081526004016104f090610b28565b60405180910390fd5b5f73ffffffffffffffffffffffffffffffffffffffff163373ffffffffffffffffffffffffffffffffffffffff1603610567576040517f08c379a000000000000000000000000000000000000000000000000000000000815260040161055e90610b90565b60405180910390fd5b6001805490508360ff16106105b1576040517f08c379a00000000000000000000000000000000000000000000000000000000081526004016105a890610ef2565b60405180910390fd5b5f60018460ff16815481106105c9576105c8610f10565b5b905f5260205f209060030201905082815f0190816105e79190610dab565b50818160010190816105f99190610dab565b506002816002015f6101000a81548160ff021916908360038111156106215761062061096a565b5b021790555050505050565b604051806060016040528060608152602001606081526020015f60038111156106585761065761096a565b5b81525090565b5f604051905090565b5f5ffd5b5f5ffd5b5f5ffd5b5f5ffd5b5f601f19601f8301169050919050565b7f4e487b71000000000000000000000000000000000000000000000000000000005f52604160045260245ffd5b6106bd82610677565b810181811067ffffffffffffffff821117156106dc576106db610687565b5b80604052505050565b5f6106ee61065e565b90506106fa82826106b4565b919050565b5f67ffffffffffffffff82111561071957610718610687565b5b61072282610677565b9050602081019050919050565b828183375f83830152505050565b5f61074f61074a846106ff565b6106e5565b90508281526020810184848401111561076b5761076a610673565b5b61077684828561072f565b509392505050565b5f82601f8301126107925761079161066f565b5b81356107a284826020860161073d565b91505092915050565b5f5f604083850312156107c1576107c0610667565b5b5f83013567ffffffffffffffff8111156107de576107dd61066b565b5b6107ea8582860161077e565b925050602083013567ffffffffffffffff81111561080b5761080a61066b565b5b6108178582860161077e565b9150509250929050565b5f8115159050919050565b61083581610821565b82525050565b5f60208201905061084e5f83018461082c565b92915050565b5f73ffffffffffffffffffffffffffffffffffffffff82169050919050565b5f61087d82610854565b9050919050565b61088d81610873565b82525050565b5f6020820190506108a65f830184610884565b92915050565b5f819050919050565b6108be816108ac565b81146108c8575f5ffd5b50565b5f813590506108d9816108b5565b92915050565b5f602082840312156108f4576108f3610667565b5b5f610901848285016108cb565b91505092915050565b5f81519050919050565b5f82825260208201905092915050565b8281835e5f83830152505050565b5f61093c8261090a565b6109468185610914565b9350610956818560208601610924565b61095f81610677565b840191505092915050565b7f4e487b71000000000000000000000000000000000000000000000000000000005f52602160045260245ffd5b600481106109a8576109a761096a565b5b50565b5f8190506109b882610997565b919050565b5f6109c7826109ab565b9050919050565b6109d7816109bd565b82525050565b5f6060820190508181035f8301526109f58186610932565b90508181036020830152610a098185610932565b9050610a1860408301846109ce565b949350505050565b5f60ff82169050919050565b610a3581610a20565b8114610a3f575f5ffd5b50565b5f81359050610a5081610a2c565b92915050565b5f5f5f60608486031215610a6d57610a6c610667565b5b5f610a7a86828701610a42565b935050602084013567ffffffffffffffff811115610a9b57610a9a61066b565b5b610aa78682870161077e565b925050604084013567ffffffffffffffff811115610ac857610ac761066b565b5b610ad48682870161077e565b9150509250925092565b7f596f75277265206e6f7420616c6c6f77656400000000000000000000000000005f82015250565b5f610b12601283610914565b9150610b1d82610ade565b602082019050919050565b5f6020820190508181035f830152610b3f81610b06565b9050919050565b7f5a656f722061646472657373206e6f7420616c6c6f77656400000000000000005f82015250565b5f610b7a601883610914565b9150610b8582610b46565b602082019050919050565b5f6020820190508181035f830152610ba781610b6e565b9050919050565b7f4e487b71000000000000000000000000000000000000000000000000000000005f52602260045260245ffd5b5f6002820490506001821680610bf257607f821691505b602082108103610c0557610c04610bae565b5b50919050565b5f819050815f5260205f209050919050565b5f6020601f8301049050919050565b5f82821b905092915050565b5f60088302610c677fffffffffffffffffffffffffffffffffffffffffffffffffffffffffffffffff82610c2c565b610c718683610c2c565b95508019841693508086168417925050509392505050565b5f819050919050565b5f610cac610ca7610ca2846108ac565b610c89565b6108ac565b9050919050565b5f819050919050565b610cc583610c92565b610cd9610cd182610cb3565b848454610c38565b825550505050565b5f5f905090565b610cf0610ce1565b610cfb818484610cbc565b505050565b5b81811015610d1e57610d135f82610ce8565b600181019050610d01565b5050565b601f821115610d6357610d3481610c0b565b610d3d84610c1d565b81016020851015610d4c578190505b610d60610d5885610c1d565b830182610d00565b50505b505050565b5f82821c905092915050565b5f610d835f1984600802610d68565b1980831691505092915050565b5f610d9b8383610d74565b9150826002028217905092915050565b610db48261090a565b67ffffffffffffffff811115610dcd57610dcc610687565b5b610dd78254610bdb565b610de2828285610d22565b5f60209050601f831160018114610e13575f8415610e01578287015190505b610e0b8582610d90565b865550610e72565b601f198416610e2186610c0b565b5f5b82811015610e4857848901518255600182019150602085019450602081019050610e23565b86831015610e655784890151610e61601f891682610d74565b8355505b6001600288020188555050505b505050505050565b5f6040820190508181035f830152610e928185610932565b9050610ea160208301846109ce565b9392505050565b7f496e646578206973206f7574206f6620626f756e6400000000000000000000005f82015250565b5f610edc601583610914565b9150610ee782610ea8565b602082019050919050565b5f6020820190508181035f830152610f0981610ed0565b9050919050565b7f4e487b71000000000000000000000000000000000000000000000000000000005f52603260045260245ffdfea2646970667358221220afac5774d4f258dc23863ec9510375920f7b2c5040a469252fbb676778b3f1a664736f6c634300081b0033",
			"opcodes": "PUSH1 0x80 PUSH1 0x40 MSTORE CALLVALUE DUP1 ISZERO PUSH1 0xE JUMPI PUSH0 PUSH0 REVERT JUMPDEST POP CALLER PUSH0 PUSH0 PUSH2 0x100 EXP DUP2 SLOAD DUP2 PUSH20 0xFFFFFFFFFFFFFFFFFFFFFFFFFFFFFFFFFFFFFFFF MUL NOT AND SWAP1 DUP4 PUSH20 0xFFFFFFFFFFFFFFFFFFFFFFFFFFFFFFFFFFFFFFFF AND MUL OR SWAP1 SSTORE POP PUSH2 0xF73 DUP1 PUSH2 0x5B PUSH0 CODECOPY PUSH0 RETURN INVALID PUSH1 0x80 PUSH1 0x40 MSTORE CALLVALUE DUP1 ISZERO PUSH2 0xF JUMPI PUSH0 PUSH0 REVERT JUMPDEST POP PUSH1 0x4 CALLDATASIZE LT PUSH2 0x4A JUMPI PUSH0 CALLDATALOAD PUSH1 0xE0 SHR DUP1 PUSH4 0x3380B99F EQ PUSH2 0x4E JUMPI DUP1 PUSH4 0x8DA5CB5B EQ PUSH2 0x7E JUMPI DUP1 PUSH4 0xBC8BC2B4 EQ PUSH2 0x9C JUMPI DUP1 PUSH4 0xE9505164 EQ PUSH2 0xCE JUMPI JUMPDEST PUSH0 PUSH0 REVERT JUMPDEST PUSH2 0x68 PUSH1 0x4 DUP1 CALLDATASIZE SUB DUP2 ADD SWAP1 PUSH2 0x63 SWAP2 SWAP1 PUSH2 0x7AB JUMP JUMPDEST PUSH2 0xEA JUMP JUMPDEST PUSH1 0x40 MLOAD PUSH2 0x75 SWAP2 SWAP1 PUSH2 0x83B JUMP JUMPDEST PUSH1 0x40 MLOAD DUP1 SWAP2 SUB SWAP1 RETURN JUMPDEST PUSH2 0x86 PUSH2 0x2FA JUMP JUMPDEST PUSH1 0x40 MLOAD PUSH2 0x93 SWAP2 SWAP1 PUSH2 0x893 JUMP JUMPDEST PUSH1 0x40 MLOAD DUP1 SWAP2 SUB SWAP1 RETURN JUMPDEST PUSH2 0xB6 PUSH1 0x4 DUP1 CALLDATASIZE SUB DUP2 ADD SWAP1 PUSH2 0xB1 SWAP2 SWAP1 PUSH2 0x8DF JUMP JUMPDEST PUSH2 0x31E JUMP JUMPDEST PUSH1 0x40 MLOAD PUSH2 0xC5 SWAP4 SWAP3 SWAP2 SWAP1 PUSH2 0x9DD JUMP JUMPDEST PUSH1 0x40 MLOAD DUP1 SWAP2 SUB SWAP1 RETURN JUMPDEST PUSH2 0xE8 PUSH1 0x4 DUP1 CALLDATASIZE SUB DUP2 ADD SWAP1 PUSH2 0xE3 SWAP2 SWAP1 PUSH2 0xA56 JUMP JUMPDEST PUSH2 0x46B JUMP JUMPDEST STOP JUMPDEST PUSH0 PUSH0 PUSH0 SWAP1 SLOAD SWAP1 PUSH2 0x100 EXP SWAP1 DIV PUSH20 0xFFFFFFFFFFFFFFFFFFFFFFFFFFFFFFFFFFFFFFFF AND PUSH20 0xFFFFFFFFFFFFFFFFFFFFFFFFFFFFFFFFFFFFFFFF AND CALLER PUSH20 0xFFFFFFFFFFFFFFFFFFFFFFFFFFFFFFFFFFFFFFFF AND EQ PUSH2 0x179 JUMPI PUSH1 0x40 MLOAD PUSH32 0x8C379A000000000000000000000000000000000000000000000000000000000 DUP2 MSTORE PUSH1 0x4 ADD PUSH2 0x170 SWAP1 PUSH2 0xB28 JUMP JUMPDEST PUSH1 0x40 MLOAD DUP1 SWAP2 SUB SWAP1 REVERT JUMPDEST PUSH0 PUSH20 0xFFFFFFFFFFFFFFFFFFFFFFFFFFFFFFFFFFFFFFFF AND CALLER PUSH20 0xFFFFFFFFFFFFFFFFFFFFFFFFFFFFFFFFFFFFFFFF AND SUB PUSH2 0x1E7 JUMPI PUSH1 0x40 MLOAD PUSH32 0x8C379A000000000000000000000000000000000000000000000000000000000 DUP2 MSTORE PUSH1 0x4 ADD PUSH2 0x1DE SWAP1 PUSH2 0xB90 JUMP JUMPDEST PUSH1 0x40 MLOAD DUP1 SWAP2 SUB SWAP1 REVERT JUMPDEST PUSH2 0x1EF PUSH2 0x62C JUMP JUMPDEST DUP4 DUP2 PUSH0 ADD DUP2 SWAP1 MSTORE POP DUP3 DUP2 PUSH1 0x20 ADD DUP2 SWAP1 MSTORE POP PUSH1 0x1 DUP2 PUSH1 0x40 ADD SWAP1 PUSH1 0x3 DUP2 GT ISZERO PUSH2 0x219 JUMPI PUSH2 0x218 PUSH2 0x96A JUMP JUMPDEST JUMPDEST SWAP1 DUP2 PUSH1 0x3 DUP2 GT ISZERO PUSH2 0x22D JUMPI PUSH2 0x22C PUSH2 0x96A JUMP JUMPDEST JUMPDEST DUP2 MSTORE POP POP PUSH1 0x1 DUP2 SWAP1 DUP1 PUSH1 0x1 DUP2 SLOAD ADD DUP1 DUP3 SSTORE DUP1 SWAP2 POP POP PUSH1 0x1 SWAP1 SUB SWAP1 PUSH0 MSTORE PUSH1 0x20 PUSH0 KECCAK256 SWAP1 PUSH1 0x3 MUL ADD PUSH0 SWAP1 SWAP2 SWAP1 SWAP2 SWAP1 SWAP2 POP PUSH0 DUP3 ADD MLOAD DUP2 PUSH0 ADD SWAP1 DUP2 PUSH2 0x26D SWAP2 SWAP1 PUSH2 0xDAB JUMP JUMPDEST POP PUSH1 0x20 DUP3 ADD MLOAD DUP2 PUSH1 0x1 ADD SWAP1 DUP2 PUSH2 0x283 SWAP2 SWAP1 PUSH2 0xDAB JUMP JUMPDEST POP PUSH1 0x40 DUP3 ADD MLOAD DUP2 PUSH1 0x2 ADD PUSH0 PUSH2 0x100 EXP DUP2 SLOAD DUP2 PUSH1 0xFF MUL NOT AND SWAP1 DUP4 PUSH1 0x3 DUP2 GT ISZERO PUSH2 0x2AE JUMPI PUSH2 0x2AD PUSH2 0x96A JUMP JUMPDEST JUMPDEST MUL OR SWAP1 SSTORE POP POP POP PUSH32 0xB24501745F85FFF88CC582DF1223BF671A1234AB872711FFAA7EB8BD56FE311E DUP5 PUSH1 0x1 PUSH1 0x40 MLOAD PUSH2 0x2E7 SWAP3 SWAP2 SWAP1 PUSH2 0xE7A JUMP JUMPDEST PUSH1 0x40 MLOAD DUP1 SWAP2 SUB SWAP1 LOG1 PUSH1 0x1 SWAP2 POP POP SWAP3 SWAP2 POP POP JUMP JUMPDEST PUSH0 PUSH0 SWAP1 SLOAD SWAP1 PUSH2 0x100 EXP SWAP1 DIV PUSH20 0xFFFFFFFFFFFFFFFFFFFFFFFFFFFFFFFFFFFFFFFF AND DUP2 JUMP JUMPDEST PUSH1 0x1 DUP2 DUP2 SLOAD DUP2 LT PUSH2 0x32D JUMPI PUSH0 DUP1 REVERT JUMPDEST SWAP1 PUSH0 MSTORE PUSH1 0x20 PUSH0 KECCAK256 SWAP1 PUSH1 0x3 MUL ADD PUSH0 SWAP2 POP SWAP1 POP DUP1 PUSH0 ADD DUP1 SLOAD PUSH2 0x34C SWAP1 PUSH2 0xBDB JUMP JUMPDEST DUP1 PUSH1 0x1F ADD PUSH1 0x20 DUP1 SWAP2 DIV MUL PUSH1 0x20 ADD PUSH1 0x40 MLOAD SWAP1 DUP2 ADD PUSH1 0x40 MSTORE DUP1 SWAP3 SWAP2 SWAP1 DUP2 DUP2 MSTORE PUSH1 0x20 ADD DUP3 DUP1 SLOAD PUSH2 0x378 SWAP1 PUSH2 0xBDB JUMP JUMPDEST DUP1 ISZERO PUSH2 0x3C3 JUMPI DUP1 PUSH1 0x1F LT PUSH2 0x39A JUMPI PUSH2 0x100 DUP1 DUP4 SLOAD DIV MUL DUP4 MSTORE SWAP2 PUSH1 0x20 ADD SWAP2 PUSH2 0x3C3 JUMP JUMPDEST DUP3 ADD SWAP2 SWAP1 PUSH0 MSTORE PUSH1 0x20 PUSH0 KECCAK256 SWAP1 JUMPDEST DUP2 SLOAD DUP2 MSTORE SWAP1 PUSH1 0x1 ADD SWAP1 PUSH1 0x20 ADD DUP1 DUP4 GT PUSH2 0x3A6 JUMPI DUP3 SWAP1 SUB PUSH1 0x1F AND DUP3 ADD SWAP2 JUMPDEST POP POP POP POP POP SWAP1 DUP1 PUSH1 0x1 ADD DUP1 SLOAD PUSH2 0x3D8 SWAP1 PUSH2 0xBDB JUMP JUMPDEST DUP1 PUSH1 0x1F ADD PUSH1 0x20 DUP1 SWAP2 DIV MUL PUSH1 0x20 ADD PUSH1 0x40 MLOAD SWAP1 DUP2 ADD PUSH1 0x40 MSTORE DUP1 SWAP3 SWAP2 SWAP1 DUP2 DUP2 MSTORE PUSH1 0x20 ADD DUP3 DUP1 SLOAD PUSH2 0x404 SWAP1 PUSH2 0xBDB JUMP JUMPDEST DUP1 ISZERO PUSH2 0x44F JUMPI DUP1 PUSH1 0x1F LT PUSH2 0x426 JUMPI PUSH2 0x100 DUP1 DUP4 SLOAD DIV MUL DUP4 MSTORE SWAP2 PUSH1 0x20 ADD SWAP2 PUSH2 0x44F JUMP JUMPDEST DUP3 ADD SWAP2 SWAP1 PUSH0 MSTORE PUSH1 0x20 PUSH0 KECCAK256 SWAP1 JUMPDEST DUP2 SLOAD DUP2 MSTORE SWAP1 PUSH1 0x1 ADD SWAP1 PUSH1 0x20 ADD DUP1 DUP4 GT PUSH2 0x432 JUMPI DUP3 SWAP1 SUB PUSH1 0x1F AND DUP3 ADD SWAP2 JUMPDEST POP POP POP POP POP SWAP1 DUP1 PUSH1 0x2 ADD PUSH0 SWAP1 SLOAD SWAP1 PUSH2 0x100 EXP SWAP1 DIV PUSH1 0xFF AND SWAP1 POP DUP4 JUMP JUMPDEST PUSH0 PUSH0 SWAP1 SLOAD SWAP1 PUSH2 0x100 EXP SWAP1 DIV PUSH20 0xFFFFFFFFFFFFFFFFFFFFFFFFFFFFFFFFFFFFFFFF AND PUSH20 0xFFFFFFFFFFFFFFFFFFFFFFFFFFFFFFFFFFFFFFFF AND CALLER PUSH20 0xFFFFFFFFFFFFFFFFFFFFFFFFFFFFFFFFFFFFFFFF AND EQ PUSH2 0x4F9 JUMPI PUSH1 0x40 MLOAD PUSH32 0x8C379A000000000000000000000000000000000000000000000000000000000 DUP2 MSTORE PUSH1 0x4 ADD PUSH2 0x4F0 SWAP1 PUSH2 0xB28 JUMP JUMPDEST PUSH1 0x40 MLOAD DUP1 SWAP2 SUB SWAP1 REVERT JUMPDEST PUSH0 PUSH20 0xFFFFFFFFFFFFFFFFFFFFFFFFFFFFFFFFFFFFFFFF AND CALLER PUSH20 0xFFFFFFFFFFFFFFFFFFFFFFFFFFFFFFFFFFFFFFFF AND SUB PUSH2 0x567 JUMPI PUSH1 0x40 MLOAD PUSH32 0x8C379A000000000000000000000000000000000000000000000000000000000 DUP2 MSTORE PUSH1 0x4 ADD PUSH2 0x55E SWAP1 PUSH2 0xB90 JUMP JUMPDEST PUSH1 0x40 MLOAD DUP1 SWAP2 SUB SWAP1 REVERT JUMPDEST PUSH1 0x1 DUP1 SLOAD SWAP1 POP DUP4 PUSH1 0xFF AND LT PUSH2 0x5B1 JUMPI PUSH1 0x40 MLOAD PUSH32 0x8C379A000000000000000000000000000000000000000000000000000000000 DUP2 MSTORE PUSH1 0x4 ADD PUSH2 0x5A8 SWAP1 PUSH2 0xEF2 JUMP JUMPDEST PUSH1 0x40 MLOAD DUP1 SWAP2 SUB SWAP1 REVERT JUMPDEST PUSH0 PUSH1 0x1 DUP5 PUSH1 0xFF AND DUP2 SLOAD DUP2 LT PUSH2 0x5C9 JUMPI PUSH2 0x5C8 PUSH2 0xF10 JUMP JUMPDEST JUMPDEST SWAP1 PUSH0 MSTORE PUSH1 0x20 PUSH0 KECCAK256 SWAP1 PUSH1 0x3 MUL ADD SWAP1 POP DUP3 DUP2 PUSH0 ADD SWAP1 DUP2 PUSH2 0x5E7 SWAP2 SWAP1 PUSH2 0xDAB JUMP JUMPDEST POP DUP2 DUP2 PUSH1 0x1 ADD SWAP1 DUP2 PUSH2 0x5F9 SWAP2 SWAP1 PUSH2 0xDAB JUMP JUMPDEST POP PUSH1 0x2 DUP2 PUSH1 0x2 ADD PUSH0 PUSH2 0x100 EXP DUP2 SLOAD DUP2 PUSH1 0xFF MUL NOT AND SWAP1 DUP4 PUSH1 0x3 DUP2 GT ISZERO PUSH2 0x621 JUMPI PUSH2 0x620 PUSH2 0x96A JUMP JUMPDEST JUMPDEST MUL OR SWAP1 SSTORE POP POP POP POP POP JUMP JUMPDEST PUSH1 0x40 MLOAD DUP1 PUSH1 0x60 ADD PUSH1 0x40 MSTORE DUP1 PUSH1 0x60 DUP2 MSTORE PUSH1 0x20 ADD PUSH1 0x60 DUP2 MSTORE PUSH1 0x20 ADD PUSH0 PUSH1 0x3 DUP2 GT ISZERO PUSH2 0x658 JUMPI PUSH2 0x657 PUSH2 0x96A JUMP JUMPDEST JUMPDEST DUP2 MSTORE POP SWAP1 JUMP JUMPDEST PUSH0 PUSH1 0x40 MLOAD SWAP1 POP SWAP1 JUMP JUMPDEST PUSH0 PUSH0 REVERT JUMPDEST PUSH0 PUSH0 REVERT JUMPDEST PUSH0 PUSH0 REVERT JUMPDEST PUSH0 PUSH0 REVERT JUMPDEST PUSH0 PUSH1 0x1F NOT PUSH1 0x1F DUP4 ADD AND SWAP1 POP SWAP2 SWAP1 POP JUMP JUMPDEST PUSH32 0x4E487B7100000000000000000000000000000000000000000000000000000000 PUSH0 MSTORE PUSH1 0x41 PUSH1 0x4 MSTORE PUSH1 0x24 PUSH0 REVERT JUMPDEST PUSH2 0x6BD DUP3 PUSH2 0x677 JUMP JUMPDEST DUP2 ADD DUP2 DUP2 LT PUSH8 0xFFFFFFFFFFFFFFFF DUP3 GT OR ISZERO PUSH2 0x6DC JUMPI PUSH2 0x6DB PUSH2 0x687 JUMP JUMPDEST JUMPDEST DUP1 PUSH1 0x40 MSTORE POP POP POP JUMP JUMPDEST PUSH0 PUSH2 0x6EE PUSH2 0x65E JUMP JUMPDEST SWAP1 POP PUSH2 0x6FA DUP3 DUP3 PUSH2 0x6B4 JUMP JUMPDEST SWAP2 SWAP1 POP JUMP JUMPDEST PUSH0 PUSH8 0xFFFFFFFFFFFFFFFF DUP3 GT ISZERO PUSH2 0x719 JUMPI PUSH2 0x718 PUSH2 0x687 JUMP JUMPDEST JUMPDEST PUSH2 0x722 DUP3 PUSH2 0x677 JUMP JUMPDEST SWAP1 POP PUSH1 0x20 DUP2 ADD SWAP1 POP SWAP2 SWAP1 POP JUMP JUMPDEST DUP3 DUP2 DUP4 CALLDATACOPY PUSH0 DUP4 DUP4 ADD MSTORE POP POP POP JUMP JUMPDEST PUSH0 PUSH2 0x74F PUSH2 0x74A DUP5 PUSH2 0x6FF JUMP JUMPDEST PUSH2 0x6E5 JUMP JUMPDEST SWAP1 POP DUP3 DUP2 MSTORE PUSH1 0x20 DUP2 ADD DUP5 DUP5 DUP5 ADD GT ISZERO PUSH2 0x76B JUMPI PUSH2 0x76A PUSH2 0x673 JUMP JUMPDEST JUMPDEST PUSH2 0x776 DUP5 DUP3 DUP6 PUSH2 0x72F JUMP JUMPDEST POP SWAP4 SWAP3 POP POP POP JUMP JUMPDEST PUSH0 DUP3 PUSH1 0x1F DUP4 ADD SLT PUSH2 0x792 JUMPI PUSH2 0x791 PUSH2 0x66F JUMP JUMPDEST JUMPDEST DUP2 CALLDATALOAD PUSH2 0x7A2 DUP5 DUP3 PUSH1 0x20 DUP7 ADD PUSH2 0x73D JUMP JUMPDEST SWAP2 POP POP SWAP3 SWAP2 POP POP JUMP JUMPDEST PUSH0 PUSH0 PUSH1 0x40 DUP4 DUP6 SUB SLT ISZERO PUSH2 0x7C1 JUMPI PUSH2 0x7C0 PUSH2 0x667 JUMP JUMPDEST JUMPDEST PUSH0 DUP4 ADD CALLDATALOAD PUSH8 0xFFFFFFFFFFFFFFFF DUP2 GT ISZERO PUSH2 0x7DE JUMPI PUSH2 0x7DD PUSH2 0x66B JUMP JUMPDEST JUMPDEST PUSH2 0x7EA DUP6 DUP3 DUP7 ADD PUSH2 0x77E JUMP JUMPDEST SWAP3 POP POP PUSH1 0x20 DUP4 ADD CALLDATALOAD PUSH8 0xFFFFFFFFFFFFFFFF DUP2 GT ISZERO PUSH2 0x80B JUMPI PUSH2 0x80A PUSH2 0x66B JUMP JUMPDEST JUMPDEST PUSH2 0x817 DUP6 DUP3 DUP7 ADD PUSH2 0x77E JUMP JUMPDEST SWAP2 POP POP SWAP3 POP SWAP3 SWAP1 POP JUMP JUMPDEST PUSH0 DUP2 ISZERO ISZERO SWAP1 POP SWAP2 SWAP1 POP JUMP JUMPDEST PUSH2 0x835 DUP2 PUSH2 0x821 JUMP JUMPDEST DUP3 MSTORE POP POP JUMP JUMPDEST PUSH0 PUSH1 0x20 DUP3 ADD SWAP1 POP PUSH2 0x84E PUSH0 DUP4 ADD DUP5 PUSH2 0x82C JUMP JUMPDEST SWAP3 SWAP2 POP POP JUMP JUMPDEST PUSH0 PUSH20 0xFFFFFFFFFFFFFFFFFFFFFFFFFFFFFFFFFFFFFFFF DUP3 AND SWAP1 POP SWAP2 SWAP1 POP JUMP JUMPDEST PUSH0 PUSH2 0x87D DUP3 PUSH2 0x854 JUMP JUMPDEST SWAP1 POP SWAP2 SWAP1 POP JUMP JUMPDEST PUSH2 0x88D DUP2 PUSH2 0x873 JUMP JUMPDEST DUP3 MSTORE POP POP JUMP JUMPDEST PUSH0 PUSH1 0x20 DUP3 ADD SWAP1 POP PUSH2 0x8A6 PUSH0 DUP4 ADD DUP5 PUSH2 0x884 JUMP JUMPDEST SWAP3 SWAP2 POP POP JUMP JUMPDEST PUSH0 DUP2 SWAP1 POP SWAP2 SWAP1 POP JUMP JUMPDEST PUSH2 0x8BE DUP2 PUSH2 0x8AC JUMP JUMPDEST DUP2 EQ PUSH2 0x8C8 JUMPI PUSH0 PUSH0 REVERT JUMPDEST POP JUMP JUMPDEST PUSH0 DUP2 CALLDATALOAD SWAP1 POP PUSH2 0x8D9 DUP2 PUSH2 0x8B5 JUMP JUMPDEST SWAP3 SWAP2 POP POP JUMP JUMPDEST PUSH0 PUSH1 0x20 DUP3 DUP5 SUB SLT ISZERO PUSH2 0x8F4 JUMPI PUSH2 0x8F3 PUSH2 0x667 JUMP JUMPDEST JUMPDEST PUSH0 PUSH2 0x901 DUP5 DUP3 DUP6 ADD PUSH2 0x8CB JUMP JUMPDEST SWAP2 POP POP SWAP3 SWAP2 POP POP JUMP JUMPDEST PUSH0 DUP2 MLOAD SWAP1 POP SWAP2 SWAP1 POP JUMP JUMPDEST PUSH0 DUP3 DUP3 MSTORE PUSH1 0x20 DUP3 ADD SWAP1 POP SWAP3 SWAP2 POP POP JUMP JUMPDEST DUP3 DUP2 DUP4 MCOPY PUSH0 DUP4 DUP4 ADD MSTORE POP POP POP JUMP JUMPDEST PUSH0 PUSH2 0x93C DUP3 PUSH2 0x90A JUMP JUMPDEST PUSH2 0x946 DUP2 DUP6 PUSH2 0x914 JUMP JUMPDEST SWAP4 POP PUSH2 0x956 DUP2 DUP6 PUSH1 0x20 DUP7 ADD PUSH2 0x924 JUMP JUMPDEST PUSH2 0x95F DUP2 PUSH2 0x677 JUMP JUMPDEST DUP5 ADD SWAP2 POP POP SWAP3 SWAP2 POP POP JUMP JUMPDEST PUSH32 0x4E487B7100000000000000000000000000000000000000000000000000000000 PUSH0 MSTORE PUSH1 0x21 PUSH1 0x4 MSTORE PUSH1 0x24 PUSH0 REVERT JUMPDEST PUSH1 0x4 DUP2 LT PUSH2 0x9A8 JUMPI PUSH2 0x9A7 PUSH2 0x96A JUMP JUMPDEST JUMPDEST POP JUMP JUMPDEST PUSH0 DUP2 SWAP1 POP PUSH2 0x9B8 DUP3 PUSH2 0x997 JUMP JUMPDEST SWAP2 SWAP1 POP JUMP JUMPDEST PUSH0 PUSH2 0x9C7 DUP3 PUSH2 0x9AB JUMP JUMPDEST SWAP1 POP SWAP2 SWAP1 POP JUMP JUMPDEST PUSH2 0x9D7 DUP2 PUSH2 0x9BD JUMP JUMPDEST DUP3 MSTORE POP POP JUMP JUMPDEST PUSH0 PUSH1 0x60 DUP3 ADD SWAP1 POP DUP2 DUP2 SUB PUSH0 DUP4 ADD MSTORE PUSH2 0x9F5 DUP2 DUP7 PUSH2 0x932 JUMP JUMPDEST SWAP1 POP DUP2 DUP2 SUB PUSH1 0x20 DUP4 ADD MSTORE PUSH2 0xA09 DUP2 DUP6 PUSH2 0x932 JUMP JUMPDEST SWAP1 POP PUSH2 0xA18 PUSH1 0x40 DUP4 ADD DUP5 PUSH2 0x9CE JUMP JUMPDEST SWAP5 SWAP4 POP POP POP POP JUMP JUMPDEST PUSH0 PUSH1 0xFF DUP3 AND SWAP1 POP SWAP2 SWAP1 POP JUMP JUMPDEST PUSH2 0xA35 DUP2 PUSH2 0xA20 JUMP JUMPDEST DUP2 EQ PUSH2 0xA3F JUMPI PUSH0 PUSH0 REVERT JUMPDEST POP JUMP JUMPDEST PUSH0 DUP2 CALLDATALOAD SWAP1 POP PUSH2 0xA50 DUP2 PUSH2 0xA2C JUMP JUMPDEST SWAP3 SWAP2 POP POP JUMP JUMPDEST PUSH0 PUSH0 PUSH0 PUSH1 0x60 DUP5 DUP7 SUB SLT ISZERO PUSH2 0xA6D JUMPI PUSH2 0xA6C PUSH2 0x667 JUMP JUMPDEST JUMPDEST PUSH0 PUSH2 0xA7A DUP7 DUP3 DUP8 ADD PUSH2 0xA42 JUMP JUMPDEST SWAP4 POP POP PUSH1 0x20 DUP5 ADD CALLDATALOAD PUSH8 0xFFFFFFFFFFFFFFFF DUP2 GT ISZERO PUSH2 0xA9B JUMPI PUSH2 0xA9A PUSH2 0x66B JUMP JUMPDEST JUMPDEST PUSH2 0xAA7 DUP7 DUP3 DUP8 ADD PUSH2 0x77E JUMP JUMPDEST SWAP3 POP POP PUSH1 0x40 DUP5 ADD CALLDATALOAD PUSH8 0xFFFFFFFFFFFFFFFF DUP2 GT ISZERO PUSH2 0xAC8 JUMPI PUSH2 0xAC7 PUSH2 0x66B JUMP JUMPDEST JUMPDEST PUSH2 0xAD4 DUP7 DUP3 DUP8 ADD PUSH2 0x77E JUMP JUMPDEST SWAP2 POP POP SWAP3 POP SWAP3 POP SWAP3 JUMP JUMPDEST PUSH32 0x596F75277265206E6F7420616C6C6F7765640000000000000000000000000000 PUSH0 DUP3 ADD MSTORE POP JUMP JUMPDEST PUSH0 PUSH2 0xB12 PUSH1 0x12 DUP4 PUSH2 0x914 JUMP JUMPDEST SWAP2 POP PUSH2 0xB1D DUP3 PUSH2 0xADE JUMP JUMPDEST PUSH1 0x20 DUP3 ADD SWAP1 POP SWAP2 SWAP1 POP JUMP JUMPDEST PUSH0 PUSH1 0x20 DUP3 ADD SWAP1 POP DUP2 DUP2 SUB PUSH0 DUP4 ADD MSTORE PUSH2 0xB3F DUP2 PUSH2 0xB06 JUMP JUMPDEST SWAP1 POP SWAP2 SWAP1 POP JUMP JUMPDEST PUSH32 0x5A656F722061646472657373206E6F7420616C6C6F7765640000000000000000 PUSH0 DUP3 ADD MSTORE POP JUMP JUMPDEST PUSH0 PUSH2 0xB7A PUSH1 0x18 DUP4 PUSH2 0x914 JUMP JUMPDEST SWAP2 POP PUSH2 0xB85 DUP3 PUSH2 0xB46 JUMP JUMPDEST PUSH1 0x20 DUP3 ADD SWAP1 POP SWAP2 SWAP1 POP JUMP JUMPDEST PUSH0 PUSH1 0x20 DUP3 ADD SWAP1 POP DUP2 DUP2 SUB PUSH0 DUP4 ADD MSTORE PUSH2 0xBA7 DUP2 PUSH2 0xB6E JUMP JUMPDEST SWAP1 POP SWAP2 SWAP1 POP JUMP JUMPDEST PUSH32 0x4E487B7100000000000000000000000000000000000000000000000000000000 PUSH0 MSTORE PUSH1 0x22 PUSH1 0x4 MSTORE PUSH1 0x24 PUSH0 REVERT JUMPDEST PUSH0 PUSH1 0x2 DUP3 DIV SWAP1 POP PUSH1 0x1 DUP3 AND DUP1 PUSH2 0xBF2 JUMPI PUSH1 0x7F DUP3 AND SWAP2 POP JUMPDEST PUSH1 0x20 DUP3 LT DUP2 SUB PUSH2 0xC05 JUMPI PUSH2 0xC04 PUSH2 0xBAE JUMP JUMPDEST JUMPDEST POP SWAP2 SWAP1 POP JUMP JUMPDEST PUSH0 DUP2 SWAP1 POP DUP2 PUSH0 MSTORE PUSH1 0x20 PUSH0 KECCAK256 SWAP1 POP SWAP2 SWAP1 POP JUMP JUMPDEST PUSH0 PUSH1 0x20 PUSH1 0x1F DUP4 ADD DIV SWAP1 POP SWAP2 SWAP1 POP JUMP JUMPDEST PUSH0 DUP3 DUP3 SHL SWAP1 POP SWAP3 SWAP2 POP POP JUMP JUMPDEST PUSH0 PUSH1 0x8 DUP4 MUL PUSH2 0xC67 PUSH32 0xFFFFFFFFFFFFFFFFFFFFFFFFFFFFFFFFFFFFFFFFFFFFFFFFFFFFFFFFFFFFFFFF DUP3 PUSH2 0xC2C JUMP JUMPDEST PUSH2 0xC71 DUP7 DUP4 PUSH2 0xC2C JUMP JUMPDEST SWAP6 POP DUP1 NOT DUP5 AND SWAP4 POP DUP1 DUP7 AND DUP5 OR SWAP3 POP POP POP SWAP4 SWAP3 POP POP POP JUMP JUMPDEST PUSH0 DUP2 SWAP1 POP SWAP2 SWAP1 POP JUMP JUMPDEST PUSH0 PUSH2 0xCAC PUSH2 0xCA7 PUSH2 0xCA2 DUP5 PUSH2 0x8AC JUMP JUMPDEST PUSH2 0xC89 JUMP JUMPDEST PUSH2 0x8AC JUMP JUMPDEST SWAP1 POP SWAP2 SWAP1 POP JUMP JUMPDEST PUSH0 DUP2 SWAP1 POP SWAP2 SWAP1 POP JUMP JUMPDEST PUSH2 0xCC5 DUP4 PUSH2 0xC92 JUMP JUMPDEST PUSH2 0xCD9 PUSH2 0xCD1 DUP3 PUSH2 0xCB3 JUMP JUMPDEST DUP5 DUP5 SLOAD PUSH2 0xC38 JUMP JUMPDEST DUP3 SSTORE POP POP POP POP JUMP JUMPDEST PUSH0 PUSH0 SWAP1 POP SWAP1 JUMP JUMPDEST PUSH2 0xCF0 PUSH2 0xCE1 JUMP JUMPDEST PUSH2 0xCFB DUP2 DUP5 DUP5 PUSH2 0xCBC JUMP JUMPDEST POP POP POP JUMP JUMPDEST JUMPDEST DUP2 DUP2 LT ISZERO PUSH2 0xD1E JUMPI PUSH2 0xD13 PUSH0 DUP3 PUSH2 0xCE8 JUMP JUMPDEST PUSH1 0x1 DUP2 ADD SWAP1 POP PUSH2 0xD01 JUMP JUMPDEST POP POP JUMP JUMPDEST PUSH1 0x1F DUP3 GT ISZERO PUSH2 0xD63 JUMPI PUSH2 0xD34 DUP2 PUSH2 0xC0B JUMP JUMPDEST PUSH2 0xD3D DUP5 PUSH2 0xC1D JUMP JUMPDEST DUP2 ADD PUSH1 0x20 DUP6 LT ISZERO PUSH2 0xD4C JUMPI DUP2 SWAP1 POP JUMPDEST PUSH2 0xD60 PUSH2 0xD58 DUP6 PUSH2 0xC1D JUMP JUMPDEST DUP4 ADD DUP3 PUSH2 0xD00 JUMP JUMPDEST POP POP JUMPDEST POP POP POP JUMP JUMPDEST PUSH0 DUP3 DUP3 SHR SWAP1 POP SWAP3 SWAP2 POP POP JUMP JUMPDEST PUSH0 PUSH2 0xD83 PUSH0 NOT DUP5 PUSH1 0x8 MUL PUSH2 0xD68 JUMP JUMPDEST NOT DUP1 DUP4 AND SWAP2 POP POP SWAP3 SWAP2 POP POP JUMP JUMPDEST PUSH0 PUSH2 0xD9B DUP4 DUP4 PUSH2 0xD74 JUMP JUMPDEST SWAP2 POP DUP3 PUSH1 0x2 MUL DUP3 OR SWAP1 POP SWAP3 SWAP2 POP POP JUMP JUMPDEST PUSH2 0xDB4 DUP3 PUSH2 0x90A JUMP JUMPDEST PUSH8 0xFFFFFFFFFFFFFFFF DUP2 GT ISZERO PUSH2 0xDCD JUMPI PUSH2 0xDCC PUSH2 0x687 JUMP JUMPDEST JUMPDEST PUSH2 0xDD7 DUP3 SLOAD PUSH2 0xBDB JUMP JUMPDEST PUSH2 0xDE2 DUP3 DUP3 DUP6 PUSH2 0xD22 JUMP JUMPDEST PUSH0 PUSH1 0x20 SWAP1 POP PUSH1 0x1F DUP4 GT PUSH1 0x1 DUP2 EQ PUSH2 0xE13 JUMPI PUSH0 DUP5 ISZERO PUSH2 0xE01 JUMPI DUP3 DUP8 ADD MLOAD SWAP1 POP JUMPDEST PUSH2 0xE0B DUP6 DUP3 PUSH2 0xD90 JUMP JUMPDEST DUP7 SSTORE POP PUSH2 0xE72 JUMP JUMPDEST PUSH1 0x1F NOT DUP5 AND PUSH2 0xE21 DUP7 PUSH2 0xC0B JUMP JUMPDEST PUSH0 JUMPDEST DUP3 DUP2 LT ISZERO PUSH2 0xE48 JUMPI DUP5 DUP10 ADD MLOAD DUP3 SSTORE PUSH1 0x1 DUP3 ADD SWAP2 POP PUSH1 0x20 DUP6 ADD SWAP5 POP PUSH1 0x20 DUP2 ADD SWAP1 POP PUSH2 0xE23 JUMP JUMPDEST DUP7 DUP4 LT ISZERO PUSH2 0xE65 JUMPI DUP5 DUP10 ADD MLOAD PUSH2 0xE61 PUSH1 0x1F DUP10 AND DUP3 PUSH2 0xD74 JUMP JUMPDEST DUP4 SSTORE POP JUMPDEST PUSH1 0x1 PUSH1 0x2 DUP9 MUL ADD DUP9 SSTORE POP POP POP JUMPDEST POP POP POP POP POP POP JUMP JUMPDEST PUSH0 PUSH1 0x40 DUP3 ADD SWAP1 POP DUP2 DUP2 SUB PUSH0 DUP4 ADD MSTORE PUSH2 0xE92 DUP2 DUP6 PUSH2 0x932 JUMP JUMPDEST SWAP1 POP PUSH2 0xEA1 PUSH1 0x20 DUP4 ADD DUP5 PUSH2 0x9CE JUMP JUMPDEST SWAP4 SWAP3 POP POP POP JUMP JUMPDEST PUSH32 0x496E646578206973206F7574206F6620626F756E640000000000000000000000 PUSH0 DUP3 ADD MSTORE POP JUMP JUMPDEST PUSH0 PUSH2 0xEDC PUSH1 0x15 DUP4 PUSH2 0x914 JUMP JUMPDEST SWAP2 POP PUSH2 0xEE7 DUP3 PUSH2 0xEA8 JUMP JUMPDEST PUSH1 0x20 DUP3 ADD SWAP1 POP SWAP2 SWAP1 POP JUMP JUMPDEST PUSH0 PUSH1 0x20 DUP3 ADD SWAP1 POP DUP2 DUP2 SUB PUSH0 DUP4 ADD MSTORE PUSH2 0xF09 DUP2 PUSH2 0xED0 JUMP JUMPDEST SWAP1 POP SWAP2 SWAP1 POP JUMP JUMPDEST PUSH32 0x4E487B7100000000000000000000000000000000000000000000000000000000 PUSH0 MSTORE PUSH1 0x32 PUSH1 0x4 MSTORE PUSH1 0x24 PUSH0 REVERT INVALID LOG2 PUSH5 0x6970667358 0x22 SLT KECCAK256 0xAF 0xAC JUMPI PUSH21 0xD4F258DC23863EC9510375920F7B2C5040A469252F 0xBB PUSH8 0x6778B3F1A664736F PUSH13 0x634300081B0033000000000000 "
		},
		"gasEstimates": {
			"creation": {
				"codeDepositCost": "791000",
				"executionCost": "25087",
				"totalCost": "816087"
			},
			"external": {
				"createTodo(string,string)": "infinite",
				"owner()": "2507",
				"todos(uint256)": "infinite",
				"updateTodo(uint8,string,string)": "infinite"
			}
		},
		"methodIdentifiers": {
			"createTodo(string,string)": "3380b99f",
			"owner()": "8da5cb5b",
			"todos(uint256)": "bc8bc2b4",
			"updateTodo(uint8,string,string)": "e9505164"
		}
	},
	"abi": [
		{
			"inputs": [],
			"stateMutability": "nonpayable",
			"type": "constructor"
		},
		{
			"anonymous": false,
			"inputs": [
				{
					"indexed": false,
					"internalType": "string",
					"name": "title",
					"type": "string"
				},
				{
					"indexed": false,
					"internalType": "enum TodoList.Status",
					"name": "status",
					"type": "uint8"
				}
			],
			"name": "TodoCreated",
			"type": "event"
		},
		{
			"inputs": [
				{
					"internalType": "string",
					"name": "_title",
					"type": "string"
				},
				{
					"internalType": "string",
					"name": "_desc",
					"type": "string"
				}
			],
			"name": "createTodo",
			"outputs": [
				{
					"internalType": "bool",
					"name": "",
					"type": "bool"
				}
			],
			"stateMutability": "nonpayable",
			"type": "function"
		},
		{
			"inputs": [],
			"name": "owner",
			"outputs": [
				{
					"internalType": "address",
					"name": "",
					"type": "address"
				}
			],
			"stateMutability": "view",
			"type": "function"
		},
		{
			"inputs": [
				{
					"internalType": "uint256",
					"name": "",
					"type": "uint256"
				}
			],
			"name": "todos",
			"outputs": [
				{
					"internalType": "string",
					"name": "title",
					"type": "string"
				},
				{
					"internalType": "string",
					"name": "description",
					"type": "string"
				},
				{
					"internalType": "enum TodoList.Status",
					"name": "status",
					"type": "uint8"
				}
			],
			"stateMutability": "view",
			"type": "function"
		},
		{
			"inputs": [
				{
					"internalType": "uint8",
					"name": "_index",
					"type": "uint8"
				},
				{
					"internalType": "string",
					"name": "_title",
					"type": "string"
				},
				{
					"internalType": "string",
					"name": "_desc",
					"type": "string"
				}
			],
			"name": "updateTodo",
			"outputs": [],
			"stateMutability": "nonpayable",
			"type": "function"
		}
	]
}