{
	"data": {
		"bytecode": {
			"linkReferences": {},
			"object": "60806040526103e85f556101f46001556107d0600255610bb86003553480156025575f80fd5b506103ed806100335f395ff3fe608060405234801561000f575f80fd5b5060043610610086575f3560e01c8063bf5b11ac11610059578063bf5b11ac14610108578063bfdd4ad414610129578063c48216d214610147578063f4854f1e1461016857610086565b80633beafb6b1461008a57806376e5dbc1146100ab5780637f580220146100c9578063b49f4afd146100e7575b5f80fd5b610092610186565b6040516100a294939291906102ed565b60405180910390f35b6100b36101a0565b6040516100c09190610330565b60405180910390f35b6100d16101a6565b6040516100de9190610330565b60405180910390f35b6100ef6101ab565b6040516100ff94939291906102ed565b60405180910390f35b6101106101c8565b60405161012094939291906102ed565b60405180910390f35b610131610215565b60405161013e9190610330565b60405180910390f35b61014f61021b565b60405161015f94939291906102ed565b60405180910390f35b610170610235565b60405161017d9190610330565b60405180910390f35b5f805f8061019261023b565b935093509350935090919293565b60015481565b5f5481565b5f805f805f54600154600254600354935093509350935090919293565b5f805f8060195f546101da9190610376565b60196001546101e99190610376565b60196002546101f89190610376565b60196003546102079190610376565b935093509350935090919293565b60025481565b5f805f80610227610288565b935093509350935090919293565b60035481565b5f805f80600a5f5461024d9190610376565b600a60015461025c9190610376565b600a60025461026b9190610376565b600a60035461027a9190610376565b935093509350935090919293565b5f805f80600f5f5461029a9190610376565b600f6001546102a99190610376565b600f6002546102b89190610376565b600f6003546102c79190610376565b935093509350935090919293565b5f819050919050565b6102e7816102d5565b82525050565b5f6080820190506103005f8301876102de565b61030d60208301866102de565b61031a60408301856102de565b61032760608301846102de565b95945050505050565b5f6020820190506103435f8301846102de565b92915050565b7f4e487b71000000000000000000000000000000000000000000000000000000005f52601160045260245ffd5b5f610380826102d5565b915061038b836102d5565b9250828202610399816102d5565b915082820484148315176103b0576103af610349565b5b509291505056fea26469706673582212203658fb2be8c43f75e99de91b198c8949d26755d99a349fb893e5b3f361bc8fa664736f6c634300081a0033",
			"opcodes": "PUSH1 0x80 PUSH1 0x40 MSTORE PUSH2 0x3E8 PUSH0 SSTORE PUSH2 0x1F4 PUSH1 0x1 SSTORE PUSH2 0x7D0 PUSH1 0x2 SSTORE PUSH2 0xBB8 PUSH1 0x3 SSTORE CALLVALUE DUP1 ISZERO PUSH1 0x25 JUMPI PUSH0 DUP1 REVERT JUMPDEST POP PUSH2 0x3ED DUP1 PUSH2 0x33 PUSH0 CODECOPY PUSH0 RETURN INVALID PUSH1 0x80 PUSH1 0x40 MSTORE CALLVALUE DUP1 ISZERO PUSH2 0xF JUMPI PUSH0 DUP1 REVERT JUMPDEST POP PUSH1 0x4 CALLDATASIZE LT PUSH2 0x86 JUMPI PUSH0 CALLDATALOAD PUSH1 0xE0 SHR DUP1 PUSH4 0xBF5B11AC GT PUSH2 0x59 JUMPI DUP1 PUSH4 0xBF5B11AC EQ PUSH2 0x108 JUMPI DUP1 PUSH4 0xBFDD4AD4 EQ PUSH2 0x129 JUMPI DUP1 PUSH4 0xC48216D2 EQ PUSH2 0x147 JUMPI DUP1 PUSH4 0xF4854F1E EQ PUSH2 0x168 JUMPI PUSH2 0x86 JUMP JUMPDEST DUP1 PUSH4 0x3BEAFB6B EQ PUSH2 0x8A JUMPI DUP1 PUSH4 0x76E5DBC1 EQ PUSH2 0xAB JUMPI DUP1 PUSH4 0x7F580220 EQ PUSH2 0xC9 JUMPI DUP1 PUSH4 0xB49F4AFD EQ PUSH2 0xE7 JUMPI JUMPDEST PUSH0 DUP1 REVERT JUMPDEST PUSH2 0x92 PUSH2 0x186 JUMP JUMPDEST PUSH1 0x40 MLOAD PUSH2 0xA2 SWAP5 SWAP4 SWAP3 SWAP2 SWAP1 PUSH2 0x2ED JUMP JUMPDEST PUSH1 0x40 MLOAD DUP1 SWAP2 SUB SWAP1 RETURN JUMPDEST PUSH2 0xB3 PUSH2 0x1A0 JUMP JUMPDEST PUSH1 0x40 MLOAD PUSH2 0xC0 SWAP2 SWAP1 PUSH2 0x330 JUMP JUMPDEST PUSH1 0x40 MLOAD DUP1 SWAP2 SUB SWAP1 RETURN JUMPDEST PUSH2 0xD1 PUSH2 0x1A6 JUMP JUMPDEST PUSH1 0x40 MLOAD PUSH2 0xDE SWAP2 SWAP1 PUSH2 0x330 JUMP JUMPDEST PUSH1 0x40 MLOAD DUP1 SWAP2 SUB SWAP1 RETURN JUMPDEST PUSH2 0xEF PUSH2 0x1AB JUMP JUMPDEST PUSH1 0x40 MLOAD PUSH2 0xFF SWAP5 SWAP4 SWAP3 SWAP2 SWAP1 PUSH2 0x2ED JUMP JUMPDEST PUSH1 0x40 MLOAD DUP1 SWAP2 SUB SWAP1 RETURN JUMPDEST PUSH2 0x110 PUSH2 0x1C8 JUMP JUMPDEST PUSH1 0x40 MLOAD PUSH2 0x120 SWAP5 SWAP4 SWAP3 SWAP2 SWAP1 PUSH2 0x2ED JUMP JUMPDEST PUSH1 0x40 MLOAD DUP1 SWAP2 SUB SWAP1 RETURN JUMPDEST PUSH2 0x131 PUSH2 0x215 JUMP JUMPDEST PUSH1 0x40 MLOAD PUSH2 0x13E SWAP2 SWAP1 PUSH2 0x330 JUMP JUMPDEST PUSH1 0x40 MLOAD DUP1 SWAP2 SUB SWAP1 RETURN JUMPDEST PUSH2 0x14F PUSH2 0x21B JUMP JUMPDEST PUSH1 0x40 MLOAD PUSH2 0x15F SWAP5 SWAP4 SWAP3 SWAP2 SWAP1 PUSH2 0x2ED JUMP JUMPDEST PUSH1 0x40 MLOAD DUP1 SWAP2 SUB SWAP1 RETURN JUMPDEST PUSH2 0x170 PUSH2 0x235 JUMP JUMPDEST PUSH1 0x40 MLOAD PUSH2 0x17D SWAP2 SWAP1 PUSH2 0x330 JUMP JUMPDEST PUSH1 0x40 MLOAD DUP1 SWAP2 SUB SWAP1 RETURN JUMPDEST PUSH0 DUP1 PUSH0 DUP1 PUSH2 0x192 PUSH2 0x23B JUMP JUMPDEST SWAP4 POP SWAP4 POP SWAP4 POP SWAP4 POP SWAP1 SWAP2 SWAP3 SWAP4 JUMP JUMPDEST PUSH1 0x1 SLOAD DUP2 JUMP JUMPDEST PUSH0 SLOAD DUP2 JUMP JUMPDEST PUSH0 DUP1 PUSH0 DUP1 PUSH0 SLOAD PUSH1 0x1 SLOAD PUSH1 0x2 SLOAD PUSH1 0x3 SLOAD SWAP4 POP SWAP4 POP SWAP4 POP SWAP4 POP SWAP1 SWAP2 SWAP3 SWAP4 JUMP JUMPDEST PUSH0 DUP1 PUSH0 DUP1 PUSH1 0x19 PUSH0 SLOAD PUSH2 0x1DA SWAP2 SWAP1 PUSH2 0x376 JUMP JUMPDEST PUSH1 0x19 PUSH1 0x1 SLOAD PUSH2 0x1E9 SWAP2 SWAP1 PUSH2 0x376 JUMP JUMPDEST PUSH1 0x19 PUSH1 0x2 SLOAD PUSH2 0x1F8 SWAP2 SWAP1 PUSH2 0x376 JUMP JUMPDEST PUSH1 0x19 PUSH1 0x3 SLOAD PUSH2 0x207 SWAP2 SWAP1 PUSH2 0x376 JUMP JUMPDEST SWAP4 POP SWAP4 POP SWAP4 POP SWAP4 POP SWAP1 SWAP2 SWAP3 SWAP4 JUMP JUMPDEST PUSH1 0x2 SLOAD DUP2 JUMP JUMPDEST PUSH0 DUP1 PUSH0 DUP1 PUSH2 0x227 PUSH2 0x288 JUMP JUMPDEST SWAP4 POP SWAP4 POP SWAP4 POP SWAP4 POP SWAP1 SWAP2 SWAP3 SWAP4 JUMP JUMPDEST PUSH1 0x3 SLOAD DUP2 JUMP JUMPDEST PUSH0 DUP1 PUSH0 DUP1 PUSH1 0xA PUSH0 SLOAD PUSH2 0x24D SWAP2 SWAP1 PUSH2 0x376 JUMP JUMPDEST PUSH1 0xA PUSH1 0x1 SLOAD PUSH2 0x25C SWAP2 SWAP1 PUSH2 0x376 JUMP JUMPDEST PUSH1 0xA PUSH1 0x2 SLOAD PUSH2 0x26B SWAP2 SWAP1 PUSH2 0x376 JUMP JUMPDEST PUSH1 0xA PUSH1 0x3 SLOAD PUSH2 0x27A SWAP2 SWAP1 PUSH2 0x376 JUMP JUMPDEST SWAP4 POP SWAP4 POP SWAP4 POP SWAP4 POP SWAP1 SWAP2 SWAP3 SWAP4 JUMP JUMPDEST PUSH0 DUP1 PUSH0 DUP1 PUSH1 0xF PUSH0 SLOAD PUSH2 0x29A SWAP2 SWAP1 PUSH2 0x376 JUMP JUMPDEST PUSH1 0xF PUSH1 0x1 SLOAD PUSH2 0x2A9 SWAP2 SWAP1 PUSH2 0x376 JUMP JUMPDEST PUSH1 0xF PUSH1 0x2 SLOAD PUSH2 0x2B8 SWAP2 SWAP1 PUSH2 0x376 JUMP JUMPDEST PUSH1 0xF PUSH1 0x3 SLOAD PUSH2 0x2C7 SWAP2 SWAP1 PUSH2 0x376 JUMP JUMPDEST SWAP4 POP SWAP4 POP SWAP4 POP SWAP4 POP SWAP1 SWAP2 SWAP3 SWAP4 JUMP JUMPDEST PUSH0 DUP2 SWAP1 POP SWAP2 SWAP1 POP JUMP JUMPDEST PUSH2 0x2E7 DUP2 PUSH2 0x2D5 JUMP JUMPDEST DUP3 MSTORE POP POP JUMP JUMPDEST PUSH0 PUSH1 0x80 DUP3 ADD SWAP1 POP PUSH2 0x300 PUSH0 DUP4 ADD DUP8 PUSH2 0x2DE JUMP JUMPDEST PUSH2 0x30D PUSH1 0x20 DUP4 ADD DUP7 PUSH2 0x2DE JUMP JUMPDEST PUSH2 0x31A PUSH1 0x40 DUP4 ADD DUP6 PUSH2 0x2DE JUMP JUMPDEST PUSH2 0x327 PUSH1 0x60 DUP4 ADD DUP5 PUSH2 0x2DE JUMP JUMPDEST SWAP6 SWAP5 POP POP POP POP POP JUMP JUMPDEST PUSH0 PUSH1 0x20 DUP3 ADD SWAP1 POP PUSH2 0x343 PUSH0 DUP4 ADD DUP5 PUSH2 0x2DE JUMP JUMPDEST SWAP3 SWAP2 POP POP JUMP JUMPDEST PUSH32 0x4E487B7100000000000000000000000000000000000000000000000000000000 PUSH0 MSTORE PUSH1 0x11 PUSH1 0x4 MSTORE PUSH1 0x24 PUSH0 REVERT JUMPDEST PUSH0 PUSH2 0x380 DUP3 PUSH2 0x2D5 JUMP JUMPDEST SWAP2 POP PUSH2 0x38B DUP4 PUSH2 0x2D5 JUMP JUMPDEST SWAP3 POP DUP3 DUP3 MUL PUSH2 0x399 DUP2 PUSH2 0x2D5 JUMP JUMPDEST SWAP2 POP DUP3 DUP3 DIV DUP5 EQ DUP4 ISZERO OR PUSH2 0x3B0 JUMPI PUSH2 0x3AF PUSH2 0x349 JUMP JUMPDEST JUMPDEST POP SWAP3 SWAP2 POP POP JUMP INVALID LOG2 PUSH5 0x6970667358 0x22 SLT KECCAK256 CALLDATASIZE PC 0xFB 0x2B 0xE8 0xC4 EXTCODEHASH PUSH22 0xE99DE91B198C8949D26755D99A349FB893E5B3F361BC DUP16 0xA6 PUSH5 0x736F6C6343 STOP ADDMOD BYTE STOP CALLER "
		},
		"gasEstimates": {
			"creation": {
				"codeDepositCost": "201000",
				"executionCost": "88666",
				"totalCost": "289666"
			},
			"external": {
				"IkoroduStorePrice()": "infinite",
				"getAllPrice()": "infinite",
				"getBasePrice()": "infinite",
				"getMainLandStorePrice()": "infinite",
				"priceOfBottle()": "2448",
				"priceOfBurger()": "2447",
				"priceOfRice()": "2469",
				"priceOfShawarma()": "2491"
			}
		},
		"methodIdentifiers": {
			"IkoroduStorePrice()": "3beafb6b",
			"getAllPrice()": "bf5b11ac",
			"getBasePrice()": "b49f4afd",
			"getMainLandStorePrice()": "c48216d2",
			"priceOfBottle()": "76e5dbc1",
			"priceOfBurger()": "bfdd4ad4",
			"priceOfRice()": "7f580220",
			"priceOfShawarma()": "f4854f1e"
		}
	},
	"abi": [
		{
			"inputs": [],
			"name": "IkoroduStorePrice",
			"outputs": [
				{
					"internalType": "uint256",
					"name": "",
					"type": "uint256"
				},
				{
					"internalType": "uint256",
					"name": "",
					"type": "uint256"
				},
				{
					"internalType": "uint256",
					"name": "",
					"type": "uint256"
				},
				{
					"internalType": "uint256",
					"name": "",
					"type": "uint256"
				}
			],
			"stateMutability": "view",
			"type": "function"
		},
		{
			"inputs": [],
			"name": "getAllPrice",
			"outputs": [
				{
					"internalType": "uint256",
					"name": "",
					"type": "uint256"
				},
				{
					"internalType": "uint256",
					"name": "",
					"type": "uint256"
				},
				{
					"internalType": "uint256",
					"name": "",
					"type": "uint256"
				},
				{
					"internalType": "uint256",
					"name": "",
					"type": "uint256"
				}
			],
			"stateMutability": "view",
			"type": "function"
		},
		{
			"inputs": [],
			"name": "getBasePrice",
			"outputs": [
				{
					"internalType": "uint256",
					"name": "",
					"type": "uint256"
				},
				{
					"internalType": "uint256",
					"name": "",
					"type": "uint256"
				},
				{
					"internalType": "uint256",
					"name": "",
					"type": "uint256"
				},
				{
					"internalType": "uint256",
					"name": "",
					"type": "uint256"
				}
			],
			"stateMutability": "view",
			"type": "function"
		},
		{
			"inputs": [],
			"name": "getMainLandStorePrice",
			"outputs": [
				{
					"internalType": "uint256",
					"name": "",
					"type": "uint256"
				},
				{
					"internalType": "uint256",
					"name": "",
					"type": "uint256"
				},
				{
					"internalType": "uint256",
					"name": "",
					"type": "uint256"
				},
				{
					"internalType": "uint256",
					"name": "",
					"type": "uint256"
				}
			],
			"stateMutability": "view",
			"type": "function"
		},
		{
			"inputs": [],
			"name": "priceOfBottle",
			"outputs": [
				{
					"internalType": "uint256",
					"name": "",
					"type": "uint256"
				}
			],
			"stateMutability": "view",
			"type": "function"
		},
		{
			"inputs": [],
			"name": "priceOfBurger",
			"outputs": [
				{
					"internalType": "uint256",
					"name": "",
					"type": "uint256"
				}
			],
			"stateMutability": "view",
			"type": "function"
		},
		{
			"inputs": [],
			"name": "priceOfRice",
			"outputs": [
				{
					"internalType": "uint256",
					"name": "",
					"type": "uint256"
				}
			],
			"stateMutability": "view",
			"type": "function"
		},
		{
			"inputs": [],
			"name": "priceOfShawarma",
			"outputs": [
				{
					"internalType": "uint256",
					"name": "",
					"type": "uint256"
				}
			],
			"stateMutability": "view",
			"type": "function"
		}
	]
}