{
	"data": {
		"bytecode": {
			"linkReferences": {},
			"object": "60806040526103e85f556101f46001556107d06002556105dc600355600a600455600f60055560196006553480156034575f80fd5b5061045a806100425f395ff3fe608060405234801561000f575f80fd5b50600436106100a7575f3560e01c8063b97ae67e1161006f578063b97ae67e14610141578063bfdd4ad41461015f578063c06fad061461017d578063f2a4a82e1461019b578063f4854f1e146101b9578063ffcee7c2146101d7576100a7565b806347611d04146100ab57806376e5dbc1146100c95780637bb98a68146100e7578063aa8c217c14610105578063b69ef8a814610123575b5f80fd5b6100b36101f5565b6040516100c0919061039d565b60405180910390f35b6100d16101fa565b6040516100de919061039d565b60405180910390f35b6100ef610200565b6040516100fc919061039d565b60405180910390f35b61010d61021b565b60405161011a919061039d565b60405180910390f35b61012b610236565b604051610138919061039d565b60405180910390f35b610149610251565b604051610156919061039d565b60405180910390f35b61016761026c565b604051610174919061039d565b60405180910390f35b610185610272565b604051610192919061039d565b60405180910390f35b6101a3610278565b6040516101b0919061039d565b60405180910390f35b6101c161027e565b6040516101ce919061039d565b60405180910390f35b6101df610284565b6040516101ec919061039d565b60405180910390f35b5f5481565b60015481565b5f60065461020c61028a565b61021691906103e3565b905090565b5f6006546102276102a5565b61023191906103e3565b905090565b5f6006546102426102c0565b61024c91906103e3565b905090565b5f60065461025d6102db565b61026791906103e3565b905090565b60025481565b60065481565b60045481565b60035481565b60055481565b5f6005546102966102f6565b6102a091906103e3565b905090565b5f6005546102b1610311565b6102bb91906103e3565b905090565b5f6005546102cc61032c565b6102d691906103e3565b905090565b5f6005546102e7610347565b6102f191906103e3565b905090565b5f600454610302610362565b61030c91906103e3565b905090565b5f60045461031d61036b565b61032791906103e3565b905090565b5f600454610338610374565b61034291906103e3565b905090565b5f60045461035361037c565b61035d91906103e3565b905090565b5f600254905090565b5f600354905090565b5f8054905090565b5f600154905090565b5f819050919050565b61039781610385565b82525050565b5f6020820190506103b05f83018461038e565b92915050565b7f4e487b71000000000000000000000000000000000000000000000000000000005f52601160045260245ffd5b5f6103ed82610385565b91506103f883610385565b925082820261040681610385565b9150828204841483151761041d5761041c6103b6565b5b509291505056fea26469706673582212208b4bb0683cd153af87e6e53b605f912792a945d4e9ec78f9cd3db9ad5780c35c64736f6c634300081a0033",
			"opcodes": "PUSH1 0x80 PUSH1 0x40 MSTORE PUSH2 0x3E8 PUSH0 SSTORE PUSH2 0x1F4 PUSH1 0x1 SSTORE PUSH2 0x7D0 PUSH1 0x2 SSTORE PUSH2 0x5DC PUSH1 0x3 SSTORE PUSH1 0xA PUSH1 0x4 SSTORE PUSH1 0xF PUSH1 0x5 SSTORE PUSH1 0x19 PUSH1 0x6 SSTORE CALLVALUE DUP1 ISZERO PUSH1 0x34 JUMPI PUSH0 DUP1 REVERT JUMPDEST POP PUSH2 0x45A DUP1 PUSH2 0x42 PUSH0 CODECOPY PUSH0 RETURN INVALID PUSH1 0x80 PUSH1 0x40 MSTORE CALLVALUE DUP1 ISZERO PUSH2 0xF JUMPI PUSH0 DUP1 REVERT JUMPDEST POP PUSH1 0x4 CALLDATASIZE LT PUSH2 0xA7 JUMPI PUSH0 CALLDATALOAD PUSH1 0xE0 SHR DUP1 PUSH4 0xB97AE67E GT PUSH2 0x6F JUMPI DUP1 PUSH4 0xB97AE67E EQ PUSH2 0x141 JUMPI DUP1 PUSH4 0xBFDD4AD4 EQ PUSH2 0x15F JUMPI DUP1 PUSH4 0xC06FAD06 EQ PUSH2 0x17D JUMPI DUP1 PUSH4 0xF2A4A82E EQ PUSH2 0x19B JUMPI DUP1 PUSH4 0xF4854F1E EQ PUSH2 0x1B9 JUMPI DUP1 PUSH4 0xFFCEE7C2 EQ PUSH2 0x1D7 JUMPI PUSH2 0xA7 JUMP JUMPDEST DUP1 PUSH4 0x47611D04 EQ PUSH2 0xAB JUMPI DUP1 PUSH4 0x76E5DBC1 EQ PUSH2 0xC9 JUMPI DUP1 PUSH4 0x7BB98A68 EQ PUSH2 0xE7 JUMPI DUP1 PUSH4 0xAA8C217C EQ PUSH2 0x105 JUMPI DUP1 PUSH4 0xB69EF8A8 EQ PUSH2 0x123 JUMPI JUMPDEST PUSH0 DUP1 REVERT JUMPDEST PUSH2 0xB3 PUSH2 0x1F5 JUMP JUMPDEST PUSH1 0x40 MLOAD PUSH2 0xC0 SWAP2 SWAP1 PUSH2 0x39D JUMP JUMPDEST PUSH1 0x40 MLOAD DUP1 SWAP2 SUB SWAP1 RETURN JUMPDEST PUSH2 0xD1 PUSH2 0x1FA JUMP JUMPDEST PUSH1 0x40 MLOAD PUSH2 0xDE SWAP2 SWAP1 PUSH2 0x39D JUMP JUMPDEST PUSH1 0x40 MLOAD DUP1 SWAP2 SUB SWAP1 RETURN JUMPDEST PUSH2 0xEF PUSH2 0x200 JUMP JUMPDEST PUSH1 0x40 MLOAD PUSH2 0xFC SWAP2 SWAP1 PUSH2 0x39D JUMP JUMPDEST PUSH1 0x40 MLOAD DUP1 SWAP2 SUB SWAP1 RETURN JUMPDEST PUSH2 0x10D PUSH2 0x21B JUMP JUMPDEST PUSH1 0x40 MLOAD PUSH2 0x11A SWAP2 SWAP1 PUSH2 0x39D JUMP JUMPDEST PUSH1 0x40 MLOAD DUP1 SWAP2 SUB SWAP1 RETURN JUMPDEST PUSH2 0x12B PUSH2 0x236 JUMP JUMPDEST PUSH1 0x40 MLOAD PUSH2 0x138 SWAP2 SWAP1 PUSH2 0x39D JUMP JUMPDEST PUSH1 0x40 MLOAD DUP1 SWAP2 SUB SWAP1 RETURN JUMPDEST PUSH2 0x149 PUSH2 0x251 JUMP JUMPDEST PUSH1 0x40 MLOAD PUSH2 0x156 SWAP2 SWAP1 PUSH2 0x39D JUMP JUMPDEST PUSH1 0x40 MLOAD DUP1 SWAP2 SUB SWAP1 RETURN JUMPDEST PUSH2 0x167 PUSH2 0x26C JUMP JUMPDEST PUSH1 0x40 MLOAD PUSH2 0x174 SWAP2 SWAP1 PUSH2 0x39D JUMP JUMPDEST PUSH1 0x40 MLOAD DUP1 SWAP2 SUB SWAP1 RETURN JUMPDEST PUSH2 0x185 PUSH2 0x272 JUMP JUMPDEST PUSH1 0x40 MLOAD PUSH2 0x192 SWAP2 SWAP1 PUSH2 0x39D JUMP JUMPDEST PUSH1 0x40 MLOAD DUP1 SWAP2 SUB SWAP1 RETURN JUMPDEST PUSH2 0x1A3 PUSH2 0x278 JUMP JUMPDEST PUSH1 0x40 MLOAD PUSH2 0x1B0 SWAP2 SWAP1 PUSH2 0x39D JUMP JUMPDEST PUSH1 0x40 MLOAD DUP1 SWAP2 SUB SWAP1 RETURN JUMPDEST PUSH2 0x1C1 PUSH2 0x27E JUMP JUMPDEST PUSH1 0x40 MLOAD PUSH2 0x1CE SWAP2 SWAP1 PUSH2 0x39D JUMP JUMPDEST PUSH1 0x40 MLOAD DUP1 SWAP2 SUB SWAP1 RETURN JUMPDEST PUSH2 0x1DF PUSH2 0x284 JUMP JUMPDEST PUSH1 0x40 MLOAD PUSH2 0x1EC SWAP2 SWAP1 PUSH2 0x39D JUMP JUMPDEST PUSH1 0x40 MLOAD DUP1 SWAP2 SUB SWAP1 RETURN JUMPDEST PUSH0 SLOAD DUP2 JUMP JUMPDEST PUSH1 0x1 SLOAD DUP2 JUMP JUMPDEST PUSH0 PUSH1 0x6 SLOAD PUSH2 0x20C PUSH2 0x28A JUMP JUMPDEST PUSH2 0x216 SWAP2 SWAP1 PUSH2 0x3E3 JUMP JUMPDEST SWAP1 POP SWAP1 JUMP JUMPDEST PUSH0 PUSH1 0x6 SLOAD PUSH2 0x227 PUSH2 0x2A5 JUMP JUMPDEST PUSH2 0x231 SWAP2 SWAP1 PUSH2 0x3E3 JUMP JUMPDEST SWAP1 POP SWAP1 JUMP JUMPDEST PUSH0 PUSH1 0x6 SLOAD PUSH2 0x242 PUSH2 0x2C0 JUMP JUMPDEST PUSH2 0x24C SWAP2 SWAP1 PUSH2 0x3E3 JUMP JUMPDEST SWAP1 POP SWAP1 JUMP JUMPDEST PUSH0 PUSH1 0x6 SLOAD PUSH2 0x25D PUSH2 0x2DB JUMP JUMPDEST PUSH2 0x267 SWAP2 SWAP1 PUSH2 0x3E3 JUMP JUMPDEST SWAP1 POP SWAP1 JUMP JUMPDEST PUSH1 0x2 SLOAD DUP2 JUMP JUMPDEST PUSH1 0x6 SLOAD DUP2 JUMP JUMPDEST PUSH1 0x4 SLOAD DUP2 JUMP JUMPDEST PUSH1 0x3 SLOAD DUP2 JUMP JUMPDEST PUSH1 0x5 SLOAD DUP2 JUMP JUMPDEST PUSH0 PUSH1 0x5 SLOAD PUSH2 0x296 PUSH2 0x2F6 JUMP JUMPDEST PUSH2 0x2A0 SWAP2 SWAP1 PUSH2 0x3E3 JUMP JUMPDEST SWAP1 POP SWAP1 JUMP JUMPDEST PUSH0 PUSH1 0x5 SLOAD PUSH2 0x2B1 PUSH2 0x311 JUMP JUMPDEST PUSH2 0x2BB SWAP2 SWAP1 PUSH2 0x3E3 JUMP JUMPDEST SWAP1 POP SWAP1 JUMP JUMPDEST PUSH0 PUSH1 0x5 SLOAD PUSH2 0x2CC PUSH2 0x32C JUMP JUMPDEST PUSH2 0x2D6 SWAP2 SWAP1 PUSH2 0x3E3 JUMP JUMPDEST SWAP1 POP SWAP1 JUMP JUMPDEST PUSH0 PUSH1 0x5 SLOAD PUSH2 0x2E7 PUSH2 0x347 JUMP JUMPDEST PUSH2 0x2F1 SWAP2 SWAP1 PUSH2 0x3E3 JUMP JUMPDEST SWAP1 POP SWAP1 JUMP JUMPDEST PUSH0 PUSH1 0x4 SLOAD PUSH2 0x302 PUSH2 0x362 JUMP JUMPDEST PUSH2 0x30C SWAP2 SWAP1 PUSH2 0x3E3 JUMP JUMPDEST SWAP1 POP SWAP1 JUMP JUMPDEST PUSH0 PUSH1 0x4 SLOAD PUSH2 0x31D PUSH2 0x36B JUMP JUMPDEST PUSH2 0x327 SWAP2 SWAP1 PUSH2 0x3E3 JUMP JUMPDEST SWAP1 POP SWAP1 JUMP JUMPDEST PUSH0 PUSH1 0x4 SLOAD PUSH2 0x338 PUSH2 0x374 JUMP JUMPDEST PUSH2 0x342 SWAP2 SWAP1 PUSH2 0x3E3 JUMP JUMPDEST SWAP1 POP SWAP1 JUMP JUMPDEST PUSH0 PUSH1 0x4 SLOAD PUSH2 0x353 PUSH2 0x37C JUMP JUMPDEST PUSH2 0x35D SWAP2 SWAP1 PUSH2 0x3E3 JUMP JUMPDEST SWAP1 POP SWAP1 JUMP JUMPDEST PUSH0 PUSH1 0x2 SLOAD SWAP1 POP SWAP1 JUMP JUMPDEST PUSH0 PUSH1 0x3 SLOAD SWAP1 POP SWAP1 JUMP JUMPDEST PUSH0 DUP1 SLOAD SWAP1 POP SWAP1 JUMP JUMPDEST PUSH0 PUSH1 0x1 SLOAD SWAP1 POP SWAP1 JUMP JUMPDEST PUSH0 DUP2 SWAP1 POP SWAP2 SWAP1 POP JUMP JUMPDEST PUSH2 0x397 DUP2 PUSH2 0x385 JUMP JUMPDEST DUP3 MSTORE POP POP JUMP JUMPDEST PUSH0 PUSH1 0x20 DUP3 ADD SWAP1 POP PUSH2 0x3B0 PUSH0 DUP4 ADD DUP5 PUSH2 0x38E JUMP JUMPDEST SWAP3 SWAP2 POP POP JUMP JUMPDEST PUSH32 0x4E487B7100000000000000000000000000000000000000000000000000000000 PUSH0 MSTORE PUSH1 0x11 PUSH1 0x4 MSTORE PUSH1 0x24 PUSH0 REVERT JUMPDEST PUSH0 PUSH2 0x3ED DUP3 PUSH2 0x385 JUMP JUMPDEST SWAP2 POP PUSH2 0x3F8 DUP4 PUSH2 0x385 JUMP JUMPDEST SWAP3 POP DUP3 DUP3 MUL PUSH2 0x406 DUP2 PUSH2 0x385 JUMP JUMPDEST SWAP2 POP DUP3 DUP3 DIV DUP5 EQ DUP4 ISZERO OR PUSH2 0x41D JUMPI PUSH2 0x41C PUSH2 0x3B6 JUMP JUMPDEST JUMPDEST POP SWAP3 SWAP2 POP POP JUMP INVALID LOG2 PUSH5 0x6970667358 0x22 SLT KECCAK256 DUP12 0x4B 0xB0 PUSH9 0x3CD153AF87E6E53B60 PUSH0 SWAP2 0x27 SWAP3 0xA9 GASLIMIT 0xD4 0xE9 0xEC PUSH25 0xF9CD3DB9AD5780C35C64736F6C634300081A00330000000000 "
		},
		"gasEstimates": {
			"creation": {
				"codeDepositCost": "222800",
				"executionCost": "155002",
				"totalCost": "377802"
			},
			"external": {
				"EachItem()": "2535",
				"amount()": "infinite",
				"balance()": "infinite",
				"balanced()": "infinite",
				"balances()": "infinite",
				"item()": "2491",
				"items()": "2469",
				"plateOfRice()": "2425",
				"priceOfBottle()": "2448",
				"priceOfBurger()": "2447",
				"priceOfShawarma()": "2513"
			}
		},
		"methodIdentifiers": {
			"EachItem()": "ffcee7c2",
			"amount()": "aa8c217c",
			"balance()": "b69ef8a8",
			"balanced()": "b97ae67e",
			"balances()": "7bb98a68",
			"item()": "f2a4a82e",
			"items()": "c06fad06",
			"plateOfRice()": "47611d04",
			"priceOfBottle()": "76e5dbc1",
			"priceOfBurger()": "bfdd4ad4",
			"priceOfShawarma()": "f4854f1e"
		}
	},
	"abi": [
		{
			"inputs": [],
			"name": "EachItem",
			"outputs": [
				{
					"internalType": "uint256",
					"name": "",
					"type": "uint256"
				}
			],
			"stateMutability": "view",
			"type": "function"
		},
		{
			"inputs": [],
			"name": "amount",
			"outputs": [
				{
					"internalType": "uint256",
					"name": "",
					"type": "uint256"
				}
			],
			"stateMutability": "view",
			"type": "function"
		},
		{
			"inputs": [],
			"name": "balance",
			"outputs": [
				{
					"internalType": "uint256",
					"name": "",
					"type": "uint256"
				}
			],
			"stateMutability": "view",
			"type": "function"
		},
		{
			"inputs": [],
			"name": "balanced",
			"outputs": [
				{
					"internalType": "uint256",
					"name": "",
					"type": "uint256"
				}
			],
			"stateMutability": "view",
			"type": "function"
		},
		{
			"inputs": [],
			"name": "balances",
			"outputs": [
				{
					"internalType": "uint256",
					"name": "",
					"type": "uint256"
				}
			],
			"stateMutability": "view",
			"type": "function"
		},
		{
			"inputs": [],
			"name": "item",
			"outputs": [
				{
					"internalType": "uint256",
					"name": "",
					"type": "uint256"
				}
			],
			"stateMutability": "view",
			"type": "function"
		},
		{
			"inputs": [],
			"name": "items",
			"outputs": [
				{
					"internalType": "uint256",
					"name": "",
					"type": "uint256"
				}
			],
			"stateMutability": "view",
			"type": "function"
		},
		{
			"inputs": [],
			"name": "plateOfRice",
			"outputs": [
				{
					"internalType": "uint256",
					"name": "",
					"type": "uint256"
				}
			],
			"stateMutability": "view",
			"type": "function"
		},
		{
			"inputs": [],
			"name": "priceOfBottle",
			"outputs": [
				{
					"internalType": "uint256",
					"name": "",
					"type": "uint256"
				}
			],
			"stateMutability": "view",
			"type": "function"
		},
		{
			"inputs": [],
			"name": "priceOfBurger",
			"outputs": [
				{
					"internalType": "uint256",
					"name": "",
					"type": "uint256"
				}
			],
			"stateMutability": "view",
			"type": "function"
		},
		{
			"inputs": [],
			"name": "priceOfShawarma",
			"outputs": [
				{
					"internalType": "uint256",
					"name": "",
					"type": "uint256"
				}
			],
			"stateMutability": "view",
			"type": "function"
		}
	]
}